:100000000C9477020C94D5710C9406720C94377290
:100010000C9468720C9499720C94CA720C94FB72D2
:100020000C942C730C94A1020C94A1020C94A102C8
:100030000C94A1020C94A1020C94A1020C94B13D69
:100040000C94A1020C94A1020C94A1020C94A102A4
:100050000C94A1020C94A1020C94A1020C94E73D13
:100060000C94A1020C94B46E0C94A1020C94A10205
:100070000C94A1020C94A1020C94A1020C94A10274
:100080000C94A1020C94A1020C94A1020C94A10264
:100090000C94EC380C94A1020C94A1020C94A102D3
:1000A0000C94A1020C94A1020C94A1020C94A10244
:1000B0000C94A1020C94A1020C94A1020C94A10234
:1000C0000C94A1020C94A1020C94A1020C94E96E70
:1000D0000C94A1020C94A1020C941E6F0C94A1022A
:1000E0000C94A102033A013AFF39FF39FF39FF3975
:1000F000033A013A033A013A013AFF39FF39FF392D
:10010000033A013AFF39FF39FF39FF39033A013A1F
:10011000033A013AFF39FF39FF39FF39FF39FF3917
:10012000033A013A033A013A033A013A033A013AEF
:10013000033A013A033A013AFF39FF39FF39013AEC
:10014000FF39FF39033A133A133A133A173A153A7B
:10015000173A153A153A133A133A133A173A153A29
:10016000133A133A133A133A153A153A153A153A1F
:10017000133A133A133A133A133A133A173A153A11
:10018000173A153A173A153A153A153A153A153AF3
:10019000153A153A153A153A133A153A153A133AEB
:1001A000173A474045404F404F404F404B40454035
:1001B0004F40494049404D404F40494045404940EB
:1001C0004340454049404540454045404540454005
:1001D000454045404540494049404D4045404D40DF
:1001E00045404D404F404F404F404F4045404540B7
:1001F0004F40454047404540454045404F404F40B7
:100200004F4045404F404F404F404F404F404F4080
:100210004D404F404F4045404D404F404D404D4078
:100220004D404F4045404540454045404540434096
:100230004540454047404940454047404F40454084
:1002400045404540454043404540434045404F4080
:100250004F404F404540454045404D4045404D4052
:100260006340654065406740674067406540674060
:10027000634063406740674063406540634065405A
:100280006540634065406540654065406540654048
:100290006540654063406340674065406740654036
:1002A000674067406740674067406540654067401A
:1002B0006540634065406540654067406740674012
:1002C00065406740674067406740674067406740F8
:1002D00067406740654067406740674067406740E8
:1002E00067406540654065406540654065406540E4
:1002F00065406340634065406340674065406540DA
:1003000065406540654065406540654067406740C1
:10031000674065406540654067406540084AD73B97
:100320003BCE016E84BCBFFDC12F3D6C74319ABDC4
:1003300056833DDA3D00C77F11BED9E4BB4C3E91E8
:100340006BAAAABE000000803F07634236B79BD865
:10035000A71A39685618AEBAAB558C1D3CB7CC57A6
:1003600063BD6DEDFD753EF6177231BF0000008074
:100370003F072C7AA5BA6CC590DA3B9365FC8BBC21
:1003800053F810FD3C5692834DBD879D3AB63DCB48
:10039000C9BF5BBE73DA0FC93F05A84CCDB2D44EBE
:1003A000B93836A9020C50B9918688083CA6AAAA89
:1003B0002ABE000000803F00002100240027002A00
:1003C000002D003000330001010000040107010A84
:1003D0000100002200250028002B002E00310034EF
:1003E0000002010000050108010B010000200023AC
:1003F00000260029002C002F00320000010000031D
:100400000106010901050505050705080808080298
:100410000202020A0A08080404040401010101019D
:100420000101010303030303030303040707070C8C
:100430000C0C0C0C0C0C0C02020202060606060642
:100440000606060B0B0B0B0B0B0B0B0102102020EF
:100450000808102040102040800201020108040218
:10046000010102040810204080804020100804028E
:1004700001800402018040201008040201080402E7
:1004800001010204081020408001020408102040ED
:10049000800000090A02080B0C0D07060304010086
:1004A000000000000000000000000000000000004C
:1004B00000000000000000000000000000100F0E0F
:1004C000000000000000000000000000000000002C
:1004D00000000000000000002A0ED30E1B142014A0
:1004E000F43E77401A433B5E007023761343112499
:1004F0001FBECFEFD1E2DEBFCDBF15E0A0E0B2E07E
:10050000E6E2F2E001E00BBF02C007900D92A43BCF
:10051000B107D9F71BE0A4EBB5E001C01D92A13EE5
:10052000B107E1F714E0CCEED4E004C02297FE015D
:100530000E940281C83DD107C9F70E949E700C94A9
:1005400008800C9400000895EF92FF920F931F9380
:10055000CF93DF93EC01042F79019A85960F8B8559
:100560008F5F849F102D1124190F8985181711F49E
:10057000442351F4E881F981A081B1812D913C910E
:10058000CF01612FF9010995E881F981A081B1813D
:1005900014962D913C911597CF01B701402F50E053
:1005A000F90109951987DF91CF911F910F91FF9064
:1005B000EF900895CF93DF93EC01888199810E9499
:1005C000BD6F382F2A85821788F0821B9B8589236F
:1005D0008D83832F90E0821B91090C8402C0959536
:1005E00087950A94E2F78C831E820BC09E818C81D2
:1005F000981738F4EF81F885E90FF11D30839F5F7C
:100600009E83DF91CF910895CF93DF93EC010EC0CD
:10061000CE010E94DA026E818C81681739F44F8115
:100620005885EA81FB818D8109951E828881998197
:100630000E94AC6F181619065CF3DF91CF910895F4
:10064000AF92BF92CF92DF92EF92FF920F935C0135
:10065000CB01F50171836083BA01A9010E94536F38
:10066000202F30E0FF24A701420F531F8FEF90E0AF
:1006700002C0880F991F4A95E2F7F501828781E051
:1006800090E0AC01002E02C0440F551F0A94E2F71F
:100690009A0121502387048702C0880F991FEA948A
:1006A000E2F70E94BC7DF501878390871186D38293
:1006B000C2820F91FF90EF90DF90CF90BF90AF90EC
:1006C0000895482F50E0CA01855B9B4FFC0124919F
:1006D0004B5F5B4FFA0184918823C1F0E82FF0E073
:1006E000EE0FFF1FE954FC4FA591B491662341F42E
:1006F0009FB7F8948C91209582238C939FBF089587
:100700009FB7F8948C91822B8C939FBF089589306A
:1007100009F448C08A30A0F4843049F1853040F4AF
:10072000823071F18330F8F4813009F062C025C065
:10073000873071F1883090F5863009F05AC024C0B6
:100740008D3009F441C08E3028F48B30A9F18C3003
:10075000B8F52CC08F3009F441C08F30D8F180310A
:1007600009F047C041C0809180008F7703C080911D
:1007700080008F7D80938000089584B58F7702C0BC
:1007800084B58F7D84BD08958091B0008F7703C0BC
:100790008091B0008F7D8093B0000895809190008B
:1007A0008F7707C0809190008F7D03C0809190006B
:1007B000877F8093900008958091A0008F7707C075
:1007C0008091A0008F7D03C08091A000877F8093DF
:1007D000A0000895809120018F7703C080912001AF
:1007E0008F7D80932001089580912001877F8093E1
:1007F00020010895FF920F931F93F62E482F50E08B
:10080000CA018F569B4FFC012491CA01855B9B4F07
:10081000FC0114914B5F5B4FFA0104910023D9F066
:10082000222319F0822F0E948703E02FF0E0EE0FC1
:10083000FF1FEF52FC4FA591B491FF2031F49FB7F9
:10084000F8948C911095812304C09FB7F8948C91F3
:10085000812B8C939FBF1F910F91FF9008950F9351
:100860001F93482F50E0CA018F569B4FFC012491E3
:10087000CA01855B9B4FFC0104914B5F5B4FFA0102
:100880001491112319F420E030E015C0222319F04F
:10089000822F0E948703812F90E0880F991F855136
:1008A0009C4FFC01A591B4918C9120E030E0802315
:1008B00011F021E030E0C9011F910F9108950F93CD
:1008C0001F93182F092FFB0150E08DE090E09C0151
:1008D000429FC001439F900D529F900D1124E80F3D
:1008E000F91F212F302FC901DC0134968DE00190D2
:1008F0000D928150E1F7812F902F1F910F91089554
:1009000070E0EDE0F0E0DF016A9FF0016B9FF00D19
:100910007A9FF00D1124E80FF91F24833583468355
:100920005783089570E0EDE0F0E0DF016A9FF00189
:100930006B9FF00D7A9FF00D1124E80FF91F2087AF
:10094000318742875387089570E0EDE0F0E0DF01E2
:100950006A9FF0016B9FF00D7A9FF00D1124E80F54
:10096000F91F2487358746875787089570E02DE063
:1009700030E0629FF001639FF00D729FF00D112433
:10098000E80FF91F408B08959C0124583E4FC90180
:1009900008952F923F924F925F926F927F928F9223
:1009A0009F92AF92BF92CF92DF92EF92FF920F93FE
:1009B0001F93DF93CF93CDB7DEB7C359D0400FB6A7
:1009C000F894DEBF0FBECDBFEB966FAFEB97BE01C5
:1009D0006F5B7F4FDB01AC92FE01EE5BFF4FB0829D
:1009E000FE01ED5BFF4FC082FE01EC5BFF4FD0824A
:1009F000CE018B5B9F4FFC01E082FE01EA5BFF4F63
:100A0000F082FE01E95BFF4F0083FE01E85BFF4FD0
:100A10001083DE01A75BBF4F2C93FE01E65BFF4F07
:100A20003083FE01E55BFF4F4083FE01E45BFF4F37
:100A30005083EC968FAEEC97FB012081318142818F
:100A40005381A5962CAF3DAF4EAF5FAFA597FC018C
:100A50002081318142815381A1962CAF3DAF4EAFB1
:100A60005FAFA1972D913D914D915C916D962CAF0B
:100A70003DAF4EAF5FAF6D97C155DF4F8881998114
:100A8000AA81BB81CF5AD04069968CAF9DAFAEAFE3
:100A9000BFAF6997CD54DF4F288139814A815B818F
:100AA000C35BD04065962CAF3DAF4EAF5FAF65974F
:100AB000C954DF4F88819981AA81BB81C75BD0402F
:100AC00061968CAF9DAFAEAFBFAF6197C255DF4FA0
:100AD0009881CE5AD040692F70E0882777FD8095A5
:100AE000982F0E94EA7A9B01AC0160E070E080E8F8
:100AF0009FE30E941E7AEA966CAF7DAF8EAF9FAFE8
:100B0000EA97C455DF4F68817981CC5AD040882755
:100B100077FD8095982F0E94EA7AEA962CAD3DAD3C
:100B20004EAD5FADEA970E94E87CE6966CAF7DAF74
:100B30008EAF9FAFE6978820B9F420E030E040E028
:100B400050E0E1962CAF3DAF4EAF5FAFE197AD9671
:100B50002CAF3DAF4EAF5FAFAD97A9962CAF3DAF79
:100B60004EAF5FAFA99738C0EB968FADEB970E9461
:100B7000B963F82EC855DF4F688179818A819B81DE
:100B8000C85AD0400E94B77A8B019C01CE01499689
:100B900067ED79E04F2D98010E941C5D89A19AA113
:100BA000ABA1BCA1E1968CAF9DAFAEAFBFAFE1975B
:100BB0002D8D3E8D4F8D58A1AD962CAF3DAF4EAFD4
:100BC0005FAFAD97898D9A8DAB8DBC8DA9968CAF9B
:100BD0009DAFAEAFBFAFA9970F2EF0E04F2EF0E064
:100BE0005F2EF0E06F2EF0E07F2EF02DE2961FAE2C
:100BF000E297C157DF4F1882CF58D040C057DF4F20
:100C00001882C059D040CF56DF4F1882C159D0400A
:100C10003324C457DF4F1882CC58D040C357DF4F1E
:100C20001882CD58D040C257DF4F1882CE58D040DE
:100C30002224C857DF4F1882C858D040C757DF4F0B
:100C40001882C958D040C657DF4F1882CA58D040C2
:100C5000C557DF4F1882CB58D040CC57DF4F188292
:100C6000C458D040CB57DF4F1882C558D040CA5720
:100C7000DF4F1882C658D040C957DF4F1882C75877
:100C8000D040C058DF4F1882C058D040CF57DF4FF8
:100C90001882C158D040CE57DF4F1882C258D0407A
:100CA000CD57DF4F1882C358D040ED961FAEED9759
:100CB000EE961FAEEE97EF961FAEEF97C158DF4F3F
:100CC0001882CF57D040DE01D196CE56DF4FB98380
:100CD000A883C259D04006C2C301B201EA962CAD26
:100CE0003DAD4EAD5FADEA970E9451792B013C01BD
:100CF000EC96BFADEC97BB2309F068C0C857DF4F37
:100D0000E881C858D040CC57DF4FE883C458D04062
:100D1000C757DF4FF881C958D040CB57DF4FF88312
:100D2000C558D040C657DF4F2881CA58D040CA574F
:100D3000DF4F2883C658D040C557DF4F3881CB5886
:100D4000D040C957DF4F3883C758D040C457DF4F12
:100D50004881CC58D040C058DF4F4883C058D0405D
:100D6000C357DF4F5881CD58D040CF57DF4F5883FE
:100D7000C158D040C257DF4F8881CE58D040CE579F
:100D8000DF4F8883C258D040CD57DF4F2882C358E9
:100D9000D040C157DF4F9881CF58D040ED969FAFDC
:100DA000ED97C057DF4FA881C059D040EE96AFAF46
:100DB000EE97CF56DF4FB881C159D040EF96BFAF05
:100DC000EF97C158DF4F3882CF57D040A9966CAD0E
:100DD0007DAD8EAD9FADA99769962CAD3DAD4EAD65
:100DE0005FAD6997A596ECACFDAC0EAD1FADA597B8
:100DF000630152010E94415EC857DF4F6883C858A3
:100E0000D040C757DF4F7883C958D040C657DF4F0F
:100E10008883CA58D040C557DF4F9883CB58D040FD
:100E2000AD966CAD7DAD8EAD9FADAD9765962CAD9D
:100E30003DAD4EAD5FAD6597A196ECACFDAC0EAD92
:100E40001FADA1970E94415EC457DF4F6883CC5805
:100E5000D040C357DF4F7883CD58D040C257DF4FC3
:100E60008883CE58D040292EE1966CAD7DAD8EADF5
:100E70009FADE19761962CAD3DAD4EAD5FAD6197F5
:100E80006D96ECACFDAC0EAD1FAD6D970E94415E52
:100E9000C157DF4F6883CF58D040C057DF4F7883AA
:100EA000C059D040CF56DF4F8883C159D040392E2A
:100EB000482F592FCB01DA0189879A87AB87BC87E6
:100EC000C457DF4F2881CC58D040C357DF4F3881FB
:100ED000CD58D040C257DF4F4881CE58D040522D18
:100EE000C901DA018D839E83AF83B887C857DF4F6E
:100EF0002881C858D040C757DF4F3881C958D040E3
:100F0000C657DF4F4881CA58D040C557DF4F588178
:100F1000CB58D040C901DA0189839A83AB83BC8363
:100F2000CC57DF4F2881C458D040CB57DF4F388192
:100F3000C558D040CA57DF4F4881C658D040C9571E
:100F4000DF4F5881C758D040C901DA018D879E878D
:100F5000AF87B88BC058DF4F2881C058D040CF57DB
:100F6000DF4F3881C158D040CE57DF4F4881C2583B
:100F7000D040CD57DF4F5881C358D040C901DA0166
:100F8000898B9A8BAB8BBC8BED962FADED97EE9644
:100F90003FADEE97EF964FADEF97C158DF4F5881B9
:100FA000CF57D040C901DA018D8B9E8BAF8BB88FA4
:100FB000EDB7FEB73C970FB6F894FEBF0FBEEDBF7E
:100FC000ADB7BEB71196FE013D968CE001900D9233
:100FD0008150E1F7CE018596C980DA80EB80FC80F4
:100FE0000D811E812F81388549855A856B857C85C9
:100FF0000E94735FCE56DF4FA881B981C259D0409D
:10100000E0E11D92EA95E9F7DE01D296FE01B59680
:101010008CE001900D928150E1F7EB96FFADEB97DC
:10102000F9ABE6966CAD7DAD8EAD9FADE6970E94B7
:10103000B77A7FAF6EAFEC962FADEC9721962FAFBE
:1010400021974DB75EB7465F5F4F0FB6F8945EBF0E
:101050000FBE4DBF0DB71EB70F5F1F4FC855DF4FF7
:10106000688179818A819B81C85AD0400E94B77A71
:10107000D8016D937C9387ED99E089A89AA8ABA8D5
:10108000BCA8CDA8DEA8EFA8F8AC09AD1AAD2BAD71
:101090003CAD4DAD5EAD6FAD21967FAD21970E9409
:1010A0000D5CC855DF4F688179818A819B81C85A60
:1010B000D040E6962CAD3DAD4EAD5FADE6970E94BB
:1010C0005179C855DF4F688379838A839B83C85AD7
:1010D000D040E296BFADE297BF5FE296BFAFE29726
:1010E0000F900F90E296EFADE297C255DF4FF88177
:1010F000CE5AD040EF1708F4EFCDCD56DF4F0FB6E4
:10110000F894DEBF0FBECDBFCF91DF911F910F913D
:10111000FF90EF90DF90CF90BF90AF909F908F9017
:101120007F906F905F904F903F902F9008952F92F7
:101130003F924F925F926F927F928F929F92AF9267
:10114000BF92CF92DF92EF92FF920F931F93DF93A4
:10115000CF93CDB7DEB7A0970FB6F894DEBF0FBE22
:10116000CDBF5E8F4D8F19012B0166247724CE01F0
:101170000D9698A38F8FDE011196F2018CE00190FD
:101180000D928150E1F7EF8DF8A180E111928A95DF
:10119000E9F7DE011E96FE0131968CE001900D927A
:1011A0008150E1F781E090E0062C02C0880F991F82
:1011B0000A94E2F78D873B8E2A8E91E09C8F00D0B7
:1011C0008D8D9E8DEDB7FEB79283818387ED99E07B
:1011D0008D849E84AF84B888C988DA88EB88FC88BF
:1011E0000D891E892F89388D498D5A8D6B8D7C8D87
:1011F0000E940D5C0894611C711CECE0F0E04E0E46
:101200005F1E0F900F90F6E06F16710409F0B3CFD8
:10121000A0960FB6F894DEBF0FBECDBFCF91DF9181
:101220001F910F91FF90EF90DF90CF90BF90AF9004
:101230009F908F907F906F905F904F903F902F90F6
:101240000895DC01A458BE4FE5E2F8E088E401907F
:101250000D928150E1F70895DC01A458BE4FFB01C7
:1012600088E401900D928150E1F70895DF93CF93C8
:1012700000D000D000D0CDB7DEB7FC019C012356D2
:101280003F4F42E254E088E0DA010D90AD01D90110
:101290000D929D018150C1F7EB55FF4F80E090E02A
:1012A000A0E0B0E080839183A283B383EF5DFE4F23
:1012B0008AE590E091838083E65CF1409E012F5F98
:1012C0003F4F4CE154E086E0DA010D90AD01D901C9
:1012D0000D929D018150C1F79F0127553F4FAE01EF
:1012E0004F5F5F4F86E0DA010D90AD01D9010D929D
:1012F0009D018150C1F7E155FF4F86E0819381E068
:101300008083EC5EFE4F8083E351F1408FE090E0FC
:1013100081939193819391938CE390E09183808367
:10132000339680E090E0A0E2B1E480839183A283D1
:10133000B383E35FFE4F87E08083E55CF140CF013C
:1013400060E00E94422F26960FB6F894DEBF0FBED3
:10135000CDBFCF91DF9108950F931F938C010E9411
:101360002C09C8010E9436091F910F910895CF9250
:10137000DF92EF92FF920F931F938C016901CB01D3
:10138000BA0126EA3BE944EC5DE30E94E87C9B015C
:10139000AC0160E070E080E89FE30E941E7A0E944A
:1013A000BC7A9B01AC0184ECE82E81E0F82EE00EC3
:1013B000F11EF7012083C801622F70E00E94EB1B31
:1013C0000B531E4FF80181938F01F7016081C60115
:1013D00070E00E94B080F801718360830D5F1F4F41
:1013E00081E0F8018083095C1140C8010E94102F40
:1013F0001F910F91FF90EF90DF90CF9008952F9263
:101400003F924F925F926F927F928F929F92AF9294
:10141000BF92CF92DF92EF92FF920F931F93DF93D1
:10142000CF93CDB7DEB7C95AD0400FB6F894DEBF20
:101430000FBECDBFCA55DF4F99838883C65AD040AF
:10144000962E872EFE01E75BFF4FA082B182C282FB
:10145000D382E482F582068317832087318742870F
:101460005387C653DF4F488059806A807B80CA5CAF
:10147000D040CA52DF4F08811981C65DD040C852A2
:10148000DF4F8881C85DD040882371F4CA55DF4F93
:1014900088819981C65AD040B8010E94EB1BC8527E
:1014A000DF4F8883C85DD040DE011196892D982DCD
:1014B0009C01F90188E401900D928150E1F7C85236
:1014C000DF4F9881C85DD040692F70E0882777FD95
:1014D0008095982F0E94EA7A9B01AC0160E070E051
:1014E00080E89FE30E941E7ACE55DF4F68837983A0
:1014F0008A839B83C25AD040B801882777FD8095A4
:10150000982F0E94EA7ACE55DF4F288139814A818F
:101510005B81C25AD0400E94E87C0E94B77AC056D4
:10152000DF4F79836883C05AD0408E01075B1F4F1D
:10153000D8016D917D918D919C9120E030E040E04B
:1015400050E00E94177A882311F5F80164817581B3
:101550008681978120E030E040E050E00E94177AD9
:101560008823A9F4D80118966D917D918D919C9155
:101570001B9720E030E040E050E00E94177A88237B
:1015800031F4C156DF4F1882CF59D04024C0FE013C
:10159000E75BFF4FCE55DF4F88809980AA80BB80E4
:1015A000C25AD040B7FAB094B7F8B094CF01C08017
:1015B000D180E280F38004811581268137814085C6
:1015C0005185628573850E943660B1E0C156DF4F58
:1015D000B883CF59D040C301B20120E030E040E0F1
:1015E00050E00E94177A882331F5C253DF4F68819B
:1015F00079818A819B81CE5CD04020E030E040E060
:1016000050E00E94177A8823B1F4CE52DF4F6881F0
:1016100079818A819B81C25DD04020E030E040E04A
:1016200050E00E94177A882331F4C256DF4F1882A7
:10163000CE59D04054C084E290E00E94BC7DC85591
:10164000DF4F8883C85AD040C755DF4F9883C95AA7
:10165000D040CE55DF4FE880F9800A811B81C25A05
:10166000D04017FB109517F91095C301B201A801DE
:1016700097010E94E87C2B013C01C253DF4F688137
:1016800079818A819B81CE5CD040A80197010E941C
:10169000E87C4B015C01CE52DF4F688179818A8101
:1016A0009B81C25DD040A80197010E94E87C6B013C
:1016B0007C01C855DF4F8881C85AD040C755DF4FDD
:1016C0009881C95AD040B301A201950184010E94BA
:1016D000786DE1E0C256DF4FE883CE59D0400F2E3F
:1016E000F0E02F2EF0E03F2EF0E04F2EF0E05F2EE6
:1016F000F02DC356DF4F1882CD59D04099E4692EA2
:10170000712C6C0E7D1ED2C0C156DF4FF881CF59AF
:10171000D040FF23A1F1CE018B5A9F4FBE016F5FD6
:101720007F4FD301AC901196BC9011971296CC903C
:1017300012971396DC9013971496EC9014971596C5
:10174000FC90159716960C91169717961C91179763
:1017500018962C91189719963C9119971A964C91B6
:101760001A971B965C910E94CF63DE011196FE01D1
:10177000EB5AFF4F88E401900D928150E1F7C25679
:10178000DF4FB881CE59D040BB2309F458C0CE01F9
:101790008B5A9F4FBE016F5F7F4FC254DF4FA880AF
:1017A000CE5BD040C154DF4FB880CF5BD040C05437
:1017B000DF4FC880C05CD040CF53DF4FD880C15CC2
:1017C000D040CE53DF4FE880C25CD040CD53DF4FD6
:1017D000F880C35CD040CC53DF4F0881C45CD0405C
:1017E000CB53DF4F1881C55CD040CA53DF4F2881EF
:1017F000C65CD040C953DF4F3881C75CD040C85366
:10180000DF4F4881C85CD040C753DF4F5881C95C67
:10181000D040C855DF4F8880C85AD040C755DF4FE9
:101820009880C95AD0400E947465DE011196FE016D
:10183000EB5AFF4F88E401900D928150E1F7C2010D
:10184000B10120E030E040E05FE30E9451790E9466
:10185000B77A9B01AC01CA55DF4F88819981C65A7E
:10186000D040BE016F5F7F4FA901C056DF4F288176
:101870003981C05AD0400E949708C201B101CE55AB
:10188000DF4F288139814A815B81C25AD0400E9452
:1018900051791B012C01C356DF4FE881CD59D0404F
:1018A000EF5FC356DF4FE883CD59D040C356DF4FBB
:1018B000F881CD59D040C852DF4F8881C85DD040F3
:1018C000F81708F421CFC256DF4F9881CE59D04087
:1018D000992361F0C855DF4F8881C85AD040C75559
:1018E000DF4F9881C95AD0400E94697EC755DF4FAB
:1018F0000FB6F894DEBF0FBECDBFCF91DF911F9121
:101900000F91FF90EF90DF90CF90BF90AF909F909E
:101910008F907F906F905F904F903F902F900895A1
:101920006F927F928F929F92AF92BF92CF92DF92EF
:10193000EF92FF920F931F93DF93CF93CDB7DEB754
:1019400068970FB6F894DEBF0FBECDBF3C01CD86C1
:10195000DE86EF86F88A098B1A8B2B8B3C8B4D8B9E
:101960005E8B6F8B788FDE011196EAE2F4E08CE0FB
:1019700001900D928150E1F78DB79EB74B970FB64E
:10198000F8949EBF0FBE8DBFEDB7FEB731969F0195
:10199000AE01435F5F4F8CE0DA010D90AD01D901DC
:1019A0000D929D018150C1F784869586A686B786E3
:1019B00089A59AA5ABA5BCA5808B918BA28BB38B77
:1019C0008DA59EA5AFA5B8A9848B958BA68BB78B4B
:1019D00089A99AA9918F808F8BA9828FC30165E213
:1019E00078E0A980BA80CB80DC80ED80FE800F811A
:1019F000188529853A854B855C850E94FF098DB73E
:101A00009EB74B960FB6F8949EBF0FBE8DBF6896DB
:101A10000FB6F894DEBF0FBECDBFCF91DF911F91FF
:101A20000F91FF90EF90DF90CF90BF90AF909F907D
:101A30008F907F906F9008956F927F928F92AF9268
:101A4000BF92CF92DF92EF92FF920F931F93DF939B
:101A5000CF93CDB7DEB768970FB6F894DEBF0FBE51
:101A6000CDBF3C01CD86DE86EF86F88A098B1A8BC6
:101A70002B8B3C8B4D8B5E8B6F8B788FDE011196A1
:101A8000E6E3F4E08CE001900D928150E1F78DB730
:101A90009EB74B970FB6F8949EBF0FBE8DBFEDB7A4
:101AA000FEB731969F01AE014F5F5F4F8CE0DA01C8
:101AB0000D90AD01D9010D929D018150C1F780E0DB
:101AC00090E0A0E0B0E084879587A687B787808BF9
:101AD000918BA28BB38B848B958BA68BB78BB18E9E
:101AE000A08E828EC30165E278E0AD84BE84CF848F
:101AF000D888E988FA880B891C892D893E894F8905
:101B0000588D0E94FF098DB79EB74B960FB6F8947B
:101B10009EBF0FBE8DBF68960FB6F894DEBF0FBE96
:101B2000CDBFCF91DF911F910F91FF90EF90DF908C
:101B3000CF90BF90AF908F907F906F9008954F920D
:101B40005F926F927F928F929F92AF92BF92CF924D
:101B5000DF92EF92FF920F931F93DF93CF93CDB756
:101B6000DEB7C854D0400FB6F894DEBF0FBECDBF6D
:101B70002C013E010894611C711CC30146E656E627
:101B800066EF70E400E010E020EF31E40F2EF0E0AB
:101B9000CF2EF0E0DF2EFCE0EF2EF2E4FF2EF02D52
:101BA0000F2EF0E08F2EF0E09F2EFEE0AF2EF2E43D
:101BB000BF2EF02D0E94E16BC201B3010E942C09DF
:101BC00029E7E22EF12CE40CF51C80E090E06DE0BA
:101BD00070E01DE020E030E040E050E0869FF00142
:101BE000879FF00D969FF00D1124E40DF51D34969E
:101BF000DF01012F1D920A95E9F7D7012D933D933F
:101C00004D935D937D0101968930910539F7F2017D
:101C1000118210821382128288EC91E0480E591EC4
:101C2000D2011C92C85BDF4F0FB6F894DEBF0FBE27
:101C3000CDBFCF91DF911F910F91FF90EF90DF907B
:101C4000CF90BF90AF909F908F907F906F905F905C
:101C50004F90089584EB95E00E949F0D0895262FE4
:101C6000DA01E62FEE0FEE0FEE0FE80FED3030F455
:101C7000E93078F4E83009F045C007C0E031D9F028
:101C8000EF3151F1EF30F1F510C08C9180938F0757
:101C90000895F0E0EE0FFF1FE150FC4F0190F0813E
:101CA000E02D8C918456808308958EE899E06C91A4
:101CB0000E94CA57089511962C9111978C9190E02B
:101CC0009695982F882797958795820F911D9093C9
:101CD00095078093940708958C9180938F071196B0
:101CE0008C91119784568093900712968C9112973D
:101CF00084568093910786E997E06FE1422F9D011A
:101D00000E94D0130895662311F08DE201C08EE287
:101D10004C51534FBA010E94EB370895AF92BF92D6
:101D2000CF92DF92EF92FF920F931F93DF93CF93A7
:101D3000CDB7DEB72D970FB6F894DEBF0FBECDBF7F
:101D4000182FF92E0E94A3025E010894A11CB11C59
:101D5000C5016FE77BE020E032EC41E050E003E0BA
:101D6000F2E0EF2EEFE2CE2EEEE0DE2E0E94200318
:101D7000212F3F2DC901DC01F5018DE001900D926D
:101D80008150E1F72D960FB6F894DEBF0FBECDBFA0
:101D9000CF91DF911F910F91FF90EF90DF90CF9047
:101DA000BF90AF90089582E897E00E948E0E08954C
:101DB00097FF02C02FEF05C020E0181619060CF49B
:101DC00021E0822F0895EF92FF920F931F937B01E2
:101DD0008C0120E030E040E050E00E94177A882338
:101DE00029F4E0E070E080E060E018C00E941C7F11
:101DF000AA2797FDA095BA2FBC01CD010E94EA7ACF
:101E00009B01AC01C801B7010E94E87C20E03EEFD5
:101E10004FEF56E40E941E7AE62F692F2E2F372FA0
:101E2000482F562FB901CA011F910F91FF90EF90D3
:101E30000895AF92BF92CF92DF92EF92FF920F93ED
:101E40001F937B018C0159016A010E94137C87FF5B
:101E500010C0C601B501A80197010E9450790E94E7
:101E6000E30E9B01AC01C801B7010E9451797B01CF
:101E70008C01B701C8011F910F91FF90EF90DF9087
:101E8000CF90BF90AF9008952F923F924F925F9264
:101E90006F927F928F929F92AF92BF92CF92DF927A
:101EA000EF92FF920F931F93DF93CF93CDB7DEB7DF
:101EB00028970FB6F894DEBF0FBECDBF1C014D832F
:101EC0005E836F8378874801590160E070E080E8A5
:101ED0009FEB20E030E040E85FE30E94190F2B0108
:101EE0003C01D1018D919D910D90BC91A02D8983D4
:101EF0009A83AB83BC83C501B401A70196010E94FC
:101F0000E87CA30192010E94E87C4B015C016D8199
:101F10007E818F81988529813A814B815C810E94E5
:101F200050799B01AC01C701B6010E94E87C9B017E
:101F3000AC01C501B4010E9451799B01AC016981DA
:101F40007A818B819C810E945179F1016083718338
:101F50008283938328960FB6F894DEBF0FBECDBF61
:101F6000CF91DF911F910F91FF90EF90DF90CF9075
:101F7000BF90AF909F908F907F906F905F904F90A9
:101F80003F902F900895009711F00E94217F0895AF
:101F90000F931F93182F092FCB01BA010E942C3FDA
:101FA000BC01812F902F0E94A83F812F902F1F915D
:101FB0000F9108952F923F924F925F926F927F926E
:101FC0008F929F92AF92BF92CF92DF92EF92FF9249
:101FD0000F931F93DF93CF93CDB7DEB7EC970FB678
:101FE000F894DEBF0FBECDBF382E292E4A015B010B
:101FF000CB01BA010E94B77A3B01C501B40120E0D0
:1020000030E040E251E40E94E87C7B018C01B301A6
:10201000660F771F9301E3E0220F331FEA95E1F784
:10202000620F731F882777FD8095982F0E94EA7AA8
:102030009B01AC01C801B7010E9450790E94B77A98
:10204000562E472E7E010894E11CF11CC70160E06A
:1020500072E00E94C33FC501B40120E030E040E0DF
:1020600050E00E94177A8823CCF4C501B40120E027
:1020700030E040E85FEB0E94137C18167CF48E0180
:10208000095F1F4FC80161E072E00E94C33FC701B2
:10209000B8010E94783FC8010E94F93E63E1C62E54
:1020A000D12CCC0EDD1EC601BE016F5F7F4F0E949A
:1020B000A83F8E01035F1F4FC801B3014AE050E003
:1020C0000E94EB3F59E1E52EF12CEC0EFD1EC701FD
:1020D000B601A8010E94C80F8E01015E1F4FC80102
:1020E00063E072E00E94C33FCE018596B701A8016C
:1020F0000E94C80F252D342DC901BC0197FF03C0D4
:10210000709561957F4FCE018B964AE050E00E941A
:10211000EB3FCE01C196BE016B5D7F4FAE01455DC9
:102120005F4F0E94C80FC501B40120E030E048ECC9
:1021300052E40E94E87C7B018C0184E690E0689E7A
:10214000B001699E700D789E700D1124882777FD6F
:102150008095982F0E94EA7A9B01AC01C801B701D3
:102160000E9450797B018C01252D342DB90143E06B
:10217000660F771F4A95E1F7220F331F620F731F17
:10218000882777FD8095982F0E94EA7A9B01AC0101
:10219000C801B7010E9450790E94B77A77FF03C047
:1021A000709561957F4FCE01C7964AE050E00E943E
:1021B000EB3F81E3E82EF12CEC0EFD1E8E01095C55
:1021C0001F4F832D922DB701A8010E94C80FC8018F
:1021D0000E94F93EC7010E94F93ECE018B960E94F3
:1021E000F93ECE0185960E94F93ECE014F960E949F
:1021F000F93ECE0149960E94F93ECE010D960E940D
:10220000F93ECE0143960E94F93ECE0101960E940E
:10221000F93E832D922DEC960FB6F894DEBF0FBEDB
:10222000CDBFCF91DF911F910F91FF90EF90DF9085
:10223000CF90BF90AF909F908F907F906F905F9066
:102240004F903F902F90089590580E948B7A20E0F5
:1022500030E040E85FE30E9451799B01AC0160E00F
:1022600070E080E89FE30E941E7A08950F931F9309
:10227000CF93DF938C01EB0109C02196D801ED913A
:10228000FC910190F081E02DC801099568816623D9
:10229000A1F7DF91CF911F910F910895EF92FF92D7
:1022A0000F931F93CF93DF938C017B01EA010CC046
:1022B000D7016D917D01D801ED91FC910190F081E4
:1022C000E02DC80109952197209791F7DF91CF91D3
:1022D0001F910F91FF90EF900895DC01ED91FC911B
:1022E0000280F381E02D0995089508952F923F9281
:1022F0004F925F926F927F928F929F92AF92BF9216
:10230000CF92DF92EF92FF920F931F93DF93CF93C1
:10231000CDB7DEB72C970FB6F894DEBF0FBECDBF9A
:102320004FA02DB63EB6842C9924C401880F991F66
:10233000880D991D880F991F2DB73EB7281B390BA3
:102340000FB6F8943EBF0FBE2DBF6DB67EB6089493
:10235000611C711C8301EE24FF2464010894C11CDC
:10236000D11C04C065E072E00E94C33FC80108941C
:10237000E11CF11C0A5F1F4FEC14FD0499F7CE011C
:1023800088966C0110E07E010894E11CF11C06E0C7
:1023900013C0F601619171916F01C7010E94C33FA3
:1023A000109FC0011124860D971DB7010E94783F30
:1023B000C7010E94F93E1F5F141558F38CE69BE09D
:1023C0000E94E16F8CE69BE06BA17CA10E946D11E5
:1023D0006DA17EA1882777FD8095982F0E947D3D75
:1023E0008CE69BE00E94AC6FB82E882309F458C09D
:1023F000ADB65EB6E82EFF24C70101962DB73EB7F5
:10240000281B390B0FB6F8943EBF0FBE2DBFCDB6BB
:10241000DEB60894C11CD11C00E010E08CE69BE005
:102420000E94BD6FF601E00FF11F80830F5F1F4F09
:102430000B15A0F3EC0CFD1CF70110828E01095F57
:102440001F4FC801B6010E94C33FFF2426E0E22EC1
:102450001AC0FE9CB0011124660D771DC8010E94B0
:10246000273F2F2D2F5F97FD0DC0F22EC8010E9430
:10247000F93E8A2D952D9C010FB6F8943EBF0FBEF4
:102480002DBF0FC0F22EF41420F3C8010E94F93EB4
:102490008A2D952D9C010FB6F8943EBF0FBE2DBF1F
:1024A000FF248401000F111F080D191D000F111FBB
:1024B000060D171D0615170531F006501040C8010E
:1024C0000E94F93EF7CF8F2D0FB6F8943EBE0FBE97
:1024D0002DBE2C960FB6F894DEBF0FBECDBFCF91A8
:1024E000DF911F910F91FF90EF90DF90CF90BF9001
:1024F000AF909F908F907F906F905F904F903F90A4
:102500002F9008952F923F924F925F926F927F92F9
:102510008F929F92AF92BF92CF92DF92EF92FF92F3
:102520000F931F93CF93DF93EC0103E0B6E08B2E64
:10253000B2E09B2EACE2EA2EA1E0FA2EBB24B394CB
:10254000FBE0CF2EF2E0DF2EE2E0AE2E78ED272E7C
:102550007EE0372E65E3462E62E0562E5DE3652E63
:1025600052E0752E1D85113009F487C0113038F006
:10257000123009F4B8C01330A9F781E0FEC02DB7BE
:102580003EB7295030400FB6F8943EBF0FBE2DBF66
:10259000EDB7FEB73196ADB7BEB71296DC93CE93CA
:1025A000119793828282F582E482B682D086C782B6
:1025B0000E9476112DB73EB7275F3F4F0FB6F894B4
:1025C0003EBF0FBE2DBF882309F053C08DB79EB705
:1025D00009970FB6F8949EBF0FBE8DBFEDB7FEB73B
:1025E0003196ADB7BEB71296DC93CE9311972EE01D
:1025F00032E033832283F582E482B682D086C782BA
:102600000E947611ADB7BEB719960FB6F894BEBF4B
:102610000FBEADBF882379F12DB73EB729503040AA
:102620000FB6F8943EBF0FBE2DBFEDB7FEB7319683
:10263000ADB7BEB71296DC93CE93119722E132E08C
:102640003383228384EF91E095838483B682AAE169
:10265000B2E0B087A7830E9476112DB73EB7275FFF
:102660003F4F0FB6F8943EBF0FBE2DBF882309F42D
:102670007CC0AD8677CF01507CC001508DB79EB72E
:102680000B970FB6F8949EBF0FBE8DBFEDB7FEB788
:102690003196ADB7BEB71296DC93CE9311972DE16C
:1026A00032E03383228335822482A6825086478299
:1026B000728661860E947611ADB7BEB71B960FB6C3
:1026C000F894BEBF0FBEADBF813011F4AD8651C0CE
:1026D000882309F04EC06CE271E080E090E00E9437
:1026E0007D3D1D8646C02DB73EB7275030400FB602
:1026F000F8943EBF0FBE2DBFEDB7FEB73196ADB714
:10270000BEB71296DC93CE93119793828282F582A4
:10271000E48216820E94761100D000D0EDB7FEB799
:102720003196ADB7BEB71296DC93CE93119727E4DE
:1027300032E033832283F582E4821683D086C78217
:102740008DE492E0928781870E947611ADB7BEB783
:102750001B960FB6F894BEBF0FBEADBF813019F403
:10276000B3E0BD87FFCE823011F4BD86FBCE1D865F
:10277000F9CE002309F0F6CE80E0DF91CF911F91D2
:102780000F91FF90EF90DF90CF90BF90AF909F9010
:102790008F907F906F905F904F903F902F90089513
:1027A000FC018585833019F4CF010E94A4020895AD
:1027B0008F929F92AF92BF92CF92DF92EF920F9340
:1027C000DF93CF93CDB7DEB72D970FB6F894DEBF6A
:1027D0000FBECDBF4C010E94A3025E010894A11C54
:1027E000B11CC5016CE67BE020E032EC41E050E03A
:1027F00003E0F2E0EF2EE5E7CE2EE1E1DE2E0E94CF
:102800002003D401F5018DE001900D928150E1F794
:10281000F40115862D960FB6F894DEBF0FBECDBF1E
:10282000CF91DF910F91EF90DF90CF90BF90AF905D
:102830009F908F90089586E997E00E94D81308959D
:10284000CF93DF93C4EAD7E0CE010E943339CE01A3
:1028500003960E943339CE0106960E943339299699
:1028600087E0CA3DD80781F78AED97E00E943339A7
:10287000DF91CF9108958F929F92AF92BF92CF92A6
:10288000DF92EF92FF920F931F93DF93CF93CDB719
:10289000DEB762970FB6F894DEBF0FBECDBF84E0FF
:1028A0000E942F048C0185E00E942F04F82E77E00F
:1028B000872E912C8C0E9D1EC40168E572E00E944B
:1028C000C33F000F111FF00E5E010894A11CB11C44
:1028D000C5016F2D70E04AE050E00E94EB3F5DE0E3
:1028E000C52ED12CCC0EDD1EC601B401A5010E945F
:1028F000C80FC6010E94F53EBC018EE799E046E490
:1029000050E020E030E001E0EE24EA94FE2C0E944A
:102910002542C6010E94F93EC5010E94F93EC4014C
:102920000E94F93E81E08093850862960FB6F89484
:10293000DEBF0FBECDBFCF91DF911F910F91FF90F2
:10294000EF90DF90CF90BF90AF909F908F900895C1
:102950006233710581059105E0F00E944D3DE091E3
:102960008608EE2319F0E13051F405C090938008F9
:1029700080937F0804C09093820880938108EF5F62
:10298000E170E0938608F0E0E75EFB4F80810E94F3
:10299000343D0895CF92DF92EF92FF920F931F93F1
:1029A0000091870880E00E94613D789490E08091DA
:1029B0008708893008F091E0892F0E94EF39E82ECE
:1029C000802F63E00E949080C82EDD24802F0E941B
:1029D0009080092F10E0C801880F991F800F911F68
:1029E0009601B3E0220F331FBA95E1F72C0D3D1D80
:1029F000820F931F8C55984F68E20E94C53AAC0134
:102A0000E0918708F0E0EE0FFF1FEE0FFF1FFF249D
:102A1000E7FCF094E49EC001E59E900DF49E900DBD
:102A2000112468E070E00E94B080CF018A5C964F6C
:102A30000E94C63E8091870890E0880F991F880FFA
:102A4000991F9601220F331F2C0D3D1D020F131FDE
:102A50000359174F8A5C964FB80144E00E94DA3E52
:102A6000F89481E00E94613D809187088F5F62E168
:102A70000E949080909387088091830890918408A9
:102A8000019690938408809383081F910F91FF9083
:102A9000EF90DF90CF9008950F931F93CF93DF9324
:102AA000082F162F83E0689FE001112489E0089F1A
:102AB000C0011124C80FD91FCC55D84FCE0161E0F9
:102AC0000E94B73CCE016EE04FEF53E020E00E9441
:102AD000623CCE016BE04BE450E020E00E94623C9F
:102AE000CE016CE049E550E020E00E94623CCE015E
:102AF0006DE041E950E020E00E94623CCE0165E0DB
:102B000042E350E020E00E94623CCE016AE141E0F5
:102B100050E020E00E94623CCE016BE141E050E0D9
:102B200020E00E94623C1123A9F0113099F4033097
:102B300060F4CE016CE140E450E020E00E94623C91
:102B4000CE016DE140E850E010C0CE016CE140E8FC
:102B500050E004C0CE016CE140E450E020E00E946F
:102B6000623CCE016DE140E450E020E00E94623C16
:102B7000CE0160E340E250E020E00E94623C03307E
:102B800070F4113029F4CE0166E047EC50E014C037
:102B90001230A9F4CE0166E043E451E00DC01130DB
:102BA00029F4CE0168E04BE353E006C0123039F45B
:102BB000CE0168E04AEB52E020E00E94623C8FE7E1
:102BC00097E20E94A73D8FE797E20E94A73D8FE71B
:102BD00097E20E94A73D8FE797E20E94A73DCE01B2
:102BE0000E94703ADF91CF911F910F9108952F921B
:102BF0003F924F925F926F927F928F929F92AF928D
:102C0000BF92CF92DF92EF92FF920F931F93DF93C9
:102C1000CF93CDB7DEB7C056D0400FB6F894DEBF25
:102C20000FBECDBF2EE838E06F963FAF2EAF6F9747
:102C30003324AA24BB24B1C0D6010D911C91F40108
:102C400080819181081B190B09F487C0232D30E086
:102C5000A1963FAF2EAFA197E1E0F0E0EC0FFD1F92
:102C6000E20FF31FD2018C91808380E0B2E0BA15AD
:102C700008F481E00E94EF39282EF4010190F081E0
:102C8000E02D6D96FFAFEEAF6D97980117FF03C073
:102C9000309521953F4FB901882777FD8095982F72
:102CA0000E94EA7A29E53CE44BED52E40E94E87C7C
:102CB0007B018C01D3016D917C91882777FD8095F4
:102CC000982F0E94EA7A9B01AC01C801B7010E94CB
:102CD0001E7A7B018C0120E030E040E85FE30E9437
:102CE000177A88231CF461E070E011C0C801B701B5
:102CF00020E030EC4FE754E40E94137C18161CF4DB
:102D00006FEF73E004C0C801B7010E94B77AA196C3
:102D1000EEADFFADA197EE0FFF1F21E030E02C0FCD
:102D20003D1FE20FF31F822D992787FD9095AC017F
:102D30006D96AEADBFAD6D974A9FC0014B9F900D94
:102D40005A9F900D11248A5F9D4F938B828B77AB96
:102D500066AB3394F601B183A08322E030E0C20E6B
:102D6000D31E820E931E0894411C511C620E731ECA
:102D70006F964EAD5FAD6F97C416D50609F05CCF68
:102D80000894A11CB11CC60106966F969FAF8EAF2A
:102D90006F9796E0A916B10409F1C501880F991F34
:102DA0008A0D9B1D9C01220F331F78E8C72E78E007
:102DB000D72EC20ED31E6DED862E67E0962E820EA4
:102DC000931E52E4452E54E0552E480E591E41E004
:102DD000642E48E0742E620E731E2ECF332061F0F5
:102DE000832DBE016F5F7F4FAE014D5E5F4F9E0131
:102DF000295C3F4F0E947A3B832DC05ADF4F0FB6AC
:102E0000F894DEBF0FBECDBFCF91DF911F910F9120
:102E1000FF90EF90DF90CF90BF90AF909F908F90FA
:102E20007F906F905F904F903F902F9008952F92DA
:102E30003F924F925F926F927F928F929F92AF924A
:102E4000BF92CF92DF92EF92FF920F931F93DF9387
:102E5000CF93CDB7DEB762970FB6F894DEBF0FBE43
:102E6000CDBF9E878D877B018E010F5F1F4FBDE019
:102E7000CB2ED12CCC0EDD1EF701619171917F011B
:102E8000882777FD8095982F0E94EA7A2BED3FE006
:102E900049E450E40E94E87C20E030E849E154E451
:102EA0000E941E7AF80161937193819391938F012F
:102EB000EC15FD0509F769857A858B859C852BEDD9
:102EC0003FE049EC5FE30E9450790E941B7A27E4BF
:102ED00031EE4FE353EC0E94E87C28E431E24CE40D
:102EE00053E40E9451797B018C010E94557D3B0186
:102EF0004C01C801B7012DEC3CE44BE852E40E94C0
:102F000050797B018C01C401B30123E333E343E82F
:102F100051E40E94E87C9B01AC01C801B7010E940A
:102F20001E7A0E9442799B01AC016D817E818F8166
:102F300098850E9450797B018C01C8010E941B7A00
:102F40009B01AC01C401B3010E94E87C20E030E0A9
:102F500040EA50E40E9451796F87788B898B9A8B75
:102F6000A980BA80CB80DC80C601B5010E941B7AA3
:102F70001B012C01B701C8010E944B7D7B018C0114
:102F8000C601B5010E944B7D5B016C016F8578899C
:102F900089899A89A20191010E94E87CED85FE85CC
:102FA0006083718382839383C401B301A801970175
:102FB0000E94E87CED85FE85648375838683978314
:102FC0006F85788989899A89A60195010E94E87C94
:102FD000ED85FE856087718782879387CF01629632
:102FE0000FB6F894DEBF0FBECDBFCF91DF911F911A
:102FF0000F91FF90EF90DF90CF90BF90AF909F9098
:103000008F907F906F905F904F903F902F9008959A
:103010004F925F926F927F928F929F92AF92BF92E8
:10302000CF92DF92EF92FF920F931F93DF93CF9394
:10303000CDB7DEB762970FB6F894DEBF0FBECDBF37
:103040002C01662E80E00E94613D6E010894C11C37
:10305000D11C00E010E089E0689E40011124C80105
:10306000880F991F800F911F880D991D8C55984FBF
:1030700064E20E94C53AAC018AEFE82E8DEFF82E8B
:10308000E40EF51EAA2422E0261510F4AA24A39427
:103090008A2D0E94EF39992787FD9095FC01EE9DBE
:1030A000C001EF9D900DFE9D900D1124F6018193BE
:1030B00091936F010F5F1F4F0330110581F681E07F
:1030C0000E94613DCE010796BE016F5F7F4F0E9457
:1030D0001717EF80F88409851A858A2D0E94EF3929
:1030E000AB84BC84CD84DE846F84788889889A8898
:1030F000992787FD9095A92FB92FBC01CD010E947A
:10310000EA7A9B01AC01C801B7010E94E87CF20198
:103110006083718382839383A482B582C682D782BF
:103120006086718682869386C20162960FB6F89495
:10313000DEBF0FBECDBFCF91DF911F910F91FF90EA
:10314000EF90DF90CF90BF90AF909F908F907F9047
:103150006F905F904F9008952F923F924F925F92A1
:103160006F927F928F929F92AF92BF92CF92DF9297
:10317000EF92FF920F931F93DF93CF93CDB7DEB7FC
:10318000E9970FB6F894DEBF0FBECDBF60E472E4DE
:103190008FE090E00E940E39CC24DD2486E0882E5A
:1031A0004C2C80E00E94613D7601EE0CFF1CEC0C83
:1031B000FD1C82E494E0E80EF91EC60113E0880FBE
:1031C000991F1A95E1F78C0D9D1D8C010C55184F18
:1031D000222433243C01A22CCE010196F701608108
:1031E0000E942D39D801FE01319683E001900D92A5
:1031F0008150E1F7842D6A2D0E944C15892B09F42A
:103200007EC080916E00816080936E008EE799E0B1
:1032100062E041E328E30E940F42B0E14B2E512CC3
:103220004C0E5D1EC2016AE572E00E94C33FAAE037
:103230006A2E712C6C0E7D1EC301B6014AE050E06F
:103240000E94EB3FF6E18F2E912C8C0E9D1EC40147
:10325000B201A3010E94C80FECE1AE2EB12CAC0E5E
:10326000BD1EC50166E672E00E94C33F72E2C72E32
:10327000D12CCC0EDD1EC601B401A5010E94C80FE1
:103280008E01085D1F4FC801B1014AE050E00E9465
:10329000EB3F64E0E62EF12CEC0EFD1EC701B601FB
:1032A000A8010E94C80FC8010E94F93EC6010E94F1
:1032B000F93EC5010E94F93EC4010E94F93EC301D6
:1032C0000E94F93EC2010E94F93EDE2C1F2D8D2D79
:1032D000912F0E94F53EBC018EE799E046E450E054
:1032E00020E030E001E0EE24EA94FE2C0E9425422A
:1032F00064EF7AE180E090E00E947D3DE8CFC1017B
:10330000880F991F820D931D860D971D8C55984F20
:1033100068E141E050E020E00E94623CF3E0AF0E43
:103320008EE799E06A2D482D0E94FA410894211CED
:10333000311C0894E11CF11C0D5F1F4F83E028161F
:10334000310409F048CF81E00E94613D8601000F01
:10335000111F0C0D1D1D000F111F000F111F0B5D04
:10336000174FCE018E96642D0E940818D801FE01D9
:10337000BE968CE001900D928150E1F70894C11C3B
:10338000D11C8A9409F00CCF0E94943EE9960FB6A6
:10339000F894DEBF0FBECDBFCF91DF911F910F918B
:1033A000FF90EF90DF90CF90BF90AF909F908F9065
:1033B0007F906F905F904F903F902F9008952F9245
:1033C0003F924F925F926F927F928F929F92AF92B5
:1033D000BF92CF92DF92EF92FF920F931F93DF93F2
:1033E000CF93CDB7DEB76E970FB6F894DEBF0FBEA2
:1033F000CDBFEF82F88609871A872B873C874D87D8
:103400005E876F87788B898B9A8BEF80F88409852C
:103410001A85AF84B888C988DA888B859C85AD8584
:10342000BE858B8B9C8BAD8BBE8BC801B70120E01A
:1034300030E040E050E00E94137C87FF04C017FB9F
:10344000109517F91095C601B501A80197010E94C2
:10345000207C20E030E040EA50E40E9450793B01BB
:103460004C01C601B501A80197010E941E7A0E9475
:10347000EF796F8B788F898F9A8FC401B301A40184
:1034800093010E94E87C1B012C016B897C898D894A
:103490009E899B01AC010E94E87C6B8F7C8F8D8F95
:1034A0009E8FC201B1012B8D3C8D4D8D5E8D0E9492
:1034B00051797B018C010E94557D5B016C01C80133
:1034C000B7012DEC3CE44BE852E40E9450797B01BB
:1034D0008C01C601B50123E333E343E851E40E94C4
:1034E000E87C9B01AC01C801B7010E941E7A0E94D2
:1034F00042795B016C016B897C898D899E89A4016D
:1035000093010E941E7A0E94EF797B018C0168E48E
:1035100071E28CE493E4A20191010E9450792B8D19
:103520003C8D4D8D5E8D0E94507927E431EE4FE346
:1035300053E40E941E7A0E94427920E030E849E17B
:1035400054E40E94E87C2BED3FE049E450EC0E94FB
:103550001E7A20E030E849E953E40E9451790E9444
:10356000B77A7E836D83C601B501A80197010E94D9
:10357000517920E030E849E154E40E94E87C2BEDE9
:103580003FE049E450E40E941E7A0E94B77A7C83AF
:103590006B836F89788D898D9A8D20E030E849E1C1
:1035A00054E40E94E87C2BED3FE049E450E40E94A3
:1035B0001E7A0E94B77A7A83698329813A814B8186
:1035C0005C816D817E8180E090E06E960FB6F8940C
:1035D000DEBF0FBECDBFCF91DF911F910F91FF9046
:1035E000EF90DF90CF90BF90AF909F908F907F90A3
:1035F0006F905F904F903F902F9008952F923F9241
:103600004F925F926F927F928F929F92AF92BF92F2
:10361000CF92DF92EF92FF920F931F93DF93CF939E
:10362000CDB7DEB760970FB6F894DEBF0FBECDBF43
:103630004C01FC0187858823E9F0E180F280038159
:103640001481258136814781508561857285838506
:1036500094850E94DF192F83388749875A876B87A3
:103660007C87DE011196FE01379686E001900D926F
:103670008150E1F74DED242E47E0342E31E0432E0A
:1036800038E0532E85E298E09E878D876624772464
:10369000F4013196F88BEF87F401808190E0062CDD
:1036A00002C0959587950A94E2F780FF63C08785ED
:1036B000882351F0AD85BE85EF85F8898CE00190B7
:1036C0000D928150E1F73BC05301AA0CBB1CA60C24
:1036D000B71CAA0CBB1CAA0CBB1C85E298E0A80E68
:1036E000B91EC501F401C180D280E380F480058158
:1036F00016812781308541855285638574850E94B6
:103700000663F501E080F180028113812481358117
:103710004681578160857185828593850E94DF1976
:103720002F83388749875A876B877C87DE011196FC
:10373000FE01379686E001900D928150E1F7F40189
:10374000258536854B815C816D817E8189819A8159
:10375000F10191838083F20131832083F10153834E
:103760004283F20133832283F10175836483F20182
:10377000358324830894611C711C86E090E0280E38
:10378000391E480E591EED85FE853C96FE87ED8755
:10379000F6E06F16710409F07FCF60960FB6F894CB
:1037A000DEBF0FBECDBFCF91DF911F910F91FF9074
:1037B000EF90DF90CF90BF90AF909F908F907F90D1
:1037C0006F905F904F903F902F900895FC01E853C9
:1037D000FE4F108208956C31710514F462E00AC046
:1037E0006435710514F065E005C0CB016EE070E052
:1037F0000E94B080862F0895AF92BF92CF92DF9241
:10380000EF92FF920F931F935801690150E0CB0193
:10381000489FB001499F700D589F700D1124882753
:1038200077FD8095982F0E94EA7A7B018C01C60172
:10383000B50120E030E040E251E40E941E7A9B0195
:10384000AC01C801B7010E94E87C20E030E040E60E
:1038500051E40E941E7A7B018C0120E030E040E0C0
:1038600050E40E94177A882314F482E011C0C80142
:10387000B70120E030E040E251E40E94137C1816CA
:1038800014F48AE005C0C801B7010E94BC7A862FF3
:103890001F910F91FF90EF90DF90CF90BF90AF906E
:1038A00008950F931F93CF93DF93EC01FC01EC532A
:1038B000FE4F10811F3F49F11F5F1083C453DE4F3D
:1038C000612F70E0882777FD8095982F0E94EA7A13
:1038D00020E030E040E850E40E94E87C0E94B77AA3
:1038E00079836883C751D14068817981C55BD040B5
:1038F000CE01412F00E010E020E231E40E94FC1BE9
:10390000CB53DE4F8883C55CD140CC53DE4F8881DA
:10391000DF91CF911F910F9108950F931F93CF9334
:10392000DF93EC01FC01EC53FE4F1081123048F1A3
:1039300011501083C453DE4F612F70E0882777FD4C
:103940008095982F0E94EA7A20E030E040E850E429
:103950000E94E87C0E94B77A79836883C751D1407E
:1039600068817981C55BD040CE01412F00E010E035
:1039700020E231E40E94FC1BCB53DE4F8883C55C00
:10398000D140CC53DE4F8881DF91CF911F910F91B1
:1039900008952F923F924F925F926F927F928F92F3
:1039A0009F92AF92BF92CF92DF92EF92FF920F93CE
:1039B0001F93DF93CF93CDB7DEB7C457D1400FB677
:1039C000F894DEBF0FBECDBF3C017A018B01809120
:1039D000AC089091AD08A091AE08B091AF089A01E3
:1039E000AB01281B390B4A0B5B0B6CEC71E0660ECC
:1039F000771ED3018D919C91E4E3FEEF6E0E7F1E46
:103A0000AA2797FDA095BA2F281739074A075B0701
:103A100010F40C947E2CE092AC08F092AD08009368
:103A2000AE081093AF08A30148535E4FDA018C91A2
:103A3000882311F40C947E2CD301A653BE4F6D91B4
:103A40007C911197E6ECF1E06E0E7F1EF301808110
:103A500091812AE33EEF620E731E6817790710F01A
:103A60000C947C2C49EC51E0640E751EF3018081AE
:103A700027E33EEF620E731E882331F0813011F090
:103A80000C94732C0C942A2B47EB50E0640E751E9B
:103A9000D3018C91E9E4FFEF6E0E7F1E882309F4B9
:103AA00048C080E090E00E94E87A7B018C012CEB1A
:103AB00030E0620E731ED3012D913D914D915C91CA
:103AC000E4E4FFEF6E0E7F1ECA01B9010E94517936
:103AD0009B01AC01C801B7010E94177A88234CF5FD
:103AE000AA24BB24C501880F991F8A0D9B1D880F2E
:103AF000991F880F991FF301E80FF91FEC51FF4F31
:103B0000845D9E4F860D971DC080D180E280F3803A
:103B100004811581268137814085518562857385B1
:103B20000E9406630894A11CB11CF6E0AF16B10414
:103B3000C9F69AECE92E91E0F92EE60CF71C21EB80
:103B400030E0620E731ED3016D917C91EFE4FFEFC4
:103B50006E0E7F1ED7018D919C910E949C80FC016E
:103B600083010C581E4F20EB30E0620E731ED30110
:103B70006C91D8018C9190E070E00E949C8023E0D1
:103B800030E0620E731ED3012D913C914DE45FEF46
:103B9000640E751EBC01629FC001639F900D729FF1
:103BA000900D1124E817F90711F00C94C526C301F4
:103BB0008C529F4FC55ADE4F99838883CB55D14095
:103BC000D301A05DBE4FC15BDE4FB983A883CF5444
:103BD000D14022243324CD59DE4F19830883C356A4
:103BE000D140CB59DE4FF982E882C556D140F3016E
:103BF000E454FF4FC959DE4FF983E883C756D140DB
:103C000093012B553F4FC759DE4F39832883C9563F
:103C1000D140A3014C535E4FC559DE4F59834883B1
:103C2000CB56D140B3016B547F4FC359DE4F7983DC
:103C30006883CD56D140C3018B539E4FC159DE4F8F
:103C400099838883CF56D140D301A854BF4FCF5812
:103C5000DE4FB983A883C157D1408DE9482E512C3E
:103C6000460C571C922CCD59DE4FE881F981C35682
:103C7000D1408081F301E80FF11DE755FF4F8081AE
:103C800090E0022C02C0959587950A94E2F780FD9A
:103C900002C00C948C26CB59DE4FA881B981C55641
:103CA000D1406D917C9180E090E00E94E87A5B01C8
:103CB0006C01C959DE4FE881F981C756D140E080D7
:103CC000F18002811381C801B701A80197010E9408
:103CD00051799B01AC01C601B5010E94177A1816F3
:103CE0006CF420E030E040E85FE3CB5ADE4F2883FD
:103CF00039834A835B83C555D14022C0C601B501D3
:103D000020E030E040E05FE30E94E87CA8019701FA
:103D10000E941E7A0E9424112DEC3CEC4CEC5FE3D7
:103D20000E94E87C2AE939E949E15FE30E94507981
:103D3000CB5ADE4F688379838A839B83C555D140F4
:103D4000C759DE4FA881B981C956D1406D917D9187
:103D50008D919C9120E030E040E050E00E94177A85
:103D6000882309F0E6C2F101EE0FFF1FE20DF31DFB
:103D7000EE0FFF1FEE0FFF1FE60DF71DE45DFE4F78
:103D8000E080F18002811381248135814681578151
:103D900060857185828593850E942C61CB5BDE4FA7
:103DA0002883C554D140CA5BDE4F3883C654D14006
:103DB000C95BDE4F4883C754D140C85BDE4F588390
:103DC000C854D140C75BDE4F6883C954D140C65B3D
:103DD000DE4F7883CA54D140C55BDE4F8883CB5415
:103DE000D140C45BDE4F9883CC54D140DE011196A4
:103DF000FE01EB5BFE4F88E001900D928150E1F7F0
:103E0000E0ECF0E06E0E7F1ED3016D917D918D91FF
:103E10009C91E0E4FFEF6E0E7F1E9058CB5ADE4F70
:103E2000288139814A815B81C555D1400E94E87C57
:103E30007B018C01D2012C9111963C911197129625
:103E40004C91129713965C91139714966C9114975A
:103E500015967C91159716968C91169717969C91AE
:103E60000E94A460CB5BDE4F2883C554D140CA5B5F
:103E7000DE4F3883C654D140C95BDE4F4883C754F8
:103E8000D140C85BDE4F5883C854D140C75BDE4F7A
:103E90006883C954D140C65BDE4F7883CA54D14091
:103EA000C55BDE4F8883CB54D140C45BDE4F988323
:103EB000CC54D140DE011996FE01EB5BFE4F88E049
:103EC00001900D928150E1F729813A814B815C810B
:103ED0006D817E818F819885A984BA84CB84DC84AE
:103EE000ED84FE840F8518890E94185FCB5BDE4F3E
:103EF0002883C554D140CA5BDE4F3883C654D140B5
:103F0000C95BDE4F4883C754D140C85BDE4F58833E
:103F1000C854D140C75BDE4F6883C954D140C65BEB
:103F2000DE4F7883CA54D140C55BDE4F8883CB54C3
:103F3000D140C45BDE4F9883CC54D140DE01AF58F2
:103F4000BF4FFE01EB5BFE4F88E001900D92815068
:103F5000E1F7CB59DE4FE881F981C556D140608148
:103F6000718180E090E00E94E87A7B018C01C95960
:103F7000DE4FA881B981C756D1402D913D914D9119
:103F80005C91CA01B9010E9451799B01AC01C80141
:103F9000B7010E94137C18160CF0A4C5F101EE0FB6
:103FA000FF1FE20DF31DEE0FFF1FEE0FFF1FEB5D76
:103FB000F74FE080F18002811381248135814681B1
:103FC000578160857185828593850E942C61DE0111
:103FD000AB5BBE4F2C93FE01EA5BFE4F3083FE01CC
:103FE000E95BFE4F4083FE01E85BFE4F5083FE011C
:103FF000E75BFE4F6083FE01E65BFE4F7083FE01D0
:10400000E55BFE4F8083FE01E45BFE4F90839E01E3
:104010002F5E3F4FFD0188E00190D9010D929D0177
:104020008150D1F771E7872E912C8C0E9D1EF401E3
:10403000208131814281538164817581868197819C
:10404000A988BA88CB88DC88ED88FE880F89188D0E
:104050000E94DB5FDE01AB5BBE4F2C93FE01EA5B8F
:10406000FE4F3083FE01E95BFE4F4083FE01E85BBB
:10407000FE4F5083FE01E75BFE4F6083FE01E65B6F
:10408000FE4F7083FE01E55BFE4F8083FE01E45B23
:10409000FE4F90839401FD0188E00190D9010D92BB
:1040A0009D018150D1F7E4E7F1E06E0E7F1ED30150
:1040B0008C91ECE8FEEF6E0E7F1EF301E80FF11D10
:1040C000E755FF4F208061E7E62EF12CEC0EFD1E38
:1040D000CE018F559F4FD7010C9111961C911197CE
:1040E00012962C91129713963C91139714964C911B
:1040F000149715965C91159716966C9116971796CE
:104100007C910E94F360E4ECF1E06E0E7F1ED3011F
:104110008C9190E0E1EFFEEF6E0E7F1ED3012D91AA
:104120003C91829F2001839F500C929F500C112440
:10413000E0E1F1E06E0E7F1ED3013C90EBE3FEEF79
:104140006E0E7F1ED7012C9111963C9111971296FD
:104150004C91129713965C91139714966C91149747
:1041600015967C91159716968C91169717969C919B
:104170000F2EF0E0EF2EF0E0FF2EF0E00F2FFFE328
:104180001F2FF02D0E94A460DE01AB5BBE4F2C936D
:10419000FE01EA5BFE4F3083FE01E95BFE4F408388
:1041A000FE01E85BFE4F5083FE01E75BFE4F60833C
:1041B000FE01E65BFE4F7083FE01E55BFE4F8083F0
:1041C000FE01E45BFE4F90839E01275E3F4FFD01A1
:1041D00088E00190D9010D929D018150D1F75DEAEF
:1041E000A52EB12CAC0EBD1EC501098D1A8D2B8DCF
:1041F0003C8D4D8D5E8D6F8D78A10E94F360E8EB54
:10420000F0E06E0E7F1ED3012D913D914D915C919A
:10421000E8E4FFEF6E0E7F1EFE01E754FF4F80E0E3
:1042200090E0A0E0B0E080839183A283B3832483F5
:1042300035834683578380879187A287B3872DB7BD
:104240003EB72C5030400FB6F8943EBF0FBE2DBF86
:10425000ADB7BEB711968CE001900D928150E1F799
:10426000CE018B539F4FD501CC901196DC901197C6
:104270001296EC9012971396FC90139714960C914B
:10428000149715961C91159716962C9116971796BC
:104290003C91179718964C91189719965C9119971D
:1042A0001A966C911A971B967C910E94B05EEDB79E
:1042B000FEB737970FB6F894FEBF0FBEEDBF31962D
:1042C00041EA842E912C8C0E9D1E20E030E040E0CF
:1042D00050E0ADB7BEB711962D933D934D935C93CF
:1042E00014975582448236821896FE01EB53FF4F95
:1042F0008CE001900D928150E1F7C301622DF40131
:10430000A080B180C280D380E480F58006811781CF
:10431000208531854285538588240E94C9042DB7A4
:104320003EB72D5E3F4F0FB6F8943EBF0FBE2DBF78
:104330000AC5892D0E942365CB5BDE4F2883C554B7
:10434000D140CA5BDE4F3883C654D140C95BDE4FD3
:104350004883C754D140C85BDE4F5883C854D1400E
:10436000C75BDE4F6883C954D140C65BDE4F78839C
:10437000CA54D140C55BDE4F8883CB54D140C45B67
:10438000DE4F9883CC54D140DE01A759BF4FFE01C8
:10439000EB5BFE4F88E001900D928150E1F7F10157
:1043A000EE0FFF1FE20DF31DEE0FFF1FEE0FFF1FBD
:1043B000E60DF71DE45DFE4FE080F1800281138180
:1043C00024813581468157816085718582859385F9
:1043D0000E942C61CB5BDE4F2883C554D140CA5B61
:1043E000DE4F3883C654D140C95BDE4F4883C75483
:1043F000D140C85BDE4F5883C854D140C75BDE4F05
:104400006883C954D140C65BDE4F7883CA54D1401B
:10441000C55BDE4F8883CB54D140C45BDE4F9883AD
:10442000CC54D140DE019196FE01EB5BFE4F88E05B
:1044300001900D928150E1F729A13AA14BA15CA115
:104440006DA17EA18FA198A5AA96AFACAA97AB96B5
:10445000BFACAB97AC96CFACAC97AD96DFACAD979D
:10446000AE96EFACAE97AF96FFACAF97E0960FADC0
:10447000E097E1961FADE1970E94185FCB5BDE4F9E
:104480002883C554D140CA5BDE4F3883C654D1401F
:10449000C95BDE4F4883C754D140C85BDE4F5883A9
:1044A000C854D140C75BDE4F6883C954D140C65B56
:1044B000DE4F7883CA54D140C55BDE4F8883CB542E
:1044C000D140C45BDE4F9883CC54D140DE01999635
:1044D000FE01EB5BFE4F88E001900D928150E1F709
:1044E00029A53AA54BA55CA56DA57EA58FA598A984
:1044F000D201AC901196BC9011971296CC90129765
:104500001396DC9013971496EC9014971596FC90E4
:10451000159716960C91169717961C910E94DB5FC3
:10452000CB5BDE4F2883C554D140CA5BDE4F388356
:10453000C654D140C95BDE4F4883C754D140C85BE5
:10454000DE4F5883C854D140C75BDE4F6883C954DF
:10455000D140C65BDE4F7883CA54D140C55BDE4F85
:104560008883CB54D140C45BDE4F9883CC54D14078
:10457000DE01D196FE01EB5BFE4F88E001900D92CB
:104580008150E1F729A93AA94BA95CA96DA97EA997
:104590008FA998ADC55ADE4F08811981CB55D140FE
:1045A0000E947B62CB5BDE4F2883C554D140CA5B3F
:1045B000DE4F3883C654D140C95BDE4F4883C754B1
:1045C000D140C85BDE4F5883C854D140C75BDE4F33
:1045D0006883C954D140C65BDE4F7883CA54D1404A
:1045E000C55BDE4F8883CB54D140C45BDE4F9883DC
:1045F000CC54D140DE01D996FE01EB5BFE4F88E042
:1046000001900D928150E1F729AD3AAD4BAD5CAD13
:104610006DAD7EAD8FAD21969FAD2197F201A0804B
:10462000B180C280D380E480F580068117810E942A
:10463000185FCB5BDE4F2883C554D140CA5BDE4F89
:104640003883C654D140C95BDE4F4883C754D1403C
:10465000C85BDE4F5883C854D140C75BDE4F6883C8
:10466000C954D140C65BDE4F7883CA54D140C55B84
:10467000DE4F8883CB54D140C45BDE4F9883CC544B
:10468000D140DE01AF5BBF4FFE01EB5BFE4F88E028
:1046900001900D928150E1F7FE01EF5BFF4F208109
:1046A000FE01EE5BFF4F3081FE01ED5BFF4F40816D
:1046B000FE01EC5BFF4F5081FE01EB5BFF4F608121
:1046C000FE01EA5BFF4F7081FE01E95BFF4F8081D5
:1046D000FE01E85BFF4F9081AA96AFACAA97AB961C
:1046E000BFACAB97AC96CFACAC97AD96DFACAD970B
:1046F000AE96EFACAE97AF96FFACAF97E0960FAD2E
:10470000E097E1961FADE1970E94DB5FCB5BDE4F48
:104710002883C554D140CA5BDE4F3883C654D1408C
:10472000C95BDE4F4883C754D140C85BDE4F588316
:10473000C854D140C75BDE4F6883C954D140C65BC3
:10474000DE4F7883CA54D140C55BDE4F8883CB549B
:10475000D140C45BDE4F9883CC54D140DE01AF58CA
:10476000BF4FFE01EB5BFE4F88E001900D92815040
:10477000E1F7CB59DE4FA881B981C556D1406D9183
:104780007C9180E090E00E94E87A7B018C01C9591D
:10479000DE4FE881F981C756D140208131814281C5
:1047A0005381CA01B9010E9451799B01AC01C80132
:1047B000B7010E94177A18160CF494C1F101EE0F9C
:1047C000FF1FE20DF31DEE0FFF1FEE0FFF1FE60DA3
:1047D000F71DE45DFE4FE080F180028113812481AA
:1047E00035814681578160857185828593850E94D8
:1047F0002C61CB5BDE4F2883C554D140CA5BDE4FB2
:104800003883C654D140C95BDE4F4883C754D1407A
:10481000C85BDE4F5883C854D140C75BDE4F688306
:10482000C954D140C65BDE4F7883CA54D140C55BC2
:10483000DE4F8883CB54D140C45BDE4F9883CC5489
:10484000D140DE01A75BBF4FFE01EB5BFE4F88E06E
:1048500001900D928150E1F7FE01E75BFF4FE29678
:104860002FADE297E3963FADE397E4964FADE49723
:10487000E5965FADE597E6966FADE697E7967FAD77
:10488000E797E8968FADE897E9969FADE997A08006
:10489000B180C280D380E480F580068117810E94B8
:1048A000DB5FCB5BDE4F2883C554D140CA5BDE4F54
:1048B0003883C654D140C95BDE4F4883C754D140CA
:1048C000C85BDE4F5883C854D140C75BDE4F688356
:1048D000C954D140C65BDE4F7883CA54D140C55B12
:1048E000DE4F8883CB54D140C45BDE4F9883CC54D9
:1048F000D140DE01AF5ABF4FFE01EB5BFE4F88E0B7
:1049000001900D928150E1F7FE01EF5AFF4F208197
:104910003181428153816481758186819781CB5A2F
:10492000DE4FE880F9800A811B81C555D1400E9485
:10493000A460CB5BDE4F2883C554D140CA5BDE4FF9
:104940003883C654D140C95BDE4F4883C754D14039
:10495000C85BDE4F5883C854D140C75BDE4F6883C5
:10496000C954D140C65BDE4F7883CA54D140C55B81
:10497000DE4F8883CB54D140C45BDE4F9883CC5448
:10498000D140DE01A75ABF4FFE01EB5BFE4F88E02E
:1049900001900D928150E1F7F101EE0FFF1FE20D42
:1049A000F31DEE0FFF1FEE0FFF1FE60DF71DE45D79
:1049B000FE4FE080F18002811381248135814681A0
:1049C000578160857185828593850E942C61CB5BC0
:1049D000DE4F2883C554D140CA5BDE4F3883C654AE
:1049E000D140C95BDE4F4883C754D140C85BDE4F1E
:1049F0005883C854D140C75BDE4F6883C954D14047
:104A0000C65BDE4F7883CA54D140C55BDE4F8883D6
:104A1000CB54D140C45BDE4F9883CC54D140DE01EF
:104A2000AF59BF4FFE01EB5BFE4F88E001900D9246
:104A30008150E1F7FE01E75AFF4FDE01AF59BF4F4A
:104A40002081318142815381648175818681978182
:104A5000AC901196BC9011971296CC901297139629
:104A6000DC9013971496EC9014971596FC9015977C
:104A700016960C91169717961C910E94185FCB5BA7
:104A8000DE4F2883C554D140CA5BDE4F3883C654FD
:104A9000D140C95BDE4F4883C754D140C85BDE4F6D
:104AA0005883C854D140C75BDE4F6883C954D14096
:104AB000C65BDE4F7883CA54D140C55BDE4F888326
:104AC000CB54D140C45BDE4F9883CC54D140DE013F
:104AD000AF58BF4FFE01EB5BFE4F88E001900D9297
:104AE0008150E1F7C15BDE4FA881B981CF54D1403D
:104AF0002D913D914D915C91E996ECACFDAC0EADE4
:104B00001FADE997E5968CAD9DADAEADBFADE59718
:104B1000CF52DF4F88839983AA83BB83C15DD04086
:104B2000CB52DF4F288339834A835B83C55DD040F6
:104B3000C752DF4FE882F9820A831B83C95DD040E8
:104B4000C559DE4FE881F981CB56D140808190E094
:104B5000C359DE4FA881B981CD56D1402D913C91EA
:104B6000829F5001839FB00C929FB00C1124C159B9
:104B7000DE4FE881F981CF56D1409080CF58DE4F8B
:104B8000A881B981C157D1402D913D914D915C9142
:104B900080E090E0A0E0B0E0C352DF4F88839983CB
:104BA000AA83BB83CD5DD040CF51DF4F28833983AB
:104BB0004A835B83C15ED040CB51DF4F88839983AA
:104BC000AA83BB83C55ED040EDB7FEB73C970FB656
:104BD000F894FEBF0FBEEDBFF101EE0FFF1FE20D17
:104BE000F31DEE0FFF1FEE0FFF1FE60DF71DE45D37
:104BF000FE4F2DB73EB72F5F3F4FAE0143525F4F81
:104C00008CE0DA010D90AD01D9010D929D0181502A
:104C1000C1F7CE0187519F4FC080D180E280F380E1
:104C20000481158126813781408551856285738590
:104C30000E94B05EEDB7FEB737970FB6F894FEBF8F
:104C40000FBEEDBF319661E070E0022C02C0660F2E
:104C5000771F0A94E2F720E030E040E050E0ADB783
:104C6000BEB711962D933D934D935C931497B582E7
:104C7000A48296821896FE01E751FF4F8CE00190C6
:104C80000D928150E1F7C301CF52DF4FA880C15D83
:104C9000D040CE52DF4FB880C25DD040CD52DF4F02
:104CA000C880C35DD040CC52DF4FD880C45DD040B7
:104CB000CB52DF4FE880C55DD040CA52DF4FF8804D
:104CC000C65DD040C952DF4F0881C75DD040C85291
:104CD000DF4F1881C85DD040C752DF4F2881C95DC2
:104CE000D040C652DF4F3881CA5DD040C552DF4F39
:104CF0004881CB5DD040C452DF4F5881CC5DD0405D
:104D0000882483940E94C904EDB7FEB773960FB64A
:104D1000F894FEBF0FBEEDBF0894211C311CC15B8F
:104D2000DE4F28813981CF54D140245F3F4FC15B92
:104D3000DE4F39832883CF54D14036E02316310427
:104D400011F00C94321E83010C581E4FD8018C9127
:104D500090E0F301E80FF91FEA58FE4F25EB30E031
:104D6000620E731ED3012C912083EAEFFFEF6E0ECB
:104D70007F1ED3016C91E1E5FFEF6E0E7F1E019661
:104D800070E00E94B080D8018C93F301EB58FE4F85
:104D9000108220E0B30161557F4FAF0113C0D301F2
:104DA000A20FB11DFD01EA58FE4F8081882311F04A
:104DB000815006C0A755BF4F8C91FA019081890F91
:104DC00080832F5FDB018C91281748F3F301EB55AB
:104DD000FF4F608171818281938120E030E040E06B
:104DE00050E00E94177A882309F07CC0E5E7F1E0E3
:104DF0006E0E7F1ED301DC90EBE8FEEF6E0E7F1E81
:104E000075EFE72EF12CEC0EFD1EF301E356FF4F7C
:104E1000C7010081118122813381448155816681DE
:104E200077810E94F36024EC31E0620E731ED3019F
:104E30009C91ECE3FEEF6E0E7F1EFE01EB5DFE4FDC
:104E400080E1DF011D928A95E9F73196D7018CE068
:104E50000D9001928150E1F7FE01EB5DFE4FD08293
:104E60009587168600D0ADB7BEB712961C921E92DB
:104E7000119787ED99E080809180A280B380C480F3
:104E8000D580E680F78000851185228533854485AD
:104E90005585668577850E940D5CE5E7F1E06E0E2D
:104EA0007F1E0F900F90D3018C91EBE8FEEF6E0EFA
:104EB0007F1E882309F417C5D30112968D919C910A
:104EC0001397009709F40FC5F301E356FF4F0081D4
:104ED00011812281338144815581668177810E94CD
:104EE000706301C5F301EC53FF4FC75ADE4FF983DE
:104EF000E883C955D14029E238E0CF5ADE4F3983E3
:104F00002883C155D140CD5ADE4F19821882C3552E
:104F1000D140A3014B585E4FC35ADE4F598348839B
:104F2000CD55D1406DE9462E512C460C571CB3018E
:104F30006C537E4FC15ADE4F79836883CF55D14081
:104F400055E3252E51E0352E2C0E3D1EC101019654
:104F5000CF59DE4F99838883C156D140C35ADE4F63
:104F6000A881B981CD55D1408C9190E0CD5ADE4FCA
:104F70000880C355D14002C0959587950A94E2F701
:104F800080FF22C3CD5ADE4F8881C355D1400E9495
:104F90002365CB5BDE4F2883C554D140CA5BDE4F0F
:104FA0003883C654D140C95BDE4F4883C754D140D3
:104FB000C85BDE4F5883C854D140C75BDE4F68835F
:104FC000C954D140C65BDE4F7883CA54D140C55B1B
:104FD000DE4F8883CB54D140C45BDE4F9883CC54E2
:104FE000D140DE01A759BF4FFE01EB5BFE4F88E0C9
:104FF00001900D928150E1F7CD5ADE4FE881F981A1
:10500000C355D140EE0FFF1FCD5ADE4F28813981A5
:10501000C355D140E20FF31FEE0FFF1FEE0FFF1F2E
:10502000EB5DF74FE080F1800281138124813581AF
:105030004681578160857185828593850E942C61A8
:10504000CB5BDE4F2883C554D140CA5BDE4F38832B
:10505000C654D140C95BDE4F4883C754D140C85BBA
:10506000DE4F5883C854D140C75BDE4F6883C954B4
:10507000D140C65BDE4F7883CA54D140C55BDE4F5A
:105080008883CB54D140C45BDE4F9883CC54D1404D
:10509000DE01A758BF4FFE01EB5BFE4F88E0019099
:1050A0000D928150E1F7EA962FADEA97EB963FAD6E
:1050B000EB97EC964FADEC97ED965FADED97EE96D6
:1050C0006FADEE97EF967FADEF97C158DF4F8881B8
:1050D000CF57D040C058DF4F9881C058D040AA96D3
:1050E000AFACAA97AB96BFACAB97AC96CFACAC9736
:1050F000AD96DFACAD97AE96EFACAE97AF96FFAC8A
:10510000AF97E0960FADE097E1961FADE1970E9453
:10511000185FCB5BDE4F2883C554D140CA5BDE4F9E
:105120003883C654D140C95BDE4F4883C754D14051
:10513000C85BDE4F5883C854D140C75BDE4F6883DD
:10514000C954D140C65BDE4F7883CA54D140C55B99
:10515000DE4F8883CB54D140C45BDE4F9883CC5460
:10516000D140DE01AF57BF4FFE01EB5BFE4F88E041
:1051700001900D928150E1F7CF57DF4F2881C15840
:10518000D040CE57DF4F3881C258D040CD57DF4F87
:105190004881C358D040CC57DF4F5881C458D040C5
:1051A000CB57DF4F6881C558D040CA57DF4F788151
:1051B000C658D040C957DF4F8881C758D040C8571C
:1051C000DF4F9881C858D040D201AC901196BC9066
:1051D00011971296CC9012971396DC901397149611
:1051E000EC9014971596FC90159716960C911697BF
:1051F00017961C910E94DB5FCB5BDE4F2883C55462
:10520000D140CA5BDE4F3883C654D140C95BDE4F04
:105210004883C754D140C85BDE4F5883C854D1403F
:10522000C75BDE4F6883C954D140C65BDE4F7883CD
:10523000CA54D140C55BDE4F8883CB54D140C45B98
:10524000DE4F9883CC54D140DE01A757BF4FFE01FB
:10525000EB5BFE4F88E001900D928150E1F7C7575C
:10526000DF4F2881C958D040C657DF4F3881CA5810
:10527000D040C557DF4F4881CB58D040C457DF4F8F
:105280005881CC58D040C357DF4F6881CD58D040AB
:10529000C257DF4F7881CE58D040C157DF4F888149
:1052A000CF58D040C057DF4F9881C059D040C75A1F
:1052B000DE4F08811981C955D1400E947B62CB5BCA
:1052C000DE4F2883C554D140CA5BDE4F3883C654B5
:1052D000D140C95BDE4F4883C754D140C85BDE4F25
:1052E0005883C854D140C75BDE4F6883C954D1404E
:1052F000C65BDE4F7883CA54D140C55BDE4F8883DE
:10530000CB54D140C45BDE4F9883CC54D140DE01F6
:10531000AF56BF4FFE01EB5BFE4F88E001900D9250
:105320008150E1F7CF56DF4F2881C159D040CE568A
:10533000DF4F3881C259D040CD56DF4F4881C35925
:10534000D040CC56DF4F5881C459D040CB56DF4FA8
:105350006881C559D040CA56DF4F7881C659D040C0
:10536000C956DF4F8881C759D040C856DF4F988152
:10537000C859D040F201A080B180C280D380E480BF
:10538000F580068117810E94185FCB5BDE4F288372
:10539000C554D140CA5BDE4F3883C654D140C95B87
:1053A000DE4F4883C754D140C85BDE4F5883C85492
:1053B000D140C75BDE4F6883C954D140C65BDE4F26
:1053C0007883CA54D140C55BDE4F8883CB54D1402B
:1053D000C45BDE4F9883CC54D140DE01A756BF4F4B
:1053E000FE01EB5BFE4F88E001900D928150E1F7EA
:1053F000C756DF4F2881C959D040C656DF4F388184
:10540000CA59D040C556DF4F4881CB59D040C45609
:10541000DF4F5881CC59D040C356DF4F6881CD59FA
:10542000D040C256DF4F7881CE59D040C156DF4FB1
:105430008881CF59D040C056DF4F9881C05AD040A4
:10544000AA96AFACAA97AB96BFACAB97AC96CFACD5
:10545000AC97AD96DFACAD97AE96EFACAE97AF968E
:10546000FFACAF97E0960FADE097E1961FADE197E7
:105470000E94DB5FCB5BDE4F2883C554D140CA5B03
:10548000DE4F3883C654D140C95BDE4F4883C754D2
:10549000D140C85BDE4F5883C854D140C75BDE4F54
:1054A0006883C954D140C65BDE4F7883CA54D1406B
:1054B000C55BDE4F8883CB54D140C45BDE4F9883FD
:1054C000CC54D140DE01AF58BF4FFE01EB5BFE4F25
:1054D00088E001900D928150E1F7E5962CAD3DAD4D
:1054E0004EAD5FADE597CF5ADE4FA881B981C1556A
:1054F000D140ED90FD900D911C91E996ACACBDAC06
:10550000CEACDFACE997C15ADE4FE881F981CF55C7
:10551000D140608180E1D1011D928A95E9F7CF5F8A
:10552000DE4F288339834A835B83C150D140CB5FF0
:10553000DE4FE882F9820A831B83C550D140C75FE2
:10554000DE4FA882B982CA82DB82C950D140CF59CE
:10555000DE4FA881B981C156D140FE01EF5FFE4FF9
:105560008CE001900D928150E1F781E090E0CD5AFE
:10557000DE4F0880C355D14002C0880F991F0A949E
:10558000E2F7F10180836587168681E0878700D086
:10559000ADB7BEB712961C921E92119787ED99E097
:1055A00080809180A280B380C480D580E680F7801F
:1055B00000851185228533854485558566857785E7
:1055C0000E940D5C0F900F90CD5ADE4FE881F9815B
:1055D000C355D1403196CD5ADE4FF983E883C35588
:1055E000D140CF5ADE4F28813981C155D140245F47
:1055F0003F4FCF5ADE4F39832883C155D14036976C
:1056000009F0ACCCD3010D911C910115110509F4E1
:105610006AC1E5E7F1E06E0E7F1ED3018C91EBE8E5
:10562000FEEF6E0E7F1E882309F45DC1F301EB557A
:10563000FF4FD8016D917D918D919C912081318199
:10564000428153810E945079F80160837183828383
:10565000938349C15301930127583F4FC35BDE4FEA
:1056600039832883CD54D14088249924CD58DE4FE6
:10567000B983A883C357D140D50114962D903D908E
:105680004D905C901797C201B10120E030E040E0FE
:1056900050E00E94177A882309F451C0F5018089EF
:1056A0008823A9F5CD58DE4FA881B981C357D140D1
:1056B0006D917C9180E090E00E94E87A22E93AE0E6
:1056C00046E85EE30E94E87CF5012085318542854D
:1056D00053850E94E87CD5011C962D913D914D91FA
:1056E0005C911F970E9451790E944B7D9B01AC01F8
:1056F000C201B1010E94E87CC35BDE4FE881F98101
:10570000CD54D140608371838283938318C0C401D8
:10571000880F991F880F991F87589F4FD50118969A
:10572000CD90DD90ED90FC901B97860D971D40E08D
:1057300050E060E070E0920181010E94440F089403
:10574000811C911CEDE0F0E0AE0EBF1EC35BDE4F8E
:1057500028813981CD54D1402C5F3F4FC35BDE4F50
:1057600039832883CD54D14039E08316910409F060
:1057700083CF4DE750E0640E751ED3012D913D910E
:105780004D915D913D01ED90FD900D911C918DE04D
:10579000882E81E0982E8C0E9D1EE8EFFFEF6E0E96
:1057A0007F1EF30180819181A281B381F401808306
:1057B0009183A283B383D40114962D933D934D938B
:1057C0005C931797E086F1860287138720E130E02B
:1057D000620E731ED3012D913D914D915D913D015E
:1057E000ED90FD900D911C91FE01E75EFE4F68EF7C
:1057F0007FEF660E771ED301AD90BD90CD90DC900B
:105800006BE77FEF660E771EA082B182C282D382E1
:105810002483358346835783E086F1860287138786
:105820008DB79EB74B970FB6F8949EBF0FBE8DBF36
:105830002DB73EB72F5F3F4FB30164587E4FD9015C
:105840008CE001900D928150E1F7A1E9B0E06A0E81
:105850007B1EF30181919191A191B1913F01F901D9
:1058600084879587A687B787F30181919191A1914C
:10587000B1913F01F901808B918BA28BB38BF30126
:1058800080819181A281B381F901848B958BA68B54
:10589000B78B4BE251E0640E751ED3018D913D0133
:1058A000808F118E8C91EBE3FEEF6E0E7F1ED9017F
:1058B0005A968C93C301F401A080B180C280D3803A
:1058C000E480F580068117812085318542855385E6
:1058D0000E94FF092DB73EB7255E3F4F0FB6F894E3
:1058E0003EBF0FBE2DBFF301E653FE4F8081918175
:1058F00001969183808302C0DA011C92CC58DE4F5E
:105900000FB6F894DEBF0FBECDBFCF91DF911F91D0
:105910000F91FF90EF90DF90CF90BF90AF909F904E
:105920008F907F906F905F904F903F902F90089551
:10593000AF92BF92CF92DF92EF92FF920F931F939D
:10594000CF93DF93EC0175EAC72ED12CC80ED91E78
:10595000D601ED90FD900D911C91C801B70120E09A
:1059600030E040E050E00E94177A8823E9F0B80167
:10597000A7017058CE018C539F4F0E94426DC054B6
:10598000DF4FF601608171818281938128813981A5
:105990004A815B810E94E87CAB01BC016496CE0128
:1059A000C45DD0400E94426D20E0AE0141555F4F82
:1059B00065EBA62EB12CAC0EBD1E0BC0FE01E20F96
:1059C000F11DEA58FE4F8081D5019C91890F80839B
:1059D0002F5FFA01D0802D1588F3C954DF4F18824C
:1059E000C75BD040FE01E653FE4FCF54DF4F288106
:1059F000398180819181B9010E949C80918380834B
:105A00008D2D90E06A91AC01429FC001439F900DA3
:105A1000529F900D112470E00E94B080882777FD7E
:105A20008095982F0E94EA7A7B018C012C966993CD
:105A3000799389939993D5016D917C91882777FD0E
:105A40008095982F0E94EA7A9B01AC01C801B701AA
:105A50000E94507920E030E040E05FE30E94E87C63
:105A6000688379838A839B83C05CD040FE01EC58B5
:105A7000FE4F808190E06D2D70E00E949C808083BD
:105A8000CC53DE4F688170E0882777FD8095982F92
:105A90000E94EA7A20E030E040E850E40E94E87C8E
:105AA0000E94B77A289679836883DF91CF911F91FE
:105AB0000F91FF90EF90DF90CF90BF90AF9008953F
:105AC0002F923F924F925F926F927F928F929F920E
:105AD000AF92BF92CF92DF92EF92FF920F931F93FC
