S013000053414D53412049492076392E737265631B
S2140000000C94A3020C9433760C9464760C94957638
S2140000100C94C6760C94F7760C9428770C94597743
S2140000200C948A770C94CD020C94CD020C94CD02DD
S2140000300C94CD020C94CD020C94CD020C949D70C1
S2140000400C94CD020C94CD020C94CD020C94CD02EF
S2140000500C94CD020C94CD020C94CD020C94D3706B
S2140000600C94CD020C946D740C94CD020C94CD02BD
S2140000700C94CD020C94CD020C94CD020C94CD02BF
S2140000800C94CD020C94CD020C94CD020C94CD02AF
S2140000900C94F5020C94CD020C94CD020C94CD0277
S2140000A00C94CD020C94CD020C94CD020C94CD028F
S2140000B00C94CD020C94CD020C94CD020C94CD027F
S2140000C00C94CD020C94CD020C94CD020C94A27428
S2140000D00C94CD020C94CD020C94CD020C94CD025F
S2140000E00C94CD020C040A0408040804080408044E
S2140000F00C040A040C040A040A040804080408048D
S2140001000C040A0408040804080408040C040A047E
S2140001100C040A0408040804080408040804080474
S2140001200C040A040C040A040C040A040C040A0452
S2140001300C040A040C040A040804080408040A044C
S214000140080408040C041C041C041C0420041E04DC
S21400015020041E041E041C041C041C0420041E048C
S2140001601C041C041C041C041E041E041E041E0482
S2140001701C041C041C041C041C041C0420041E0474
S21400018020041E0420041E041E041E041E041E0456
S2140001901E041E041E041E041C041E041E041C044E
S2140001A020045D4E5B4E654E654E654E614E5B4E61
S2140001B0654E5F4E5F4E634E654E5F4E5B4E5F4EC6
S2140001C0594E5B4E5F4E5B4E5B4E5B4E5B4E5B4EE0
S2140001D05B4E5B4E5B4E5F4E5F4E634E5B4E634EBA
S2140001E05B4E634E654E654E654E654E5B4E5B4E92
S2140001F0654E5B4E5D4E5B4E5B4E5B4E654E654E92
S214000200654E5B4E654E654E654E654E654E654E5B
S214000210634E654E654E5B4E634E654E634E634E53
S214000220634E654E5B4E5B4E5B4E5B4E5B4E594E71
S2140002305B4E5B4E5D4E5F4E5B4E5D4E654E5B4E5F
S2140002405B4E5B4E5B4E594E5B4E594E5B4E654E5B
S214000250654E654E5B4E5B4E5B4E634E5B4E634E2D
S214000260794E7B4E7B4E7D4E7D4E7D4E7B4E7D4E3B
S214000270794E794E7D4E7D4E794E7B4E794E7B4E35
S2140002807B4E794E7B4E7B4E7B4E7B4E7B4E7B4E23
S2140002907B4E7B4E794E794E7D4E7B4E7D4E7B4E11
S2140002A07D4E7D4E7D4E7D4E7D4E7B4E7B4E7D4EF5
S2140002B07B4E794E7B4E7B4E7B4E7D4E7D4E7D4EED
S2140002C07B4E7D4E7D4E7D4E7D4E7D4E7D4E7D4ED3
S2140002D07D4E7D4E7B4E7D4E7D4E7D4E7D4E7D4EC3
S2140002E07D4E7B4E7B4E7B4E7B4E7B4E7B4E7B4EBF
S2140002F07B4E794E794E7B4E794E7D4E7B4E7B4EB5
S2140003007B4E7B4E7B4E7B4E7B4E7B4E7D4E7D4E9C
S2140003107D4E7B4E7B4E7B4E7D4E7B4E084AD73BBA
S2140003203BCE016E84BCBFFDC12F3D6C74319ABDBF
S21400033056833DDA3D00C77F11BED9E4BB4C3E91E3
S2140003406BAAAABE000000803F07634236B79BD860
S214000350A71A39685618AEBAAB558C1D3CB7CC57A1
S21400036063BD6DEDFD753EF6177231BF000000806F
S2140003703F072C7AA5BA6CC590DA3B9365FC8BBC1C
S21400038053F810FD3C5692834DBD879D3AB63DCB43
S214000390C9BF5BBE73DA0FC93F05A84CCDB2D44EB9
S2140003A0B93836A9020C50B9918688083CA6AAAA84
S2140003B02ABE000000803F08000000BE92244912BA
S2140003C03EABAAAA2ABECDCCCC4C3E00000080BED6
S2140003D0ABAAAAAA3E00000000BF000000803F00B3
S2140003E000000000084178D3BB4387D1133D190EA7
S2140003F03CC3BD4282AD2B3E68EC8276BED98FE10F
S214000400A93E4C80EFFFBE01C4FF7F3F0000000006
S2140004100000002100240027002A002D00300033B1
S2140004200001010000040107010A01000022002566
S2140004300028002B002E00310034000201000005C9
S2140004400108010B01000020002300260029002CD3
S214000450002F00320000010000030106010901051B
S214000460050505070508080808020202020A0A0828
S214000470080404040401010101010101010303034E
S2140004800303030303040707070C0C0C0C0C0C0CEB
S2140004900C0202020206060606060606060B0B0BF2
S2140004A00B0B0B0B0B01021020200808102040102D
S2140004B02040800201020108040201010204081023
S2140004C02040808040201008040201800402018041
S2140004D0402010080402010804020101020408106A
S2140004E020408001020408102040800000090A0213
S2140004F0080B0C0D070603040100000000000000B6
S21400050000000000000000000000000000000000E6
S21400051000000000000000100F0E000000000000A9
S21400052000000000000000000000000000000000C6
S2140005300000950823157D32124D384E8D4E15510C
S214000540426B88750E5111241FBECFEFD1E2DEBF7D
S214000550CDBF15E0A0E0B2E0E4E3F4E001E00BBFBD
S21400056002C007900D92AE3BB107D9F714E1AEEB8F
S214000570B5E001C01D92A33DB107E1F715E0C4E464
S214000580D5E004C02297FE010E94577FC233D107F0
S214000590C9F70E94E7730C940D820C940000E9ECF6
S2140005A0F0E080818F77808380818F7E808380815A
S2140005B0886080830895E9ECF0E08081877F8083FF
S2140005C08081806180838081806880831092DE05D0
S2140005D00895E9ECF0E080818F77808380818F7EBC
S2140005E080838081877F808308951F920F920FB645
S2140005F00F920BB60F9211248F939F93EF93FF9356
S2140006008091DE059091CE00EEEBF5E0E80FF11D4F
S21400061090838F5F8093DE05FF91EF919F918F917E
S2140006200F900BBE0F900FBE0F901F9018959B015A
S214000630AC0183E0220F331F441F551F8A95D1F764
S21400064060E074E284EF90E00E943A7F21503040F0
S214000650E8ECF0E08081826080833093CD002093C8
S214000660CC001092DE050E94E9020895FC0160832A
S214000670118282E082830895FC018EEF80831182CE
S21400068012820895DF92EF92FF920F931F93082F26
S214000690D62E142FF22EE32E0E94CF028091C80091
S2140006A085FFFCCF8FEF8093CE008091C80085FF3A
S2140006B0FCCF8FEF8093CE008091C80085FFFCCFE3
S2140006C00093CE004D2D4E5F8091C80085FFFCCF75
S2140006D04093CE008091C80085FFFCCF1093CE00DB
S2140006E0410F400F8F2D9E2D9C01F90190E00AC00E
S2140006F020818091C80085FFFCCF2093CE00420F5A
S2140007009F5F31969D15A0F38091C80085FFFCCFB2
S21400071040954093CE000E94DB021F910F91FF9000
S214000720EF90DF900895FF920F931F9300E010E084
S21400073007C02F5F3F4F84E02E34380741F415C0C2
S21400074020E030E0E02FF0E0AF01410F511D809136
S214000750DE0590E04817590761F33CC0E254FA4FB3
S21400076080818F3FC9F10F5FEBCF0E94E90290E0D6
S2140007709F5FF92EF00E212F291B4F2D50E0FA0116
S214000780E254FA4F80818F3F99F3923008F090E060
S214000790DA011196FD01E254FA4F70817E5F27134D
S2140007A09E5F9A0160E007C0F901E254FA4F80812B
S2140007B0680F2F5F3F4F822F841B8717A8F36F3F6A
S2140007C009F09C5FA254BA4F9C938F2D1F910F91F6
S2140007D0FF900895112311F21F5F1D3008F4B0CF6B
S2140007E0C4CF20E0181619060CF421E0822F0895D5
S2140007F0880F81500895E82FF0E0E133F10550F4BA
S214000800EE58FF4FEE0FFF1F0590F491E02D099470
S21400081081E0089580E0089582E0089590E0FC016C
S2140008203397EE32F10550F4ED55FF4FEE0FFF1FF4
S2140008300590F491E02D099481E0089580E00895F4
S21400084082E00895CF93DF93EC018A81861750F1FA
S2140008500E949303282F30E0F901E254FA4F90816A
S214000860F901E154FA4F6081F901E054FA4FA08192
S2140008708881981719F440E050E002C040E054E048
S214000880E62FF0E0F695FE2FEE27F795E7958A2FF0
S21400089090E0E82BF92BE42BF52BC9018F539A4FE8
S2140008A0382F04C00E94E902EFEFFFEF832FBF014D
S2140008B0DF91CF9108950F931F93DF93CF9300D0CE
S2140008C0CDB7DEB78C0169834A83FC01808162E084
S2140008D042E09E012F5F3F4F0E944203C80161E045
S2140008E00E9422040F900F90CF91DF911F910F91DD
S2140008F008950F931F938C01FC01808160E041E016
S21400090020E030E00E944203C80160E00E9422041A
S214000910CB011F910F910895DC01FA01643251F06A
S214000920653218F46E31C9F505C0663281F068325A
S214000930A1F50DC011968C91882379F18FEF93E085
S21400094020813181821B930B91838083089540819F
S214000950518120E030E060E070E084E040305807ED
S21400096014F061E070E011968C9190E068177907BA
S21400097011F021E030E0220F331F822F815099279B
S21400098087FD909553709C01249FC001259F900D74
S214000990349F900D1124918380830895EF92FF92E7
S2140009A00F931F93DF93CF9300D000D0CDB7DEB761
S2140009B07C01062F862F0E94FB03182F8EEF9FEFD9
S2140009C09A8389831123D9F0C701602F412F0E9493
S2140009D05B04FC017A8369832081113031F09181B8
S2140009E080E030E0282B392B01C030E03C832B839D
S2140009F0C701602FAE014D5F5F4F0E948C04698176
S214000A007A818B819C810F900F900F900F90CF91E1
S214000A10DF911F910F91FF90EF9008952F923F92D4
S214000A204F925F926F927F928F929F92AF92BF92F9
S214000A30CF92DF92EF92FF920F931F93DF93CF93A5
S214000A40CDB7DEB7862E242E39014DB65EB6362ECD
S214000A503394439D902C112422E0920EEDB7FEB7FE
S214000A60E919F1090FB6F894FEBF0FBEEDBFADB69B
S214000A70BEB60894A11CB11C8183F5016183680190
S214000A8012E0EE24FF241DC0D501A10FB11DF30115
S214000A90EE0DFF1D80818C931F5F9501210F311D88
S214000AA01150F60160817181C901482D50E00E9405
S214000AB0A781130D0894E11CF11C22E030E0C20E61
S214000AC0D31EE21408F38EEF692D43E895010E94C9
S214000AD042030E94E9020FB6F8945EBE0FBE4DBEFA
S214000AE0CF91DF911F910F91FF90EF90DF90CF9005
S214000AF0BF90AF909F908F907F906F905F904F9039
S214000B003F902F9008956F927F928F929F92AF9210
S214000B10BF92CF92DF92EF92FF920F931F93DF93D5
S214000B20CF93CDB7DEB7082F5B018DB69EB690E0AB
S214000B30BC01660F771F660F771FADB7BEB7A61B43
S214000B40B70B0FB6F894BEBF0FBEADBFEDB6FEB680
S214000B500894E11CF11C880F991FEDB7FEB7E81B3F
S214000B60F90B0FB6F894FEBF0FBEEDBFCDB6DEB6DE
S214000B700894C11CD11CBA01A90110E032C0A12FF3
S214000B80B0E09D01220F331F220F331F2E0D3F1D95
S214000B90FB018081F9018083FB0181919191BF0166
S214000BA0892F990F990BF90181833D01660C771CFB
S214000BB0F3013196EE0FFF1FEE0DFF1DDA018C914B
S214000BC08083FA0181919191AF01892F990F990B3A
S214000BD0D90113968C936C0C7D1CF3013183208312
S214000BE01F5F101760F28EE164E0402F95018601CA
S214000BF00E940E050FB6F8949EBE0FBE8DBECF9116
S214000C00DF911F910F91FF90EF90DF90CF90BF90F4
S214000C10AF909F908F907F906F9008959F92AF9225
S214000C20BF92CF92DF92EF92FF920F931F93DF93C4
S214000C30CF93CDB7DEB76C01962E142FADB6BEB6E9
S214000C40842F90E001964DB75EB7481B590B0FB640
S214000C50F8945EBF0FBE4DBFEDB6FEB60894E11C1D
S214000C60F11CEDB7FEB76183A7014F5F5F4FCA0166
S214000C70B901412F50E00E94A781612F6F5F0023CA
S214000C8021F0F601808144E003C0F601808143E054
S214000C9097010E944203C60162E00E942204072FC9
S214000CA0162FF6E1F91520F088E893E10E9493707C
S214000CB0812F902F0FB6F894BEBE0FBEADBECF915B
S214000CC0DF911F910F91FF90EF90DF90CF90BF9034
S214000CD0AF909F900895BF92CF92DF92EF92FF92CF
S214000CE00F931F93DF93CF9300D0CDB7DEB77C0171
S214000CF0062F5A834983B22ECDB6DEB6862F0E94C3
S214000D000E04182F882319F42EEF3FEF27C0C701D3
S214000D10602FAE014F5F5F4F0E948C048DB79EB769
S214000D20811B91090FB6F8949EBF0FBE8DBFEDB71D
S214000D30FEB7319689819A81ADB7BEB711968C936E
S214000D40113021F0892F990F990B8183C701602FED
S214000D50412F9F010B2D0E940E069C01C9010FB664
S214000D60F894DEBE0FBECDBE0F900F90CF91DF91F0
S214000D701F910F91FF90EF90DF90CF90BF90089556
S214000D80AC01FB01EC5FF54F2081822F8F5F8F77E0
S214000D908083FB01EB5FF54F80818150808330E0DC
S214000DA084E190E0289FF001299FF00D389FF00D18
S214000DB01124E60FF71FDA01389680E101900D92B4
S214000DC08150E1F7CA010895DF93CF93CDB7DEB720
S214000DD064970FB6F894DEBF0FBECDBF50E0FA01A1
S214000DE0EE0FFF1FEE0FFF1FE40FF51F3196EE0FFD
S214000DF0FF1FEE0FFF1FDE011196E80FF91F24E11B
S214000E0001900D922150E1F770E0DA01AA0FBB1FA6
S214000E10AA0FBB1FA40FB51F1196AA0FBB1FAA0FC0
S214000E20BB1FFB01EE0FFF1FEE0FFF1FE60FF71FA6
S214000E303196EE0FFF1FEE0FFF1FA80FB91FE80F2A
S214000E40F91F24E101900D922150E1F7FB01EE0F0E
S214000E50FF1FEE0FFF1FE60FF71F3196EE0FFF1F67
S214000E60EE0FFF1FE80FF91FDE01119684E10D90CB
S214000E7001928150E1F764960FB6F894DEBF0FBE7C
S214000E80CDBFCF91DF9108956F927F928F929F9200
S214000E90AF92BF92CF92DF92EF92FF920F931F9383
S214000EA0DF93CF93CDB7DEB760970FB6F894DEBF6B
S214000EB00FBECDBF3C0189829A82AB82BC82CD82B6
S214000EC0DE82EF82F88609871A872B873C874D8754
S214000ED05E876F87788B25E03AE0620E731EF3011B
S214000EE090812BEF35EF620E731E97FF02C080E0F5
S214000EF0A0C0809170008E7F80937000E4E0FAE0DE
S214000F006E0E7F1EF30100812CEF35EF620E731E0E
S214000F10090F0F77202F30E0F30140815181628165
S214000F207381F901EE0FFF1FEE0FFF1FE20FF31F95
S214000F303196EE0FFF1FEE0FFF1FE60DF71D89A17E
S214000F409AA1AA2797FDA095BA2F840F951FA61FD2
S214000F50B71F80839183A283B38384E190E0289FA8
S214000F60F001299FF00D389FF00D1124E60DF71DB6
S214000F703896DE01119680E10D9001928150E1F7DE
S214000F8025E03AE0620E731EF301F0802BEF35EF9A
S214000F90620E731EFF2009F440C054E0C52E5AE0CE
S214000FA0D52EC60CD71CFA94F60110811F0D1F779C
S214000FB0802F90E0DC01AA0FBB1FAA0FBB1FA80F53
S214000FC0B91F1196AA0FBB1FAA0FBB1FA60DB71DF0
S214000FD0812F90E0FC01EE0FFF1FEE0FFF1FE80FC2
S214000FE0F91F3196EE0FFF1FEE0FFF1FE60DF71DE0
S214000FF02D913D914D915C9180819181A281B3812B
S214001000281739074A075B0740F4C301602F412FB2
S2140010100E94E406012FFF2031F6F301EB5FF54F47
S21400102080818F5F808380917000816080937000E4
S21400103081E060960FB6F894DEBF0FBECDBFCF91AD
S214001040DF911F910F91FF90EF90DF90CF90BF90B0
S214001050AF909F908F907F906F9008958F929F9201
S214001060AF92BF92CF92DF92EF92FF920F931F93B1
S214001070CF93DF93EC016A017B01CB5FD54F0881EC
S214001080C550DA4061E070E002C0660F771F2A950F
S214001090E2F74FEF5FEF10E034E0A32E3AE0B32E16
S2140010A0AC0EBD1E24E1822E912C2FC0F50180814E
S2140010B0810F8F77282F30E0F901EE0FFF1FEE0F1C
S2140010C0FF1FE20FF31F3196EE0FFF1FEE0FFF1FFD
S2140010D0EC0FFD1F80819181A281B381C816D906CD
S2140010E0EA06FB06A0F0289DF001299DF00D389D2C
S2140010F0F00D1124EC0FFD1F808590E086239723CA
S214001100892B09F49A011F5FA901101778F2CA010A
S214001110DF91CF911F910F91FF90EF90DF90CF90CE
S214001120BF90AF909F908F9008951092E30F10920B
S214001130E40F1092DF051092E0051092E105109280
S214001140E20508953F924F925F926F927F928F9240
S2140011509F92AF92BF92CF92DF92EF92FF920F9341
S2140011601F93CF93DF93782E692E4B01342EE9011F
S214001170809170008E7F80937000272D392FC901D3
S214001180DC01EBE0F4E08CE001900D928150E1F799
S214001190F40180819181A281B381AE01662757FD5B
S2140011A06095762F480F591F6A1F7B1FE4E14E2E6D
S2140011B0512CC401232D0E942E08EC01FFEF8F3F17
S2140011C09F07C1F1849D5001859DB00C949DB00C85
S2140011D01124A80CB91CF5013996872D962DD5013A
S2140011E01996CC90D180E280F38004811581268107
S2140011F0378140855185628573850E94C63EFE0113
S214001200EE0FFF1FEE0FFF1FEC0FFD1F3196EE0FC8
S214001210FF1FEE0FFF1FE80DF91D4081518162810F
S2140012207381F5018789882311F54150504060404D
S2140012307040BFCF832D90E0FC01EE0FFF1FE80F3C
S214001240F91FEE0FFF1FEE0FFF1FEC5AFD4E872D06
S214001250962DC080D180E280F3800481158126819E
S214001260378140855185628573850E94C63E809190
S2140012707000816080937000872D962DDF91CF914E
S2140012801F910F91FF90EF90DF90CF90BF90AF909F
S2140012909F908F907F906F905F904F903F900895B3
S2140012A08F929F92AF92BF92CF92DF92FF920F9350
S2140012B01F93DF93CF93CDB7DEB760970FB6F89442
S2140012C0DEBF0FBECDBF8C01FF2495E0A92E9AE0AD
S2140012D0B92EA00EB11E84E0C82E8AE0D82EC00E0D
S2140012E0D11E4E010894811C911C08C0C401B8018F
S2140012F00E94C006C4010E941939F394F50180814A
S214001300882329F42FEF3FEF4FEF5FEF15C0F6016C
S214001310808190E0FC01EE0FFF1FEE0FFF1FE80F2D
S214001320F91F3196EE0FFF1FEE0FFF1FE00FF11FA4
S2140013302081318142815381F80180819181A2818F
S214001340B38182179307A407B50780F6FF2019F02C
S2140013500E941434F82EF80180819181A281B38115
S2140013600196A11DB11D80839183A283B3838F2D27
S21400137060960FB6F894DEBF0FBECDBFCF91DF915B
S2140013801F910F91FF90DF90CF90BF90AF909F90EE
S2140013908F9008950F931F93182F092FFB0150E08D
S2140013A08DE090E09C01429FC001439F900D529FAC
S2140013B0900D1124E80FF91F212F302FC901DC01F1
S2140013C034968DE001900D928150E1F7812F902F99
S2140013D01F910F91089570E0EDE0F0E0DF016A9F45
S2140013E0F0016B9FF00D7A9FF00D1124E80FF91FA6
S2140013F02483358346835783089570E0EDE0F0E05C
S214001400DF016A9FF0016B9FF00D7A9FF00D1124AB
S214001410E80FF91F2087318742875387089570E0C9
S214001420EDE0F0E0DF016A9FF0016B9FF00D7A9F20
S214001430F00D1124E80FF91F248735874687578754
S214001440089570E02DE030E0629FF001639FF00D9C
S214001450729FF00D1124E80FF91F408B0895EF924C
S214001460FF920F931F93CF93DF93DC01A758BF4FD4
S21400147020E030E04DE0E42EF12C1DE040E050E0AE
S21400148060E070E02E9DF0012F9DF00D3E9DF00D6A
S2140014901124E80FF91F3496EF01012F19920A95CF
S2140014A0E9F74D935D936D937D932F5F3F4F293002
S2140014B0310541F7DF91CF911F910F91FF90EF908B
S2140014C008959C0128563E4FC90108952F923F92D9
S2140014D04F925F926F927F928F929F92AF92BF923F
S2140014E0CF92DF92EF92FF920F931F93DF93CF93EB
S2140014F0CDB7DEB7C359D0400FB6F894DEBF0FBEE7
S214001500CDBFEB966FAFEB97BE016F5B7F4FDB01F6
S214001510AC92FE01EE5BFF4FB082FE01ED5BFF4F2B
S214001520C082FE01EC5BFF4FD082CE018B5B9F4FEB
S214001530FC01E082FE01EA5BFF4FF082FE01E95B00
S214001540FF4F0083FE01E85BFF4F1083DE01A75BC1
S214001550BF4F2C93FE01E65BFF4F3083FE01E55B39
S214001560FF4F4083FE01E45BFF4F5083EC968FAE47
S214001570EC97FB012081318142815381A5962CAFE7
S2140015803DAF4EAF5FAFA597FC0120813181428110
S2140015905381A1962CAF3DAF4EAF5FAFA1972D9173
S2140015A03D914D915C916D962CAF3DAF4EAF5FAFC8
S2140015B06D97C155DF4F88819981AA81BB81CF5A2B
S2140015C0D04069968CAF9DAFAEAFBFAF6997CD5494
S2140015D0DF4F288139814A815B81C35BD0406596A5
S2140015E02CAF3DAF4EAF5FAF6597C954DF4F8881D4
S2140015F09981AA81BB81C75BD04061968CAF9DAFB5
S214001600AEAFBFAF6197C255DF4F9881CE5AD0407C
S214001610692F70E0882777FD8095982F0E94637B5E
S2140016209B01AC0160E070E080E89FE30E94977A3F
S214001630EA966CAF7DAF8EAF9FAFEA97C455DF4F8B
S21400164068817981CC5AD040882777FD8095982F7D
S2140016500E94637BEA962CAD3DAD4EAD5FADEA973A
S2140016600E94A67DE6966CAF7DAF8EAF9FAFE697E5
S2140016708820B9F420E030E040E050E0E1962CAF5E
S2140016803DAF4EAF5FAFE197AD962CAF3DAF4EAFDF
S2140016905FAFAD97A9962CAF3DAF4EAF5FAFA997A2
S2140016A038C0EB968FADEB970E94793FF82EC85561
S2140016B0DF4F688179818A819B81C85AD0400E9419
S2140016C0307B8B019C01CE0149966FED75E04F2D66
S2140016D098010E94A20889A19AA1ABA1BCA1E1969B
S2140016E08CAF9DAFAEAFBFAFE1972D8D3E8D4F8DCA
S2140016F058A1AD962CAF3DAF4EAF5FAFAD97898D7D
S2140017009A8DAB8DBC8DA9968CAF9DAFAEAFBFAF9B
S214001710A997E2961FAEE2970F2EF0E04F2EF0E06C
S2140017205F2EF0E06F2EF0E07F2EF02DC157DF4FDA
S2140017301882CF58D040C057DF4F1882C059D040CB
S214001740CF56DF4F1882C159D0403324C457DF4FDD
S2140017501882CC58D040C357DF4F1882CD58D0409F
S214001760C257DF4F1882CE58D0402224C857DF4FCA
S2140017701882C858D040C757DF4F1882C958D04083
S214001780C657DF4F1882CA58D040C557DF4F188259
S214001790CB58D040CC57DF4F1882C458D040CB57D8
S2140017A0DF4F1882C558D040CA57DF4F1882C65838
S2140017B0D040C957DF4F1882C758D040C058DF4FB7
S2140017C01882C058D040CF57DF4F1882C158D0403B
S2140017D0CE57DF4F1882C258D040CD57DF4F188201
S2140017E0C358D040ED961FAEED97EE961FAEEE971F
S2140017F0EF961FAEEF97C158DF4F1882CF57D040F5
S214001800DE01D196CE56DF4FB983A883C259D040A9
S21400181006C2C301B201EA962CAD3DAD4EAD5FAD3A
S214001820EA970E94CA792B013C01EC96BFADEC9773
S214001830BB2309F068C0C857DF4FE881C858D040BE
S214001840CC57DF4FE883C458D040C757DF4FF881E6
S214001850C958D040CB57DF4FF883C558D040C6573D
S214001860DF4F2881CA58D040CA57DF4F2883C65852
S214001870D040C557DF4F3881CB58D040C957DF4FCF
S2140018803883C758D040C457DF4F4881CC58D04023
S214001890C058DF4F4883C058D040C357DF4F5881E9
S2140018A0CD58D040CF57DF4F5883C158D040C2578D
S2140018B0DF4F8881CE58D040CE57DF4F8883C2583E
S2140018C0D040CD57DF4F2882C358D040C157DF4F96
S2140018D09881CF58D040ED969FAFED97C057DF4F19
S2140018E0A881C059D040EE96AFAFEE97CF56DF4FE7
S2140018F0B881C159D040EF96BFAFEF97C158DF4FC0
S2140019003882CF57D040A9966CAD7DAD8EAD9FADD9
S214001910A99769962CAD3DAD4EAD5FAD6997A5967E
S214001920ECACFDAC0EAD1FADA597630152010E9455
S214001930013AC857DF4F6883C858D040C757DF4FB3
S2140019407883C958D040C657DF4F8883CA58D040DE
S214001950C557DF4F9883CB58D040AD966CAD7DAD64
S2140019608EAD9FADAD9765962CAD3DAD4EAD5FADE2
S2140019706597A196ECACFDAC0EAD1FADA1970E948D
S214001980013AC457DF4F6883CC58D040C357DF4F67
S2140019907883CD58D040C257DF4F8883CE58D0408A
S2140019A0292EE1966CAD7DAD8EAD9FADE19761962B
S2140019B02CAD3DAD4EAD5FAD61976D96ECACFDAC1C
S2140019C00EAD1FAD6D970E94013AC157DF4F688379
S2140019D0CF58D040C057DF4F7883C059D040CF563D
S2140019E0DF4F8883C159D040392E482F592FCB015D
S2140019F0DA0189879A87AB87BC87C457DF4F28816F
S214001A00CC58D040C357DF4F3881CD58D040C2574E
S214001A10DF4F4881CE58D040522DC901DA018D8360
S214001A209E83AF83B887C857DF4F2881C858D040F9
S214001A30C757DF4F3881C958D040C657DF4F488157
S214001A40CA58D040C557DF4F5881CB58D040C9013F
S214001A50DA0189839A83AB83BC83CC57DF4F288116
S214001A60C458D040CB57DF4F3881C558D040CA57EE
S214001A70DF4F4881C658D040C957DF4F5881C758F6
S214001A80D040C901DA018D879E87AF87B88BC058D2
S214001A90DF4F2881C058D040CF57DF4F3881C1581C
S214001AA0D040CE57DF4F4881C258D040CD57DF4F89
S214001AB05881C358D040C901DA01898B9A8BAB8B09
S214001AC0BC8BED962FADED97EE963FADEE97EF966D
S214001AD04FADEF97C158DF4F5881CF57D040C9015F
S214001AE0DA018D8B9E8BAF8BB88FEDB7FEB73C9728
S214001AF00FB6F894FEBF0FBEEDBFADB7BEB71196DA
S214001B00FE013D968CE001900D928150E1F7CE01EA
S214001B108596C980DA80EB80FC800D811E812F813E
S214001B20388549855A856B857C850E94333BCE5621
S214001B30DF4FA881B981C259D040E0E11D92EA95F5
S214001B40E9F7DE01D296FE01B5968CE001900D9283
S214001B508150E1F7EB96FFADEB97F9ABE6966CADEF
S214001B607DAD8EAD9FADE6970E94307B7FAF6EAFAA
S214001B70EC962FADEC9721962FAF21974DB75EB719
S214001B80465F5F4F0FB6F8945EBF0FBE4DBF0DB7F2
S214001B901EB70F5F1F4FC855DF4F688179818A8156
S214001BA09B81C85AD0400E94307BD8016D937C93AD
S214001BB08FED95E089A89AA8ABA8BCA8CDA8DEA80A
S214001BC0EFA8F8AC09AD1AAD2BAD3CAD4DAD5EAD92
S214001BD06FAD21967FAD21970E944407C855DF4F11
S214001BE0688179818A819B81C85AD040E6962CAD5F
S214001BF03DAD4EAD5FADE6970E94CA79C855DF4F42
S214001C00688379838A839B83C85AD040E296BFADA7
S214001C10E297BF5FE296BFAFE2970F900F90E29613
S214001C20EFADE297C255DF4FF881CE5AD040EF179E
S214001C3008F4EFCDCD56DF4F0FB6F894DEBF0FBEDB
S214001C40CDBFCF91DF911F910F91FF90EF90DF9066
S214001C50CF90BF90AF909F908F907F906F905F9047
S214001C604F903F902F9008952F923F924F925F9201
S214001C706F927F928F929F92AF92BF92CF92DF9297
S214001C80EF92FF920F931F93DF93CF93CDB7DEB7FC
S214001C90A0970FB6F894DEBF0FBECDBF5E8F4D8FF8
S214001CA019012B0166247724CE010D9698A38F8FF9
S214001CB0DE011196F2018CE001900D928150E1F761
S214001CC0EF8DF8A180E111928A95E9F7DE011E9664
S214001CD0FE0131968CE001900D928150E1F781E093
S214001CE090E0062C02C0880F991F0A94E2F78D87B1
S214001CF03B8E2A8E91E09C8F00D08D8D9E8DEDB709
S214001D00FEB7928381838FED95E08D849E84AF84A9
S214001D10B888C988DA88EB88FC880D891E892F89DF
S214001D20388D498D5A8D6B8D7C8D0E9444070894A2
S214001D30611C711CECE0F0E04E0E5F1E0F900F90E1
S214001D40F6E06F16710409F0B3CFA0960FB6F894BC
S214001D50DEBF0FBECDBFCF91DF911F910F91FF90D9
S214001D60EF90DF90CF90BF90AF909F908F907F9036
S214001D706F905F904F903F902F900895DC01A8568B
S214001D80BE4FE4E5F2E188E401900D928150E1F760
S214001D900895DC01A856BE4FFB0188E401900D9221
S214001DA08150E1F70895DF93CF9300D000D000D0A4
S214001DB0CDB7DEB7FC019C0127553F4F4DE154E0FF
S214001DC088E0DA010D90AD01D9010D929D01815098
S214001DD0C1F7EF54FF4F80E090E0A0E0B0E08083D2
S214001DE09183A283B383EF5CFE4F8AE590E09183F4
S214001DF08083E25EF1409E012F5F3F4F47E154E053
S214001E0086E0DA010D90AD01D9010D929D01815059
S214001E10C1F79F012B543F4FAE014F5F5F4F86E0E7
S214001E20DA010D90AD01D9010D929D018150C1F7E7
S214001E30E554FF4F86E0819381E08083EC5DFE4FA2
S214001E408083E352F1408FE090E0819391938193F9
S214001E5091938CE390E091838083339680E090E0CA
S214001E60A0E2B1E480839183A283B383E35EFE4F56
S214001E7087E08083E15EF140CF0160E00E94C429E4
S214001E8026960FB6F894DEBF0FBECDBFCF91DF917A
S214001E9008950F931F938C010E94C90EC8010E94DB
S214001EA0D30E1F910F9108952F923F924F925F92FB
S214001EB06F927F928F929F92AF92BF92CF92DF9255
S214001EC0EF92FF920F931F93DF93CF93CDB7DEB7BA
S214001ED02E970FB6F894DEBF0FBECDBF4A835B8346
S214001EE06C837D8318012901AE82BF82C886D9869D
S214001EF08824992419826E2D70E07C876B876B840A
S214001F007C84082C02C0759467940A94E2F771E00A
S214001F10672277241E861D868A866114710479F4EA
S214001F200F2EF0E0AF2EF0E0BF2EF0E0CF2EF0E068
S214001F30DF2EF02D86017501A60195014DC06E813C
S214001F407F81888599850E9476729B01AC016A81A3
S214001F507B818C819D810E94A67D5B016C018A85B8
S214001F60813039F4C601B501A60195010E94CA79EF
S214001F700BC09A85923051F4C601B50120E030E0DE
S214001F8040E751E40E94977A5B016C01C201B101FF
S214001F9020E030E040E450E40E94977A7B018C0118
S214001FA0C201B10120E030E040E450E40E94A67D8A
S214001FB09B01AC01C801B7010E94C7717B018C016F
S214001FC06BED7FE089E490EC2BED3FE049E450E4D4
S214001FD00E94C7719B01AC018981ED858E0F90E050
S214001FE06DE070E0869FF001879FF00D969FF00DE4
S214001FF01124EB51F04FA482B582C682D782E086C8
S214002000F186028713872487358746875787108A85
S2140020108D859E8501969E878D87039709F07DCFD7
S2140020200894811C911C99819D5F9983993009F0D1
S21400203066CF2E960FB6F894DEBF0FBECDBFCF91FB
S214002040DF911F910F91FF90EF90DF90CF90BF90A0
S214002050AF909F908F907F906F905F904F903F9043
S2140020602F900895CF92DF92EF92FF920F931F93D7
S2140020708C016901CB01BA0126EA3BE944EC5DE339
S2140020800E94A67D9B01AC0160E070E080E89FE3C3
S2140020900E94977A0E94357B9B01AC0150EEE52E9C
S2140020A051E0F52EE00EF11EF7012083C801622FE5
S2140020B070E00E942D150F511E4FF80181938F017D
S2140020C0F7016081C60170E00E94057FF801718308
S2140020D060830D5F1F4F81E0F8018083055E11402D
S2140020E0C8010E9492291F910F91FF90EF90DF90F8
S2140020F0CF9008954F925F926F927F928F929F92A9
S214002100AF92BF92CF92DF92EF92FF920F931F9300
S214002110DF93CF93CDB7DEB768970FB6F894DEBFE0
S2140021200FBECDBF6A017B0148015901F7FAF09452
S214002130F7F8F094C901B8010E94947A2B013C018B
S214002140C501B4010E94557E4B015C01C701B60172
S214002150A30192010E94A67D69837A838B839C8368
S214002160CD82DE82EF82F886C701B601A501940112
S2140021700E94A67D69877A878B879C87DE011D96DD
S214002180E5E2F4E08CE001900D928150E1F78DB726
S2140021909EB743970FB6F8949EBF0FBE8DBFEDB7A0
S2140021A0FEB7319620E030E040E050E0ADB7BEB775
S2140021B011962D933D934D935C9314978FE090E08A
S2140021C09583848385E086831896FE0131968CE09D
S2140021D001900D928150E1F785EE9FE06FE3AD84AC
S2140021E0BE84CF84D888E988FA880B891C892D8913
S2140021F03E894F89588D88240E94660A8DB79EB7FF
S21400220043960FB6F8949EBF0FBE8DBF68960FB666
S214002210F894DEBF0FBECDBFCF91DF911F910F9117
S214002220FF90EF90DF90CF90BF90AF909F908F90F1
S2140022307F906F905F904F9008952F923F924F92AD
S2140022405F926F927F928F929F92AF92BF92CF9241
S214002250DF92EF92FF920F931F93DF93CF93CDB74A
S214002260DEB7C95AD0400FB6F894DEBF0FBECDBF5A
S214002270CA55DF4F99838883C65AD040962E872E3C
S214002280FE01E75BFF4FA082B182C282D382E48266
S214002290F582068317832087318742875387C65384
S2140022A0DF4F488059806A807B80CA5CD040CA5223
S2140022B0DF4F08811981C65DD040C852DF4F888144
S2140022C0C85DD040882371F4CA55DF4F8881998154
S2140022D0C65AD040B8010E942D15C852DF4F8883D9
S2140022E0C85DD040DE011196892D982D9C01F9011C
S2140022F088E401900D928150E1F7C852DF4F988133
S214002300C85DD040692F70E0882777FD8095982FAC
S2140023100E94637B9B01AC0160E070E080E89FE375
S2140023200E94977ACE55DF4F688379838A839B8392
S214002330C25AD040B801882777FD8095982F0E9412
S214002340637BCE55DF4F288139814A815B81C25A33
S214002350D0400E94A67D0E94307BC056DF4F798316
S2140023606883C05AD0408E01075B1F4FD8016D911D
S2140023707D918D919C9120E030E040E050E00E94FD
S214002380907A882311F5F80164817581868197819A
S21400239020E030E040E050E00E94907A8823A9F4E4
S2140023A0D80118966D917D918D919C911B9720E098
S2140023B030E040E050E00E94907A882331F4C15625
S2140023C0DF4F1882CF59D04024C0FE01E75BFF4F95
S2140023D0CE55DF4F88809980AA80BB80C25AD040F5
S2140023E0B7FAB094B7F8B094CF01C080D180E2803D
S2140023F0F380048115812681378140855185628569
S21400240073850E94F63BB1E0C156DF4FB883CF59C3
S214002410D040C301B20120E030E040E050E00E942E
S214002420907A882331F5C253DF4F688179818A819B
S2140024309B81CE5CD04020E030E040E050E00E943F
S214002440907A8823B1F4CE52DF4F688179818A81F1
S2140024509B81C25DD04020E030E040E050E00E942A
S214002460907A882331F4C256DF4F1882CE59D04076
S21400247054C084E290E00E945B7FC855DF4F88839B
S214002480C85AD040C755DF4F9883C95AD040CE555A
S214002490DF4FE880F9800A811B81C25AD04017FBC3
S2140024A0109517F91095C301B201A80197010E9473
S2140024B0A67D2B013C01C253DF4F688179818A815A
S2140024C09B81CE5CD040A80197010E94A67D4B015F
S2140024D05C01CE52DF4F688179818A819B81C25D23
S2140024E0D040A80197010E94A67D6B017C01C855CB
S2140024F0DF4F8881C85AD040C755DF4F9881C95AE8
S214002500D040B301A201950184010E943849E1E060
S214002510C256DF4FE883CE59D0400F2EF0E02F2E64
S214002520F0E03F2EF0E04F2EF0E05F2EF02DC35689
S214002530DF4F1882CD59D04069E4662E712C6C0EA0
S2140025407D1ED2C0C156DF4FF881CF59D040FF2341
S214002550A1F1CE018B5A9F4FBE016F5F7F4FD30113
S214002560AC901196BC9011971296CC901297139639
S214002570DC9013971496EC9014971596FC9015978C
S21400258016960C91169717961C91179718962C91DD
S214002590189719963C9119971A964C911A971B966C
S2140025A05C910E948F3FDE011196FE01EB5AFF4FB1
S2140025B088E401900D928150E1F7C256DF4FB88152
S2140025C0CE59D040BB2309F458C0CE018B5A9F4F3A
S2140025D0BE016F5F7F4FC254DF4FA880CE5BD040F6
S2140025E0C154DF4FB880CF5BD040C054DF4FC880A7
S2140025F0C05CD040CF53DF4FD880C15CD040CE53B4
S214002600DF4FE880C25CD040CD53DF4FF880C35C1C
S214002610D040CC53DF4F0881C45CD040CB53DF4F53
S2140026201881C55CD040CA53DF4F2881C65CD040B5
S214002630C953DF4F3881C75CD040C853DF4F48814D
S214002640C85CD040C753DF4F5881C95CD040C855DE
S214002650DF4F8880C85AD040C755DF4F9880C95A88
S214002660D0400E943441DE011196FE01EB5AFF4F26
S21400267088E401900D928150E1F7C201B10120E09B
S21400268030E040E05FE30E94CA790E94307B9B0105
S214002690AC01CA55DF4F88819981C65AD040BE0129
S2140026A06F5F7F4FA901C056DF4F28813981C05A1E
S2140026B0D0400E94340EC201B101CE55DF4F2881B2
S2140026C039814A815B81C25AD0400E94CA791B0177
S2140026D02C01C356DF4FE881CD59D040EF5FC3567B
S2140026E0DF4FE883CD59D040C356DF4FF881CD5930
S2140026F0D040C852DF4F8881C85DD040F81708F434
S21400270021CFC256DF4F9881CE59D040992361F031
S214002710C855DF4F8881C85AD040C755DF4F9881CB
S214002720C95AD0400E940880C755DF4F0FB6F894AC
S214002730DEBF0FBECDBFCF91DF911F910F91FF90EF
S214002740EF90DF90CF90BF90AF909F908F907F904C
S2140027506F905F904F903F902F9008952F923F92EA
S2140027604F925F926F927F928F92AF92BF92CF926C
S214002770DF92EF92FF920F931F93DF93CF93CDB725
S214002780DEB72C970FB6F894DEBF0FBECDBF1C0188
S21400279028013901CE01019621E334E0ECE0D901AD
S2140027A00D909D01DC010D92CD01E150C1F78DB772
S2140027B09EB74B970FB6F8949EBF0FBE8DBFEDB772
S2140027C0FEB731969F01C10183569F4F1CE0DC0186
S2140027D00D90CD01D9010D929D011150C1F744878E
S2140027E0558766877787408A518A628A738AC48A41
S2140027F0D58AE68AF78AB18EA08E828EC10164E5FC
S21400280072E1A980BA80CB80DC80ED80FE800F81EB
S214002810188529853A854B855C850E941D118DB7E4
S2140028209EB74B960FB6F8949EBF0FBE8DBF2C96E4
S2140028300FB6F894DEBF0FBECDBFCF91DF911F91CC
S2140028400F91FF90EF90DF90CF90BF90AF908F905A
S2140028507F906F905F904F903F902F9008956F926B
S2140028607F928F92AF92BF92CF92DF92EF92FF92BB
S2140028700F931F93DF93CF93CDB7DEB768970FB64E
S214002880F894DEBF0FBECDBF3C01CD86DE86EF8658
S214002890F88A098B1A8B2B8B3C8B4D8B5E8B6F8B40
S2140028A0788FDE011196EDE3F4E08CE001900D9256
S2140028B08150E1F78DB79EB74B970FB6F8949EBF41
S2140028C00FBE8DBFEDB7FEB731969F01AE014F5FCD
S2140028D05F4F8CE0DA010D90AD01D9010D929D019C
S2140028E08150C1F780E090E0A0E0B0E08487958753
S2140028F0A687B787808B918BA28BB38B848B958BA7
S214002900A68BB78BB18EA08E828EC30164E572E172
S214002910AD84BE84CF84D888E988FA880B891C8960
S2140029202D893E894F89588D0E941D118DB79EB7FF
S2140029304B960FB6F8949EBF0FBE8DBF68960FB627
S214002940F894DEBF0FBECDBFCF91DF911F910F91E0
S214002950FF90EF90DF90CF90BF90AF908F907F90DA
S2140029606F9008954F925F926F927F928F929F9290
S214002970AF92BF92CF92DF92EF92FF920F931F9388
S214002980DF93CF93CDB7DEB7C854D0400FB6F894D8
S214002990DEBF0FBECDBF2C013E010894611C711C2A
S2140029A0C30143E353E36BEF70E403E313E323EF66
S2140029B031E40F2EF0E0CF2EF0E0DF2EF0E1EF2E28
S2140029C0F2E4FF2EF02D0F2EFDEC8F2EFCEC9F2E4A
S2140029D0FEE0AF2EF2E4BF2EF02D0E94A147C2010A
S2140029E0B3010E94C90EC2010E942F0AD201A3564B
S2140029F0BF4FE9E4F4E08CE001900D928150E1F7DE
S214002A00F201118210821382128284EE91E0480E47
S214002A10591EF2011082C85BDF4F0FB6F894DEBF76
S214002A200FBECDBFCF91DF911F910F91FF90EF901A
S214002A30DF90CF90BF90AF909F908F907F906F90D9
S214002A405F904F90089585EE9FE00E94B21408951F
S214002A50FC01EC51FE4F108208956C31710514F4A0
S214002A6062E00AC06435710514F065E005C0CB016C
S214002A706EE070E00E94057F862F0895AF92BF92A9
S214002A80CF92DF92EF92FF920F931F935801690146
S214002A9050E0CB01489FB001499F700D589F700DC4
S214002AA01124882777FD8095982F0E94637B7B01F1
S214002AB08C01C601B50120E030E040E251E40E94FE
S214002AC0977A9B01AC01C801B7010E94A67D20E061
S214002AD030E040E651E40E94977A7B018C0120E0CA
S214002AE030E040E050E40E94907A882314F482E0BC
S214002AF011C0C801B70120E030E040E251E40E9476
S214002B008C7C181614F48AE005C0C801B7010E9430
S214002B10357B862F1F910F91FF90EF90DF90CF901F
S214002B20BF90AF9008950F931F93CF93DF93EC0160
S214002B30FC01E052FE4F10811F3F49F11F5F1083DA
S214002B40C851DE4F612F70E0882777FD8095982F5B
S214002B500E94637B20E030E040E850E40E94A67DBF
S214002B600E94307B79836883C752D140688179811F
S214002B70C15CD040CE01412F00E010E020E231E4FD
S214002B800E943E15CF51DE4F8883C15ED140C052B1
S214002B90DE4F8881DF91CF911F910F9108950F939B
S214002BA01F93CF93DF93EC01FC01E052FE4F1081A0
S214002BB0123048F111501083C851DE4F612F70E07B
S214002BC0882777FD8095982F0E94637B20E030E071
S214002BD040E850E40E94A67D0E94307B798368839B
S214002BE0C752D14068817981C15CD040CE01412F67
S214002BF000E010E020E231E40E943E15CF51DE4FA7
S214002C008883C15ED140C052DE4F8881DF91CF916C
S214002C101F910F9108959F92AF92BF92CF92DF922D
S214002C20EF92FF920F931F93DF93CF93CDB7DEB74C
S214002C3028970FB6F894DEBF0FBECDBF5C016B01C0
S214002C409E2CE982FA82B02F0B83A12F1C83F22FD1
S214002C502D83E32F3E83642F4F83752F5887092DCE
S214002C601F2D2B2F3A2F4F2F5E2F0E94B33C88E844
S214002C7091E0C80ED91EF501608171818281938131
S214002C80F60120813181428153810E94A67D7B011D
S214002C908C0188E090E0C80ED91EF501608571852C
S214002CA082859385F60120813181428153810E947D
S214002CB0A67D9B01AC01C801B7010E94CA79905855
S214002CC0F60152914291329122910E94977AF50133
S214002CD06483758386839783C50128960FB6F89418
S214002CE0DEBF0FBECDBFCF91DF911F910F91FF903A
S214002CF0EF90DF90CF90BF90AF909F9008957F9217
S214002D008F929F92AF92BF92CF92DF92EF92FF92F6
S214002D100F931F93DF93CF93CDB7DEB7A4970FB66D
S214002D20F894DEBF0FBECDBF4C015B01ED8AFE8A74
S214002D300F8B188F622F298F732F3A8F842F4B8F0C
S214002D40952F5C8F7C2C2E2D3F2D402F512F0C2D38
S214002D500E944D432D8F3E8F4F8F58A369A37AA3B1
S214002D608BA39CA3DE011196FE017D9688E0019060
S214002D700D928150E1F7CE01099609811A812B81C7
S214002D803C814D815E816F8178850E94B33C28E846
S214002D9031E0A20EB31E69857A858B859C85F50188
S214002DA020813181428153810E94A67D7B018C0166
S214002DB028E030E0A20EB31E69897A898B899C8947
S214002DC0F50121913191419151915F010E94A67DBB
S214002DD09B01AC01C801B7010E94CA79F5012081A8
S214002DE03181428153810E94CA79905828EF3FEF83
S214002DF0A20EB31EF50120813181428153810E94CB
S214002E00977A6D877E878F87988BC401C984DA840A
S214002E10EB84FC840D851E852F85388949895A895F
S214002E206B897C89A72C0E947E42C401A4960FB6AB
S214002E30F894DEBF0FBECDBFCF91DF911F910F91EB
S214002E40FF90EF90DF90CF90BF90AF909F908F90C5
S214002E507F9008952F923F924F925F926F927F924B
S214002E608F929F92AF92BF92CF92DF92EF92FF9295
S214002E700F931F93DF93CF93CDB7DEB7CC57D140D8
S214002E800FB6F894DEBF0FBECDBF3C017A018B01B2
S214002E908091CF119091D011A091D111B091D21103
S214002EA09A01AB01281B390B4A0B5B0B68EE71E0ED
S214002EB0660E771ED3018D919C91E8E1FEEF6E0EB3
S214002EC07F1EAA2797FDA095BA2F281739074A070D
S214002ED05B0710F40C94F726E092CF11F092D01115
S214002EE00093D1111093D211A3014C515E4FDA0119
S214002EF08C91882311F40C94F726D301AA51BE4F67
S214002F006D917C911197E2EEF1E06E0E7F1EF3015B
S214002F10808191812EE13EEF620E731E681779075D
S214002F2010F00C94F52645EE51E0640E751EF30184
S214002F3080812BE13EEF620E731E882331F08130D4
S214002F4011F00C94EC260C946D2543EC50E0640EC6
S214002F50751ED3018C91EDE3FFEF6E0E7F1E882366
S214002F6009F453C080E090E00E94617B7B018C01F5
S214002F7028EC30E0620E731ED3012D913D914D91E9
S214002F805C91E8E3FFEF6E0E7F1ECA01B9010E9456
S214002F90CA799B01AC01C801B7010E94907A8823C8
S214002FA0A4F5AA24BB24C501880F991F8A0D9B1D72
S214002FB0880F991F880F991FF301E80FF91FE0513A
S214002FC0FF4F885C9E4F860D971DC080D180E280A3
S214002FD0F38004811581268137814085518562857D
S214002FE073850E94C63E0894A11CB11CF6E0AF167D
S214002FF0B104C9F6B30168577E4FA3014C565E4F25
S214003000C301885C9E4F0E943F4496EEE92E91E0F5
S214003010F92EE60CF71C2DEB30E0620E731ED30182
S2140030206D917C91E3E4FFEF6E0E7F1ED7018D91CC
S2140030309C910E94F17EFC01830100581E4F2CEBF0
S21400304030E0620E731ED3016C91D8018C9190E033
S21400305070E00E94F17E23E030E0620E731ED30122
S2140030602D913C9141E45FEF640E751EBC01629F9A
S214003070C001639F900D729F900D1124E817F90709
S21400308011F00C940B21C30180529F4FCD59DE4F97
S21400309099838883C356D14022243324C559DE4FF2
S2140030A019830883CB56D140C359DE4FF982E88294
S2140030B0CD56D140D301A853BF4FC159DE4FB98377
S2140030C0A883CF56D140F301EF54FF4FCF58DE4FC1
S2140030D0F983E883C157D140930120523E4FCD5823
S2140030E0DE4F39832883C357D140A3014F535F4F28
S2140030F0CB58DE4F59834883C557D140B3016F5133
S2140031007E4FC958DE4F79836883C757D140C301C5
S2140031108C539F4FC758DE4F99838883C957D14039
S21400312089EA482E512C460C571C922CC559DE4F66
S214003130A881B981CB56D1408C91F301E80FF11DDF
S214003140EB54FF4F808190E0022C02C09595879546
S2140031500A94E2F780FD02C00C94E020C359DE4FCB
S214003160E881F981CD56D1406081718180E090E0A0
S2140031700E94617B5B016C01C159DE4FA881B98159
S214003180CF56D140ED90FD900D911C91C801B7012E
S214003190A80197010E94CA799B01AC01C601B5013E
S2140031A00E94907A18166CF420E030E040E85FE366
S2140031B0C35ADE4F288339834A835B83CD55D1407B
S2140031C022C0C601B50120E030E040E05FE30E9487
S2140031D0A67DA80197010E94977A0E94D5732DECD0
S2140031E03CEC4CEC5FE30E94A67D2AE939E949E114
S2140031F05FE30E94C979C35ADE4F688379838A8366
S2140032009B83CD55D140CF58DE4FA881B981C15799
S214003210D1406D917D918D919C9120E030E040E011
S21400322050E00E94907A882309F0E7C2F101EE0F81
S214003230FF1FE20DF31DEE0FFF1FEE0FFF1FE60D43
S214003240F71DE85CFE4FE080F18002811381248147
S21400325035814681578160857185828593850E9478
S214003260EC3CCF5ADE4F2883C155D140CE5ADE4FB4
S2140032703883C255D140CD5ADE4F4883C355D1401E
S214003280CC5ADE4F5883C455D140CB5ADE4F6883A4
S214003290C555D140CA5ADE4F7883C655D140C95A63
S2140032A0DE4F8883C755D140C85ADE4F9883C8552D
S2140032B0D140DE011196FE01EF5AFE4F88E00190E4
S2140032C00D928150E1F7ECECF0E06E0E7F1ED3011C
S2140032D06D917D918D919C91E4E3FFEF6E0E7F1EC4
S2140032E09058C35ADE4F288139814A815B81CD557B
S2140032F0D1400E94A67D7B018C01D2012C911196B3
S2140033003C91119712964C91129713965C911397D5
S21400331014966C91149715967C91159716968C9129
S214003320169717969C910E94643CCF5ADE4F2883CE
S214003330C155D140CE5ADE4F3883C255D140CD5A02
S214003340DE4F4883C355D140CC5ADE4F5883C45510
S214003350D140CB5ADE4F6883C555D140CA5ADE4F9E
S2140033607883C655D140C95ADE4F8883C755D140A9
S214003370C85ADE4F9883C855D140DE011996FE0123
S214003380EF5AFE4F88E001900D928150E1F72981B7
S2140033903A814B815C816D817E818F819885A9847D
S2140033A0BA84CB84DC84ED84FE840F8518890E9461
S2140033B0D83ACF5ADE4F2883C155D140CE5ADE4F79
S2140033C03883C255D140CD5ADE4F4883C355D140CD
S2140033D0CC5ADE4F5883C455D140CB5ADE4F688353
S2140033E0C555D140CA5ADE4F7883C655D140C95A12
S2140033F0DE4F8883C755D140C85ADE4F9883C855DC
S214003400D140DE01AF58BF4FFE01EF5AFE4F88E0B5
S21400341001900D928150E1F7C359DE4FE881F981A2
S214003420CD56D1406081718180E090E00E94617B42
S2140034307B018C01C159DE4FA881B981CF56D1409E
S2140034402D913D914D915C91CA01B9010E94CA79B6
S2140034509B01AC01C801B7010E948C7C18160CF0C9
S214003460A5C5F101EE0FFF1FE20DF31DEE0FFF1FC6
S214003470EE0FFF1FEC5AFD4EE080F18002811381B3
S2140034802481358146815781608571858285938543
S2140034900E94EC3CDE01AF5ABE4F2C93FE01EE5A62
S2140034A0FE4F3083FE01ED5AFE4F4083FE01EC5A7C
S2140034B0FE4F5083FE01EB5AFE4F6083FE01EA5A30
S2140034C0FE4F7083FE01E95AFE4F8083FE01E85AE4
S2140034D0FE4F90839E012F5E3F4FFD0188E00190D6
S2140034E0D9010D929D018150D1F771E7872E912C5D
S2140034F08C0E9D1EF40120813181428153816481AE
S214003500758186819781A988BA88CB88DC88ED8802
S214003510FE880F89188D0E949B3BDE01AF5ABE4F76
S2140035202C93FE01EE5AFE4F3083FE01ED5AFE4FFD
S2140035304083FE01EC5AFE4F5083FE01EB5AFE4FCD
S2140035406083FE01EA5AFE4F7083FE01E95AFE4F81
S2140035508083FE01E85AFE4F90839401FD0188E0C7
S2140035600190D9010D929D018150D1F7E0E8F1E07C
S2140035706E0E7F1ED3018C91E0E8FEEF6E0E7F1E6E
S214003580F301E80FF11DEB54FF4F208061E7C62ED4
S214003590D12CCC0EDD1ECE018F559F4FB301D60128
S2140035A0EC901196FC90119712960C911297139628
S2140035B01C91139714962C91149715963C91159779
S2140035C016964C91169717965C910E940B16E0EE95
S2140035D0F1E06E0E7F1ED3018C9190E0E1EEFEEFDF
S2140035E06E0E7F1ED3012D913C91829F2001839FFA
S2140035F0500C929F500C1124E0E2F1E06E0E7F1EFC
S214003600D3013C90EFE1FEEF6E0E7F1ED6012C91AB
S21400361011963C91119712964C91129713965C91C5
S214003620139714966C91149715967C911597169689
S2140036308C91169717969C910F2EF0E0EF2EF0E0E7
S214003640FF2EF0E00F2FFFE31F2FF02D0E94643CAB
S214003650DE01AF5ABE4F2C93FE01EE5AFE4F30836A
S214003660FE01ED5AFE4F4083FE01EC5AFE4F50839A
S214003670FE01EB5AFE4F6083FE01EA5AFE4F70834E
S214003680FE01E95AFE4F8083FE01E85AFE4F908302
S2140036909E01275E3F4FFD0188E00190D9010D9203
S2140036A09D018150D1F75DEAA52EB12CAC0EBD1E52
S2140036B0C501098D1A8D2B8D3C8D4D8D5E8D6F8DC0
S2140036C078A10E94B33CE4ECF0E06E0E7F1ED301BE
S2140036D02D913D914D915C91ECE3FFEF6E0E7F1EB8
S2140036E0FE01E754FF4F80E090E0A0E0B0E080836A
S2140036F09183A283B383248335834683578380874D
S2140037009187A287B3872DB73EB72C5030400FB6AF
S214003710F8943EBF0FBE2DBFADB7BEB711968CE076
S21400372001900D928150E1F7CE018B539F4FD5014A
S214003730CC901196DC9011971296EC9012971396F7
S214003740FC90139714960C91149715961C91159748
S21400375016962C91169717963C91179718964C919B
S214003760189719965C9119971A966C911A971B964A
S2140037707C910E94703AEDB7FEB737970FB6F89473
S214003780FEBF0FBEEDBF319641EA842E912C8C0E03
S2140037909D1E20E030E040E050E0ADB7BEB7119689
S2140037A02D933D934D935C931497558244823682B5
S2140037B01896FE01EB53FF4F8CE001900D9281505E
S2140037C0E1F7C301622DF401A080B180C280D380EE
S2140037D0E480F580068117812085318542855385F2
S2140037E088240E94660A2DB73EB72D5E3F4F0FB65F
S2140037F0F8943EBF0FBE2DBFECC4892D0E94E34057
S214003800CF5ADE4F2883C155D140CE5ADE4F38837B
S214003810C255D140CD5ADE4F4883C355D140CC5A0D
S214003820DE4F5883C455D140CB5ADE4F6883C5550A
S214003830D140CA5ADE4F7883C655D140C95ADE4FAA
S2140038408883C755D140C85ADE4F9883C855D140A3
S214003850DE01A759BF4FFE01EF5AFE4F88E00190E8
S2140038600D928150E1F7F101EE0FFF1FE20DF31DFF
S214003870EE0FFF1FEE0FFF1FE60DF71DE85CFE4F75
S214003880E080F18002811381248135814681578151
S21400389060857185828593850E94EC3CCF5ADE4F09
S2140038A02883C155D140CE5ADE4F3883C255D14009
S2140038B0CD5ADE4F4883C355D140CC5ADE4F58838D
S2140038C0C455D140CB5ADE4F6883C555D140CA5A3D
S2140038D0DE4F7883C655D140C95ADE4F8883C75518
S2140038E0D140C85ADE4F9883C855D140DE01919624
S2140038F0FE01EF5AFE4F88E001900D928150E1F7ED
S21400390029A13AA14BA15CA16DA17EA18FA198A58A
S214003910AA96AFACAA97AB96BFACAB97AC96CFAC1B
S214003920AC97AD96DFACAD97AE96EFACAE97AF96D4
S214003930FFACAF97E0960FADE097E1961FADE1972D
S2140039400E94D83ACF5ADE4F2883C155D140CE5A6E
S214003950DE4F3883C255D140CD5ADE4F4883C3551B
S214003960D140CC5ADE4F5883C455D140CB5ADE4F97
S2140039706883C555D140CA5ADE4F7883C655D140B4
S214003980C95ADE4F8883C755D140C85ADE4F988340
S214003990C855D140DE019996FE01EF5AFE4F88E0E9
S2140039A001900D928150E1F729A53AA54BA55CA59B
S2140039B06DA57EA58FA598A9D201AC901196BC9056
S2140039C011971296CC9012971396DC901397149634
S2140039D0EC9014971596FC90159716960C911697E2
S2140039E017961C910E949B3BCF5ADE4F2883C155E9
S2140039F0D140CE5ADE4F3883C255D140CD5ADE4F25
S214003A004883C355D140CC5ADE4F5883C455D14065
S214003A10CB5ADE4F6883C555D140CA5ADE4F7883ED
S214003A20C655D140C95ADE4F8883C755D140C85ABB
S214003A30DE4F9883C855D140DE01D196FE01EF5A7D
S214003A40FE4F88E001900D928150E1F729A93AA92E
S214003A504BA95CA96DA97EA98FA998ADCD59DE4F5B
S214003A6008811981C356D1400E943B3ECF5ADE4F93
S214003A702883C155D140CE5ADE4F3883C255D14037
S214003A80CD5ADE4F4883C355D140CC5ADE4F5883BB
S214003A90C455D140CB5ADE4F6883C555D140CA5A6B
S214003AA0DE4F7883C655D140C95ADE4F8883C75546
S214003AB0D140C85ADE4F9883C855D140DE01D9960A
S214003AC0FE01EF5AFE4F88E001900D928150E1F71B
S214003AD029AD3AAD4BAD5CAD6DAD7EAD8FAD2196EB
S214003AE09FAD2197F201A080B180C280D380E48090
S214003AF0F580068117810E94D83ACF5ADE4F288378
S214003B00C155D140CE5ADE4F3883C255D140CD5A2A
S214003B10DE4F4883C355D140CC5ADE4F5883C45538
S214003B20D140CB5ADE4F6883C555D140CA5ADE4FC6
S214003B307883C655D140C95ADE4F8883C755D140D1
S214003B40C85ADE4F9883C855D140DE01AF5BBF4FE1
S214003B50FE01EF5AFE4F88E001900D928150E1F78A
S214003B60FE01EF5BFF4F2081FE01EE5BFF4F3081D1
S214003B70FE01ED5BFF4F4081FE01EC5BFF4F508185
S214003B80FE01EB5BFF4F6081FE01EA5BFF4F708139
S214003B90FE01E95BFF4F8081FE01E85BFF4F9081ED
S214003BA0AA96AFACAA97AB96BFACAB97AC96CFAC89
S214003BB0AC97AD96DFACAD97AE96EFACAE97AF9642
S214003BC0FFACAF97E0960FADE097E1961FADE1979B
S214003BD00E949B3BCF5ADE4F2883C155D140CE5A18
S214003BE0DE4F3883C255D140CD5ADE4F4883C35589
S214003BF0D140CC5ADE4F5883C455D140CB5ADE4F05
S214003C006883C555D140CA5ADE4F7883C655D14021
S214003C10C95ADE4F8883C755D140C85ADE4F9883AD
S214003C20C855D140DE01AF58BF4FFE01EF5AFE4FD8
S214003C3088E001900D928150E1F7C359DE4FA881CC
S214003C40B981CD56D1406D917C9180E090E00E9484
S214003C50617B7B018C01C159DE4FE881F981CF562B
S214003C60D1402081318142815381CA01B9010E942D
S214003C70CA799B01AC01C801B7010E94907A181658
S214003C800CF494C1F101EE0FFF1FE20DF31DEE0FD1
S214003C90FF1FEE0FFF1FE60DF71DE85CFE4FE080EE
S214003CA0F1800281138124813581468157816085A8
S214003CB07185828593850E94EC3CCF5ADE4F28831F
S214003CC0C155D140CE5ADE4F3883C255D140CD5A69
S214003CD0DE4F4883C355D140CC5ADE4F5883C45577
S214003CE0D140CB5ADE4F6883C555D140CA5ADE4F05
S214003CF07883C655D140C95ADE4F8883C755D14010
S214003D00C85ADE4F9883C855D140DE01A75BBF4F27
S214003D10FE01EF5AFE4F88E001900D928150E1F7C8
S214003D20FE01E75BFF4FE2962FADE297E3963FADCD
S214003D30E397E4964FADE497E5965FADE597E69694
S214003D406FADE697E7967FADE797E8968FADE89775
S214003D50E9969FADE997A080B180C280D380E480C9
S214003D60F580068117810E949B3BCF5ADE4F288341
S214003D70C155D140CE5ADE4F3883C255D140CD5AB8
S214003D80DE4F4883C355D140CC5ADE4F5883C455C6
S214003D90D140CB5ADE4F6883C555D140CA5ADE4F54
S214003DA07883C655D140C95ADE4F8883C755D1405F
S214003DB0C85ADE4F9883C855D140DE01AF5ABF4F70
S214003DC0FE01EF5AFE4F88E001900D928150E1F718
S214003DD0FE01EF5AFF4F2081318142815381648179
S214003DE0758186819781C35ADE4FE880F9800A8103
S214003DF01B81CD55D1400E94643CCF5ADE4F2883AC
S214003E00C155D140CE5ADE4F3883C255D140CD5A27
S214003E10DE4F4883C355D140CC5ADE4F5883C45535
S214003E20D140CB5ADE4F6883C555D140CA5ADE4FC3
S214003E307883C655D140C95ADE4F8883C755D140CE
S214003E40C85ADE4F9883C855D140DE01A75ABF4FE7
S214003E50FE01EF5AFE4F88E001900D928150E1F787
S214003E60F101EE0FFF1FE20DF31DEE0FFF1FEE0F29
S214003E70FF1FE60DF71DE85CFE4FE080F180028133
S214003E8013812481358146815781608571858285BD
S214003E9093850E94EC3CCF5ADE4F2883C155D14013
S214003EA0CE5ADE4F3883C255D140CD5ADE4F4883B6
S214003EB0C355D140CC5ADE4F5883C455D140CB5A57
S214003EC0DE4F6883C555D140CA5ADE4F7883C65543
S214003ED0D140C95ADE4F8883C755D140C85ADE4FF5
S214003EE09883C855D140DE01AF59BF4FFE01EF5A47
S214003EF0FE4F88E001900D928150E1F7FE01E75AEF
S214003F00FF4FDE01AF59BF4F20813181428153817F
S214003F106481758186819781AC901196BC901197CB
S214003F201296CC9012971396DC9013971496EC90FA
S214003F3014971596FC90159716960C91169717964B
S214003F401C910E94D83ACF5ADE4F2883C155D140E3
S214003F50CE5ADE4F3883C255D140CD5ADE4F488305
S214003F60C355D140CC5ADE4F5883C455D140CB5AA6
S214003F70DE4F6883C555D140CA5ADE4F7883C65592
S214003F80D140C95ADE4F8883C755D140C85ADE4F44
S214003F909883C855D140DE01AF58BF4FFE01EF5A97
S214003FA0FE4F88E001900D928150E1F7CE018F52CE
S214003FB09F4FB301E296EFACE297E396FFACE39730
S214003FC0E4960FADE497E5961FADE597E6962FAD20
S214003FD0E697E7963FADE797E8964FADE897E99600
S214003FE05FADE997C92C0E947F16CD58DE4FA88199
S214003FF0B981C357D1408C9190E0CB58DE4FE88111
S214004000F981C557D14020813181829F5001839F1D
S214004010B00C929FB00C1124C958DE4FA881B9810C
S214004020C757D1409C90C758DE4FE881F981C957E1
S214004030D140208131814281538180E090E0A0E030
S214004040B0E0C352DF4F88839983AA83BB83CD5DDC
S214004050D040CF51DF4F288339834A835B83C15ECC
S214004060D040CB51DF4F88839983AA83BB83C55E3C
S214004070D0402DB73EB72C5030400FB6F8943EBF18
S2140040800FBE2DBFF101EE0FFF1FE20DF31DEE0F69
S214004090FF1FEE0FFF1FE60DF71DE85CFE4F2F5FBC
S2140040A03F4FAE0143525F4F8CE0DA010D90AD01F9
S2140040B0D9010D929D018150C1F7CE0187519F4FC6
S2140040C0C080D180E280F38004811581268137810B
S2140040D040855185628573850E94703AEDB7FEB7BC
S2140040E037970FB6F894FEBF0FBEEDBF319661E06E
S2140040F070E0022C02C0660F771F0A94E2F720E0F9
S21400410030E040E050E0ADB7BEB711962D933D933A
S2140041104D935C931497B582A48296821896FE01FE
S214004120E751FF4F8CE001900D928150E1F7C301FB
S214004130CF52DF4FA880C15DD040CE52DF4FB8804F
S214004140C25DD040CD52DF4FC880C35DD040CC5258
S214004150DF4FD880C45DD040CB52DF4FE880C55DCE
S214004160D040CA52DF4FF880C65DD040C952DF4FFC
S2140041700881C75DD040C852DF4F1881C85DD04067
S214004180C752DF4F2881C95DD040C652DF4F388105
S214004190CA5DD040C552DF4F4881CB5DD040C45287
S2140041A0DF4F5881CC5DD040882483940E94660AF5
S2140041B0EDB7FEB773960FB6F894FEBF0FBEEDBF11
S2140041C00894211C311CF6E02F16310411F00C94D3
S2140041D09518830100581E4FD8018C9190E0F3018A
S2140041E0E80FF91FEE57FE4F21EC30E0620E731E0B
S2140041F0D3012C912083EAEFFFEF6E0E7F1ED301D2
S2140042006C91E5E4FFEF6E0E7F1E019670E00E9453
S214004210057FD8018C93F301EF57FE4F108220E004
S214004220B30165547F4FAF0113C0D301A20FB11D78
S214004230FD01EE57FE4F8081882311F0815006C0A5
S214004240AB54BF4F8C91FA019081890F80832F5F0A
S214004250DB018C91281748F3F301EF54FF4F608180
S21400426071818281938120E030E040E050E00E943E
S214004270907A882309F07DC0E1E8F1E06E0E7F1E9B
S214004280D301BC90EFE7FEEF6E0E7F1E75EFC72ED4
S214004290D12CCC0EDD1EF301E755FF4FC601B3014E
S2140042A0E080F18002811381248135814681578127
S2140042B00E940B1620EE31E0620E731ED3019C9115
S2140042C0E0E2FEEF6E0E7F1EFE01EF5CFE4F80E129
S2140042D0DF011D928A95E9F73196D6018CE00D90A4
S2140042E001928150E1F7FE01EF5CFE4FB0829587A8
S2140042F0168600D0ADB7BEB712961C921E921197C6
S2140043008FED95E080809180A280B380C480D580B8
S214004310E680F7800085118522853385448555859E
S214004320668577850E944407E1E8F1E06E0E7F1E01
S2140043300F900F90D3018C91EFE7FEEF6E0E7F1E6D
S214004340882309F449C5D30112968D919C91139741
S214004350009709F441C5F301E755FF4F008111812D
S2140043602281338144815581668177810E94303F66
S21400437033C5F301E053FF4FCF59DE4FF983E8838F
S214004380C156D140C55ADE4F19821882CB55D1404E
S21400439093012F573E4FCB59DE4F39832883C5569E
S2140043A0D14069EA462E512C460C571CA3014052B8
S2140043B05E4FC959DE4F59834883C756D14051E4F2
S2140043C0252E51E0352E2C0E3D1EB1016F5F7F4F1E
S2140043D0C759DE4F79836883C956D140C55ADE4F28
S2140043E09880CB55D140CB59DE4FA881B981C556B0
S2140043F0D1408C9190E0092C02C0959587950A943F
S214004400E2F780FF30C3892D0E94E340CF5ADE4F8B
S2140044102883C155D140CE5ADE4F3883C255D1408D
S214004420CD5ADE4F4883C355D140CC5ADE4F588311
S214004430C455D140CB5ADE4F6883C555D140CA5AC1
S214004440DE4F7883C655D140C95ADE4F8883C7559C
S214004450D140C85ADE4F9883C855D140DE01A759CF
S214004460BF4FFE01EF5AFE4F88E001900D9281503B
S214004470E1F7C55ADE4FE881F981CB55D140EE0F02
S214004480FF1FC55ADE4F28813981CB55D140E20F38
S214004490F31FEE0FFF1FEE0FFF1FEC5AFD4EE080DE
S2140044A0F1800281138124813581468157816085A0
S2140044B07185828593850E94EC3CCF5ADE4F288317
S2140044C0C155D140CE5ADE4F3883C255D140CD5A61
S2140044D0DE4F4883C355D140CC5ADE4F5883C4556F
S2140044E0D140CB5ADE4F6883C555D140CA5ADE4FFD
S2140044F07883C655D140C95ADE4F8883C755D14008
S214004500C85ADE4F9883C855D140DE01A758BF4F22
S214004510FE01EF5AFE4F88E001900D928150E1F7C0
S214004520EA962FADEA97EB963FADEB97EC964FAD3C
S214004530EC97ED965FADED97EE966FADEE97EF9636
S2140045407FADEF97C158DF4F8881CF57D040C05816
S214004550DF4F9881C058D040AA96AFACAA97AB96CA
S214004560BFACAB97AC96CFACAC97AD96DFACAD9787
S214004570AE96EFACAE97AF96FFACAF97E0960FADAA
S214004580E097E1961FADE1970E94D83ACF5ADE4FEA
S2140045902883C155D140CE5ADE4F3883C255D1400C
S2140045A0CD5ADE4F4883C355D140CC5ADE4F588390
S2140045B0C455D140CB5ADE4F6883C555D140CA5A40
S2140045C0DE4F7883C655D140C95ADE4F8883C7551B
S2140045D0D140C85ADE4F9883C855D140DE01AF5748
S2140045E0BF4FFE01EF5AFE4F88E001900D928150BA
S2140045F0E1F7CF57DF4F2881C158D040CE57DF4F65
S2140046003881C258D040CD57DF4F4881C358D0407C
S214004610CC57DF4F5881C458D040CB57DF4F688106
S214004620C558D040CA57DF4F7881C658D040C957C2
S214004630DF4F8881C758D040C857DF4F9881C85889
S214004640D040D201AC901196BC9011971296CC90A7
S21400465012971396DC9013971496EC901497159671
S214004660FC90159716960C91169717961C910E941B
S2140046709B3BCF5ADE4F2883C155D140CE5ADE4FE2
S2140046803883C255D140CD5ADE4F4883C355D140FA
S214004690CC5ADE4F5883C455D140CB5ADE4F688380
S2140046A0C555D140CA5ADE4F7883C655D140C95A3F
S2140046B0DE4F8883C755D140C85ADE4F9883C85509
S2140046C0D140DE01A757BF4FFE01EF5AFE4F88E0EC
S2140046D001900D928150E1F7C757DF4F2881C958E6
S2140046E0D040C657DF4F3881CA58D040C557DF4F35
S2140046F04881CB58D040C457DF4F5881CC58D04063
S214004700C357DF4F6881CD58D040C257DF4F7881FE
S214004710CE58D040C157DF4F8881CF58D040C057C1
S214004720DF4F9881C059D040CF59DE4F088119819C
S214004730C156D1400E943B3ECF5ADE4F2883C1551A
S214004740D140CE5ADE4F3883C255D140CD5ADE4FC7
S2140047504883C355D140CC5ADE4F5883C455D14008
S214004760CB5ADE4F6883C555D140CA5ADE4F788390
S214004770C655D140C95ADE4F8883C755D140C85A5E
S214004780DE4F9883C855D140DE01AF56BF4FFE01BD
S214004790EF5AFE4F88E001900D928150E1F7CF5618
S2140047A0DF4F2881C159D040CE56DF4F3881C259DD
S2140047B0D040CD56DF4F4881C359D040CC56DF4F4E
S2140047C05881C459D040CB56DF4F6881C559D04078
S2140047D0CA56DF4F7881C659D040C956DF4F888108
S2140047E0C759D040C856DF4F9881C859D040F2010B
S2140047F0A080B180C280D380E480F58006811781D6
S2140048000E94D83ACF5ADE4F2883C155D140CE5A9F
S214004810DE4F3883C255D140CD5ADE4F4883C3554C
S214004820D140CC5ADE4F5883C455D140CB5ADE4FC8
S2140048306883C555D140CA5ADE4F7883C655D140E5
S214004840C95ADE4F8883C755D140C85ADE4F988371
S214004850C855D140DE01A756BF4FFE01EF5AFE4FA6
S21400486088E001900D928150E1F7C756DF4F28810E
S214004870C959D040C656DF4F3881CA59D040C556B0
S214004880DF4F4881CB59D040C456DF4F5881CC59B2
S214004890D040C356DF4F6881CD59D040C256DF4F57
S2140048A07881CE59D040C156DF4F8881CF59D0404D
S2140048B0C056DF4F9881C05AD040AA96AFACAA9790
S2140048C0AB96BFACAB97AC96CFACAC97AD96DFAC27
S2140048D0AD97AE96EFACAE97AF96FFACAF97E096BF
S2140048E00FADE097E1961FADE1970E949B3BCF5A34
S2140048F0DE4F2883C155D140CE5ADE4F3883C2558D
S214004900D140CD5ADE4F4883C355D140CC5ADE4FF6
S2140049105883C455D140CB5ADE4F6883C555D14025
S214004920CA5ADE4F7883C655D140C95ADE4F8883AF
S214004930C755D140C85ADE4F9883C855D140DE01CE
S214004940AF58BF4FFE01EF5AFE4F88E001900D9220
S2140049508150E1F7CE018F5F9E4FB301E296EFAC38
S214004960E297E396FFACE397E4960FADE497E596FF
S2140049701FADE597E6962FADE697E7963FADE7972E
S214004980E8964FADE897E9965FADE997C92C0E9487
S2140049907F16C959DE4FA881B981C756D1402C91E0
S2140049A0F10130E111923A95E9F7C759DE4FA88137
S2140049B0B981C956D140FE01EF5FFE4F8CE00190F1
S2140049C00D928150E1F781E090E0C55ADE4F0880F5
S2140049D0CB55D14002C0880F991F0A94E2F7D10147
S2140049E08C931D962C931D971E961C921E9781E005
S2140049F01F968C931F9700D0EDB7FEB712821182D8
S214004A008FED95E08C9011969C9011971296AC9035
S214004A1012971396BC9013971496CC9014971596ED
S214004A20DC9015971696EC9016971796FC901797AD
S214004A3018960C91189719961C9119971A962C91FE
S214004A401A971B963C911B971C964C911C971D968B
S214004A505C911D971E966C911E971F967C910E94E6
S214004A6044070F900F90C55ADE4F28813981CB55E9
S214004A70D1402F5F3F4FC55ADE4F39832883CB5531
S214004A80D1402630310509F0A9CCD3010D911C91F7
S214004A900115110509F4A0C1E1E8F1E06E0E7F1ED4
S214004AA0D3018C91EFE7FEEF6E0E7F1E882309F48C
S214004AB093C1F301EF54FF4FD8016D917D918D9115
S214004AC09C9120813181428153810E94C979F801ED
S214004AD060837183828393837FC153019301275838
S214004AE03F4FC75ADE4F39832883C955D1408824A3
S214004AF09924C558DE4FB983A883CB57D140D5013A
S214004B0014962D903D904D905C901797C201B10180
S214004B1020E030E040E050E00E94907A882309F4DC
S214004B2051C0F50180898823A9F5C558DE4FA881B4
S214004B30B981CB57D1406D917C9180E090E00E9486
S214004B40617B22E93AE046E85EE30E94A67DF50135
S214004B5020853185428553850E94A67DD5011C9609
S214004B602D913D914D915C911F970E94CA790E94AC
S214004B70557E9B01AC01C201B1010E94A67DC75AB9
S214004B80DE4FE881F981C955D14060837183828305
S214004B90938318C0C401880F991F880F991F8758E0
S214004BA09F4FD5011896CD90DD90ED90FC901B9709
S214004BB0860D971D40E050E060E070E092018101B4
S214004BC00E94F2710894811C911CEDE0F0E0AE0E9C
S214004BD0BF1EC75ADE4F28813981C955D1402C5F88
S214004BE03F4FC75ADE4F39832883C955D14039E035
S214004BF08316910409F083CF4DE750E0640E751ECE
S214004C00D3012D913D914D915D913D01ED90FD902B
S214004C100D911C91FE01E35FFE4F68EF7FEF660E7D
S214004C20771ED301AD90BD90CD90DC90A082B1826E
S214004C30C282D3822483358346835783E086F186F7
S214004C4002871387E0E1F0E06E0E7F1ED3012D9100
S214004C503D914D915D913D01ED90FD900D911C9122
S214004C60FE01E75EFE4F660E771ED301AD90BD9047
S214004C70CD90DC906BE77FEF660E771EA082B18248
S214004C80C282D3822483358346835783E086F186A7
S214004C90028713878DB79EB70C970FB6F8949EBF02
S214004CA00FBE8DBF2DB73EB72F5F3F4FA3014356B4
S214004CB05F4F8CE0DA010D90AD01D9010D929D0198
S214004CC08150C1F7CE018B5D9E4FC080D180E280BF
S214004CD0F380048115812681378140855185628560
S214004CE073850E94703AEDB7FEB73F970FB6F894FB
S214004CF0FEBF0FBEEDBF3196B30168567E4F8DE006
S214004D00882E81E0982E8C0E9D1E9F01AE014B5D75
S214004D105E4F8CE0DA010D90AD01D9010D929D0138
S214004D208150C1F721E930E0620E731ED3012D9148
S214004D303D914D915D9124873587468757872D9104
S214004D403D914D915D913D01208B318B428B538B74
S214004D502D913D914D915C91248B358B468B578BD5
S214004D6027E431E0620E731ED3018D913D01808FE2
S214004D70118E8C912FE13EEF620E731E828FC3015F
S214004D80D401AC901196BC9011971296CC901297C5
S214004D901396DC9013971496EC9014971596FC9047
S214004DA0159716960C91169717961C9117971896A6
S214004DB02C91189719963C9119971A964C911A9718
S214004DC01B965C910E941D11EDB7FEB77B960FB641
S214004DD0F894FEBF0FBEEDBFF301EA51FE4F80818F
S214004DE0918101969183808302C0DA011C92C45897
S214004DF0DE4F0FB6F894DEBF0FBECDBFCF91DF916A
S214004E001F910F91FF90EF90DF90CF90BF90AF90E3
S214004E109F908F907F906F905F904F903F902F90D5
S214004E200895AF92BF92CF92DF92EF92FF920F93C8
S214004E301F93CF93DF93EC0171EBC72ED12CC80ED6
S214004E40D91ED601ED90FD900D911C91C801B701B9
S214004E5020E030E040E050E00E94907A8823E9F0BD
S214004E60B801A7017058CE0180539F4F0E94024997
S214004E70C453DF4FF601608171818281938128815E
S214004E8039814A815B810E94A67DAB01BC01649694
S214004E90CE01C05ED0400E94024920E0AE014554DB
S214004EA05F4F61ECA62EB12CAC0EBD1E0BC0FE01F2
S214004EB0E20FF11DEE57FE4F8081D5019C91890FC0
S214004EC080832F5FFA01D0802D1588F3CD53DF4FF6
S214004ED01882C35CD040FE01EA51FE4FC354DF4F38
S214004EE02881398180819181B9010E94F17E918368
S214004EF080838D2D90E06A91AC01429FC001439F54
S214004F00900D529F900D112470E00E94057F882717
S214004F1077FD8095982F0E94637B7B018C012C96F1
S214004F206993799389939993D5016D917C9188279C
S214004F3077FD8095982F0E94637B9B01AC01C8018A
S214004F40B7010E94C97920E030E040E05FE30E94AC
S214004F50A67D688379838A839B83CC5CD040FE01E0
S214004F60E058FE4F808190E06D2D70E00E94F17E4B
S214004F708083C052DE4F688170E0882777FD809579
S214004F80982F0E94637B20E030E040E850E40E94C7
S214004F90A67D0E94307B289679836883DF91CF9127
S214004FA01F910F91FF90EF90DF90CF90BF90AF9042
S214004FB008952F923F924F925F926F927F928F92B8
S214004FC09F92AF92BF92CF92DF92EF92FF920F9393
S214004FD01F93DF93CF93CDB7DEB76A970FB6F894DB
S214004FE0DEBF0FBECDBF2C012BEB30E0420E531EB2
S214004FF0D2018C9190E0E2E0F0E04E0E5F1ED2010E
S2140050002D913C91F20162912F01AC01429FC001AB
S214005010439F900D529F900D112470E00E94057FD3
S214005020882777FD8095982F0E94637B7B018C01F3
S2140050308CE090E0480E591ED201ED92FD920D9341
S2140050401C931397E8E3FFEF4E0E5F1E8CECA82E22
S214005050B12CA40CB51C21EC30E0420E531ED2013C
S2140050606D917C91EFE3FFEF4E0E5F1E882777FD74
S2140050708095982F0E94637B9B01AC01C801B70105
S2140050800E94C97920E030E040E05FE30E94A67D00
S214005090D5016D937D938D939C93139711EBC12E41
S2140050A0D12CC40CD51CF601E080F180028113815E
S2140050B0C801B70120E030E040E050E00E94907A5E
S2140050C0882309F1B801A7017058C20180539F4F89
S2140050D00E94024920EE30E0420E531ED6016D912A
S2140050E07D918D919C91F501208131814281538182
S2140050F00E94A67DAB01BC01C20120E23FEF420E3A
S214005100531E0E94024990E0920125543F4FD2015F
S214005110AF53BF4F08C0F201E90FF11DEE57FE4F27
S2140051208C9180839F5FF90160819617A0F3F2014E
S214005130E058FE4F808190E070E00E94F17E808310
S21400514023EC30E0420E531ED2018C91EDE3FFEFCC
S2140051504E0E5F1E9201285C3E4F882309F493C0D2
S214005160D901E4E5F2E188E401900D928150E1F77F
S214005170B20168567E4FC9010E946346222433243A
S214005180920128533F4F3A8F298F4DB75EB74C5048
S21400519050400FB6F8945EBF0FBE4DBFC101880FDA
S2140051A0991F820D931D880F991F880F991F840DD4
S2140051B0951DFC01E856FE4F2DB73EB72F5F3F4FBB
S2140051C0AC01485C5E4F8CE0DA010D90AD01D90170
S2140051D00D929D018150C1F7CE010196C080D1800D
S2140051E0E280F380048115812681378140855185D0
S2140051F0628573850E94333B3101660C771C620C16
S214005200731C660C771C660C771C640C751CE0EF30
S214005210F0E06E0E7F1E2DB73EB7245F3F4F0FB6F1
S214005220F8943EBF0FBE2DBF60E070E080E09FE3C5
S214005230A98DBA8D2D913D914D915C910E94977AE2
S2140052404B015C01CE010D96C980DA80EB80FC80B4
S2140052500D811E812F81388549855A856B857C8511
S2140052600E94F63BD301FE013D968CE001900D9224
S2140052708150E1F70894211C311CB6E02B1631044E
S21400528009F083CF12C0D901F201E856FE4F88E438
S21400529001900D928150E1F7B20168577E4FA2014E
S2140052A04C565E4FC9010E943F44F201E058FE4F43
S2140052B02CEB30E0420E531ED2016C91808190E0C0
S2140052C070E00E94F17EE3E0F0E04E0E5F1ED20139
S2140052D02D913C91FC01E29FC001E39F900DF29F4F
S2140052E0900D112427E231E0420E531ED2018D9319
S2140052F09C936A960FB6F894DEBF0FBECDBFCF91D3
S214005300DF911F910F91FF90EF90DF90CF90BF90AD
S214005310AF909F908F907F906F905F904F903F9050
S2140053202F900895CF93DF93EC01CB51DE4F888109
S214005330C55ED140882319F0813059F404C0CE01EF
S2140053400E94D92706C0CA51DE4F19821882C65E4F
S214005350D140C052DE4F688170E0882777FD809587
S214005360982F0E94637B20E030E040E850E40E94E3
S214005370A67D0E94307B289679836883249781E0F7
S2140053808883DF91CF910895FC01ED53FF4F608332
S214005390EF5DFE4F8081E45EF140882339F0EB51EB
S2140053A0FE4F8081E55EF140882349F0EB51FE4FC9
S2140053B01082E55EF140CF010E9492290895CF0148
S2140053C00E94112708952F923F924F925F926F92FC
S2140053D07F928F929F92AF92BF92CF92DF92EF9280
S2140053E0FF920F931F93DF93CF93CDB7DEB7C657C9
S2140053F0D0400FB6F894DEBF0FBECDBF6A969FAF03
S2140054008EAF6A976E964CAF5DAF6EAF7FAF6E97FE
S214005410A2960CAF1DAF2EAF3FAFA297A396EFAEEE
S214005420A3972DB73EB7A9963FAF2EAFA997C557FE
S214005430DF4F3881CB58D040AE963FAFAE97C457BB
S214005440DF4F8881CC58D040AF968FAFAF97C35709
S214005450DF4F9881CD58D040E0969FAFE097C25777
S214005460DF4FA881CE58D040E196AFAFE197C15745
S214005470DF4FB881CF58D040AA96BFAFAA97C05783
S214005480DF4FE881C059D040AB96EFAFAB97CF5611
S214005490DF4FF881C159D040AC96FFAFAC97CE56DF
S2140054A0DF4F2881C259D040AD962FAFAD97C85672
S2140054B0DF4F688179818A819B81C859D04020E07E
S2140054C030E040E050E00E94907A882309F0EAC07D
S2140054D06E966CAD7DAD8EAD9FAD6E9720E030E0E4
S2140054E040EE50E40E94977A0E94D5733B014C012F
S2140054F06A96EEADFFAD6A97E856FE4FE080F18003
S21400550002811381248135814681578160857185AA
S214005510828593850E94EC3C2CAF3DAF4EAF5FAFCB
S214005520FE01E05CFF4F6083FE01EF5BFF4F708380
S214005530FE01EE5BFF4F8083FE01ED5BFF4F908325
S214005540DE011C96FE01FC9688E001900D928150CB
S214005550E1F72C853D854E855F85688979898A893E
S2140055609B8900E00E944D432CAF3DAF4EAF5FAF2E
S214005570FE01E05CFF4F6083FE01EF5BFF4F708330
S214005580FE01EE5BFF4F8083FE01ED5BFF4F9083D5
S214005590DE015496FE01FC9688E001900D92815043
S2140055A0E1F76A96EEADFFAD6A97E055FE4FE080F4
S2140055B0F18002811381248135814681578160857F
S2140055C07185828593850E94EC3C2CAF3DAF4EAF33
S2140055D05FAFFE01E05CFF4F6083FE01EF5BFF4FB5
S2140055E07083FE01EE5BFF4F8083FE01ED5BFF4F95
S2140055F09083DE015C96FE01FC9688E001900D9299
S2140056008150E1F72C8D3D8D4E8D5F8D68A179A17F
S2140056108AA19BA102E00E944D432CAF3DAF4EAF46
S2140056205FAFFE01E05CFF4F6083FE01EF5BFF4F64
S2140056307083FE01EE5BFF4F8083FE01ED5BFF4F44
S2140056409083DE019496FE01FC9688E001900D9210
S2140056508150E1F72C893D894E895F89688D798D67
S2140056608A8D9B8DACA0BDA0CEA0DFA0E8A4F9A437
S2140056700AA51BA50E94B3487B018C01C401B30197
S2140056802FE135E84BEA5EE30E94A67DA80197016C
S2140056900E94A67DC856DF4F688379838A839B83E2
S2140056A0C859D040C956DF4F8881C759D040682EA8
S2140056B06A9468961FAE689767961FAE67970F2E18
S2140056C0F0E02F2EF0E03F2EF0E04F2EF0E05F2EC1
S2140056D0F02D63962CAE3DAE4EAE5FAE6397C856C9
S2140056E0DF4F88819981AA81BB81C859D040B058C4
S2140056F0E7968CAF9DAFAEAFBFAFE79768969FAD0E
S2140057006897692F70E061507040882777FD809514
S214005710982F0E94637B2DEC3CEC4CE45EEB0E94E1
S214005720A67D9B01AC0163966CAD7DAD8EAD9FAD45
S21400573063970E94CA799B01AC01C201B1010E9425
S214005740907A88235CF4C201B1012DEC3CEC4CEC61
S2140057505DE30E94CA791B012C014EC06896AFAD6E
S21400576068976796BFAD6797AB1760F5AF5F6896AB
S214005770AFAF6897A69DB0011124882777FD809566
S214005780982F0E94637B2AE939E949E95FE30E9482
S214005790A67D9B01AC0160E070E080E490E40E948E
S2140057A0977A63966CAF7DAF8EAF9FAF63970F2EE1
S2140057B0F3EC2F2EF5EF3F2EF8EA4F2EFEE35F2E8A
S2140057C0F02D1AC0E2E0E61508F474C0639483E096
S2140057D090E0662D70E00E94057F67966FAF679732
S2140057E086E090E0662D70E00E94057F66966FAFBB
S2140057F0669768961FAE68976896FFAD68976F2F96
S21400580070E0882777FD8095982F0E94637B7B0148
S2140058108C01E7966CAD7DAD8EAD9FADE797A80188
S21400582097010E94A67DA7966CAF7DAF8EAF9FAF07
S214005830A7976E966CAD7DAD8EAD9FAD6E972FE63D
S21400584032E143E85BE30E94A67D5B016C01C20186
S214005850B101A80197010E94A67D7B018C01669686
S2140058602FAD6697622F70E0882777FD8095982F7A
S2140058700E94637B9B01AC01C801B7010E94C979F5
S2140058809B01AC01C601B5010E94A67D9B01AC013F
S214005890A7966CAD7DAD8EAD9FADA7970E94977A0B
S2140058A00E94307B65967FAF6EAF65976338710553
S2140058B00CF424CFADB7BEB76696EFAD6697AE1BB9
S2140058C0B1090FB6F894BEBF0FBEADBF2DB73EB739
