:100000000C9472000C9492000C9492000C94920048
:100010000C9492000C9492000C9492000C94920018
:100020000C9492000C9492000C9492000C94920008
:100030000C9492000C9492000C9492000C949200F8
:100040000C9492000C9492000C9492000C949200E8
:100050000C9492000C9492000C9492000C949200D8
:100060000C9492000C9492000C9492000C949200C8
:100070000C9492000C9492000C9492000C949200B8
:100080000C9492000C9492000C9492000C949200A8
:100090000C9492000C9492000C9492000C94920098
:1000A0000C9492000C9492000C9492000C94920088
:1000B0000C9492000C9492000C9492000C94920078
:1000C0000C9492000C9492000C9492000C94920068
:1000D0000C9492000C9492000C9492000C94920058
:1000E0000C94920011241FBECFEFD1E2DEBFCDBF32
:1000F00012E0A0E0B2E0EEE2F1E000E00BBF02C0EF
:1001000007900D92A030B107D9F71BBE12E0A0E016
:10011000B2E001C01D92A030B107E1F70E94940047
:0E0120000C9495000C940000FFCFF894FFCFD4
:00000001FF
