:100000000C94A3020C9497050C94C8050C94F90564
:100010000C942A060C945B060C948C060C94BD067A
:100020000C94EE060C94CD020C94CD020C94CD02EF
:100030000C94CD020C94CD020C94CD020C949B1B1D
:100040000C94CD020C94CD020C94CD020C94CD02F4
:100050000C94CD020C94CD020C94CD020C94D11BC7
:100060000C94CD020C94D1030C94CD020C94CD02CF
:100070000C94CD020C94CD020C94CD020C94CD02C4
:100080000C94CD020C94CD020C94CD020C94CD02B4
:100090000C9445090C94CD020C94CD020C94CD0225
:1000A0000C94CD020C94CD020C94CD020C94CD0294
:1000B0000C94CD020C94CD020C94CD020C94CD0284
:1000C0000C94CD020C94CD020C94CD020C94060439
:1000D0000C94CD020C94CD020C94CD020C94CD0264
:1000E0000C94CD025C0A5A0A580A580A580A580A4F
:1000F0005C0A5A0A5C0A5A0A5A0A580A580A580AE2
:100100005C0A5A0A580A580A580A580A5C0A5A0AD3
:100110005C0A5A0A580A580A580A580A580A580AC9
:100120005C0A5A0A5C0A5A0A5C0A5A0A5C0A5A0AA7
:100130005C0A5A0A5C0A5A0A580A580A580A5A0AA1
:10014000580A580A5C0A6C0A6C0A6C0A700A6E0A31
:10015000700A6E0A6E0A6C0A6C0A6C0A700A6E0AE1
:100160006C0A6C0A6C0A6C0A6E0A6E0A6E0A6E0AD7
:100170006C0A6C0A6C0A6C0A6C0A6C0A700A6E0AC9
:10018000700A6E0A700A6E0A6E0A6E0A6E0A6E0AAB
:100190006E0A6E0A6E0A6E0A6C0A6E0A6E0A6C0AA3
:1001A000700A8B1589159315931593158F1589155D
:1001B00093158D158D15911593158D1589158D1523
:1001C000871589158D15891589158915891589153D
:1001D0008915891589158D158D1591158915911517
:1001E00089159115931593159315931589158915EF
:1001F000931589158B1589158915891593159315EF
:1002000093158915931593159315931593159315B8
:1002100091159315931589159115931591159115B0
:1002200091159315891589158915891589158715CE
:10023000891589158B158D1589158B1593158915BC
:1002400089158915891587158915871589159315B8
:10025000931593158915891589159115891591158A
:10026000A715A915A915AB15AB15AB15A915AB1598
:10027000A715A715AB15AB15A715A915A715A91592
:10028000A915A715A915A915A915A915A915A91580
:10029000A915A915A715A715AB15A915AB15A9156E
:1002A000AB15AB15AB15AB15AB15A915A915AB1552
:1002B000A915A715A915A915A915AB15AB15AB154A
:1002C000A915AB15AB15AB15AB15AB15AB15AB1530
:1002D000AB15AB15A915AB15AB15AB15AB15AB1520
:1002E000AB15A915A915A915A915A915A915A9151C
:1002F000A915A715A715A915A715AB15A915A91512
:10030000A915A915A915A915A915A915AB15AB15F9
:10031000AB15A915A915A915AB15A915084AD73B01
:100320003BCE016E84BCBFFDC12F3D6C74319ABDC4
:1003300056833DDA3D00C77F11BED9E4BB4C3E91E8
:100340006BAAAABE000000803F07634236B79BD865
:10035000A71A39685618AEBAAB558C1D3CB7CC57A6
:1003600063BD6DEDFD753EF6177231BF0000008074
:100370003F072C7AA5BA6CC590DA3B9365FC8BBC21
:1003800053F810FD3C5692834DBD879D3AB63DCB48
:10039000C9BF5BBE73DA0FC93F05A84CCDB2D44EBE
:1003A000B93836A9020C50B9918688083CA6AAAA89
:1003B0002ABE000000803F08000000BE92244912BF
:1003C0003EABAAAA2ABECDCCCC4C3E00000080BEDB
:1003D000ABAAAAAA3E00000000BF000000803F00B8
:1003E00000000000084178D3BB4387D1133D190EAC
:1003F0003CC3BD4282AD2B3E68EC8276BED98FE114
:10040000A93E4C80EFFFBE01C4FF7F3F000000000B
:100410000000002100240027002A002D00300033B6
:100420000001010000040107010A0100002200256B
:100430000028002B002E00310034000201000005CE
:100440000108010B01000020002300260029002CD8
:10045000002F003200000100000301060109010520
:10046000050505070508080808020202020A0A082D
:100470000804040404010101010101010103030353
:100480000303030303040707070C0C0C0C0C0C0CF0
:100490000C0202020206060606060606060B0B0BF7
:1004A0000B0B0B0B0B010210202008081020401032
:1004B0002040800201020108040201010204081028
:1004C0002040808040201008040201800402018046
:1004D000402010080402010804020101020408106F
:1004E00020408001020408102040800000090A0218
:1004F000080B0C0D070603040100000000000000BB
:1005000000000000000000000000000000000000EB
:1005100000000000000000100F0E000000000000AE
:1005200000000000000000000000000000000000CB
:100530000000EC04AE0FD4101112BB15671963282C
:10054000BD45454D3E4D11241FBECFEFD1E2DEBF6C
:10055000CDBF15E0A0E0B2E0E4E0F3E001E00BBFC6
:1005600002C007900D92A83AB107D9F714E1A8EAA2
:10057000B5E001C01D92AD3BB107E1F715E0C4E461
:10058000D5E004C02297FE010E947181C233D107D9
:10059000C9F70E94841C0C946C7B0C9400000F9390
:1005A0001F938C01862FF801628390E00196880FDB
:1005B000991F880F991F0E942079F80180839183E9
:1005C0001F910F9108957F928F929F92AF92BF9249
:1005D000CF92DF92EF92FF920F931F93DF93CF930F
:1005E00000D00F92CDB7DEB76C01A62E742EFC01A1
:1005F000628383E0689FC00111240E942079F60184
:1006000080839183BB24EE24FF244E010894811C37
:10061000911C15C0F601008111810E0D1F1DC40132
:10062000672D0E94CF02D801F40183E001900D9262
:100630008150E1F7B39483E090E0E80EF91EBA141C
:1006400048F30F900F900F90CF91DF911F910F9172
:10065000FF90EF90DF90CF90BF90AF909F908F90E2
:100660007F9008958F929F92AF92BF92CF92DF9228
:10067000EF92FF920F931F93CF93DF935C014B0197
:10068000FC01C2800F2EF0E0EF2EF0E0FF2EF0E034
:100690000F2FF0E01F2FF02DDD24C0E0D0E019C0B7
:1006A000F401EC0FFD1FAC0FBD1F608171818281D1
:1006B00093812D913D914D915C910E94B07F9B0162
:1006C000AC01C801B7010E94D47B7B018C01D3949B
:1006D0002496F501A081B181DC1410F38C2D90E0FB
:1006E000880F991F880F991FA80FB91FC801B7015C
:1006F0002D913D914D915C910E94D47B0E949B680D
:10070000DF91CF911F910F91FF90EF90DF90CF90ED
:10071000BF90AF909F908F900895AF92BF92CF926D
:10072000DF92FF920F931F93CF93DF93EC015B0156
:100730006A01FF241AC00F2D10E09801220F331F09
:10074000200F311F88819981820F931FB5010E946C
:100750003203000F111F000F111F0C0D1D1DF8019A
:100760006083718382839383F3948A81F81618F3EC
:10077000DF91CF911F910F91FF90DF90CF90BF90AD
:10078000AF900895FC01228130E02F5F3F4F220F90
:10079000331F220F331F80819181A9010E946F7B3B
:1007A00008951F920F920FB60F920BB60F9211245D
:1007B0002F933F934F938F939F93EF93FF9340918A
:1007C000C600E091E805F091E90531969F012F738D
:1007D000307031978091EA059091EB052817390721
:1007E00039F0E855FA4F40833093E9052093E80546
:1007F000FF91EF919F918F914F913F912F910F908A
:100800000BBE0F900FBE0F901F9018951F920F9266
:100810000FB60F920BB60F9211242F933F934F9365
:100820008F939F93EF93FF934091D600E0912C0616
:10083000F0912D0631969F012F7330703197809182
:100840002E0690912F062817390739F0E451FA4FF8
:10085000408330932D0620932C06FF91EF919F91BA
:100860008F914F913F912F910F900BBE0F900FBE24
:100870000F901F901895CF93DF93EC019A01AB0175
:10088000E885F985203081EE380780E0480780E070
:10089000580709F449C081E090E00A8802C0880F37
:1008A000991F0A94E2F7808360E079E08DE390E09D
:1008B0000E9454812150304040405040CA01B9014B
:1008C00022E030E040E050E00E945481EC81FD8164
:1008D0003083EE81FF812083EA85FB85208141E022
:1008E00050E0CA010E8402C0880F991F0A94E2F7F3
:1008F000282B2083EA85FB852081CA010F8402C052
:10090000880F991F0A94E2F7282B2083EA85FB853C
:100910008081088802C0440F551F0A94E2F7842B97
:100920008083DF91CF910895108220E130E0CECF17
:10093000DC011296ED91FC911397E05CFF4F219141
:10094000319180819181281B390B2F733070C9013F
:100950000895DC011296ED91FC911397DF01AE5BD7
:10096000BF4F2D913C911197E05CFF4F80819181A9
:10097000E054F0408217930719F42FEF3FEF0BC0BC
:10098000E20FF31F80812F5F3F4F2F7330702D9345
:100990003C93282F30E0C9010895DC011296ED91B7
:1009A000FC911397EE5BFF4F80819181929382932C
:1009B0000895FC01A085B18521898C9190E0022EDB
:1009C00002C0959587950A94E2F780FFF6CF0484DC
:1009D000F585E02D6083089528EF33E030933106EC
:1009E0002093300688EA95E0909333068093320690
:1009F00085EC90E0909335068093340684EC90E08B
:100A0000909337068093360680EC90E090933906F9
:100A10008093380681EC90E090933B0680933A06F1
:100A200086EC90E090933D0680933C06E4E0E093F2
:100A30003E0673E070933F0667E06093400655E022
:100A40005093410641E04093420630934406209380
:100A500043068CEE95E0909346068093450685ED1F
:100A600090E0909348068093470684ED90E0909341
:100A70004A068093490680ED90E090934C0680935F
:100A80004B0681ED90E090934E0680934D0686EDE7
:100A900090E09093500680934F06E0935106709338
:100AA000520660935306509354064093550608959A
:100AB0000F931F93CF93DF938C01EB0109C0219615
:100AC000D801ED91FC910190F081E02DC8010995CC
:100AD00068816623A1F7DF91CF911F910F9108954F
:100AE000EF92FF920F931F93CF93DF938C017B01C3
:100AF000EA010CC0D7016D917D01D801ED91FC9107
:100B00000190F081E02DC80109952197209791F778
:100B1000DF91CF911F910F91FF90EF900895DC012D
:100B2000ED91FC910280F381E02D099508951F92CB
:100B30000F920FB60F920BB60F9211242F933F9383
:100B40004F935F936F937F938F939F93AF93BF93D5
:100B5000EF93FF9380915A0690915B06892B29F0C1
:100B6000E0915A06F0915B060995FF91EF91BF91D4
:100B7000AF919F918F917F916F915F914F913F9135
:100B80002F910F900BBE0F900FBE0F901F901895D6
:100B90001F920F920FB60F920BB60F9211242F9344
:100BA0003F934F935F936F937F938F939F93AF93F5
:100BB000BF93EF93FF9380915C0690915D06892B24
:100BC00029F0E0915C06F0915D060995FF91EF91A7
:100BD000BF91AF919F918F917F916F915F914F9155
:100BE0003F912F910F900BBE0F900FBE0F901F9053
:100BF00018951F920F920FB60F920BB60F921124F9
:100C00002F933F934F935F936F937F938F939F9314
:100C1000AF93BF93EF93FF9380915E0690915F0631
:100C2000892B29F0E0915E06F0915F060995FF910E
:100C3000EF91BF91AF919F918F917F916F915F9154
:100C40004F913F912F910F900BBE0F900FBE0F90C1
:100C50001F9018951F920F920FB60F920BB60F921E
:100C600011242F933F934F935F936F937F938F93B1
:100C70009F93AF93BF93EF93FF9380916006909102
:100C80006106892B29F0E0916006F09161060995D3
:100C9000FF91EF91BF91AF919F918F917F916F9154
:100CA0005F914F913F912F910F900BBE0F900FBE10
:100CB0000F901F9018951F920F920FB60F920BB6C0
:100CC0000F9211242F933F934F935F936F937F93D2
:100CD0008F939F93AF93BF93EF93FF9380915606AB
:100CE00090915706892B29F0E0915606F09157060E
:100CF0000995FF91EF91BF91AF919F918F917F9156
:100D00006F915F914F913F912F910F900BBE0F907C
:100D10000FBE0F901F9018951F920F920FB60F9253
:100D20000BB60F9211242F933F934F935F936F93C2
:100D30007F938F939F93AF93BF93EF93FF93809194
:100D4000580690915906892B29F0E0915806F091A8
:100D500059060995FF91EF91BF91AF919F918F91A6
:100D60007F916F915F914F913F912F910F900BBEAB
:100D70000F900FBE0F901F9018951F920F920FB6F5
:100D80000F920BB60F9211242F933F934F935F93C3
:100D90006F937F938F939F93AF93BF93EF93FF9343
:100DA0008091620690916306892B29F0E09162069A
:100DB000F09163060995FF91EF91BF91AF919F91DB
:100DC0008F917F916F915F914F913F912F910F90F4
:100DD0000BBE0F900FBE0F901F9018951F920F9291
:100DE0000FB60F920BB60F9211242F933F934F9390
:100DF0005F936F937F938F939F93AF93BF93EF9383
:100E0000FF938091640690916506892B29F0E0910B
:100E10006406F09165060995FF91EF91BF91AF913E
:100E20009F918F917F916F915F914F913F912F9102
:100E30000F900BBE0F900FBE0F901F901895482F6C
:100E400050E0CA018B559B4FFC012491415A5B4FE6
:100E5000FA0184918823C1F0E82FF0E0EE0FFF1F24
:100E6000EF5EFB4FA591B491662341F49FB7F894D0
:100E70008C91209582238C939FBF08959FB7F894FF
:100E80008C91822B8C939FBF0895893009F448C0C0
:100E90008A30A0F4843049F1853040F4823071F119
:100EA0008330F8F4813009F062C025C0873071F1D9
:100EB000883090F5863009F05AC024C08D3009F48E
:100EC00041C08E3028F48B30A9F18C30B8F52CC09D
:100ED0008F3009F441C08F30D8F1803109F047C01C
:100EE00041C0809180008F7703C0809180008F7D0A
:100EF00080938000089584B58F7702C084B58F7D7C
:100F000084BD08958091B0008F7703C08091B000B8
:100F10008F7D8093B0000895809190008F7707C0F7
:100F2000809190008F7D03C080919000877F809397
:100F3000900008958091A0008F7707C08091A00055
:100F40008F7D03C08091A000877F8093A0000895CB
:100F5000809120018F7703C0809120018F7D809345
:100F60002001089580912001877F809320010895BA
:100F7000FF920F931F93F62E482F50E0CA01855120
:100F80009B4FFC012491CA018B559B4FFC0114918E
:100F9000415A5B4FFA0104910023D9F0222319F042
:100FA000822F0E944507E02FF0E0EE0FFF1FE55D66
:100FB000FB4FA591B491FF2031F49FB7F8948C9129
:100FC0001095812304C09FB7F8948C91812B8C934A
:100FD0009FBF1F910F91FF900895FC018081918127
:100FE00008950F931F938C01FC01808191810E94D1
:100FF000CD79F80113821282158214821F910F910C
:101000000895CF93DF93FC01DB018481958148171C
:10101000590760F4C081D1816D917C91CE01840F1C
:10102000951F0E948A7B9C01009719F42FEF3FEFD8
:1010300002C02C1B3D0BC901DF91CF91089540E008
:1010400050E00E94010808950F931F93CF93DF9300
:10105000EC018B01FB01648175818C819D81680F9E
:10106000791F7D836C838A819B8186179707B8F4EB
:101070006F5F7F4F888199810E94907A4C815D815A
:10108000009729F0998388835B834A8308C0F8011D
:1010900084819581481B590B5D834C8307C0F801FF
:1010A00060817181888199810E94787BCE01DF9176
:1010B000CF911F910F910895CF93DF93EC01CB0156
:1010C0007B836A8301960E942079998388830097A5
:1010D00021F41B821A821D821C82DF91CF91089518
:1010E0000F931F93CF93DF93EC018B018617970724
:1010F00009F1FB01248135818C819D818217930741
:1011000050F4888199810E94CD79F80164817581BC
:10111000CE010E945C08288139812115310551F0EA
:10112000F801848195819D838C8360817181C901DF
:101130000E94837BCE01DF91CF911F910F91089583
:101140000F931F93CF93DF938C01EB016C817D8113
:10115000FC01758364830E945C08F80180819181A1
:10116000009721F0688179810E94837BDF91CF9184
:101170001F910F9108950F931F93CF93DF938C01CD
:10118000EB016115710511F4C0E0D2E0FE010190A0
:101190000020E9F73197EC1BFD0BD8011596FC9365
:1011A000EE931497C801BF010E945C08F80180818A
:1011B0009181009719F0BE010E94837BDF91CF914E
:1011C0001F910F910895EF92FF920F931F93DF935A
:1011D000CF93CDB7DEB7A1970FB6F894DEBF0FBEA1
:1011E000CDBF8C01CB017E010894E11CF11CB7013D
:1011F0000E94A47BF70101900020E9F73197EE19D6
:10120000FF09D8011596FC93EE931497C801BF010E
:101210000E945C08F80180819181009719F0B70164
:101220000E94837BA1960FB6F894DEBF0FBECDBFA0
:10123000CF91DF911F910F91FF90EF900895E9EC0E
:10124000F0E080818F77808380818F7E80838081B2
:10125000886080830895E9ECF0E08081877F808357
:10126000808180618083808180688083109286067F
:101270000895E9ECF0E080818F77808380818F7E14
:1012800080838081877F808308951F920F920FB69D
:101290000F920BB60F9211248F939F93EF93FF93AE
:1012A000809186069091CE00E6E6F6E0E80FF11D0B
:1012B00090838F5F80938606FF91EF919F918F912E
:1012C0000F900BBE0F900FBE0F901F9018959B01B3
:1012D000AC0183E0220F331F441F551F8A95D1F7BD
:1012E00060E074E284EF90E00E945481215030402D
:1012F000E8ECF0E08081826080833093CD00209321
:10130000CC00109286060E9439090895FC01608382
:10131000118282E082830895FC018EEF8083118226
:1013200012820895DF92EF92FF920F931F93082F7E
:10133000D62E142FF22EE32E0E941F098091C80092
:1013400085FFFCCF8FEF8093CE008091C80085FF92
:10135000FCCF8FEF8093CE008091C80085FFFCCF3B
:101360000093CE004D2D4E5F8091C80085FFFCCFCD
:101370004093CE008091C80085FFFCCF1093CE0033
:10138000410F400F8F2D9E2D9C01F90190E00AC066
:1013900020818091C80085FFFCCF2093CE00420FB2
:1013A0009F5F31969D15A0F38091C80085FFFCCF0B
:1013B00040954093CE000E942B091F910F91FF9002
:1013C000EF90DF900895FF920F931F9300E010E0DD
:1013D00007C02F5F3F4F84E02E34380741F415C01B
:1013E00020E030E0E02FF0E0AF01410F511D80918F
:1013F000860690E04817590761F33CC0EA59F94F57
:1014000080818F3FC9F10F5FEBCF0E94390990E0D7
:101410009F5FF92EF00E212F291B4F2D50E0FA016E
:10142000EA59F94F80818F3F99F3923008F090E0AC
:10143000DA011196FD01EA59F94F70817E5F271399
:101440009E5F9A0160E007C0F901EA59F94F808177
:10145000680F2F5F3F4F822F841B8717A8F36F3FC2
:1014600009F09C5FAA59B94F9C938F2D1F910F9142
:10147000FF900895112311F21F5F1D3008F4B0CFC3
:10148000C4CF20E0181619060CF421E0822F08952D
:10149000880F81500895E82FF0E0E133F10550F412
:1014A000EE58FF4FEE0FFF1F0590F491E02D0994C9
:1014B00081E0089580E0089582E0089590E0FC01C5
:1014C0003397EE32F10550F4ED55FF4FEE0FFF1F4D
:1014D0000590F491E02D099481E0089580E008954D
:1014E00082E00895CF93DF93EC018A81861750F153
:1014F0000E94E309282F30E0F901EA59F94F908161
:10150000F901E959F94F6081F901E859F94FA081D2
:101510008881981719F440E050E002C040E054E0A0
:10152000E62FF0E0F695FE2FEE27F795E7958A2F48
:1015300090E0E82BF92BE42BF52BC9018759994F43
:10154000382F04C00E943909EFEFFFEF832FBF014E
:10155000DF91CF9108950F931F93DF93CF9300D026
:10156000CDB7DEB78C0169834A83FC01808162E0DC
:1015700042E09E012F5F3F4F0E949209C80161E047
:101580000E94720A0F900F90CF91DF911F910F91DF
:1015900008950F931F938C01FC01808160E041E06E
:1015A00020E030E00E949209C80160E00E94720AC7
:1015B000CB011F910F910895DC01FA01643251F0C3
:1015C000653218F46E31C9F505C0663281F06832B3
:1015D000A1F50DC011968C91882379F18FEF93E0DE
:1015E00020813181821B930B9183808308954081F8
:1015F000518120E030E060E070E084E04030580746
:1016000014F061E070E011968C9190E06817790712
:1016100011F021E030E0220F331F822F81509927F3
:1016200087FD909553709C01249FC001259F900DCC
:10163000349F900D1124918380830895EF92FF923F
:101640000F931F93DF93CF9300D000D0CDB7DEB7B9
:101650007C01062F862F0E944B0A182F8EEF9FEFDA
:101660009A8389831123D9F0C701602F412F0E94EB
:10167000AB0AFC017A8369832081113031F09181BA
:1016800080E030E0282B392B01C030E03C832B83F5
:10169000C701602FAE014D5F5F4F0E94DC0A698178
:1016A0007A818B819C810F900F900F900F90CF913A
:1016B000DF911F910F91FF90EF9008952F923F922D
:1016C0004F925F926F927F928F929F92AF92BF9252
:1016D000CF92DF92EF92FF920F931F93DF93CF93FE
:1016E000CDB7DEB7862E242E39014DB65EB6362E26
:1016F0003394439D902C112422E0920EEDB7FEB757
:10170000E919F1090FB6F894FEBF0FBEEDBFADB6F3
:10171000BEB60894A11CB11C8183F50161836801E8
:1017200012E0EE24FF241DC0D501A10FB11DF3016D
:10173000EE0DFF1D80818C931F5F9501210F311DE0
:101740001150F60160817181C901482D50E00E945D
:101750006F7B130D0894E11CF11C22E030E0C20EF7
:10176000D31EE21408F38EEF692D43E895010E9421
:1017700092090E9439090FB6F8945EBE0FBE4DBEA5
:10178000CF91DF911F910F91FF90EF90DF90CF905D
:10179000BF90AF909F908F907F906F905F904F9091
:1017A0003F902F9008956F927F928F929F92AF9269
:1017B000BF92CF92DF92EF92FF920F931F93DF932E
:1017C000CF93CDB7DEB7082F5B018DB69EB690E004
:1017D000BC01660F771F660F771FADB7BEB7A61B9C
:1017E000B70B0FB6F894BEBF0FBEADBFEDB6FEB6D9
:1017F0000894E11CF11C880F991FEDB7FEB7E81B98
:10180000F90B0FB6F894FEBF0FBEEDBFCDB6DEB636
:101810000894C11CD11CBA01A90110E032C0A12F4B
:10182000B0E09D01220F331F220F331F2E0D3F1DED
:10183000FB018081F9018083FB0181919191BF01BE
:10184000892F990F990BF90181833D01660C771C53
:10185000F3013196EE0FFF1FEE0DFF1DDA018C91A3
:101860008083FA0181919191AF01892F990F990B92
:10187000D90113968C936C0C7D1CF301318320836A
:101880001F5F101760F28EE164E0402F9501860122
:101890000E945E0B0FB6F8949EBE0FBE8DBECF9118
:1018A000DF911F910F91FF90EF90DF90CF90BF904D
:1018B000AF909F908F907F906F9008959F92AF927E
:1018C000BF92CF92DF92EF92FF920F931F93DF931D
:1018D000CF93CDB7DEB76C01962E142FADB6BEB642
:1018E000842F90E001964DB75EB7481B590B0FB699
:1018F000F8945EBF0FBE4DBFEDB6FEB60894E11C76
:10190000F11CEDB7FEB76183A7014F5F5F4FCA01BE
:10191000B901412F50E00E946F7B612F6F5F002360
:1019200021F0F601808144E003C0F601808143E0AC
:1019300097010E949209C60162E00E94720A072F75
:10194000162FF6E1F91520F088E893E10E94911B2B
:10195000812F902F0FB6F894BEBE0FBEADBECF91B3
:10196000DF911F910F91FF90EF90DF90CF90BF908C
:10197000AF909F900895BF92CF92DF92EF92FF9227
:101980000F931F93DF93CF9300D0CDB7DEB77C01C9
:10199000062F5A834983B22ECDB6DEB6862F0E941B
:1019A0005E0A182F882319F42EEF3FEF27C0C701D6
:1019B000602FAE014F5F5F4F0E94DC0A8DB79EB76C
:1019C000811B91090FB6F8949EBF0FBE8DBFEDB776
:1019D000FEB7319689819A81ADB7BEB711968C93C7
:1019E000113021F0892F990F990B8183C701602F46
:1019F000412F9F010B2D0E945E0C9C01C9010FB667
:101A0000F894DEBE0FBECDBE0F900F90CF91DF9148
:101A10001F910F91FF90EF90DF90CF90BF900895AE
:101A200008952F923F924F925F926F927F928F9282
:101A30009F92AF92BF92CF92DF92EF92FF920F935D
:101A40001F93DF93CF93CDB7DEB72C970FB6F894E3
:101A5000DEBF0FBECDBF4FA02DB63EB6842C99245D
:101A6000C401880F991F880D991D880F991F2DB7E4
:101A70003EB7281B390B0FB6F8943EBF0FBE2DBFE3
:101A80006DB67EB60894611C711C8301EE24FF24A0
:101A900064010894C11CD11C04C061E072E00E9482
:101AA000BB08C8010894E11CF11C0A5F1F4FEC142D
:101AB000FD0499F7CE0188966C0110E07E01089430
:101AC000E11CF11C06E013C0F601619171916F01F8
:101AD000C7010E94BB08109FC0011124860D971DED
:101AE000B7010E947008C7010E94F1071F5F14151B
:101AF00058F380E396E00E94CD0480E396E06BA16A
:101B00007CA10E948F056DA17EA1882777FD80951D
:101B1000982F0E94671B80E396E00E949804B82EDD
:101B2000882309F458C0ADB65EB6E82EFF24C7017D
:101B300001962DB73EB7281B390B0FB6F8943EBF60
:101B40000FBE2DBFCDB6DEB60894C11CD11C00E07F
:101B500010E080E396E00E94A904F601E00FF11F77
:101B600080830F5F1F4F0B15A0F3EC0CFD1CF701DA
:101B700010828E01095F1F4FC801B6010E94BB0889
:101B8000FF2426E0E22E1AC0FE9CB0011124660D4F
:101B9000771DC8010E941F082F2D2F5F97FD0DC0D4
:101BA000F22EC8010E94F1078A2D952D9C010FB6D7
:101BB000F8943EBF0FBE2DBF0FC0F22EF41420F3D9
:101BC000C8010E94F1078A2D952D9C010FB6F8944B
:101BD0003EBF0FBE2DBFFF248401000F111F080D53
:101BE000191D000F111F060D171D0615170531F0E1
:101BF00006501040C8010E94F107F7CF8F2D0FB695
:101C0000F8943EBE0FBE2DBE2C960FB6F894DEBFE4
:101C10000FBECDBFCF91DF911F910F91FF90EF903D
:101C2000DF90CF90BF90AF909F908F907F906F90FC
:101C30005F904F903F902F9008952F923F924F9238
:101C40005F926F927F928F929F92AF92BF92CF924C
:101C5000DF92EF92FF920F931F93CF93DF93EC01EC
:101C600004E0B2E08B2EB2E09B2EACE2EA2EA1E0C3
:101C7000FA2EBB24B394F7E0CF2EF2E0DF2EE2E0A1
:101C8000AE2E78ED272E7EE0372E61E3462E62E001
:101C9000562E59E3652E52E0752E1D85113009F43C
:101CA00087C0113038F0123009F4B8C01330A9F7EA
:101CB00081E0FEC02DB73EB7295030400FB6F894F2
:101CC0003EBF0FBE2DBFEDB7FEB73196ADB7BEB765
:101CD0001296DC93CE93119793828282F582E482EE
:101CE000B682D086C7820E94110D2DB73EB7275FFE
:101CF0003F4F0FB6F8943EBF0FBE2DBF882309F0AB
:101D000053C08DB79EB709970FB6F8949EBF0FBE0C
:101D10008DBFEDB7FEB73196ADB7BEB71296DC9367
:101D2000CE9311972AE032E033832283F582E48256
:101D3000B682D086C7820E94110DADB7BEB7199684
:101D40000FB6F894BEBF0FBEADBF882379F12DB793
:101D50003EB7295030400FB6F8943EBF0FBE2DBF9E
:101D6000EDB7FEB73196ADB7BEB71296DC93CE9302
:101D700011972EE032E03383228384EF91E0958344
:101D80008483B682A6E1B2E0B087A7830E94110DDA
:101D90002DB73EB7275F3F4F0FB6F8943EBF0FBE3B
:101DA0002DBF882309F47CC0AD8677CF01507CC05D
:101DB00001508DB79EB70B970FB6F8949EBF0FBE1C
:101DC0008DBFEDB7FEB73196ADB7BEB71296DC93B7
:101DD000CE93119729E132E0338322833582248226
:101DE000A68250864782728661860E94110DADB729
:101DF000BEB71B960FB6F894BEBF0FBEADBF813005
:101E000011F4AD8651C0882309F04EC06CE271E038
:101E100080E090E00E94671B1D8646C02DB73EB74C
:101E2000275030400FB6F8943EBF0FBE2DBFEDB720
:101E3000FEB73196ADB7BEB71296DC93CE9311972D
:101E400093828282F582E48216820E94110D00D074
:101E500000D0EDB7FEB73196ADB7BEB71296DC93A2
:101E6000CE93119723E432E033832283F582E48218
:101E70001683D086C78289E492E0928781870E9488
:101E8000110DADB7BEB71B960FB6F894BEBF0FBE0F
:101E9000ADBF813019F4B3E0BD87FFCE823011F4BD
:101EA000BD86FBCE1D86F9CE002309F0F6CE80E07C
:101EB000DF91CF911F910F91FF90EF90DF90CF9026
:101EC000BF90AF909F908F907F906F905F904F905A
:101ED0003F902F9008958F929F92AF92BF92CF9292
:101EE000DF92EF920F93DF93CF93CDB7DEB72D97AD
:101EF0000FB6F894DEBF0FBECDBF4C010E945E65E9
:101F00005E010894A11CB11CC50160E376E020E0ED
:101F100032EC41E050E003E0F2E0EF2EE0E1CE2EC3
:101F2000EDE0DE2E0E940B66D401F5018DE00190FC
:101F30000D928150E1F7F40115862D960FB6F894B5
:101F4000DEBF0FBECDBFCF91DF910F91EF90DF903D
:101F5000CF90BF90AF909F908F90089587E896E0C4
:101F60000E946B0F0895DA01660F660F660F680F07
:101F70006D3030F46930A0F4683009F05BC009C0FE
:101F80006031A1F16F3109F447C06F3009F052C0E0
:101F900027C08C918093A2068091A906816039C0E8
:101FA000262F30E0F901EE0FFF1FED52FC4F01909C
:101FB000F081E02D8C91845680834091A9062850B1
:101FC000304081E090E0A0E0B0E004C0880F991FAD
:101FD000AA1FBB1F2A95D2F7482B4093A906089544
:101FE0008CE794E16C910E94C061089511968C91E8
:101FF00011972C9130E03695322F2227379527956F
:10200000280F311D3093A8062093A7068091A906BA
:1020100080628093A90608958C918093A206119600
:102020008C91119784568093A30612968C918456B6
:102030008093A4060895DF93CF930F92CDB7DEB7B8
:10204000198267E041E09E012F5F3F4F0E945F656C
:102050000F90CF91DF910895DF93CF930F92CDB77B
:10206000DEB7698365E041E09E012F5F3F4F0E942C
:102070005F650F90CF91DF91089540E020E030E060
:102080000E945F650895DF93CF930F92CDB7DEB7BF
:10209000653040F4498341E09E012F5F3F4F0E942D
:1020A0005F6505C0653019F460E00E94DC650F9043
:1020B000CF91DF9108950F931F938C0161E042E06F
:1020C00050E00E944310C80165E048E151E00E94E1
:1020D0004310C80163E043E050E00E944310C80190
:1020E00064E043E050E00E944310C80162E041E038
:1020F00050E00E944310C80161E00E942C101F9123
:102100000F9108950F931F938C010E941B10C8011B
:102110000E945B101F910F910895AF92BF92CF92D2
:10212000DF92EF92FF920F931F93DF93CF93CDB780
:10213000DEB72D970FB6F894DEBF0FBECDBF182FB8
:10214000F92E0E945E655E010894A11CB11CC501B8
:1021500063E476E020E032EC41E050E003E0F2E0BE
:10216000EF2EE3EBCE2EEFE0DE2E0E940B66212F4A
:102170003F2DC901DC01F5018DE001900D928150E8
:10218000E1F71092A9062D960FB6F894DEBF0FBEA8
:10219000CDBFCF91DF911F910F91FF90EF90DF9016
:1021A000CF90BF90AF90089585E996E00E948D1082
:1021B000089521E0FC0123830895FC011382089512
:1021C00008950F931F93CF93DF9385E996E060E026
:1021D0000E943D108091AE139091AF138D3E9105FA
:1021E00010F01092AA06A091ED03B091EE031396A1
:1021F0008C9113978823A1F0ED91FC911197019098
:10220000F081E02DCD010995882351F0E091ED0397
:10221000F091EE032281222319F0022F10E002C078
:102220001FEF00E0A091EF03B091F00313968C91A3
:1022300013978823C9F0ED91FC9111970190F081DB
:10224000E02DCD010995882379F0E091EF03F0911D
:10225000F003828190E0202F332727FD3095281747
:10226000390714F411E002C01F3F71F1C12FDD27BF
:10227000C7FDD0958091BE06E82FF0E0CE17DF07AE
:1022800081F0EE0FFF1FE351FC4F0190F081E02D34
:10229000A081B18114962D913C911597CF01F90140
:1022A00009951093BE06CC0FDD1FC351DC4FE881AA
:1022B000F981A081B18112962D913C911397CF01A4
:1022C000F90109958093AA06DF91CF911F910F9193
:1022D0000895A091ED03B091EE03ED91FC9111975B
:1022E0000680F781E02DCD010995A091EF03B09113
:1022F000F003ED91FC9111970680F781E02DCD015F
:10230000099585E996E00E9482100895CF92DF92A8
:10231000EF92FF920F931F93DF93CF93CDB7DEB76A
:10232000C75ED0400FB6F894DEBF0FBECDBF6C01C4
:10233000DC0112966C93129713961C92139784EFFC
:1023400094E08D939C9383E090E00E942079F82E96
:10235000E92EF601848395838E010F5F1F4FC8011C
:1023600063E042E10E94E3022F2D3E2DC901DC0112
:10237000F80183E001900D928150E1F7D6011496A7
:10238000ED91FC91159780819181FE013496A6E92B
:10239000B4E02CE40D9001922150E1F7BE016C5F96
:1023A0007F4F0E94C203D6011496ED91FC911597C0
:1023B000808191810396DE01A05BBF4FEAE4F4E0E7
:1023C0002CE401900D922150E1F7BE01605B7F4F3C
:1023D0000E94C203D6011496ED91FC91159780815D
:1023E00091810696DE01A456BF4FEEEFF3E02CE498
:1023F00001900D922150E1F7BE0164567F4F0E947B
:10240000C203C951DF4F0FB6F894DEBF0FBECDBF78
:10241000CF91DF911F910F91FF90EF90DF90CF90C0
:1024200008958BEA96E062E30E9486118CE3809324
:10243000BB061092BC0686EE94E09093BA06809399
:10244000B9068FEF8093BD060895CF92DF92FF9279
:102450000F931F93DF93CF93CDB7DEB72C970FB6B3
:10246000F894DEBF0FBECDBF8C018091AA068823F1
:1024700009F08EC0FE0131968CE0DF011D928A9535
:10248000E9F7AF01A8E9B3E170E0FF2460E06F0174
:1024900014C0762FEF2DF0E0EE0FFF1FEC0DFD1DA9
:1024A00080819181281739070CF4F62E6F5F4E5FFB
:1024B0005F4F1396663009F440C08C91992787FDD1
:1024C0009095889F9001899F300D989F300D112421
:1024D000FA0180819181280F391F11968C911197F3
:1024E000992787FD9095FC01EE9FC001EF9F900D0D
:1024F000FE9F900D1124280F391F12968C91129770
:10250000992787FD9095FC01EE9FC001EF9F900DEC
:10251000FE9F900D1124280F391FFA01318320836B
:10252000E72FF0E0EE0FFF1FEC0DFD1D8081918184
:10253000821793070CF4ADCFADCF272F30E0F90110
:10254000EE0FFF1FEC0FFD1F818192818F569F4080
:10255000E4F0D80114968C91992787FD9095821705
:10256000930721F48091BF068F5F01C081E08093C3
:10257000BF068091BF06833018F4F801748303C04E
:10258000D8011496FC9281E004C08FEFF801848397
:1025900080E02C960FB6F894DEBF0FBECDBFCF9172
:1025A000DF911F910F91FF90DF90CF9008956F9270
:1025B0007F928F929F92AF92BF92CF92DF92EF92D3
:1025C000FF920F931F937C01FC01668177818085C8
:1025D000918520E030E04EE852E40E94D37B2AE966
:1025E00039E949E95FE30E94B07F4B015C0100D00B
:1025F00000D06DB67EB60894611C711CA5019401D3
:102600000E94D47B8B019C01F701C284D384E484B3
:10261000F58480E090E0A0E0B0E0F3018083918356
:10262000A283B38381EE90E1B501A401AA24A3940F
:102630000E94B2440F900F900F900F9082E01F9174
:102640000F91FF90EF90DF90CF90BF90AF909F9051
:102650008F907F906F9008954F925F926F927F92CC
:102660008F929F92AF92BF92CF92DF92EF92FF92A2
:102670000F931F93DF93CF93CDB7DEB7CC54D040E9
:102680000FB6F894DEBF0FBECDBF2C0180E593E1FD
:10269000BE016B5F7F4FAE014F5F5F4F0E94EB72D9
:1026A00060E070E080E290EC20E030E040E250E456
:1026B0000E948D667B018C0166E676E686E290ECF0
:1026C00026E636E646E250E40E948D66ED8EFE8EEA
:1026D0000F8F18A320E030E040E050E029A33AA398
:1026E0004BA35CA36DA37EA38FA398A781EE90E17B
:1026F0000E94A11DD20114964C91EDB7FEB73C97F4
:102700000FB6F894FEBF0FBEEDBF552747FD50959D
:102710009A01220F331F240F351F220F331F220F60
:10272000331FFC01E20FF31F4DB75EB74F5F5F4FE2
:10273000205B3C4E8CE0D9010D909D01DA010D9299
:10274000AD018150C1F7CE018996C080D180E28071
:10275000F38004811581268137814085518562850A
:1027600073850E94DF6995E3692E712C6C0E7D1EC6
:10277000EDB7FEB73C960FB6F894FEBF0FBEEDBFA7
:10278000C301C9A4DAA4EBA4FCA40DA51EA52FA522
:1027900038A949A95AA96BA97CA90F2EFCE58F2E4F
:1027A000FFE89F2EF2ECAF2EFEE3BF2EF02D0E942D
:1027B000A26A2DB73EB72C5030400FB6F8943EBFFA
:1027C0000FBE2DBFADB7BEB71196F3018CE00190DF
:1027D0000D928150E1F7CE014196CD8CDE8CEF8CCD
:1027E000F8A009A11AA12BA13CA14DA15EA16FA146
:1027F00078A50E941C6969897A898B899C892D81B9
:102800003E814F8158850E94B07F7B018C01698D8C
:102810007A8D8B8D9C8D2D853E854F8558890E94A4
:10282000B07F9B01AC01C801B7010E94D47B9058D6
:1028300029853A854B855C850E94A17C6D8B7E8BBA
:102840008F8B988F81E090E0D20114960C9002C09B
:10285000880F991F0A94E2F7682FDE01AF5BBF4F24
:10286000EEEFF4E08CE001900D928150E1F7EDB7CE
:10287000FEB737970FB6F894FEBF0FBEEDBF319687
:1028800020E030E040E050E0ADB7BEB711962D93A8
:102890003D934D935C93149785E590E095838483F5
:1028A00085E086831896FE01EF5BFF4F8CE0019078
:1028B0000D928150E1F781EE90E1A988BA88CB882A
:1028C000DC88ED88FE880F89188D298D3A8D4B8D17
:1028D0005C8D88240E94A61DEDB7FEB773960FB6D7
:1028E000F894FEBF0FBEEDBF87E0C45BDF4F0FB6AD
:1028F000F894DEBF0FBECDBFCF91DF911F910F9136
:10290000FF90EF90DF90CF90BF90AF909F908F900F
:102910007F906F905F904F9008954F925F926F926B
:102920007F928F929F92AF92BF92CF92DF92EF925F
:10293000FF920F931F93DF93CF93CDB7DEB7C455AC
:10294000D0400FB6F894DEBF0FBECDBF2C018091F2
:10295000AA06882311F010E0A5C008E913E17DE084
:10296000E72EF12CEC0EFD1EF8016081772767FD44
:102970007095872F972F0E946D7D2DEC3CEC4CE4D9
:102980005DE30E94B07FF70160837183828393834C
:10299000F8016181772767FD7095872F972F0E9437
:1029A0006D7D2DEC3CEC4CE45DE30E94B07FF701C3
:1029B0006483758386839783F8016281772767FD37
:1029C0007095872F972F0E946D7D2DEC3CEC4CE489
:1029D0005DE30E94B07FF7016087718782879387EC
:1029E0000D5F1F4F8CE090E0E80EF91E93E10A3A6C
:1029F000190709F0B9CFF20184819581BE01635FA7
:102A00007F4FAE014F5F5F4F0E948D0369857A85CE
:102A10008B859C8520E030E040E05FE30E94D37B23
:102A200020E030E048E453E40E94B07F7B018C0159
:102A30006D817E818F81988520E030E040E05FE30A
:102A40000E94D37B20E030E048E453E40E94B07F52
:102A50005B016C01B701C801A60195010E94A37E2C
:102A60003B014C01F2016683778380879187D7FA17
:102A7000D094D7F8D094C601B5019701A8010E945F
:102A8000477CF201628773878487958710E0C401D1
:102A9000B30120E030E048E952E40E94967E181627
:102AA0000CF411E0812FCC5ADF4F0FB6F894DEBF43
:102AB0000FBECDBFCF91DF911F910F91FF90EF908F
:102AC000DF90CF90BF90AF909F908F907F906F904E
:102AD0005F904F900895FC01738362835683458312
:102AE0001286118689E080870895772767FD7095A3
:102AF000872F972FFB01B097EF35F105A0F4EF5228
:102B0000FF4FEE0FFF1F0590F491E02D099484E034
:102B1000089585E0089582E0089583E0089587E0B0
:102B2000089588E0089586E00895772767FD7095F9
:102B3000872F972FFB01B097EE35F10560F4E05D2C
:102B4000FE4FEE0FFF1F0590F491E02D099482E0F7
:102B5000089581E0089580E00895FC018085883023
:102B600011F020E006C020E081859285892B09F4D0
:102B700021E0822F08951092C1061092C0068AE0CB
:102B80008093C8060895EF92FF920F931F93CF93FF
:102B9000DF93162FE42E022FF32E85E360E00E94D0
:102BA000B807110F110F1E0D812F80580E94331B83
:102BB000202F3F2DC901EC0110E004C089910E9433
:102BC000331B1F5F1E15D0F385E361E00E94B80739
:102BD00080E0DF91CF911F910F91FF90EF900895CA
:102BE000DF93CF9300D0CDB7DEB76983465F4A83CA
:102BF00068E142E09E012F5F3F4F0E94C3150F9096
:102C00000F90CF91DF910895CF93DF93262F332735
:102C100027FD3095FC01C081D181FE01019000208B
:102C2000E9F73197EC1BFD0B2E173F0730F467FDDA
:102C300004C0C20FD31F688101C060E20E94F0157A
:102C4000DF91CF9108950F93DF93CF9300D00F9230
:102C5000CDB7DEB7665F6983465F4A83000F020F18
:102C60000B8366E143E09E012F5F3F4F0E94C31537
:102C70000F900F900F90CF91DF910F91089560E129
:102C800040E020E030E00E94C3150895DF92EF920B
:102C9000FF920F931F93CF93DF93EC017A018B0187
:102CA0008091CB069091CC06A091CD06B091CE0636
:102CB0009A01AB01281B390B4A0B5B0B8A819B8164
:102CC000AA2797FDA095BA2F281739074A075B074F
:102CD00008F4CCC0E092CB06F092CC060093CD066F
:102CE0001093CE0689859A851816190624F4019743
:102CF0009A878987BBC08F81882319F01092CF06ED
:102D00001F828885883021F0893009F0AFC0A2C0C9
:102D1000D090CF068C81D81AD092CF060D811E811B
:102D2000E880F980F701E00FF11F3197CE01608153
:102D30000E9475152D2D332727FD309590E028171B
:102D4000390739F4015010401E830D831092CF06CD
:102D500013C0D7FE11C0C80101969E838D83E80E73
:102D6000F91E0894E108F108CE01F70160810E9484
:102D7000751581508093CF06CE016C8140E020E034
:102D800001E00E9423168C818F3FC1F1813009F050
:102D900050C00D811E81E881F981E00FF11FCE0145
:102DA00060810E9495159091CF06482F491BCE0156
:102DB000602F0E940416D090CF0608811981FD80F3
:102DC0008F2D9E81080F191FCE01F80160810E948E
:102DD0007515E82E8D2D992787FD90958E0D911DE7
:102DE00007973CF5CE01F80161810E949515F39497
:102DF000482F4E194D19CE016F2D19C0ED80FE8060
:102E0000E881F981EE0DFF1D31970081CE01602F21
:102E10000E949515182FCE01602F0E947515EA9417
:102E2000180F8091CF06181BCE016E2D412F0E94E6
:102E300004168D819E81A881B981FD010190002039
:102E4000E9F73197EA1BFB0B8E179F0768F497FF92
:102E50000DC00AC0CE010E943F168D819E81019750
:102E60009E838D83892B11F48AE08887DF91CF912F
:102E70001F910F91FF90EF90DF900895DF93CF9314
:102E800000D00F92CDB7DEB769834A832B8363E00E
:102E900043E09E012F5F3F4F0E94C3150F900F909C
:102EA0000F90CF91DF9108959F92AF92BF92CF92F2
:102EB000DF92EF92FF920F931F93CF93DF93EC017A
:102EC000162F972E6A01590188819981009711F078
:102ED0000E94CD79E12FF92DDF010D900020E9F757
:102EE000CD018E1B9F0B0E94207988839983612FCF
:102EF000792D0E94837BDB82CA82BA86A9860C83E5
:102F0000FE82ED8288E0888781E08F83DF91CF9118
:102F10001F910F91FF90EF90DF90CF90BF90AF90F7
:102F20009F900895AC01FB01EC5FF54F2081822F4B
:102F30008F5F8F778083FB01EB5FF54F808181503E
:102F4000808330E084E190E0289FF001299FF00D1C
:102F5000389FF00D1124E60FF71FDA01389680E153
:102F600001900D928150E1F7CA010895DF93CF934C
:102F7000CDB7DEB764970FB6F894DEBF0FBECDBFF6
:102F800050E0FA01EE0FFF1FEE0FFF1FE40FF51FD9
:102F90003196EE0FFF1FEE0FFF1FDE011196E80FB7
:102FA000F91F24E101900D922150E1F770E0DA0160
:102FB000AA0FBB1FAA0FBB1FA40FB51F1196AA0F04
:102FC000BB1FAA0FBB1FFB01EE0FFF1FEE0FFF1F62
:102FD000E60FF71F3196EE0FFF1FEE0FFF1FA80F32
:102FE000B91FE80FF91F24E101900D922150E1F77C
:102FF000FB01EE0FFF1FEE0FFF1FE60FF71F3196CD
:10300000EE0FFF1FEE0FFF1FE80FF91FDE011196F5
:1030100084E10D9001928150E1F764960FB6F89427
:10302000DEBF0FBECDBFCF91DF9108956F927F922B
:103030008F929F92AF92BF92CF92DF92EF92FF92C8
:103040000F931F93DF93CF93CDB7DEB760970FB683
:10305000F894DEBF0FBECDBF3C0189829A82AB825D
:10306000BC82CD82DE82EF82F88609871A872B87A1
:103070003C874D875E876F87788B25E03AE0620E4C
:10308000731EF30190812BEF35EF620E731E97FFD5
:1030900002C080E0A0C0809170008E7F809370009D
:1030A000E4E0FAE06E0E7F1EF30100812CEF35EFB5
:1030B000620E731E090F0F77202F30E0F30140815D
:1030C000518162817381F901EE0FFF1FEE0FFF1F27
:1030D000E20FF31F3196EE0FFF1FEE0FFF1FE60DFD
:1030E000F71D89A19AA1AA2797FDA095BA2F840F51
:1030F000951FA61FB71F80839183A283B38384E1AA
:1031000090E0289FF001299FF00D389FF00D1124C9
:10311000E60DF71D3896DE01119680E10D900192C3
:103120008150E1F725E03AE0620E731EF301F08072
:103130002BEF35EF620E731EFF2009F440C054E000
:10314000C52E5AE0D52EC60CD71CFA94F601108174
:103150001F0D1F77802F90E0DC01AA0FBB1FAA0F65
:10316000BB1FA80FB91F1196AA0FBB1FAA0FBB1F29
:10317000A60DB71D812F90E0FC01EE0FFF1FEE0F93
:10318000FF1FE80FF91F3196EE0FFF1FEE0FFF1F15
:10319000E60DF71D2D913D914D915C9180819181BE
:1031A000A281B381281739074A075B0740F4C3019E
:1031B000602F412F0E94B617012FFF2031F6F30137
:1031C000EB5FF54F80818F5F80838091700081601D
:1031D0008093700081E060960FB6F894DEBF0FBE5A
:1031E000CDBFCF91DF911F910F91FF90EF90DF90B6
:1031F000CF90BF90AF909F908F907F906F900895E9
:103200008F929F92AF92BF92CF92DF92EF92FF92F6
:103210000F931F93CF93DF93EC016A017B01CB5F88
:10322000D54F0881C550DA4061E070E002C0660FFA
:10323000771F2A95E2F74FEF5FEF10E034E0A32EFF
:103240003AE0B32EAC0EBD1E24E1822E912C2FC08D
:10325000F5018081810F8F77282F30E0F901EE0F83
:10326000FF1FEE0FFF1FE20FF31F3196EE0FFF1F40
:10327000EE0FFF1FEC0FFD1F80819181A281B381B2
:10328000C816D906EA06FB06A0F0289DF001299D84
:10329000F00D389DF00D1124EC0FFD1F808590E09E
:1032A00086239723892B09F49A011F5FA901101720
:1032B00078F2CA01DF91CF911F910F91FF90EF90AB
:1032C000DF90CF90BF90AF909F908F900895109215
:1032D000D4101092D5101092D0061092D1061092F0
:1032E000D2061092D30608953F924F925F926F924A
:1032F0007F928F929F92AF92BF92CF92DF92EF9286
:10330000FF920F931F93CF93DF93782E692E4B017B
:10331000342EE901809170008E7F80937000272DFC
:10332000392FC901DC01EAE0F5E08CE001900D9253
:103330008150E1F7F40180819181A281B381AE01D6
:10334000662757FD6095762F480F591F6A1F7B1F10
:10335000E4E14E2E512CC401232D0E940019EC01F2
:10336000FFEF8F3F9F07C1F1849D5001859DB00CF9
:10337000949DB00C1124A80CB91CF5013996872D29
:10338000962DD5011996CC90D180E280F3800481EE
:1033900015812681378140855185628573850E941C
:1033A000726DFE01EE0FFF1FEE0FFF1FEC0FFD1FF2
:1033B0003196EE0FFF1FEE0FFF1FE80DF91D408144
:1033C000518162817381F5018789882311F541500C
:1033D000504060407040BFCF832D90E0FC01EE0F65
:1033E000FF1FE80FF91FEE0FFF1FEE0FFF1FE05B3F
:1033F000FC4E872D962DC080D180E280F380048121
:1034000015812681378140855185628573850E94AB
:10341000726D80917000816080937000872D962D71
:10342000DF91CF911F910F91FF90EF90DF90CF90A0
:10343000BF90AF909F908F907F906F905F904F90D4
:103440003F9008958F929F92AF92BF92CF92DF925A
:10345000FF920F931F93DF93CF93CDB7DEB76097A3
:103460000FB6F894DEBF0FBECDBF8C01FF2495E0F0
:10347000A92E9AE0B92EA00EB11E84E0C82E8AE0D3
:10348000D82EC00ED11E4E010894811C911C08C07C
:10349000C401B8010E949217C4010E94C14BF39469
:1034A000F5018081882329F42FEF3FEF4FEF5FEF85
:1034B00015C0F601808190E0FC01EE0FFF1FEE0FBA
:1034C000FF1FE80FF91F3196EE0FFF1FEE0FFF1FD2
:1034D000E00FF11F2081318142815381F801808109
:1034E0009181A281B38182179307A407B50780F663
:1034F000FF2019F00E944247F82EF8018081918147
:10350000A281B3810196A11DB11D80839183A28305
:10351000B3838F2D60960FB6F894DEBF0FBECDBF7C
:10352000CF91DF911F910F91FF90DF90CF90BF90CF
:10353000AF909F908F90089584B5826084BD84B5CC
:10354000816084BD85B5826085BD85B5816085BD9E
:10355000E1E8F0E010828081826080838081816078
:103560008083E0E8F0E0808181608083E0EBF0E040
:1035700080818C7F8083A1EBB0E08C91877F8C93DE
:10358000E6EBF0E080818F7D808320E730E0F90179
:1035900080818D7F80838C9187608C93E1E9F0E05E
:1035A000808182608083808181608083E0E9F0E0B7
:1035B000808181608083E1EAF0E0808182608083A5
:1035C000808181608083E0EAF0E080818160808397
:1035D000E0E2F1E080818260808380818E7F808361
:1035E000E1E2F1E080818A61808380818A7F80834B
:1035F00080E49CE99093270180932601EEE6F0E0B9
:10360000808181608083F9018081816080837894EA
:10361000089587E880937A0080E480937C00089581
:10362000EBE7F0E09081282F2870977F292B2083EB
:10363000ECE7F0E090818770907E982B908382E099
:1036400090E00197F1F7EAE7F0E080818064808301
:10365000089580917A0086FDFCCF2091780030910A
:103660007900C90108958EBD0DB407FEFDCF8EE02F
:1036700090E00197F1F78EB50895882339F0809195
:10368000E01080936E008091DF1010C080916E007A
:103690008093E010809170008093DF1080916E0025
:1036A0008E7F80936E00809170008E7F809370007B
:1036B00008958FB7F8942091DA103091DB10409183
:1036C000DC105091DD108FBFB901CA010895EF924F
:1036D000FF920F931F937B018C018FB7F894409159
:1036E000DA105091DB106091DC107091DD108FBF0B
:1036F0002FB7F8948091DA109091DB10A091DC1034
:10370000B091DD102FBF841B950BA60BB70B8E1548
:103710009F05A007B10760F31F910F91FF90EF90F5
:103720000895019739F0880F991F880F991F029704
:103730000197F1F708951F920F920FB60F920BB6F3
:103740000F9211242F933F934F935F936F937F9327
:103750008F939F93AF93BF93EF93FF9388EC8093E6
:10376000B20080ED96E00E94221A882319F40E948C
:103770001B4604C01092AF131092AE13FF91EF914D
:10378000BF91AF919F918F917F916F915F914F9179
:103790003F912F910F900BBE0F900FBE0F901F9077
:1037A00018951F920F920FB60F920BB60F9211241D
:1037B000DF92EF92FF920F931F932F933F934F93BC
:1037C0005F936F937F938F939F93AF93BF93EF9389
:1037D000FF93E090DA10F090DB100091DC10109174
:1037E000DD108091DE100894E11CF11C011D111DFB
:1037F00043E0D42ED80E9CE79D1540F436E8D32E36
:10380000D80E0894E11CF11C011D111D8091F103DB
:1038100080FF06C081EE90E1B801A7010E946A2AEC
:103820008091F10381FF06C080EC96E0B801A7010A
:103830000E9446168091F10382FF04C085E996E05C
:103840000E94F5658091F10383FF04C0C801B701B0
:103850000E94D845D092DE10E092DA10F092DB1090
:103860000093DC101093DD108091D6109091D7104A
:10387000A091D810B091D9100196A11DB11D8093CF
:10388000D6109093D710A093D810B093D910FF9171
:10389000EF91BF91AF919F918F917F916F915F91C8
:1038A0004F913F912F911F910F91FF90EF90DF90DB
:1038B0000F900BBE0F900FBE0F901F90189584E3D2
:1038C00061E00E941F0783E361E00E941F0785E318
:1038D00061E00E941F0784E360E00E94B80783E371
:1038E00060E00E94B80785E361E00E94B8078CB5EC
:1038F00080618CBD8CB580648CBD8DB581608DBDC3
:103900008CB581608CBD0895EF92FF920F931F9349
:10391000DF93CF93CDB7DEB76B970FB6F894DEBFCA
:103920000FBECDBF8E010F5F1F4FC8010E948D10CB
:10393000A5E9B6E0F8018DE001900D928150E1F724
:103940008E01025F1F4FC8010E946B0FA7E8B6E00F
:10395000F8018EE001900D928150E1F70E94A4459C
:103960000E949C1A0E945F1C80EC96E062E04CE191
:103970002FE10E943E170E94F7490E94091B80E038
:103980000E94101B0E94291B0E94376780EC96E062
:103990006CE370E04AE050E00E946B156CEB72E063
:1039A00080E090E00E94671B81EE90E10E9413226C
:1039B0000E94591B6850774080409040C8F387E8C8
:1039C00096E00E941D0E082F80EC96E00E94AD1537
:1039D0008823D1F7002329F080EC96E064E572E0BB
:1039E00004C080EC96E061E672E041E450E020E043
:1039F00030E001E0EE24EA94FE2C0E9454170E946D
:103A000069116AE070E080E090E00E94671B0E940C
:103A1000E110F7CF0F931F93182F092FFB0150E0F0
:103A20008DE090E09C01429FC001439F900D529F0A
:103A3000900D1124E80FF91F212F302FC901DC014F
:103A400034968DE001900D928150E1F7812F902FF7
:103A50001F910F91089570E0EDE0F0E0DF016A9FA3
:103A6000F0016B9FF00D7A9FF00D1124E80FF91F04
:103A70002483358346835783089570E0EDE0F0E0BA
:103A8000DF016A9FF0016B9FF00D7A9FF00D11240A
:103A9000E80FF91F2087318742875387089570E028
:103AA000EDE0F0E0DF016A9FF0016B9FF00D7A9F7F
:103AB000F00D1124E80FF91F2487358746875787B3
:103AC000089570E02DE030E0629FF001639FF00DFB
:103AD000729FF00D1124E80FF91F408B0895EF92AB
:103AE000FF920F931F93CF93DF93DC01A758BF4F33
:103AF00020E030E04DE0E42EF12C1DE040E050E00D
:103B000060E070E02E9DF0012F9DF00D3E9DF00DC8
:103B10001124E80FF91F3496EF01012F19920A952D
:103B2000E9F74D935D936D937D932F5F3F4F293060
:103B3000310541F7DF91CF911F910F91FF90EF90E9
:103B400008959C0128563E4FC90108952F923F9237
:103B50004F925F926F927F928F929F92AF92BF929D
:103B6000CF92DF92EF92FF920F931F93DF93CF9349
:103B7000CDB7DEB7C359D0400FB6F894DEBF0FBE45
:103B8000CDBFEB966FAFEB97BE016F5B7F4FDB0155
:103B9000AC92FE01EE5BFF4FB082FE01ED5BFF4F8A
:103BA000C082FE01EC5BFF4FD082CE018B5B9F4F4A
:103BB000FC01E082FE01EA5BFF4FF082FE01E95B5F
:103BC000FF4F0083FE01E85BFF4F1083DE01A75B20
:103BD000BF4F2C93FE01E65BFF4F3083FE01E55B98
:103BE000FF4F4083FE01E45BFF4F5083EC968FAEA6
:103BF000EC97FB012081318142815381A5962CAF46
:103C00003DAF4EAF5FAFA597FC012081318142816E
:103C10005381A1962CAF3DAF4EAF5FAFA1972D91D1
:103C20003D914D915C916D962CAF3DAF4EAF5FAF26
:103C30006D97C155DF4F88819981AA81BB81CF5A89
:103C4000D04069968CAF9DAFAEAFBFAF6997CD54F2
:103C5000DF4F288139814A815B81C35BD040659603
:103C60002CAF3DAF4EAF5FAF6597C954DF4F888132
:103C70009981AA81BB81C75BD04061968CAF9DAF13
:103C8000AEAFBFAF6197C255DF4F9881CE5AD040DB
:103C9000692F70E0882777FD8095982F0E946D7DB1
:103CA0009B01AC0160E070E080E89FE30E94A17C92
:103CB000EA966CAF7DAF8EAF9FAFEA97C455DF4FEA
:103CC00068817981CC5AD040882777FD8095982FDC
:103CD0000E946D7DEA962CAD3DAD4EAD5FADEA978D
:103CE0000E94B07FE6966CAF7DAF8EAF9FAFE69738
:103CF0008820B9F420E030E040E050E0E1962CAFBD
:103D00003DAF4EAF5FAFE197AD962CAF3DAF4EAF3D
:103D10005FAFAD97A9962CAF3DAF4EAF5FAFA99700
:103D200038C0EB968FADEB970E94256EF82EC855E4
:103D3000DF4F688179818A819B81C85AD0400E9477
:103D40003A7D8B019C01CE01499660ED76E04F2DC6
:103D500098010E94741989A19AA1ABA1BCA1E19616
:103D60008CAF9DAFAEAFBFAFE1972D8D3E8D4F8D28
:103D700058A1AD962CAF3DAF4EAF5FAFAD97898DDB
:103D80009A8DAB8DBC8DA9968CAF9DAFAEAFBFAFFA
:103D9000A997E2961FAEE2970F2EF0E04F2EF0E0CB
:103DA0005F2EF0E06F2EF0E07F2EF02DC157DF4F39
:103DB0001882CF58D040C057DF4F1882C059D0402A
:103DC000CF56DF4F1882C159D0403324C457DF4F3C
:103DD0001882CC58D040C357DF4F1882CD58D040FE
:103DE000C257DF4F1882CE58D0402224C857DF4F29
:103DF0001882C858D040C757DF4F1882C958D040E2
:103E0000C657DF4F1882CA58D040C557DF4F1882B7
:103E1000CB58D040CC57DF4F1882C458D040CB5736
:103E2000DF4F1882C558D040CA57DF4F1882C65896
:103E3000D040C957DF4F1882C758D040C058DF4F15
:103E40001882C058D040CF57DF4F1882C158D04099
:103E5000CE57DF4F1882C258D040CD57DF4F18825F
:103E6000C358D040ED961FAEED97EE961FAEEE977D
:103E7000EF961FAEEF97C158DF4F1882CF57D04053
:103E8000DE01D196CE56DF4FB983A883C259D04008
:103E900006C2C301B201EA962CAD3DAD4EAD5FAD99
:103EA000EA970E94D47B2B013C01EC96BFADEC97C6
:103EB000BB2309F068C0C857DF4FE881C858D0401D
:103EC000CC57DF4FE883C458D040C757DF4FF88145
:103ED000C958D040CB57DF4FF883C558D040C6579C
:103EE000DF4F2881CA58D040CA57DF4F2883C658B1
:103EF000D040C557DF4F3881CB58D040C957DF4F2E
:103F00003883C758D040C457DF4F4881CC58D04081
:103F1000C058DF4F4883C058D040C357DF4F588147
:103F2000CD58D040CF57DF4F5883C158D040C257EB
:103F3000DF4F8881CE58D040CE57DF4F8883C2589C
:103F4000D040CD57DF4F2882C358D040C157DF4FF4
:103F50009881CF58D040ED969FAFED97C057DF4F77
:103F6000A881C059D040EE96AFAFEE97CF56DF4F45
:103F7000B881C159D040EF96BFAFEF97C158DF4F1E
:103F80003882CF57D040A9966CAD7DAD8EAD9FAD38
:103F9000A99769962CAD3DAD4EAD5FAD6997A596DD
:103FA000ECACFDAC0EAD1FADA597630152010E94B4
:103FB000AD68C857DF4F6883C858D040C757DF4F38
:103FC0007883C958D040C657DF4F8883CA58D0403D
:103FD000C557DF4F9883CB58D040AD966CAD7DADC3
:103FE0008EAD9FADAD9765962CAD3DAD4EAD5FAD41
:103FF0006597A196ECACFDAC0EAD1FADA1970E94EC
:10400000AD68C457DF4F6883CC58D040C357DF4FEB
:104010007883CD58D040C257DF4F8883CE58D040E8
:10402000292EE1966CAD7DAD8EAD9FADE197619689
:104030002CAD3DAD4EAD5FAD61976D96ECACFDAC7A
:104040000EAD1FAD6D970E94AD68C157DF4F6883FD
:10405000CF58D040C057DF4F7883C059D040CF569B
:10406000DF4F8883C159D040392E482F592FCB01BB
:10407000DA0189879A87AB87BC87C457DF4F2881CD
:10408000CC58D040C357DF4F3881CD58D040C257AD
:10409000DF4F4881CE58D040522DC901DA018D83BF
:1040A0009E83AF83B887C857DF4F2881C858D04058
:1040B000C757DF4F3881C958D040C657DF4F4881B6
:1040C000CA58D040C557DF4F5881CB58D040C9019E
:1040D000DA0189839A83AB83BC83CC57DF4F288175
:1040E000C458D040CB57DF4F3881C558D040CA574D
:1040F000DF4F4881C658D040C957DF4F5881C75855
:10410000D040C901DA018D879E87AF87B88BC05830
:10411000DF4F2881C058D040CF57DF4F3881C1587A
:10412000D040CE57DF4F4881C258D040CD57DF4FE7
:104130005881C358D040C901DA01898B9A8BAB8B67
:10414000BC8BED962FADED97EE963FADEE97EF96CB
:104150004FADEF97C158DF4F5881CF57D040C901BD
:10416000DA018D8B9E8BAF8BB88FEDB7FEB73C9786
:104170000FB6F894FEBF0FBEEDBFADB7BEB7119638
:10418000FE013D968CE001900D928150E1F7CE0149
:104190008596C980DA80EB80FC800D811E812F819D
:1041A000388549855A856B857C850E94DF69CE56A6
:1041B000DF4FA881B981C259D040E0E11D92EA9554
:1041C000E9F7DE01D296FE01B5968CE001900D92E2
:1041D0008150E1F7EB96FFADEB97F9ABE6966CAD4E
:1041E0007DAD8EAD9FADE6970E943A7D7FAF6EAFFD
:1041F000EC962FADEC9721962FAF21974DB75EB778
:10420000465F5F4F0FB6F8945EBF0FBE4DBF0DB750
:104210001EB70F5F1F4FC855DF4F688179818A81B4
:104220009B81C85AD0400E943A7DD8016D937C93FF
:1042300080ED96E089A89AA8ABA8BCA8CDA8DEA876
:10424000EFA8F8AC09AD1AAD2BAD3CAD4DAD5EADF0
:104250006FAD21967FAD21970E941618C855DF4F8C
:10426000688179818A819B81C85AD040E6962CADBD
:104270003DAD4EAD5FADE6970E94D47BC855DF4F94
:10428000688379838A839B83C85AD040E296BFAD06
:10429000E297BF5FE296BFAFE2970F900F90E29672
:1042A000EFADE297C255DF4FF881CE5AD040EF17FD
:1042B00008F4EFCDCD56DF4F0FB6F894DEBF0FBE3A
:1042C000CDBFCF91DF911F910F91FF90EF90DF90C5
:1042D000CF90BF90AF909F908F907F906F905F90A6
:1042E0004F903F902F9008952F923F924F925F9260
:1042F0006F927F928F929F92AF92BF92CF92DF92F6
:10430000EF92FF920F931F93DF93CF93CDB7DEB75A
:10431000A0970FB6F894DEBF0FBECDBF5E8F4D8F56
:1043200019012B0166247724CE010D9698A38F8F57
:10433000DE011196F2018CE001900D928150E1F7BF
:10434000EF8DF8A180E111928A95E9F7DE011E96C2
:10435000FE0131968CE001900D928150E1F781E0F1
:1043600090E0062C02C0880F991F0A94E2F78D870F
:104370003B8E2A8E91E09C8F00D08D8D9E8DEDB767
:10438000FEB79283818380ED96E08D849E84AF8416
:10439000B888C988DA88EB88FC880D891E892F893E
:1043A000388D498D5A8D6B8D7C8D0E94161808941E
:1043B000611C711CECE0F0E04E0E5F1E0F900F9040
:1043C000F6E06F16710409F0B3CFA0960FB6F8941B
:1043D000DEBF0FBECDBFCF91DF911F910F91FF9038
:1043E000EF90DF90CF90BF90AF909F908F907F9095
:1043F0006F905F904F903F902F900895DC01A856EA
:10440000BE4FE0E5F3E188E401900D928150E1F7C1
:104410000895DC01A856BE4FFB0188E401900D927F
:104420008150E1F70895DF93CF9300D000D000D002
:10443000CDB7DEB7FC019C0127553F4F4CE155E05D
:1044400088E0DA010D90AD01D9010D929D018150F6
:10445000C1F7EF54FF4F80E090E0A0E0B0E0808330
:104460009183A283B383EF5CFE4F8AE590E0918352
:104470008083E25EF1409E012F5F3F4F46E155E0B1
:1044800086E0DA010D90AD01D9010D929D018150B8
:10449000C1F79F012B543F4FAE014F5F5F4F86E046
:1044A000DA010D90AD01D9010D929D018150C1F746
:1044B000E554FF4F86E0819381E08083EC5DFE4F01
:1044C0008083E352F1408FE090E081939193819358
:1044D00091938CE390E091838083339680E090E029
:1044E000A0E2B1E480839183A283B383E35EFE4FB5
:1044F00087E08083E15EF140CF0160E00E94043DEF
:1045000026960FB6F894DEBF0FBECDBFCF91DF91D8
:1045100008950F931F938C010E940922C8010E94E5
:1045200013221F910F9108952F923F924F925F9205
:104530006F927F928F929F92AF92BF92CF92DF92B3
:10454000EF92FF920F931F93DF93CF93CDB7DEB718
:104550002E970FB6F894DEBF0FBECDBF4A835B83A4
:104560006C837D8318012901AE82BF82C886D986FB
:104570008824992419826E2D70E07C876B876B8468
:104580007C84082C02C0759467940A94E2F771E069
:10459000672277241E861D868A866114710479F449
:1045A0000F2EF0E0AF2EF0E0BF2EF0E0CF2EF0E0C7
:1045B000DF2EF02D86017501A60195014DC06E819B
:1045C0007F81888599850E943C679B01AC016A8147
:1045D0007B818C819D810E94B07F5B016C018A850B
:1045E000813039F4C601B501A60195010E94D47B42
:1045F0000BC09A85923051F4C601B50120E030E03D
:1046000040E751E40E94A17C5B016C01C201B10151
:1046100020E030E040E450E40E94A17C7B018C016A
:10462000C201B10120E030E040E450E40E94B07FDC
:104630009B01AC01C801B7010E948D667B018C0112
:104640006BED7FE089E490EC2BED3FE049E450E432
:104650000E948D669B01AC018981ED858E0F90E0F3
:104660006DE070E0869FF001879FF00D969FF00D42
:104670001124EF51FF4EA482B582C682D782E08614
:10468000F186028713872487358746875787108AE4
:104690008D859E8501969E878D87039709F07DCF36
:1046A0000894811C911C99819D5F9983993009F030
:1046B00066CF2E960FB6F894DEBF0FBECDBFCF915A
:1046C000DF911F910F91FF90EF90DF90CF90BF90FF
:1046D000AF909F908F907F906F905F904F903F90A2
:1046E0002F900895CF92DF92EF92FF920F931F9336
:1046F0008C016901CB01BA0126EA3BE944EC5DE398
:104700000E94B07F9B01AC0160E070E080E89FE315
:104710000E94A17C0E943F7D9B01AC0150EEE52EE2
:1047200051E0F52EE00EF11EF7012083C801622F43
:1047300070E00E946D280F511E4FF80181938F0188
:10474000F7016081C60170E00E941F81F80171834A
:1047500060830D5F1F4F81E0F8018083055E11408B
:10476000C8010E94D23C1F910F91FF90EF90DF9003
:10477000CF9008954F925F926F927F928F929F9207
:10478000AF92BF92CF92DF92EF92FF920F931F935F
:10479000DF93CF93CDB7DEB768970FB6F894DEBF3F
:1047A0000FBECDBF6A017B0148015901F7FAF094B1
:1047B000F7F8F094C901B8010E949E7C2B013C01DE
:1047C000C501B4010E945F804B015C01C701B601C5
:1047D000A30192010E94B07F69837A838B839C83BB
:1047E000CD82DE82EF82F886C701B601A501940171
:1047F0000E94B07F69877A878B879C87DE011D9630
:10480000E4E2F5E08CE001900D928150E1F78DB784
:104810009EB743970FB6F8949EBF0FBE8DBFEDB7FE
:10482000FEB7319620E030E040E050E0ADB7BEB7D3
:1048300011962D933D934D935C9314978FE090E0E8
:104840009583848385E086831896FE0131968CE0FB
:1048500001900D928150E1F781EE90E16FE3AD841C
:10486000BE84CF84D888E988FA880B891C892D8971
:104870003E894F89588D88240E94A61D8DB79EB70A
:1048800043960FB6F8949EBF0FBE8DBF68960FB6C5
:10489000F894DEBF0FBECDBFCF91DF911F910F9176
:1048A000FF90EF90DF90CF90BF90AF909F908F9050
:1048B0007F906F905F904F9008952F923F924F920C
:1048C0005F926F927F928F929F92AF92BF92CF92A0
:1048D000DF92EF92FF920F931F93DF93CF93CDB7A9
:1048E000DEB7C95AD0400FB6F894DEBF0FBECDBFB9
:1048F000CA55DF4F99838883C65AD040962E872E9B
:10490000FE01E75BFF4FA082B182C282D382E482C4
:10491000F582068317832087318742875387C653E2
:10492000DF4F488059806A807B80CA5CD040CA5281
:10493000DF4F08811981C65DD040C852DF4F8881A2
:10494000C85DD040882371F4CA55DF4F88819981B2
:10495000C65AD040B8010E946D28C852DF4F8883E4
:10496000C85DD040DE011196892D982D9C01F9017A
:1049700088E401900D928150E1F7C852DF4F988191
:10498000C85DD040692F70E0882777FD8095982F0B
:104990000E946D7D9B01AC0160E070E080E89FE3C8
:1049A0000E94A17CCE55DF4F688379838A839B83E5
:1049B000C25AD040B801882777FD8095982F0E9471
:1049C0006D7DCE55DF4F288139814A815B81C25A86
:1049D000D0400E94B07F0E943A7DC056DF4F79835D
:1049E0006883C05AD0408E01075B1F4FD8016D917C
:1049F0007D918D919C9120E030E040E050E00E945C
:104A00009A7C882311F5F8016481758186819781EC
:104A100020E030E040E050E00E949A7C8823A9F436
:104A2000D80118966D917D918D919C911B9720E0F6
:104A300030E040E050E00E949A7C882331F4C15677
:104A4000DF4F1882CF59D04024C0FE01E75BFF4FF3
:104A5000CE55DF4F88809980AA80BB80C25AD04053
:104A6000B7FAB094B7F8B094CF01C080D180E2809B
:104A7000F3800481158126813781408551856285C7
:104A800073850E94A26AB1E0C156DF4FB883CF5947
:104A9000D040C301B20120E030E040E050E00E948D
:104AA0009A7C882331F5C253DF4F688179818A81EE
:104AB0009B81CE5CD04020E030E040E050E00E949E
:104AC0009A7C8823B1F4CE52DF4F688179818A8144
:104AD0009B81C25DD04020E030E040E050E00E9489
:104AE0009A7C882331F4C256DF4F1882CE59D040C9
:104AF00054C084E290E00E942079C855DF4F88833B
:104B0000C85AD040C755DF4F9883C95AD040CE55B8
:104B1000DF4FE880F9800A811B81C25AD04017FB21
:104B2000109517F91095C301B201A80197010E94D1
:104B3000B07F2B013C01C253DF4F688179818A81AC
:104B40009B81CE5CD040A80197010E94B07F4B01B1
:104B50005C01CE52DF4F688179818A819B81C25D81
:104B6000D040A80197010E94B07F6B017C01C8551D
:104B7000DF4F8881C85AD040C755DF4F9881C95A46
:104B8000D040B301A201950184010E94E477E1E0E5
:104B9000C256DF4FE883CE59D0400F2EF0E02F2EC3
:104BA000F0E03F2EF0E04F2EF0E05F2EF02DC356E8
:104BB000DF4F1882CD59D04069E4662E712C6C0EFF
:104BC0007D1ED2C0C156DF4FF881CF59D040FF23A0
:104BD000A1F1CE018B5A9F4FBE016F5F7F4FD30172
:104BE000AC901196BC9011971296CC901297139698
:104BF000DC9013971496EC9014971596FC901597EB
:104C000016960C91169717961C91179718962C913B
:104C1000189719963C9119971A964C911A971B96CA
:104C20005C910E943B6EDE011196FE01EB5AFF4F34
:104C300088E401900D928150E1F7C256DF4FB881B0
:104C4000CE59D040BB2309F458C0CE018B5A9F4F98
:104C5000BE016F5F7F4FC254DF4FA880CE5BD04054
:104C6000C154DF4FB880CF5BD040C054DF4FC88005
:104C7000C05CD040CF53DF4FD880C15CD040CE5312
:104C8000DF4FE880C25CD040CD53DF4FF880C35C7B
:104C9000D040CC53DF4F0881C45CD040CB53DF4FB2
:104CA0001881C55CD040CA53DF4F2881C65CD04014
:104CB000C953DF4F3881C75CD040C853DF4F4881AC
:104CC000C85CD040C753DF4F5881C95CD040C8553D
:104CD000DF4F8880C85AD040C755DF4F9880C95AE7
:104CE000D0400E94E06FDE011196FE01EB5AFF4FAB
:104CF00088E401900D928150E1F7C201B10120E0FA
:104D000030E040E05FE30E94D47B0E943A7D9B014B
:104D1000AC01CA55DF4F88819981C65AD040BE0187
:104D20006F5F7F4FA901C056DF4F28813981C05A7C
:104D3000D0400E947421C201B101CE55DF4F2881BD
:104D400039814A815B81C25AD0400E94D47B1B01C9
:104D50002C01C356DF4FE881CD59D040EF5FC356D9
:104D6000DF4FE883CD59D040C356DF4FF881CD598E
:104D7000D040C852DF4F8881C85DD040F81708F492
:104D800021CFC256DF4F9881CE59D040992361F090
:104D9000C855DF4F8881C85AD040C755DF4F98812A
:104DA000C95AD0400E94CD79C755DF4F0FB6F8944D
:104DB000DEBF0FBECDBFCF91DF911F910F91FF904E
:104DC000EF90DF90CF90BF90AF909F908F907F90AB
:104DD0006F905F904F903F902F9008952F923F9249
:104DE0004F925F926F927F928F92AF92BF92CF92CB
:104DF000DF92EF92FF920F931F93DF93CF93CDB784
:104E0000DEB72C970FB6F894DEBF0FBECDBF1C01E6
:104E100028013901CE01019620E335E0ECE0D9010B
:104E20000D909D01DC010D92CD01E150C1F78DB7D0
:104E30009EB74B970FB6F8949EBF0FBE8DBFEDB7D0
:104E4000FEB731969F01C10183569F4F1CE0DC01E4
:104E50000D90CD01D9010D929D011150C1F74487EC
:104E6000558766877787408A518A628A738AC48A9F
:104E7000D58AE68AF78AB18EA08E828EC10160E55E
:104E800073E1A980BA80CB80DC80ED80FE800F8149
:104E9000188529853A854B855C850E945D248DB7F0
:104EA0009EB74B960FB6F8949EBF0FBE8DBF2C9643
:104EB0000FB6F894DEBF0FBECDBFCF91DF911F912B
:104EC0000F91FF90EF90DF90CF90BF90AF908F90B9
:104ED0007F906F905F904F903F902F9008956F92CA
:104EE0007F928F92AF92BF92CF92DF92EF92FF921A
:104EF0000F931F93DF93CF93CDB7DEB768970FB6AD
:104F0000F894DEBF0FBECDBF3C01CD86DE86EF86B6
:104F1000F88A098B1A8B2B8B3C8B4D8B5E8B6F8B9E
:104F2000788FDE011196ECE3F5E08CE001900D92B4
:104F30008150E1F78DB79EB74B970FB6F8949EBF9F
:104F40000FBE8DBFEDB7FEB731969F01AE014F5F2B
:104F50005F4F8CE0DA010D90AD01D9010D929D01FA
:104F60008150C1F780E090E0A0E0B0E084879587B1
:104F7000A687B787808B918BA28BB38B848B958B05
:104F8000A68BB78BB18EA08E828EC30160E573E1D4
:104F9000AD84BE84CF84D888E988FA880B891C89BF
:104FA0002D893E894F89588D0E945D248DB79EB70B
:104FB0004B960FB6F8949EBF0FBE8DBF68960FB686
:104FC000F894DEBF0FBECDBFCF91DF911F910F913F
:104FD000FF90EF90DF90CF90BF90AF908F907F9039
:104FE0006F9008954F925F926F927F928F929F92EF
:104FF000AF92BF92CF92DF92EF92FF920F931F93E7
:10500000DF93CF93CDB7DEB7C854D0400FB6F89436
:10501000DEBF0FBECDBF2C013E010894611C711C88
:10502000C30143E353E36BEF70E403E313E323EFC4
:1050300031E40F2EF0E0CF2EF0E0DF2EF0E1EF2E86
:10504000F2E4FF2EF02D0F2EFDEC8F2EFCEC9F2EA8
:10505000FEE0AF2EF2E4BF2EF02D0E944D76C2018D
:10506000B3010E940922C2010E946F1DD201A35602
:10507000BF4FE8E4F5E08CE001900D928150E1F73C
:10508000F201118210821382128284EE91E0480EA6
:10509000591EF2011082C85BDF4F0FB6F894DEBFD5
:1050A0000FBECDBFCF91DF911F910F91FF90EF9079
:1050B000DF90CF90BF90AF909F908F907F906F9038
:1050C0005F904F90089581EE90E10E94F22708953D
:1050D000FC01EC51FE4F108208956C31710514F4FF
:1050E00062E00AC06435710514F065E005C0CB01CB
:1050F0006EE070E00E941F81862F0895AF92BF92EC
:10510000CF92DF92EF92FF920F931F9358016901A4
:1051100050E0CB01489FB001499F700D589F700D22
:105120001124882777FD8095982F0E946D7D7B0143
:105130008C01C601B50120E030E040E251E40E945C
:10514000A17C9B01AC01C801B7010E94B07F20E0A7
:1051500030E040E651E40E94A17C7B018C0120E01C
:1051600030E040E050E40E949A7C882314F482E00E
:1051700011C0C801B70120E030E040E251E40E94D4
:10518000967E181614F48AE005C0C801B7010E9483
:105190003F7D862F1F910F91FF90EF90DF90CF9072
:1051A000BF90AF9008950F931F93CF93DF93EC01BF
:1051B000FC01E052FE4F10811F3F49F11F5F108339
:1051C000C851DE4F612F70E0882777FD8095982FBA
:1051D0000E946D7D20E030E040E850E40E94B07F06
:1051E0000E943A7D79836883C752D1406881798172
:1051F000C15CD040CE01412F00E010E020E231E45C
:105200000E947E28CF51DE4F8883C15ED140C052BC
:10521000DE4F8881DF91CF911F910F9108950F93F9
:105220001F93CF93DF93EC01FC01E052FE4F1081FE
:10523000123048F111501083C851DE4F612F70E0D9
:10524000882777FD8095982F0E946D7D20E030E0C3
:1052500040E850E40E94B07F0E943A7D79836883E1
:10526000C752D14068817981C15CD040CE01412FC5
:1052700000E010E020E231E40E947E28CF51DE4FB2
:105280008883C15ED140C052DE4F8881DF91CF91CB
:105290001F910F9108959F92AF92BF92CF92DF928C
:1052A000EF92FF920F931F93DF93CF93CDB7DEB7AB
:1052B00028970FB6F894DEBF0FBECDBF5C016B011F
:1052C0009E2CE982FA82B02F0B83A12F1C83F22F30
:1052D0002D83E32F3E83642F4F83752F5887092D2D
:1052E0001F2D2B2F3A2F4F2F5E2F0E945F6B88E8C8
:1052F00091E0C80ED91EF501608171818281938190
:10530000F60120813181428153810E94B07F7B016F
:105310008C0188E090E0C80ED91EF501608571858A
:1053200082859385F60120813181428153810E94DB
:10533000B07F9B01AC01C801B7010E94D47B90589B
:10534000F60152914291329122910E94A17CF50185
:105350006483758386839783C50128960FB6F89476
:10536000DEBF0FBECDBFCF91DF911F910F91FF9098
:10537000EF90DF90CF90BF90AF909F9008957F9275
:105380008F929F92AF92BF92CF92DF92EF92FF9255
:105390000F931F93DF93CF93CDB7DEB7A4970FB6CC
:1053A000F894DEBF0FBECDBF4C015B01ED8AFE8AD3
:1053B0000F8B188F622F298F732F3A8F842F4B8F6B
:1053C000952F5C8F7C2C2E2D3F2D402F512F0C2D97
:1053D0000E94F9712D8F3E8F4F8F58A369A37AA336
:1053E0008BA39CA3DE011196FE017D9688E00190BF
:1053F0000D928150E1F7CE01099609811A812B8126
:105400003C814D815E816F8178850E945F6B28E8C9
:1054100031E0A20EB31E69857A858B859C85F501E6
:1054200020813181428153810E94B07F7B018C01B8
:1054300028E030E0A20EB31E69897A898B899C89A5
:10544000F50121913191419151915F010E94B07F0D
:105450009B01AC01C801B7010E94D47BF5012081FA
:105460003181428153810E94D47B905828EF3FEFD5
:10547000A20EB31EF50120813181428153810E9429
:10548000A17C6D877E878F87988BC401C984DA845D
:10549000EB84FC840D851E852F85388949895A89BE
:1054A0006B897C89A72C0E942A71C401A4960FB62F
:1054B000F894DEBF0FBECDBFCF91DF911F910F914A
:1054C000FF90EF90DF90CF90BF90AF909F908F9024
:1054D0007F9008952F923F924F925F926F927F92AA
:1054E0008F929F92AF92BF92CF92DF92EF92FF92F4
:1054F0000F931F93DF93CF93CDB7DEB7CC57D14037
:105500000FB6F894DEBF0FBECDBF3C017A018B0110
:105510008091CB129091CC12A091CD12B091CE126D
:105520009A01AB01281B390B4A0B5B0B68EE71E04B
:10553000660E771ED3018D919C91E8E1FEEF6E0E11
:105540007F1EAA2797FDA095BA2F281739074A076B
:105550005B0710F40C94373AE092CB12F092CC1225
:105560000093CD121093CE12A3014C515E4FDA017D
:105570008C91882311F40C94373AD301AA51BE4F71
:105580006D917C911197E2EEF1E06E0E7F1EF301BA
:10559000808191812EE13EEF620E731E68177907BC
:1055A00010F00C94353A45EE51E0640E751EF3018F
:1055B00080812BE13EEF620E731E882331F0813033
:1055C00011F00C942C3A0C94AD3843EC50E0640E7E
:1055D000751ED3018C91EDE3FFEF6E0E7F1E8823C5
:1055E00009F453C080E090E00E946B7D7B018C0148
:1055F00028EC30E0620E731ED3012D913D914D9148
:105600005C91E8E3FFEF6E0E7F1ECA01B9010E94B4
:10561000D47B9B01AC01C801B7010E949A7C88230E
:10562000A4F5AA24BB24C501880F991F8A0D9B1DD0
:10563000880F991F880F991FF301E80FF91FE05198
:10564000FF4F885C9E4F860D971DC080D180E28001
:10565000F3800481158126813781408551856285DB
:1056600073850E94726D0894A11CB11CF6E0AF1600
:10567000B104C9F6B30168577E4FA3014C565E4F83
:10568000C301885C9E4F0E94EB7296EEE92E91E07A
:10569000F92EE60CF71C2DEB30E0620E731ED301E1
:1056A0006D917C91E3E4FFEF6E0E7F1ED7018D912B
:1056B0009C910E940B81FC01830100581E4F2CEB32
:1056C00030E0620E731ED3016C91D8018C9190E092
:1056D00070E00E940B8123E030E0620E731ED30164
:1056E0002D913C9141E45FEF640E751EBC01629FF9
:1056F000C001639F900D729F900D1124E817F90768
:1057000011F00C944B34C30180529F4FCD59DE4FA2
:1057100099838883C356D14022243324C559DE4F50
:1057200019830883CB56D140C359DE4FF982E882F2
:10573000CD56D140D301A853BF4FC159DE4FB983D5
:10574000A883CF56D140F301EF54FF4FCF58DE4F1F
:10575000F983E883C157D140930120523E4FCD5881
:10576000DE4F39832883C357D140A3014F535F4F86
:10577000CB58DE4F59834883C557D140B3016F5191
:105780007E4FC958DE4F79836883C757D140C30124
:105790008C539F4FC758DE4F99838883C957D14098
:1057A00089EA482E512C460C571C922CC559DE4FC5
:1057B000A881B981CB56D1408C91F301E80FF11D3E
:1057C000EB54FF4F808190E0022C02C095958795A5
:1057D0000A94E2F780FD02C00C942034C359DE4FD6
:1057E000E881F981CD56D1406081718180E090E0FF
:1057F0000E946B7D5B016C01C159DE4FA881B981AC
:10580000CF56D140ED90FD900D911C91C801B7018C
:10581000A80197010E94D47B9B01AC01C601B50190
:105820000E949A7C18166CF420E030E040E85FE3B8
:10583000C35ADE4F288339834A835B83CD55D140D9
:1058400022C0C601B50120E030E040E05FE30E94E5
:10585000B07FA80197010E94A17C0E949B682DEC5B
:105860003CEC4CEC5FE30E94B07F2AE939E949E166
:105870005FE30E94D37BC35ADE4F688379838A83B8
:105880009B83CD55D140CF58DE4FA881B981C157F8
:10589000D1406D917D918D919C9120E030E040E070
:1058A00050E00E949A7C882309F0E7C2F101EE0FD4
:1058B000FF1FE20DF31DEE0FFF1FEE0FFF1FE60DA2
:1058C000F71DE85CFE4FE080F180028113812481A6
:1058D00035814681578160857185828593850E94D7
:1058E000986BCF5ADE4F2883C155D140CE5ADE4F38
:1058F0003883C255D140CD5ADE4F4883C355D1407D
:10590000CC5ADE4F5883C455D140CB5ADE4F688302
:10591000C555D140CA5ADE4F7883C655D140C95AC1
:10592000DE4F8883C755D140C85ADE4F9883C8558B
:10593000D140DE011196FE01EF5AFE4F88E0019042
:105940000D928150E1F7ECECF0E06E0E7F1ED3017A
:105950006D917D918D919C91E4E3FFEF6E0E7F1E22
:105960009058C35ADE4F288139814A815B81CD55D9
:10597000D1400E94B07F7B018C01D2012C91119605
:105980003C91119712964C91129713965C91139734
:1059900014966C91149715967C91159716968C9188
:1059A000169717969C910E94106BCF5ADE4F288352
:1059B000C155D140CE5ADE4F3883C255D140CD5A61
:1059C000DE4F4883C355D140CC5ADE4F5883C4556F
:1059D000D140CB5ADE4F6883C555D140CA5ADE4FFD
:1059E0007883C655D140C95ADE4F8883C755D14008
:1059F000C85ADE4F9883C855D140DE011996FE0182
:105A0000EF5AFE4F88E001900D928150E1F7298115
:105A10003A814B815C816D817E818F819885A984DB
:105A2000BA84CB84DC84ED84FE840F8518890E94BF
:105A30008469CF5ADE4F2883C155D140CE5ADE4FFC
:105A40003883C255D140CD5ADE4F4883C355D1402B
:105A5000CC5ADE4F5883C455D140CB5ADE4F6883B1
:105A6000C555D140CA5ADE4F7883C655D140C95A70
:105A7000DE4F8883C755D140C85ADE4F9883C8553A
:105A8000D140DE01AF58BF4FFE01EF5AFE4F88E014
:105A900001900D928150E1F7C359DE4FE881F98101
:105AA000CD56D1406081718180E090E00E946B7D95
:105AB0007B018C01C159DE4FA881B981CF56D140FD
:105AC0002D913D914D915C91CA01B9010E94D47B09
:105AD0009B01AC01C801B7010E94967E18160CF01C
