:100000000C9474020C949E020C949E020C949E021A
:100010000C949E020C949E020C949E020C949E02E0
:100020000C949E020C949E020C949E020C949E02D0
:100030000C949E020C949E020C949E020C940D0D46
:100040000C949E020C949E020C949E020C949E02B0
:100050000C949E020C949E020C949E020C943A0DF9
:100060000C949E020C94DF0D0C949E020C949E0244
:100070000C949E020C949E020C949E020C949E0280
:100080000C949E020C949E020C949E020C949E0270
:100090000C94D0020C949E020C949E020C949E022E
:1000A0000C949E020C949E020C949E020C949E0250
:1000B0000C949E020C949E020C949E020C949E0240
:1000C0000C949E020C949E020C949E020C94140EAE
:1000D0000C949E020C949E020C94490E0C949E0269
:1000E0000C949E02E003DE03DC03DC03DC03DC0390
:1000F000E003DE03E003DE03DE03DC03DC03DC03FA
:10010000E003DE03DC03DC03DC03DC03E003DE03EB
:10011000E003DE03DC03DC03DC03DC03DC03DC03E1
:10012000E003DE03E003DE03E003DE03E003DE03BF
:10013000E003DE03E003DE03DC03DC03DC03DE03B9
:10014000DC03DC03E003F003F003F003F403F20349
:10015000F403F203F203F003F003F003F403F203F9
:10016000F003F003F003F003F203F203F203F203EF
:10017000F003F003F003F003F003F003F403F203E1
:10018000F403F203F403F203F203F203F203F203C3
:10019000F203F203F203F203F003F203F203F003BB
:1001A000F4035E075C0766076607660762075C077D
:1001B0006607600760076407660760075C076007FB
:1001C0005A075C0760075C075C075C075C075C0715
:1001D0005C075C075C076007600764075C076407EF
:1001E0005C07640766076607660766075C075C07C7
:1001F00066075C075E075C075C075C0766076607C7
:1002000066075C0766076607660766076607660790
:100210006407660766075C07640766076407640788
:10022000640766075C075C075C075C075C075A07A6
:100230005C075C075E0760075C075E0766075C0794
:100240005C075C075C075A075C075A075C07660790
:10025000660766075C075C075C0764075C07640762
:100260007A077C077C077E077E077E077C077E0770
:100270007A077A077E077E077A077C077A077C076A
:100280007C077A077C077C077C077C077C077C0758
:100290007C077C077A077A077E077C077E077C0746
:1002A0007E077E077E077E077E077C077C077E072A
:1002B0007C077A077C077C077C077E077E077E0722
:1002C0007C077E077E077E077E077E077E077E0708
:1002D0007E077E077C077E077E077E077E077E07F8
:1002E0007E077C077C077C077C077C077C077C07F4
:1002F0007C077A077A077C077A077E077C077C07EA
:100300007C077C077C077C077C077C077E077E07D1
:100310007E077C077C077C077E077C07084AD73B63
:100320003BCE016E84BCBFFDC12F3D6C74319ABDC4
:1003300056833DDA3D00C77F11BED9E4BB4C3E91E8
:100340006BAAAABE000000803F07634236B79BD865
:10035000A71A39685618AEBAAB558C1D3CB7CC57A6
:1003600063BD6DEDFD753EF6177231BF0000008074
:100370003F072C7AA5BA6CC590DA3B9365FC8BBC21
:1003800053F810FD3C5692834DBD879D3AB63DCB48
:10039000C9BF5BBE73DA0FC93F05A84CCDB2D44EBE
:1003A000B93836A9020C50B9918688083CA6AAAA89
:1003B0002ABE000000803F00002100240027002A00
:1003C000002D003000330001010000040107010A84
:1003D0000100002200250028002B002E00310034EF
:1003E0000002010000050108010B010000200023AC
:1003F00000260029002C002F00320000010000031D
:100400000106010901050505050705080808080298
:100410000202020A0A08080404040401010101019D
:100420000101010303030303030303040707070C8C
:100430000C0C0C0C0C0C0C02020202060606060642
:100440000606060B0B0B0B0B0B0B0B0102102020EF
:100450000808102040102040800201020108040218
:10046000010102040810204080804020100804028E
:1004700001800402018040201008040201080402E7
:1004800001010204081020408001020408102040ED
:10049000800000090A02080B0C0D07060304010086
:1004A000000000000000000000000000000000004C
:1004B00000000000000000000000000000100F0E0F
:1004C000000000000000000000000000000000002C
:1004D000000000000000000039078E07520C1F0FBB
:1004E0003110293B304E294E11241FBECFEFD1E2EF
:1004F000DEBFCDBF13E0A0E0B2E0E2EDFAEC00E039
:100500000BBF02C007900D92AA3EB107D9F719E0C0
:10051000AAEEB3E001C01D92A030B107E1F714E0EC
:10052000C6EED4E004C02297FE010E945865C83D83
:10053000D107C9F70E94BD0F0C9478640C94000099
:10054000E9ECF0E080818F77808380818F7E8083EB
:100550008081886080830895EEE6F0E080818E7F60
:100560008083E9ECF0E08081877F808380818061F7
:10057000808380818068808310920A040895E9EC6A
:10058000F0E080818F77808380818F7E808380817F
:10059000877F8083EEE6F0E080818160808308952C
:1005A0001F920F920FB60F920BB60F9211248F93DA
:1005B0009F93EF93FF9380910A049091CE00EAEE0F
:1005C000F3E0E80FF11D90838F5F80930A04FF91A1
:1005D000EF919F918F910F900BBE0F900FBE0F90D8
:1005E0001F9018959B01AC0183E0220F331F441F1D
:1005F000551F8A95D1F760E074E284EF90E00E9485
:10060000196521503040E8ECF0E080818260808301
:100610003093CD002093CC0010920A040E94BF02B8
:100620000895FC016083118282E082830895FC01B9
:100630008EEF8083118212820895DF92EF92FF92F3
:100640000F931F93082FD62E142FF22EE32E0E9405
:10065000A0028091C80085FFFCCF8FEF8093CE0071
:100660008091C80085FFFCCF8FEF8093CE008091F2
:10067000C80085FFFCCF0093CE004D2D4E5F8091CA
:10068000C80085FFFCCF4093CE008091C80085FF55
:10069000FCCF1093CE00410F400F8F2D9E2D9C015B
:1006A000F90190E00AC020818091C80085FFFCCF4D
:1006B0002093CE00420F9F5F31969D15A0F380914D
:1006C000C80085FFFCCF40954093CE000E94AC024D
:1006D0001F910F91FF90EF90DF900895FF920F937D
:1006E0001F9300E010E007C02F5F3F4F84E02E34DF
:1006F000380741F415C020E030E0E02FF0E0AF0112
:10070000410F511D80910A0490E04817590761F389
:100710003CC0E651FC4F80818F3FC9F10F5FEBCFAA
:100720000E94BF0290E09F5FF92EF00E212F291B3F
:100730004F2D50E0FA01E651FC4F80818F3F99F335
:10074000923008F090E0DA011196FD01E651FC4F7D
:1007500070817E5F27139E5F9A0160E007C0F901F8
:10076000E651FC4F8081680F2F5F3F4F822F841B23
:100770008717A8F36F3F09F09C5FA651BC4F9C936D
:100780008F2D1F910F91FF900895112311F21F5F7C
:100790001D3008F4B0CFC4CF880F81500895E82FE2
:1007A000F0E0E133F10550F4EE58FF4FEE0FFF1F7C
:1007B0000590F491E02D099481E0089580E008957A
:1007C00082E0089590E0FC013397EE32F10550F499
:1007D000ED55FF4FEE0FFF1F0590F491E02D0994AA
:1007E00081E0089580E0089582E00895CF93DF933B
:1007F000EC018A81861750F10E946E03282F30E0A9
:10080000F901E651FC4F9081F901E551FC4F6081FF
:10081000F901E451FC4FA0818881981719F440E058
:1008200050E002C040E054E0E62FF0E0F695FE2FE5
:10083000EE27F795E7958A2F90E0E82BF92BE42B2C
:10084000F52BC90183519C4F382F04C00E94BF0271
:10085000EFEFFFEF832FBF01DF91CF9108950F934B
:100860001F93DF93CF9300D0CDB7DEB78C016983A0
:100870004A83FC01808162E042E09E012F5F3F4F8E
:100880000E941D03C80161E00E94F6030F900F90C3
:10089000CF91DF911F910F9108950F931F938C01BA
:1008A000FC01808160E041E020E030E00E941D0317
:1008B000C80160E00E94F603CB011F910F910895DB
:1008C000DC01FA01643251F0653218F46E31C9F579
:1008D00005C0663281F06832A1F50DC011968C9189
:1008E000882379F18FEF93E020813181821B930B74
:1008F0009183808308954081518120E030E060E061
:1009000070E084E04030580714F061E070E0119628
:100910008C9190E06817790711F021E030E0220F08
:10092000331F822F8150992787FD909553709C012A
:10093000249FC001259F900D349F900D1124918319
:1009400080830895EF92FF920F931F93DF93CF93CD
:1009500000D000D0CDB7DEB77C01062F862F0E94D5
:10096000CF03182F8EEF9FEF9A8389831123D9F03D
:10097000C701602F412F0E942F04FC017A836983F5
:100980002081113031F0918180E030E0282B392B2B
:1009900001C030E03C832B83C701602FAE014D5F67
:1009A0005F4F0E94600469817A818B819C810F90E6
:1009B0000F900F900F90CF91DF911F910F91FF90AB
:1009C000EF9008952F923F924F925F926F927F9295
:1009D0008F929F92AF92BF92CF92DF92EF92FF924F
:1009E0000F931F93DF93CF93CDB7DEB7862E242EC0
:1009F00039014DB65EB6362E3394439D902C1124AA
:100A000022E0920EEDB7FEB7E919F1090FB6F8949E
:100A1000FEBF0FBEEDBFADB6BEB60894A11CB11CA3
:100A20008183F5016183680112E0EE24FF241DC07B
:100A3000D501A10FB11DF301EE0DFF1D80818C9337
:100A40001F5F9501210F311D1150F60160817181E9
:100A5000C901482D50E00E947B64130D0894E11CED
:100A6000F11C22E030E0C20ED31EE21408F38EEF38
:100A7000692D43E895010E941D030E94BF020FB635
:100A8000F8945EBE0FBE4DBECF91DF911F910F91C6
:100A9000FF90EF90DF90CF90BF90AF909F908F909E
:100AA0007F906F905F904F903F902F9008956F923E
:100AB0007F928F929F92AF92BF92CF92DF92EF92EE
:100AC000FF920F931F93DF93CF93CDB7DEB7082F1D
:100AD0005B018DB69EB690E0BC01660F771F660F76
:100AE000771FADB7BEB7A61BB70B0FB6F894BEBF46
:100AF0000FBEADBFEDB6FEB60894E11CF11C880F29
:100B0000991FEDB7FEB7E81BF90B0FB6F894FEBFBF
:100B10000FBEEDBFCDB6DEB60894C11CD11CBA0124
:100B2000A90110E032C0A12FB0E09D01220F331FB8
:100B3000220F331F2E0D3F1DFB018081F9018083A1
:100B4000FB0181919191BF01892F990F990BF901B7
:100B500081833D01660C771CF3013196EE0FFF1F78
:100B6000EE0DFF1DDA018C918083FA018191919144
:100B7000AF01892F990F990BD90113968C936C0CA7
:100B80007D1CF301318320831F5F101760F28EE11B
:100B900064E0402F950186010E94E2040FB6F894AC
:100BA0009EBE0FBE8DBECF91DF911F910F91FF9022
:100BB000EF90DF90CF90BF90AF909F908F907F90FD
:100BC0006F9008959F92AF92BF92CF92DF92EF9273
:100BD000FF920F931F93DF93CF93CDB7DEB76C01D6
:100BE000962E142FADB6BEB6842F90E001964DB769
:100BF0005EB7481B590B0FB6F8945EBF0FBE4DBFD2
:100C0000EDB6FEB60894E11CF11CEDB7FEB76183AA
:100C1000A7014F5F5F4FCA01B901412F50E00E9409
:100C20007B64612F6F5F002321F0F601808144E037
:100C300003C0F601808143E097010E941D03C601B5
:100C400062E00E94F603072F162FF6E1F91530F047
:100C500065E070E080E090E00E94E30C812F902F2F
:100C60000FB6F894BEBE0FBEADBECF91DF911F91FF
:100C70000F91FF90EF90DF90CF90BF90AF909F903B
:100C80000895BF92CF92DF92EF92FF920F931F933E
:100C9000DF93CF9300D0CDB7DEB77C01062F5A8308
:100CA0004983B22ECDB6DEB6862F0E94E203182FFE
:100CB000882319F42EEF3FEF27C0C701602FAE0144
:100CC0004F5F5F4F0E9460048DB79EB7811B9109F3
:100CD0000FB6F8949EBF0FBE8DBFEDB7FEB731962D
:100CE00089819A81ADB7BEB711968C93113021F0EE
:100CF000892F990F990B8183C701602F412F9F0185
:100D00000B2D0E94E2059C01C9010FB6F894DEBECE
:100D10000FBECDBE0F900F90CF91DF911F910F911D
:100D2000FF90EF90DF90CF90BF900895FC01462F89
:100D3000628360E150E020E00E9441060895DA01FC
:100D4000660F660F660F680F6D3028F4693070F417
:100D50006830F1F507C06031E1F06F3159F16F3063
:100D6000B9F511C08C91809318040895E62FF0E036
:100D7000EE0FFF1FE150FD4F0190F081E02D8C91AF
:100D800084568083089586EC98E06C910E949A5B6B
:100D9000089511962C9111978C9190E09695982F2B
:100DA000882797958795820F911D90931E048093B5
:100DB0001D0408958C918093180411968C911197BD
:100DC00084568093190412968C91845680931A0449
:100DD0000895662311F08DE201C08EE24C51534F0D
:100DE000BA010E94E14A0895AF92BF92CF92DF927A
:100DF000EF92FF920F931F93DF93CF93CDB7DEB7A0
:100E00002D970FB6F894DEBF0FBECDBF182FF92E69
:100E10000E94823C5E010894A11CB11CC50160EED9
:100E200075E020E032EC41E050E003E0F2E0EF2E2C
:100E3000EFE9CE2EE6E0DE2E0E94C93C212F3F2DA9
:100E4000C901DC01F5018DE001900D928150E1F7BF
:100E50002D960FB6F894DEBF0FBECDBFCF91DF91B8
:100E60001F910F91FF90EF90DF90CF90BF90AF90C8
:100E700008958BE094E00E94F4060895FC017383CA
:100E80006283568345831286118689E080870895A0
:100E9000772767FD7095872F972FFB01B097EF3568
:100EA000F105A0F4EF52FF4FEE0FFF1F0590F491F4
:100EB000E02D099484E0089585E0089582E0089586
:100EC00083E0089587E0089588E0089586E0089516
:100ED000772767FD7095872F972FFB01B097EE3529
:100EE000F10560F4E05DFE4FEE0FFF1F0590F491F9
:100EF000E02D099482E0089581E0089580E008954E
:100F0000FC018085883011F020E006C020E081855A
:100F10009285892B09F421E0822F089510922004F4
:100F200010921F048AE0809327040895EF92FF92A5
:100F30000F931F93CF93DF93162FE42E022FF32EE0
:100F400085E360E00E94554C110F110F1E0D812F9B
:100F500080580E94D90C202F3F2DC901EC0110E0D0
:100F600004C089910E94D90C1F5F1E15D0F385E340
:100F700061E00E94554C80E0DF91CF911F910F916D
:100F8000FF90EF900895DF93CF9300D0CDB7DEB7F9
:100F90006983465F4A8368E142E09E012F5F3F4FCD
:100FA0000E9496070F900F90CF91DF910895CF93F5
:100FB000DF93262F332727FD3095FC01C081D18197
:100FC000FE0101900020E9F73197EC1BFD0B2E1775
:100FD0003F0730F467FD04C0C20FD31F688101C012
:100FE00060E20E94C307DF91CF9108950F93DF93D2
:100FF000CF9300D00F92CDB7DEB7665F6983465FAF
:101000004A83000F020F0B8366E143E09E012F5FCE
:101010003F4F0E9496070F900F900F90CF91DF9156
:101020000F91089560E140E020E030E00E949607D3
:101030000895DF92EF92FF920F931F93CF93DF9368
:10104000EC017A018B0180912A0490912B04A091EC
:101050002C04B0912D049A01AB01281B390B4A0BCB
:101060005B0B8A819B81AA2797FDA095BA2F281731
:1010700039074A075B0708F4CCC0E0922A04F092D3
:101080002B0400932C0410932D0489859A8518163F
:10109000190624F401979A878987BBC08F8188231A
:1010A00019F010922E041F828885883021F0893033
:1010B00009F0AFC0A2C0D0902E048C81D81AD09273
:1010C0002E040D811E81E880F980F701E00FF11FE9
:1010D0003197CE0160810E9448072D2D332727FDCF
:1010E000309590E02817390739F4015010401E83DD
:1010F0000D8310922E0413C0D7FE11C0C8010196B3
:101100009E838D83E80EF91E0894E108F108CE0154
:10111000F70160810E944807815080932E04CE0120
:101120006C8140E020E001E00E94F6078C818F3F57
:10113000C1F1813009F050C00D811E81E881F98133
:10114000E00FF11FCE0160810E94680790912E048C
:10115000482F491BCE01602F0E94D707D0902E0444
:1011600008811981FD808F2D9E81080F191FCE01E6
:10117000F80160810E944807E82E8D2D992787FD90
:1011800090958E0D911D07973CF5CE01F801618178
:101190000E946807F394482F4E194D19CE016F2D08
:1011A00019C0ED80FE80E881F981EE0DFF1D3197B9
:1011B0000081CE01602F0E946807182FCE01602F9A
:1011C0000E944807EA94180F80912E04181BCE0144
:1011D0006E2D412F0E94D7078D819E81A881B981F4
:1011E000FD0101900020E9F73197EA1BFB0B8E17F8
:1011F0009F0768F497FF0DC00AC0CE010E94120835
:101200008D819E8101979E838D83892B11F48AE0C5
:101210008887DF91CF911F910F91FF90EF90DF9022
:101220000895DF93CF930F92CDB7DEB7660F660FA9
:10123000660F640F698368E041E09E012F5F3F4FB6
:101240000E9496070F90CF91DF910895DF93CF937F
:1012500000D00F92CDB7DEB769834A832B8363E05A
:1012600043E09E012F5F3F4F0E9496070F900F9023
:101270000F90CF91DF9108959F92AF92BF92CF923E
:10128000DF92EF92FF920F931F93CF93DF93EC01C6
:10129000162F972E6A01590188819981009711F0C4
:1012A0000E94D962E12FF92DDF010D900020E9F7AE
:1012B000CD018E1B9F0B0E942C6288839983612F26
:1012C000792D0E948F64DB82CA82BA86A9860C833C
:1012D000FE82ED8288E0888781E08F83DF91CF9165
:1012E0001F910F91FF90EF90DF90CF90BF90AF9044
:1012F0009F9008950F931F93DF93CF93CDB7DEB7E1
:1013000064970FB6F894DEBF0FBECDBF8C01DC0131
:1013100014962D913C91159784E1489FA0011124CA
:10132000DE011196F901E40FF51F01900D92815035
:10133000E1F784E1689FB0011124FA01E20FF31F85
:10134000D901A60FB71F0D9001928150E1F7D80186
:101350001496ED91FC911597E60FF71FDE0111969B
:1013600084E10D9001928150E1F764960FB6F894F4
:10137000DEBF0FBECDBFCF91DF911F910F910895BA
:10138000FC01262F868190E06085820F911D70E020
:101390000E9406650895CF92DF92EF92FF920F931D
:1013A0001F93D82EC92E8B01DB011696EC90CB0132
:1013B00061E00E94C009F80186838781815087839C
:1013C000FF2484E190E09C01E29EC001E39E900D29
:1013D000F29E900D11240480F581E02DE80FF91F95
:1013E0002D2D3C2DC901DC01349680E101900D9238
:1013F0008150E1F78D2D9C2D1F910F91FF90EF9063
:10140000DF90CF9008956F927F928F929F92AF92CC
:10141000BF92CF92DF92EF92FF920F931F93DF93D1
:10142000CF93CDB7DEB760970FB6F894DEBF0FBE8F
:10143000CDBF3C0189829A82AB82BC82CD82DE82A2
:10144000EF82F88609871A872B873C874D875E874E
:101450006F87788BDC0117966C91179718968C9193
:10146000681710F080E077C0809170008E7F8093C5
:101470007000C3010E94C009F82E24E1829F9001F0
:101480001124F30140815181628173810480F581CF
:10149000E02D89A19AA1AA2797FDA095BA2F840FC4
:1014A000951FA61FB71FE20FF31F81939193A1937E
:1014B000B193DE01119680E10D9001928150E1F728
:1014C000D30117960C910023C9F184E1C82ED12CC9
:1014D0000150C301602F0E94C009182FF301A4819D
:1014E000B5818F2D90E08C9DF0018D9DF00D9C9D20
:1014F000F00D1124EA0FFB1F812F90E09C012C9D21
:10150000C0012D9D900D3C9D900D1124A80FB91F79
:1015100020813181428153818D919D910D90BC91AB
:10152000A02D281739074A075B0740F4C3016F2D28
:10153000412F0E947A09F12E002351F6D30117960C
:101540008C9117978F5F17968C93809170008160B4
:101550008093700081E060960FB6F894DEBF0FBEF6
:10156000CDBFCF91DF911F910F91FF90EF90DF9052
:10157000CF90BF90AF909F908F907F906F90089585
:101580007F928F929F92AF92BF92CF92DF92EF9213
:10159000FF920F931F93CF93DF937C014A015B016E
:1015A000DC011796CC9001E010E002C0000F111F83
:1015B0002A95E2F7CFEFDFEFDD2494E1792E21C009
:1015C000C7016D2D0E94C009282F879DC0011124DD
:1015D000D7011496ED91FC911597E80FF91F8081C2
:1015E0009181A281B38188169906AA06BB0658F09C
:1015F000848190E080239123892B11F0C22FD0E0C9
:10160000D394DC14E8F2CE01DF91CF911F910F91BA
:10161000FF90EF90DF90CF90BF90AF909F908F9012
:101620007F9008955F926F927F928F929F92AF9278
:10163000BF92CF92DF92EF92FF920F931F93CF93BF
:10164000DF93982E892EEB01542E89018091700032
:101650008E7F80937000292D392FC901DC01EBE1C9
:10166000F3E08CE001900D928150E1F7888199813F
:10167000AA81BB81A801662757FD6095762F480F88
:10168000591F6A1F7B1FE4E16E2E712CCE01252DA0
:101690000E94C00A2FEF8F3F920759F1869D50019B
:1016A000879DB00C969DB00C1124EC81FD81EA0D54
:1016B000FB1D892D982DC580D680E780F08401859B
:1016C00012852385348545855685678570890E94F6
:1016D000D142EC81FD81EA0DFB1D40815181628187
:1016E00073818389882311F54150504060407040D8
:1016F000CDCF852D90E0FC01EE0FFF1FE80FF91F05
:10170000EE0FFF1FEE0FFF1FE957F94F892D982DA0
:10171000C080D180E280F3800481158126813781E9
:1017200040855185628573850E94D1428091700009
:10173000816080937000892D982DDF91CF911F914A
:101740000F91FF90EF90DF90CF90BF90AF909F9060
:101750008F907F906F905F9008952F923F924F925D
:101760005F926F927F928F929F92AF92BF92CF9231
:10177000DF92EF92FF920F931F93DF93CF93CDB73A
:10178000DEB760970FB6F894DEBF0FBECDBF3C0149
:101790009924F4E12F2E312C2E010894411C511C68
:1017A00017C0C201B3010E94CB09AE84BF848981F6
:1017B000CA80DB80EC80FD800E811F812885398501
:1017C0004A855B856C857D8588880E94FC1593948D
:1017D000D30117968C91882329F42FEF3FEF4FEF19
:1017E0005FEF14C0F301868190E09C01229DC0014F
:1017F000239D900D329D900D11240480F581E02DE4
:10180000E80FF91F2081318142815381F3018081EA
:101810009181A281B38182179307A407B50708F6C7
:10182000992019F00E94FF10982EF3018081918178
:10183000A281B3810196A11DB11D80839183A283F2
:10184000B383892D60960FB6F894DEBF0FBECDBF6F
:10185000CF91DF911F910F91FF90EF90DF90CF908C
:10186000BF90AF909F908F907F906F905F904F90C0
:101870003F902F9008950F931F938C01FC01608778
:1018800084E1689FC00111240E942C62F8018483C6
:1018900095831682178210821182128213821F9101
:1018A0000F9108958FE294E060E80E943B0C089548
:1018B000789484B5826084BD84B5816084BD85B52B
:1018C000826085BD85B5816085BDEEE6F0E08081F2
:1018D00081608083E1E8F0E0108280818260808313
:1018E000808181608083E0E8F0E080818160808396
:1018F00020E730E0F90180818E7F8083E0EBF0E02B
:1019000080818C7F8083A1EBB0E08C91877F8C936A
:10191000E6EBF0E080818F7D8083F90180818D7F0F
:1019200080838C9187608C93808181608083E1E9E2
:10193000F0E0808182608083808181608083E0E943
:10194000F0E0808181608083E1EAF0E08081826064
:101950008083808181608083E0EAF0E08081816023
:101960008083E0E2F1E080818260808380818E7FED
:101970008083E1E2F1E080818A61808380818A7FD7
:10198000808380E49CE99093270180932601109244
:10199000C1000895EAE7F0E080818460808380815F
:1019A0008260808380818160808380818068808381
:1019B00008958EBD0DB407FEFDCF8EE090E0019737
:1019C000F1F78EB50895EF92FF920F931F937B016D
:1019D0008C018FB7F89440913C0450913D04609184
:1019E0003E0470913F048FBF2FB7F89480913C0460
:1019F00090913D04A0913E04B0913F042FBF841B01
:101A0000950BA60BB70B8E159F05A007B10760F3CA
:101A10001F910F91FF90EF9008951F920F920FB6B4
:101A20000F920BB60F9211242F933F934F935F9316
:101A30006F937F938F939F93AF93BF93EF93FF9396
:101A400088EC8093B2008FE294E00E94AD0BFF918E
:101A5000EF91BF91AF919F918F917F916F915F9126
:101A60004F913F912F910F900BBE0F900FBE0F9093
:101A70001F9018951F920F920FB60F920BB60F92F0
:101A80001124DF92EF92FF920F931F932F933F93B6
:101A90004F935F936F937F938F939F93AF93BF9376
:101AA000EF93FF93E0903C04F0903D0400913E04DE
:101AB00010913F04809140040894E11CF11C011D29
:101AC000111D43E0D42ED80E9CE79D1540F436E856
:101AD000D32ED80E0894E11CF11C011D111D80911C
:101AE000190380FF06C083EF96E0B801A7010E94AA
:101AF000EF1F8091190381FF06C08FE194E0B801C8
:101B0000A7010E9419088091190382FF04C08BE08D
:101B100094E00E94AD3CD0924004E0923C04F092EC
:101B20003D0400933E0410933F048091380490914B
:101B30003904A0913A04B0913B040196A11DB11D56
:101B40008093380490933904A0933A04B0933B04F3
:101B5000FF91EF91BF91AF919F918F917F916F9185
:101B60005F914F913F912F911F910F91FF90EF90B7
:101B7000DF900F900BBE0F900FBE0F901F90189527
:101B800084E361E00E94BC4B83E361E00E94BC4BB4
:101B900085E361E00E94BC4B84E360E00E94554C09
:101BA00083E360E00E94554C85E361E00E94554C60
:101BB0008CB580618CBD8CB580648CBD08951F92FE
:101BC0000F920FB60F920BB60F9211242F933F93E3
:101BD0004F938F939F93EF93FF934091C600E091B3
:101BE000C104F091C20431969F012F773070319774
:101BF0008091C3049091C4042817390739F0EF5B32
:101C0000FB4F40833093C2042093C104FF91EF91B6
:101C10009F918F914F913F912F910F900BBE0F90FD
:101C20000FBE0F901F9018951F920F920FB60F9234
:101C30000BB60F9211242F933F934F938F939F9343
:101C4000EF93FF934091D600E0914505F091460552
:101C500031969F012F773070319780914705909191
:101C600048052817390739F0EB53FB4F4083309371
:101C7000460520934505FF91EF919F918F914F91DC
:101C80003F912F910F900BBE0F900FBE0F901F90A2
:101C900018951F920F920FB60F920BB60F92112448
:101CA0002F933F934F938F939F93EF93FF93409185
:101CB0003601E091C905F091CA0531969F012F7751
:101CC000307031978091CB059091CC05281739075A
:101CD00039F0E75BFA4F40833093CA052093C9057A
:101CE000FF91EF919F918F914F913F912F910F9085
:101CF0000BBE0F900FBE0F901F901895CF93DF93E0
:101D0000EC019A01AB01E885F985203081EE3807B6
:101D100080E0480780E0580709F445C081E090E082
:101D20000A8802C0880F991F0A94E2F7808360E056
:101D300079E08DE390E00E941965215030404040E9
:101D400050405695479537952795EC81FD81308316
:101D5000EE81FF812083EA85FB85208141E050E010
:101D6000CA010E8402C0880F991F0A94E2F7282B3B
:101D70002083EA85FB852081CA010F8402C0880F79
:101D8000991F0A94E2F7282B2083EA85FB8580813E
:101D9000088802C0440F551F0A94E2F7842B808301
:101DA000DF91CF910895108220E130E0CECFDC01A9
:101DB0001296ED91FC911397E058FF4F21913191CC
:101DC00080819181281B390B2F773070C9010895CC
:101DD000DC011296ED91FC911397DF01AE57BF4FD6
:101DE0002D913C911197E058FF4F80819181E058EF
:101DF000F0408217930719F42FEF3FEF0BC0E20F6B
:101E0000F31F80812F5F3F4F2F7730702D933C93CE
:101E1000282F30E0C9010895FC01A085B1852189F2
:101E20008C9190E0022E02C0959587950A94E2F776
:101E300080FFF6CF0484F585E02D608308952BE2C2
:101E400033E03093CE052093CD0581E494E0909368
:101E5000D0058093CF0585EC90E09093D2058093D8
:101E6000D10584EC90E09093D4058093D30580EC69
:101E700090E09093D6058093D50581EC90E0909307
:101E8000D8058093D70586EC90E09093DA0580938F
:101E9000D905E4E0E093DB0573E07093DC0567E0CF
:101EA0006093DD0555E05093DE0541E04093DF058A
:101EB0003093E1052093E00585EC94E09093E305F1
:101EC0008093E20585ED90E09093E5058093E4052D
:101ED00084ED90E09093E7058093E60580ED90E037
:101EE0009093E9058093E80581ED90E09093EB05F0
:101EF0008093EA0586ED90E09093ED058093EC05E4
:101F0000E093EE057093EF056093F0055093F105B3
:101F10004093F2053093F4052093F30589E495E0AE
:101F20009093F6058093F50585E391E09093F8058D
:101F30008093F70584E391E09093FA058093F90587
:101F400080E391E09093FC058093FB0581E391E0B1
:101F50009093FE058093FD0586E391E09093000643
:101F60008093FF05E09301067093020660930306D9
:101F700050930406409305060895EF92FF920F9345
:101F80000E94580C0E94C00D8FE194E062E04CE189
:101F90002FE10E9426090E94B6130E94CA0C80E01D
:101FA0000E94AD4A0E94F53D8BE094E060E040E085
:101FB00050E00E94E9068BE094E061E040E951E0E6
:101FC0000E94E9068FE194E06CE370E04AE050E0A3
:101FD0000E943E076CEB72E080E090E00E94E30C10
:101FE0008FE194E060E072E04BE450E020E030E00C
:101FF00001E0EE24EA94FE2C0E943C0983EF96E077
:102000000E94621864EC79E080E090E00E94E30CAA
:102010008DEC95E040E052EC61E070E00E947E0EB5
:1020200086E00E94AD4ABC018DEC95E04AE050E0AC
:102030000E943D3C8DEC95E068E272E00E94653BB9
:1020400087E00E94AD4ABC018DEC95E04AE050E08B
:102050000E94673C6DE070E080E090E00E94E30C3D
:10206000DFCFCF93DF93C6E0D6E0CE010E94170307
:10207000CE0103960E941703CE0106960E94170315
:10208000299686E0CC33D80781F78CE396E00E944E
:102090001703DF91CF9108950F931F93182F092FE6
:1020A000CB01BA010E949E4CBC01812F902F0E944F
:1020B0001A4D812F902F1F910F9108950F931F9309
:1020C000CF93DF93082F162F83E0689FE001112440
:1020D00089E0089FC0011124C80FD91FCA5FD94FDA
:1020E000CE0161E00E949606CE016EE04FEF53E014
:1020F00020E00E944106CE016BE04BE450E020E07E
:102100000E944106CE016CE045E550E020E00E94CF
:102110004106CE016DE04DE750E020E00E9441060F
:10212000CE0165E042E350E020E00E944106CE018E
:102130006AE141E050E020E00E944106CE016BE1FF
:1021400041E050E020E00E9441061123A9F0113047
:1021500099F4033060F4CE016CE140E450E020E0FB
:102160000E944106CE016DE140E850E010C0CE0172
:102170006CE140E850E004C0CE016CE140E450E086
:1021800020E00E944106CE016DE140E450E020E0F5
:102190000E944106CE0160E340E250E020E00E9450
:1021A0004106033070F4113029F4CE0166E047ECAB
:1021B00050E014C01230A9F4CE0166E043E451E0CF
:1021C0000DC0113029F4CE0168E04BE353E006C0A6
:1021D000123039F4CE0168E04AEB52E020E00E9470
:1021E000410668E270E080E090E00E94E30CCE01DE
:1021F0000E944D04DF91CF911F910F9108952F926E
:102200003F924F925F926F927F928F929F92AF9286
:10221000BF92CF92DF92EF92FF920F931F93DF93C3
:10222000CF93CDB7DEB7C056D0400FB6F894DEBF1F
:102230000FBECDBF25ED36E06F963FAF2EAF6F9747
:102240003324AA24BB24B1C0D6010D911C91F40102
:1022500080819181081B190B09F487C0232D30E080
:10226000A1963FAF2EAFA197E1E0F0E0EC0FFD1F8C
:10227000E20FF31FD2018C91808380E0B2E0BA15A7
:1022800008F481E00E94CC03282EF4010190F08133
:10229000E02D6D96FFAFEEAF6D97980117FF03C06D
:1022A000309521953F4FB901882777FD8095982F6C
:1022B0000E945A5F29E53CE44BED52E40E945861CC
:1022C0007B018C01D3016D917C91882777FD8095EE
:1022D000982F0E945A5F9B01AC01C801B7010E9470
:1022E0008E5E7B018C0120E030E040E85FE30E94DD
:1022F000875E88231CF461E070E011C0C801B7015B
:1023000020E030EC4FE754E40E94836018161CF480
:102310006FEF73E004C0C801B7010E94275FA19668
:10232000EEADFFADA197EE0FFF1F21E030E02C0FC7
:102330003D1FE20FF31F822D992787FD9095AC0179
:102340006D96AEADBFAD6D974A9FC0014B9F900D8E
:102350005A9F900D11248A5F9D4F938B828B77AB90
:1023600066AB3394F601B183A08322E030E0C20E65
:10237000D31E820E931E0894411C511C620E731EC4
:102380006F964EAD5FAD6F97C416D50609F05CCF62
:102390000894A11CB11CC60106966F969FAF8EAF24
:1023A0006F9796E0A916B10409F1C501880F991F2E
:1023B0008A0D9B1D9C01220F331FEFECCE2EE6E011
:1023C000DE2EC20ED31E7FE3872E76E0972E820E7E
:1023D000931E61E3462E63E0562E480E591E53E6C7
:1023E000652E56E0752E620E731E2ECF832DBE0114
:1023F0006F5F7F4FAE014D5E5F4F9E01295C3F4F87
:102400000E945705832DC05ADF4F0FB6F894DEBFE8
:102410000FBECDBFCF91DF911F910F91FF90EF9035
:10242000DF90CF90BF90AF909F908F907F906F90F4
:102430005F904F903F902F9008952F923F924F9230
:102440005F926F927F928F929F92AF92BF92CF9244
:10245000DF92EF92FF920F931F93DF93CF93CDB74D
:10246000DEB762970FB6F894DEBF0FBECDBF9E8772
:102470008D877B018E010F5F1F4F8DE0C82ED12C01
:10248000CC0EDD1EF701619171917F01882777FDE8
:102490008095982F0E945A5F2BED3FE049E450E46D
:1024A0000E94586120E030E849E154E40E948E5EC9
:1024B000F80161937193819391938F01EC15FD0560
:1024C00009F769857A858B859C852BED3FE049EC82
:1024D0005FE30E94FA5D0E948B5E27E431EE4FE3DA
:1024E00053EC0E94586128E431E24CE453E40E942A
:1024F000FB5D7B018C010E94C5613B014C01C80161
:10250000B7012DEC3CE44BE852E40E94FA5D7B01FC
:102510008C01C401B30123E333E343E851E40E9497
:1025200058619B01AC01C801B7010E948E5E0E94F8
:10253000EC5D9B01AC016D817E818F8198850E944D
:10254000FA5D7B018C01C8010E948B5E9B01AC018E
:10255000C401B3010E94586120E030E040EA50E439
:102560000E94FB5D6F87788B898B9A8BA980BA80DC
:10257000CB80DC80C601B5010E948B5E1B012C0163
:10258000B701C8010E94BB617B018C01C601B50186
:102590000E94BB615B016C016F85788989899A898A
:1025A000A20191010E945861ED85FE8560837183CF
:1025B00082839383C401B301A80197010E945861EB
:1025C000ED85FE8564837583868397836F8578891F
:1025D00089899A89A60195010E945861ED85FE8539
:1025E0006087718782879387CF0162960FB6F894D0
:1025F000DEBF0FBECDBFCF91DF911F910F91FF9036
:10260000EF90DF90CF90BF90AF909F908F907F9092
:102610006F905F904F903F902F9008954F925F92F0
:102620006F927F928F929F92AF92BF92CF92DF92E2
:10263000EF92FF920F931F93DF93CF93CDB7DEB747
:1026400062970FB6F894DEBF0FBECDBF2C01662E89
:10265000809170008E7F809370006E010894C11C81
:10266000D11C00E010E089E0689F40011124C801FE
:10267000880F991F800F911F880D991D8A5F994FB0
:1026800064E20E94A204AC019AEFE92E9DEFF92EBC
:10269000E40EF51EAA2422E0261510F4AA24A39421
:1026A0008A2D0E94CC03992787FD9095FC01EE9D11
:1026B000C001EF9D900DFE9D900D1124F6018193B8
:1026C00091936F010F5F1F4F0330110581F68091C9
:1026D0007000816080937000CE010796BE016F5F2D
:1026E0007F4F0E941D12EF80F88409851A858A2D7C
:1026F0000E94CC03AB84BC84CD84DE846F84788854
:1027000089889A88992787FD9095A92FB92FBC01B0
:10271000CD010E945A5F9B01AC01C801B7010E9424
:102720005861F2016083718382839383A482B582AE
:10273000C682D7826086718682869386C20162963F
:102740000FB6F894DEBF0FBECDBFCF91DF911F91C2
:102750000F91FF90EF90DF90CF90BF90AF909F9040
:102760008F907F906F905F904F9008952F923F923F
:102770004F925F926F927F928F929F92AF92BF9291
:10278000CF92DF92EF92FF920F931F93DF93CF933D
:10279000CDB7DEB7E9970FB6F894DEBF0FBECDBF59
:1027A00060E472E48FE090E00E94F202CC24DD2429
:1027B00086E0882ED0C0A22CCE010196F701608160
:1027C0000E941103D801FE01319683E001900D9221
:1027D0008150E1F7842D6A2D0E945E10892B09F447
:1027E00079C08FE194E062E041E328E30E9426098A
:1027F00000E1402E512C4C0E5D1EC2016CE272E0D5
:102800000E94354D1AE0612E712C6C0E7D1EC301A5
:10281000B6014AE050E00E945D4DB6E18B2E912C4E
:102820008C0E9D1EC401B201A3010E944C10ACE1AC
:10283000AA2EB12CAC0EBD1EC50168E372E00E9449
:10284000354DF2E2CF2ED12CCC0EDD1EC601B401E7
:10285000A5010E944C108E01085D1F4FC801B101F7
:102860004AE050E00E945D4DE4E0EE2EF12CEC0ECB
:10287000FD1EC701B601A8010E944C10C8010E94AC
:102880008E4CC6010E948E4CC5010E948E4CC40124
:102890000E948E4CC3010E948E4CC2010E948E4C3D
:1028A000DE2C1F2D8D2D912F0E948A4CBC018FE1B3
:1028B00094E046E450E020E030E001E0EE24EA94C9
:1028C000FE2C0E943C0964EF7AE180E090E00E94D7
:1028D000E30CE8CFC101880F991F820D931D860D6F
:1028E000971D8A5F994F68E141E050E020E00E9427
:1028F0004106F3E0AF0E8FE194E06A2D482D0E946F
:1029000011090894211C311C0894E11CF11C0D5F75
:102910001F4F83E02816310409F04DCF8601000FC8
:10292000111F0C0D1D1D000F111F000F111F095746
:10293000194FCE018E96642D0E940E13D801FE0110
:10294000BE968CE001900D928150E1F70894C11C75
:10295000D11C8A94C9F04C2C7601EE0CFF1CEC0CB7
:10296000FD1CE1E3F3E0EE0EFF1EC60133E0880F2D
:10297000991F3A95E1F78C0D9D1D8C010A5F194F47
:10298000222433243C0117CFE9960FB6F894DEBF1A
:102990000FBECDBFCF91DF911F910F91FF90EF90B0
:1029A000DF90CF90BF90AF909F908F907F906F906F
:1029B0005F904F903F902F9008952F923F924F92AB
:1029C0005F926F927F928F929F92AF92BF92CF92BF
:1029D000DF92EF92FF920F931F93DF93CF93CDB7C8
:1029E000DEB76E970FB6F894DEBF0FBECDBFEF8295
:1029F000F88609871A872B873C874D875E876F8704
:102A0000788B898B9A8BEF80F88409851A85AF843F
:102A1000B888C988DA888B859C85AD85BE858B8B07
:102A20009C8BAD8BBE8BC801B70120E030E040E04D
:102A300050E00E94836087FF04C017FB109517F9D0
:102A40001095C601B501A80197010E94906020E091
:102A500030E040EA50E40E94FA5D3B014C01C601BF
:102A6000B501A80197010E948E5E0E945F5E6F8B88
:102A7000788F898F9A8FC401B301A40193010E94BA
:102A800058611B012C016B897C898D899E899B0172
:102A9000AC010E9458616B8F7C8F8D8F9E8FC2011D
:102AA000B1012B8D3C8D4D8D5E8D0E94FB5D7B01B8
:102AB0008C010E94C5615B016C01C801B7012DEC5E
:102AC0003CE44BE852E40E94FA5D7B018C01C601B4
:102AD000B50123E333E343E851E40E9458619B01CD
:102AE000AC01C801B7010E948E5E0E94EC5D5B01E3
:102AF0006C016B897C898D899E89A40193010E9458
:102B00008E5E0E945F5E7B018C0168E471E28CE462
:102B100093E4A20191010E94FA5D2B8D3C8D4D8DB5
:102B20005E8D0E94FA5D27E431EE4FE353E40E948C
:102B30008E5E0E94EC5D20E030E849E154E40E94A2
:102B400058612BED3FE049E450EC0E948E5E20E09E
:102B500030E849E953E40E94FB5D0E94275F7E83D1
:102B60006D83C601B501A80197010E94FB5D20E0BD
:102B700030E849E154E40E9458612BED3FE049E41C
:102B800050E40E948E5E0E94275F7C836B836F8976
:102B9000788D898D9A8D20E030E849E154E40E94D7
:102BA00058612BED3FE049E450E40E948E5E0E94A4
:102BB000275F7A83698329813A814B815C816D81AA
:102BC0007E8180E090E06E960FB6F894DEBF0FBE77
:102BD000CDBFCF91DF911F910F91FF90EF90DF90CC
:102BE000CF90BF90AF909F908F907F906F905F90AD
:102BF0004F903F902F9008952F923F924F925F9267
:102C00006F927F928F929F92AF92BF92CF92DF92FC
:102C1000EF92FF920F931F93DF93CF93CDB7DEB761
:102C20006E970FB6F894DEBF0FBECDBF898FCF82EF
:102C3000D886E986FA860B871C872D873E874F87C3
:102C4000588B698B7A8BBB8EAA8E8C8E8820E1F094
:102C5000760109851A852B853C854D855E856F85B6
:102C6000788989899A890E94DD142B8B3C8B4D8B46
:102C70005E8B6F8B788FDE011196FE01739686E076
:102C800001900D928150E1F75FE3452E56E0552EFD
:102C900043E6642E46E0742E37E8232E36E0332ECA
:102CA00088249924398D232F30E03E8F2D8F8D8DF0
:102CB0009E8D082C02C0959587950A94E2F780FFB7
:102CC00060C08C8D882349F0D101FE0137968CE0DD
:102CD00001900D928150E1F73AC05401AA0CBB1C3F
:102CE000A80CB91CAA0CBB1CAA0CBB1CE7E8F6E09C
:102CF000AE0EBF1EC501CF80D884E984FA840B854F
:102D00001C852D853E854F85588969897A890E9461
:102D1000D142F501E080F180028113812481358167
:102D20004681578160857185828593850E94DD1477
:102D30002B8B3C8B4D8B5E8B6F8B788FDE011196CE
:102D4000FE01739686E001900D928150E1F78B8130
:102D50009C814D815E8129813A81F20131832083FA
:102D60002A8D3B8DF30131832083F201938382838B
:102D7000F30133832283F20155834483F3013583C6
:102D800024830894811C911C26E030E0420E531EDF
:102D9000620E731E8CE090E0280E391E96E08916B4
:102DA000910409F084CF6E960FB6F894DEBF0FBE83
:102DB000CDBFCF91DF911F910F91FF90EF90DF90EA
:102DC000CF90BF90AF909F908F907F906F905F90CB
:102DD0004F903F902F900895FC01EB51FF4F1082D0
:102DE00008956C31710514F462E00AC06435710510
:102DF00014F065E005C0CB016EE070E00E9406654E
:102E0000862F0895AF92BF92CF92DF92EF92FF92FA
:102E10000F931F935801690150E0CB01489FB00107
:102E2000499F700D589F700D1124882777FD80955C
:102E3000982F0E945A5F7B018C01C601B50120E0EA
:102E400030E040E251E40E948E5E9B01AC01C8017B
:102E5000B7010E94586120E030E040E651E40E9452
:102E60008E5E7B018C0120E030E040E050E40E9467
:102E7000875E882314F482E011C0C801B70120E006
:102E800030E040E251E40E948360181614F48AE0B6
:102E900005C0C801B7010E942C5F862F1F910F91BA
:102EA000FF90EF90DF90CF90BF90AF9008950F9379
:102EB0001F93CF93DF93EC01FC01EE59FF4F10817C
:102EC0001F3F49F11F5F1083C751DF4F612F70E033
:102ED000882777FD8095982F0E945A5F20E030E088
:102EE00040E850E40E9458610E94275F798368831C
:102EF000C258D04068817981C756D040CE01412F59
:102F000000E010E020E231E40E940217C259DF4FD6
:102F10008883CE56D040CE59DF4F8881DF91CF9144
:102F20001F910F9108950F931F93CF93DF93EC019F
:102F3000FC01EE59FF4F1081123048F111501083FF
:102F4000C751DF4F612F70E0882777FD8095982F5C
:102F50000E945A5F20E030E040E850E40E9458614F
:102F60000E94275F79836883C258D0406881798145
:102F7000C756D040CE01412F00E010E020E231E4FE
:102F80000E940217C259DF4F8883CE56D040CE59D7
:102F9000DF4F8881DF91CF911F910F9108956F923C
:102FA0007F928F929F92AF92BF92CF92DF92EF92D9
:102FB000FF920F931F93DF93CF93CDB7DEB7289780
:102FC0000FB6F894DEBF0FBECDBF3C0109831A8354
:102FD0002B833C834D835E836F837887198DDC015F
:102FE000A45BBF4FFE01319688E001900D928150A5
:102FF000E1F784E590E0680E791EF301C192D19269
:10300000E192F1923F01B182A08288EA9FEF680EBF
:10301000791E9301265A3F4FC901B401412F50E058
:103020000E947B64E0E6F0E06E0E7F1EF3011193D8
:103030008A8D81938B8D81938C8D9D8D81939193BE
:103040008E8D9F8D819391933F0188A199A191834A
:10305000808383E090E0680E791E8AA19BA1ACA1D9
:10306000BDA1F30181939193A193B1933F018EA1EF
:1030700080838BEF9FEF680E791E8FA1F301808311
:103080008DE790E0680E791EF30110828EEF9FEFBE
:10309000680E791E81E0F301808328960FB6F894BC
:1030A000DEBF0FBECDBFCF91DF911F910F91FF907B
:1030B000EF90DF90CF90BF90AF909F908F907F90D8
:1030C0006F9008958F929F92AF92BF92CF92DF92AE
:1030D000EF92FF920F931F93DF93CF93CDB7DEB79D
:1030E0002E970FB6F894DEBF0FBECDBF9C01DE0158
:1030F0001796E9E4F3E088E001900D928150E1F742
:10310000DE011196E3E4F3E086E001900D92815038
:10311000E1F78DB79EB70F970FB6F8949EBF0FBE1D
:103120008DBFEDB7FEB7319686E0ADB7BEB711964D
:103130008C9381E0818382838FE090E0948383830A
:10314000968385838CE390E09087878380E090E08E
:10315000A0E2B1E481879287A387B48787E085875F
:103160001686C9010F81188529853A854B855C85AE
:103170006D857E850F2EF0E0CF2EF0E0DF2EF0E0A3
:10318000EF2EF0E0FF2EF02DEAE5AE2EB12C4E0131
:103190000894811C911C0E94CF178DB79EB70F9683
:1031A0000FB6F8949EBF0FBE8DBF2E960FB6F89443
:1031B000DEBF0FBECDBFCF91DF911F910F91FF906A
:1031C000EF90DF90CF90BF90AF909F908F90089539
:1031D000DC011496E7E8F6E088E401900D92815056
:1031E000E1F70895DC011496FB0188E401900D924B
:1031F0008150E1F708950F931F938C010E94F218FC
:10320000C8010E9462181F910F9108952F923F925A
:103210004F925F926F927F928F929F92AF92BF92E6
:10322000CF92DF92EF92FF920F931F93DF93CF9392
:10323000CDB7DEB7A0970FB6F894DEBF0FBECDBFF7
:103240005E8F4D8F19012B0166247724CE010D96D8
:1032500098A38F8FDE011196F2018CE001900D9200
:103260008150E1F7EF8DF8A180E111928A95E9F79D
:10327000DE011E96FE0131968CE001900D92815088
:10328000E1F781E090E0062C02C0880F991F0A94B4
:10329000E2F78D873B8E2A8E91E09C8F00D08D8D3A
:1032A0009E8DEDB7FEB7928381838FE294E08D848B
:1032B0009E84AF84B888C988DA88EB88FC880D8939
:1032C0001E892F89388D498D5A8D6B8D7C8D0E947A
:1032D000030A0894611C711CECE0F0E04E0E5F1EC6
:1032E0000F900F90F6E06F16710409F0B3CFA0961F
:1032F0000FB6F894DEBF0FBECDBFCF91DF911F9107
:103300000F91FF90EF90DF90CF90BF90AF909F9084
:103310008F907F906F905F904F903F902F90089587
:103320002F923F924F925F926F927F928F929F92D5
:10333000AF92BF92CF92DF92EF92FF920F931F93C3
:10334000DF93CF93CDB7DEB7C359D0400FB6F89413
:10335000DEBF0FBECDBFEB966FAFEB97BE016F5BCD
:103360007F4FDB01AC92FE01EE5BFF4FB082FE01AE
:10337000ED5BFF4FC082FE01EC5BFF4FD082CE01C0
:103380008B5B9F4FFC01E082FE01EA5BFF4FF08206
:10339000FE01E95BFF4F0083FE01E85BFF4F1083F6
:1033A000DE01A75BBF4F2C93FE01E65BFF4F30832E
:1033B000FE01E55BFF4F4083FE01E45BFF4F50835E
:1033C000EC968FAEEC97FB012081318142815381D5
:1033D000A5962CAF3DAF4EAF5FAFA597FC01208106
:1033E000318142815381A1962CAF3DAF4EAF5FAF8B
:1033F000A1972D913D914D915C916D962CAF3DAF74
:103400004EAF5FAF6D97C155DF4F88819981AA811B
:10341000BB81CF5AD04069968CAF9DAFAEAFBFAFE6
:103420006997CD54DF4F288139814A815B81C35B25
:10343000D04065962CAF3DAF4EAF5FAF6597C95496
:10344000DF4F88819981AA81BB81C75BD04061969B
:103450008CAF9DAFAEAFBFAF6197C255DF4F9881C4
:10346000CE5AD040692F70E0882777FD8095982F3D
:103470000E945A5F9B01AC0160E070E080E89FE32E
:103480000E948E5EEA966CAF7DAF8EAF9FAFEA97DB
:10349000C455DF4F68817981CC5AD040882777FDA9
:1034A0008095982F0E945A5FEA962CAD3DAD4EADA7
:1034B0005FADEA970E945861E6966CAF7DAF8EAF24
:1034C0009FAFE6978820B9F420E030E040E050E07C
:1034D000E1962CAF3DAF4EAF5FAFE197AD962CAF0D
:1034E0003DAF4EAF5FAFAD97A9962CAF3DAF4EAF9E
:1034F0005FAFA99738C0EB968FADEB970E948745D9
:10350000F82EC855DF4F688179818A819B81C85A1E
:10351000D0400E94275F8B019C01CE0149966FE24B
:1035200074E04F2D98010E94120B89A19AA1ABA1C2
:10353000BCA1E1968CAF9DAFAEAFBFAFE1972D8D33
:103540003E8D4F8D58A1AD962CAF3DAF4EAF5FAFC6
:10355000AD97898D9A8DAB8DBC8DA9968CAF9DAFA3
:10356000AEAFBFAFA9970F2EF0E04F2EF0E05F2E69
:10357000F0E06F2EF0E07F2EF02DE2961FAEE29786
:10358000C157DF4F1882CF58D040C057DF4F188245
:10359000C059D040CF56DF4F1882C159D040332494
:1035A000C457DF4F1882CC58D040C357DF4F188222
:1035B000CD58D040C257DF4F1882CE58D040222479
:1035C000C857DF4F1882C858D040C757DF4F1882FE
:1035D000C958D040C657DF4F1882CA58D040C55787
:1035E000DF4F1882CB58D040CC57DF4F1882C458D9
:1035F000D040CB57DF4F1882C558D040CA57DF4F55
:103600001882C658D040C957DF4F1882C758D040DB
:10361000C058DF4F1882C058D040CF57DF4F1882B4
:10362000C158D040CE57DF4F1882C258D040CD5736
:10363000DF4F1882C358D040ED961FAEED97EE963F
:103640001FAEEE97EF961FAEEF97C158DF4F18826F
:10365000CF57D040DE01D196CE56DF4FB983A88335
:10366000C259D04006C2C301B201EA962CAD3DADAD
:103670004EAD5FADEA970E94FB5D2B013C01EC96DD
:10368000BFADEC97BB2309F068C0C857DF4FE88196
:10369000C858D040CC57DF4FE883C458D040C757F4
:1036A000DF4FF881C958D040CB57DF4FF883C5585A
:1036B000D040C657DF4F2881CA58D040CA57DF4F85
:1036C0002883C658D040C557DF4F3881CB58D040EB
:1036D000C957DF4F3883C758D040C457DF4F4881A0
:1036E000CC58D040C058DF4F4883C058D040C35753
:1036F000DF4F5881CD58D040CF57DF4F5883C15846
:10370000D040C257DF4F8881CE58D040CE57DF4FD0
:103710008883C258D040CD57DF4F2882C358D0404D
:10372000C157DF4F9881CF58D040ED969FAFED97AE
:10373000C057DF4FA881C059D040EE96AFAFEE978B
:10374000CF56DF4FB881C159D040EF96BFAFEF974A
:10375000C158DF4F3882CF57D040A9966CAD7DADB0
:103760008EAD9FADA99769962CAD3DAD4EAD5FADC9
:103770006997A596ECACFDAC0EAD1FADA5976301A6
:1037800052010E940C3EC857DF4F6883C858D04092
:10379000C757DF4F7883C958D040C657DF4F88835B
:1037A000CA58D040C557DF4F9883CB58D040AD960C
:1037B0006CAD7DAD8EAD9FADAD9765962CAD3DAD3D
:1037C0004EAD5FAD6597A196ECACFDAC0EAD1FADF7
:1037D000A1970E940C3EC457DF4F6883CC58D0405D
:1037E000C357DF4F7883CD58D040C257DF4F88830F
:1037F000CE58D040292EE1966CAD7DAD8EAD9FADFB
:10380000E19761962CAD3DAD4EAD5FAD61976D9684
:10381000ECACFDAC0EAD1FAD6D970E940C3EC157D8
:10382000DF4F6883CF58D040C057DF4F7883C059EF
:10383000D040CF56DF4F8883C159D040392E482F12
:10384000592FCB01DA0189879A87AB87BC87C45788
:10385000DF4F2881CC58D040C357DF4F3881CD5837
:10386000D040C257DF4F4881CE58D040522DC901B9
:10387000DA018D839E83AF83B887C857DF4F2881D5
:10388000C858D040C757DF4F3881C958D040C657B5
:10389000DF4F4881CA58D040C557DF4F5881CB58B9
:1038A000D040C901DA0189839A83AB83BC83CC57AA
:1038B000DF4F2881C458D040CB57DF4F3881C558DF
:1038C000D040CA57DF4F4881C658D040C957DF4F54
:1038D0005881C758D040C901DA018D879E87AF87CC
:1038E000B88BC058DF4F2881C058D040CF57DF4F2A
:1038F0003881C158D040CE57DF4F4881C258D040A0
:10390000CD57DF4F5881C358D040C901DA01898BA8
:103910009A8BAB8BBC8BED962FADED97EE963FADB2
:10392000EE97EF964FADEF97C158DF4F5881CF57C5
:10393000D040C901DA018D8B9E8BAF8BB88FEDB76C
:10394000FEB73C970FB6F894FEBF0FBEEDBFADB704
:10395000BEB71196FE013D968CE001900D9281500C
:10396000E1F7CE018596C980DA80EB80FC800D817D
:103970001E812F81388549855A856B857C850E94FB
:103980003E3FCE56DF4FA881B981C259D040E0E119
:103990001D92EA95E9F7DE01D296FE01B5968CE01C
:1039A00001900D928150E1F7EB96FFADEB97F9ABEB
:1039B000E6966CAD7DAD8EAD9FADE6970E94275F1C
:1039C0007FAF6EAFEC962FADEC9721962FAF21977E
:1039D0004DB75EB7465F5F4F0FB6F8945EBF0FBE40
:1039E0004DBF0DB71EB70F5F1F4FC855DF4F688122
:1039F00079818A819B81C85AD0400E94275FD80173
:103A00006D937C938FE294E089A89AA8ABA8BCA898
:103A1000CDA8DEA8EFA8F8AC09AD1AAD2BAD3CAD32
:103A20004DAD5EAD6FAD21967FAD21970E94030A2B
:103A3000C855DF4F688179818A819B81C85AD040FF
:103A4000E6962CAD3DAD4EAD5FADE6970E94FB5DB9
:103A5000C855DF4F688379838A839B83C85AD040D7
:103A6000E296BFADE297BF5FE296BFAFE2970F90DD
:103A70000F90E296EFADE297C255DF4FF881CE5A34
:103A8000D040EF1708F4EFCDCD56DF4F0FB6F894C6
:103A9000DEBF0FBECDBFCF91DF911F910F91FF9081
:103AA000EF90DF90CF90BF90AF909F908F907F90DE
:103AB0006F905F904F903F902F9008952F923F927C
:103AC0004F925F926F927F928F929F92AF92BF922E
:103AD000CF92DF92EF92FF920F931F93DF93CF93DA
:103AE000CDB7DEB7C95AD0400FB6F894DEBF0FBECF
:103AF000CDBFCA55DF4F99838883C65AD040962ED2
:103B0000872EFE01E75BFF4FA082B182C282D38283
:103B1000E482F582068317832087318742875387A3
:103B2000C653DF4F488059806A807B80CA5CD04092
:103B3000CA52DF4F08811981C65DD040C852DF4F9D
:103B40008881C85DD040882371F4CA55DF4F8881D1
:103B50009981C65AD040B8010E94F116C852DF4F71
:103B60008883C85DD040DE011196892D982D9C0177
:103B7000F90188E401900D928150E1F7C852DF4FBE
:103B80009881C85DD040692F70E0882777FD8095C7
:103B9000982F0E945A5F9B01AC0160E070E080E8C2
:103BA0009FE30E948E5ECE55DF4F688379838A83C0
:103BB0009B83C25AD040B801882777FD8095982F03
:103BC0000E945A5FCE55DF4F288139814A815B813F
:103BD000C25AD0400E9458610E94275FC056DF4FF2
:103BE00079836883C05AD0408E01075B1F4FD8018C
:103BF0006D917D918D919C9120E030E040E050E00E
:103C00000E94875E882311F5F801648175818681A1
:103C1000978120E030E040E050E00E94875E8823FA
:103C2000A9F4D80118966D917D918D919C911B9767
:103C300020E030E040E050E00E94875E882331F4CD
:103C4000C156DF4F1882CF59D04024C0FE01E75B38
:103C5000FF4FCE55DF4F88809980AA80BB80C25A23
:103C6000D040B7FAB094B7F8B094CF01C080D180FB
:103C7000E280F3800481158126813781408551855A
:103C8000628573850E940140B1E0C156DF4FB88361
:103C9000CF59D040C301B20120E030E040E050E015
:103CA0000E94875E882331F5C253DF4F6881798196
:103CB0008A819B81CE5CD04020E030E040E050E043
:103CC0000E94875E8823B1F4CE52DF4F68817981EC
:103CD0008A819B81C25DD04020E030E040E050E02E
:103CE0000E94875E882331F4C256DF4F1882CE5976
:103CF000D04054C084E290E00E942C62C855DF4F4F
:103D00008883C85AD040C755DF4F9883C95AD040DE
:103D1000CE55DF4FE880F9800A811B81C25AD0401E
:103D200017FB109517F91095C301B201A80197016F
:103D30000E9458612B013C01C253DF4F6881798199
:103D40008A819B81CE5CD040A80197010E94586176
:103D50004B015C01CE52DF4F688179818A819B8162
:103D6000C25DD040A80197010E9458616B017C019F
:103D7000C855DF4F8881C85AD040C755DF4F98815A
:103D8000C95AD040B301A201950184010E94714932
:103D9000E1E0C256DF4FE883CE59D0400F2EF0E06D
:103DA0002F2EF0E03F2EF0E04F2EF0E05F2EF02DB2
:103DB000C356DF4F1882CD59D040F9E46F2E712CD5
:103DC0006C0E7D1ED2C0C156DF4FF881CF59D04056
:103DD000FF23A1F1CE018B5A9F4FBE016F5F7F4F32
:103DE000D301AC901196BC9011971296CC9012977B
:103DF0001396DC9013971496EC9014971596FC90FC
:103E0000159716960C91169717961C91179718965A
:103E10002C91189719963C9119971A964C911A97CC
:103E20001B965C910E949D45DE011196FE01EB5AA6
:103E3000FF4F88E401900D928150E1F7C256DF4FA9
:103E4000B881CE59D040BB2309F458C0CE018B5A5B
:103E50009F4FBE016F5F7F4FC254DF4FA880CE5B84
:103E6000D040C154DF4FB880CF5BD040C054DF4F4B
:103E7000C880C05CD040CF53DF4FD880C15CD040F9
:103E8000CE53DF4FE880C25CD040CD53DF4FF88087
:103E9000C35CD040CC53DF4F0881C45CD040CB53CF
:103EA000DF4F1881C55CD040CA53DF4F2881C65C04
:103EB000D040C953DF4F3881C75CD040C853DF4F73
:103EC0004881C85CD040C753DF4F5881C95CD0409F
:103ED000C855DF4F8880C85AD040C755DF4F9880FB
:103EE000C95AD0400E94DF46DE011196FE01EB5A0E
:103EF000FF4F88E401900D928150E1F7C201B101BA
:103F000020E030E040E05FE30E94FB5D0E94275F1D
:103F10009B01AC01CA55DF4F88819981C65AD040B8
:103F2000BE016F5F7F4FA901C056DF4F28813981E5
:103F3000C05AD0400E940619C201B101CE55DF4FD0
:103F4000288139814A815B81C25AD0400E94FB5D41
:103F50001B012C01C356DF4FE881CD59D040EF5FE4
:103F6000C356DF4FE883CD59D040C356DF4FF881A9
:103F7000CD59D040C852DF4F8881C85DD040F81776
:103F800008F421CFC256DF4F9881CE59D0409923F3
:103F900061F0C855DF4F8881C85AD040C755DF4F00
:103FA0009881C95AD0400E94D962C755DF4F0FB6D9
:103FB000F894DEBF0FBECDBFCF91DF911F910F915F
:103FC000FF90EF90DF90CF90BF90AF909F908F9039
:103FD0007F906F905F904F903F902F9008952F9219
:103FE0003F924F925F926F927F928F929F92AF9289
:103FF000BF92CF92DF92EF92FF920F931F93DF93C6
:10400000CF93CDB7DEB7C258D1400FB6F894DEBF1C
:104010000FBECDBF2C017A018B018091C208909117
:10402000C308A091C408B091C5089A01AB01281B30
:10403000390B4A0B5B0B69EE70E0460E571ED2013E
:104040008D919C91E7E1FFEF4E0E5F1EAA2797FD31
:10405000A095BA2F281739074A075B0710F40C946C
:10406000E530E092C208F092C3080093C4081093B0
:10407000C50824EE30E0420E531ED2018C91ECE1D3
:10408000FFEF4E0E5F1E882309F4E6C126EE30E0F6
:10409000420E531ED2018C91EAE1FFEF4E0E5F1EDD
:1040A000882309F0AAC120E630E0420E531ED20157
:1040B0008C9190E0E3E0F0E04E0E5F1ED2012D9176
:1040C0003C91EEEFFFEF4E0E5F1ED2016C91FC01B2
:1040D000E29FC001E39F900DF29F900D112470E0CC
:1040E0000E940665882777FD8095982F0E945A5F69
:1040F0007B018C016093BE087093BF088093C00859
:104100009093C10826E030E0420E531ED2016D911B
:104110007C91E9E9FFEF4E0E5F1E882777FD8095C1
:10412000982F0E945A5F9B01AC01C801B7010E9401
:10413000FA5D20E030E040E05FE30E945861609368
:10414000BA087093BB088093BC089093BD0874E5CF
:10415000C72ED12CC40CD51CD601ED90FD900D912D
:104160001C91C801B70120E030E040E050E00E941F
:10417000875E8823C1F56CE4C62ED12CC40CD51CF7
:10418000F60120813181428153816481758186816C
:1041900097810F2EF0E0EF2EF0E0FF2EF0E80F2FCA
:1041A000FFEB1F2FF02D0E946F40D6012C9311962C
:1041B0003C93119712964C93129713965C93139716
:1041C00014966C93149715967C93159716968C936A
:1041D000169717969C9390E09201205A3F4FD20178
:1041E000A959BF4F24C0B801A70170588AEA98E0C6
:1041F0000E943B49F6016081718182819381209107
:10420000BA083091BB084091BC085091BD080E948B
:104210005861AB01BC018AE998E00E943B49DBCFC1
:10422000E92FF0E0EE56F74F8C9180839F5FF90104
:1042300060819617A8F38091990890E070E00E9441
:10424000F2648093990829E630E0420E531ED201B1
:104250008C91E7E9FFEF4E0E5F1E882309F4C4C07E
:10426000A2E0B8E0E7E8F6E088E401900D92815022
:10427000E1F7B2016C5F7F4F82E098E00E948443D7
:10428000222433242DB73EB72C5030400FB6F8947B
:104290003EBF0FBE2DBFC101880F991F820D931D18
:1042A000FC013196EE0FFF1FEE0FFF1FE40DF51D11
:1042B000AC01440F551F440F551F2F5F3F4F4E5FFA
:1042C000574F8CE0DA010D90AD01D9010D929D019F
:1042D0008150C1F7CE018F559F4FC080D180E280C1
:1042E000F38004811581268137814085518562855F
:1042F00073850E943E3F3101660C771C620C731C73
:10430000660C771C660C771CEAE4F8E06E0E7F1EE4
:104310002DB73EB7245F3F4F0FB6F8943EBF0FBE98
:104320002DBF60E070E080E89FE32091BE083091EF
:10433000BF084091C0085091C1080E948E5E4B0199
:104340005C01CE018F5A9E4FCF55DF4FC880C15AB6
:10435000D040CE55DF4FD880C25AD040CD55DF4F28
:10436000E880C35AD040CC55DF4FF880C45AD040C3
:10437000CB55DF4F0881C55AD040CA55DF4F188151
:10438000C65AD040C955DF4F2881C75AD040C855BA
:10439000DF4F3881C85AD040C755DF4F4881C95ACE
:1043A000D040C655DF4F5881CA5AD040C555DF4F5F
:1043B0006881CB5AD040C455DF4F7881CC5AD04069
:1043C0000E940140D301FE01EF5AFE4F8CE00190A4
:1043D0000D928150E1F70894211C311C36E0231620
:1043E000310409F04FCF09C0A2E0B8E0F2013496E1
:1043F00088E401900D928150E1F7820107511F4F2F
:1044000042E650E0440E551ED2016C9170E08827C0
:1044100077FD8095982F0E945A5F20E030E040E8B9
:1044200050E40E9458610E94275FF8017183608305
:1044300025E830E0420E531ED2011D921C92EDEF92
:10444000FFEF4E0E5F1ED2011D922D0181E08C9375
:10445000EBE1FFEF4E0E5F1EF201E951FF4F60816D
:10446000718128E530E0420E531ED2018D919C915E
:1044700028EA3FEF420E531E6817790710F00C949C
:10448000E53045EE50E0440E551ED2018C912BE1F3
:104490003FEF420E531E882311F40C94E53046EE94
:1044A00050E0440E551ED2018C912AE13FEF420E9E
:1044B000531E882331F0813011F00C94DD300C94C0
:1044C000932F49E650E0440E551ED2018C91E7E946
:1044D000FFEF4E0E5F1E8823A9F180E090E00E945E
:1044E000585F2091BE083091BF084091C00850919C
:1044F000C1080E94875E88232CF5AA24BB24C5012D
:10450000880F991F8A0D9B1D880F991F880F991F6F
:10451000FC01E65BF74F8E5F974FC080D180E28051
:10452000F38004811581268137814085518562851C
:1045300073850E94D1420894A11CB11CF6E0AF160D
:10454000B104E9F6820109511F4F23E630E0420E23
:10455000531ED2016D917C91F801808191810E945E
:10456000F264FC012EEF3FEF420E531ED2016C911C
:104570008091990890E070E00E94F26424E030E0BD
:10458000420E531ED2012D913C914BE95FEF440E38
:10459000551EBC01629FC001639F900D729F900DDC
:1045A0001124E817F90711F00C94632B86E098E0CA
:1045B000C959DE4F99838883C756D14022243324BA
:1045C000CB58DE4F19830883C557D140D201AC5A6E
:1045D000BF4FC958DE4FB983A883C757D140F201F6
:1045E000EE59FF4FC758DE4FF983E883C957D140D2
:1045F000920129593F4FC558DE4F39832883CB5745
:10460000D140A20142595F4FC358DE4F59834883BE
:10461000CD57D140B20166597F4FC158DE4F7983E3
:104620006883CF57D140ECE46E2E712C640C751C5E
:10463000922C80919908F201E80FF11DE65AFF4F84
:10464000808190E0022C02C0959587950A94E2F74C
:1046500080FD02C00C942F2BCB58DE4FA881B9816E
:10466000C557D1406D917C9180E090E00E94585FE9
:104670005B016C01E090BE08F090BF080091C0089B
:104680001091C108C801B701A80197010E94FB5D04
:104690009B01AC01C601B5010E94875E18166CF43F
:1046A00020E030E040E85FE3C359DE4F28833983E0
:1046B0004A835B83CD56D14022C0C601B50120E0BC
:1046C00030E040E05FE30E945861A80197010E943A
:1046D0008E5E0E94FA3D2DEC3CEC4CEC5FE30E94B8
:1046E00058612AE939E949E15FE30E94FA5DC3595B
:1046F000DE4F688379838A839B83CD56D140C95826
:10470000DE4FA881B981C757D1406D917D918D91C0
:104710009C9120E030E040E050E00E94875E8823DA
:1047200009F0BBC2F101EE0FFF1FE20DF31DEE0F0A
:10473000FF1FEE0FFF1FEE5FF74FE080F180028159
:1047400013812481358146815781608571858285F9
:1047500093850E94F740C35ADE4F2883CD55D14040
:10476000C25ADE4F3883CE55D140C15ADE4F4883FE
:10477000CF55D140C05ADE4F5883C056D140CF5993
:10478000DE4F6883C156D140CE59DE4F7883C25682
:10479000D140CD59DE4F8883C356D140CC59DE4F2E
:1047A0009883C456D140DE011196FE01E35AFE4FB4
:1047B00088E001900D928150E1F76091BA08709104
:1047C000BB088091BC089091BD089058C359DE4F3A
:1047D000288139814A815B81CD56D1400E94586140
:1047E0007B018C01F30120813181428153816481FD
:1047F0007581868197810E946F40C35ADE4F28835E
:10480000CD55D140C25ADE4F3883CE55D140C15A22
:10481000DE4F4883CF55D140C05ADE4F5883C05633
:10482000D140CF59DE4F6883C156D140CE59DE4FBB
:104830007883C256D140CD59DE4F8883C356D140CC
:10484000CC59DE4F9883C456D140DE011996FE0143
:10485000E35AFE4F88E001900D928150E1F72981E3
:104860003A814B815C816D817E818F819885A9849D
:10487000BA84CB84DC84ED84FE840F8518890E9481
:10488000E33EC35ADE4F2883CD55D140C25ADE4F96
:104890003883CE55D140C15ADE4F4883CF55D140E1
:1048A000C05ADE4F5883C056D140CF59DE4F68837F
:1048B000C156D140CE59DE4F7883C256D140CD5932
:1048C000DE4F8883C356D140CC59DE4F9883C456FF
:1048D000D140DE01AF58BF4FFE01E35AFE4F88E0E2
:1048E00001900D928150E1F7CB58DE4FA881B9813C
:1048F000C557D1406D917C9180E090E00E94585F57
:104900007B018C012091BE083091BF084091C00806
:104910005091C108CA01B9010E94FB5D9B01AC0125
:10492000C801B7010E94836018160CF081C5F1011F
:10493000EE0FFF1FE20DF31DEE0FFF1FEE0FFF1F27
:10494000E957F94FE080F18002811381248135819C
:104950004681578160857185828593850E94F740E5
:10496000DE01A35ABE4F2C93FE01E25AFE4F308364
:10497000FE01E15AFE4F4083FE01E05AFE4F508394
:10498000FE01EF59FE4F6083FE01EE59FE4F70832A
:10499000FE01ED59FE4F8083FE01EC59FE4F9083DE
:1049A0009E012F5E3F4FFD0188E00190D9010D92DD
:1049B0009D018150D1F731E7832E912C8C0E9D1EE5
:1049C000F401208131814281538164817581868126
:1049D0009781A988BA88CB88DC88ED88FE880F8902
:1049E000188D0E94A63FDE01A35ABE4F2C93FE01F4
:1049F000E25AFE4F3083FE01E15AFE4F4083FE0132
:104A0000E05AFE4F5083FE01EF59FE4F6083FE01D6
:104A1000EE59FE4F7083FE01ED59FE4F8083FE017B
:104A2000EC59FE4F90839401FD0188E00190D9017B
:104A30000D929D018150D1F780919908F201E80F04
:104A4000F11DE65AFF4F208021E7E22EF12CEC0EFB
:104A5000FD1ECE0183559F4FF701008111812281F8
:104A6000338144815581668177810E94BE4022E670
:104A700030E0420E531ED2018C9190E0E5E0F0E070
:104A80004E0E5F1ED2012D913C91829F3001839F7B
:104A9000700C929F700C1124E7E0F0E04E0E5F1E48
:104AA000D2013C90E2E9FFEF4E0E5F1ED7012C9140
:104AB00011963C91119712964C91129713965C9116
:104AC000139714966C91149715967C9115971696DA
:104AD0008C91169717969C910F2EF0E0EF2EF0E038
:104AE000FF2EF0E00F2FFFE31F2FF02D0E946F40ED
:104AF000DE01A35ABE4F2C93FE01E25AFE4F3083D3
:104B0000FE01E15AFE4F4083FE01E05AFE4F508302
:104B1000FE01EF59FE4F6083FE01EE59FE4F708398
:104B2000FE01ED59FE4F8083FE01EC59FE4F90834C
:104B30009E01275E3F4FFD0188E00190D9010D9253
:104B40009D018150D1F799EBA92EB12CAC0EBD1E61
:104B5000C501098D1A8D2B8D3C8D4D8D5E8D6F8D10
:104B600078A10E94BE40EAE6F0E04E0E5F1ED20140
:104B70002D913D914D915C91E6E9FFEF4E0E5F1E48
:104B8000FE01EB53FF4F80E090E0A0E0B0E08083B7
:104B90009183A283B383248335834683578380879D
:104BA0009187A287B3872DB73EB72C5030400FB600
:104BB000F8943EBF0FBE2DBFADB7BEB711968CE0C7
:104BC00001900D928150E1F7CE018F529F4FD50198
:104BD000CC901196DC9011971296EC901297139648
:104BE000FC90139714960C91149715961C91159799
:104BF00016962C91169717963C91179718964C91EC
:104C0000189719965C9119971A966C911A971B969A
:104C10007C910E947B3EEDB7FEB737970FB6F894B4
:104C2000FEBF0FBEEDBF31968DEA882E912C8C0E03
:104C30009D1E20E030E040E050E0ADB7BEB71196D9
:104C40002D933D934D935C931497758264823682C5
:104C50001896FE01EF52FF4F8CE001900D928150AB
:104C6000E1F7C201622DF401A080B180C280D3803F
:104C7000E480F58006811781208531854285538542
:104C800088240E9490192DB73EB72D5E3F4F0FB676
:104C9000F8943EBF0FBE2DBFF9C4892D0E948E46E9
:104CA000C35ADE4F2883CD55D140C25ADE4F3883D8
:104CB000CE55D140C15ADE4F4883CF55D140C05A5E
:104CC000DE4F5883C056D140CF59DE4F6883C1565E
:104CD000D140CE59DE4F7883C256D140CD59DE4FF8
:104CE0008883C356D140CC59DE4F9883C456D140F7
:104CF000DE01A759BF4FFE01E35AFE4F88E0019045
:104D00000D928150E1F7F101EE0FFF1FE20DF31D4F
:104D1000EE0FFF1FEE0FFF1FEE5FF74FE080F180F9
:104D20000281138124813581468157816085718597
:104D3000828593850E94F740C35ADE4F2883CD5564
:104D4000D140C25ADE4F3883CE55D140C15ADE4FD2
:104D50004883CF55D140C05ADE4F5883C056D1400A
:104D6000CF59DE4F6883C156D140CE59DE4F78838C
:104D7000C256D140CD59DE4F8883C356D140CC595D
:104D8000DE4F9883C456D140DE019196FE01E35A6E
:104D9000FE4F88E001900D928150E1F729A13AA1E0
:104DA0004BA15CA16DA17EA18FA198A5AA96AFACE5
:104DB000AA97AB96BFACAB97AC96CFACAC97AD9681
:104DC000DFACAD97AE96EFACAE97AF96FFACAF97BA
:104DD000E0960FADE097E1961FADE1970E94E33EAC
:104DE000C35ADE4F2883CD55D140C25ADE4F388397
:104DF000CE55D140C15ADE4F4883CF55D140C05A1D
:104E0000DE4F5883C056D140CF59DE4F6883C1561C
:104E1000D140CE59DE4F7883C256D140CD59DE4FB6
:104E20008883C356D140CC59DE4F9883C456D140B5
:104E3000DE019996FE01E35AFE4F88E001900D9243
:104E40008150E1F729A53AA54BA55CA56DA57EA5E6
:104E50008FA598A9D301AC901196BC90119712968A
:104E6000CC9012971396DC9013971496EC901497AD
:104E70001596FC90159716960C91169717961C91FF
:104E80000E94A63FC35ADE4F2883CD55D140C25A57
:104E9000DE4F3883CE55D140C15ADE4F4883CF55BF
:104EA000D140C05ADE4F5883C056D140CF59DE4F53
:104EB0006883C156D140CE59DE4F7883C256D14067
:104EC000CD59DE4F8883C356D140CC59DE4F9883ED
:104ED000C456D140DE01D196FE01E35AFE4F88E070
:104EE00001900D928150E1F729A93AA94BA95CA93B
:104EF0006DA97EA98FA998AD0AE918E00E944642E3
:104F0000C35ADE4F2883CD55D140C25ADE4F388375
:104F1000CE55D140C15ADE4F4883CF55D140C05AFB
:104F2000DE4F5883C056D140CF59DE4F6883C156FB
:104F3000D140CE59DE4F7883C256D140CD59DE4F95
:104F40008883C356D140CC59DE4F9883C456D14094
:104F5000DE01D996FE01E35AFE4F88E001900D92E2
:104F60008150E1F729AD3AAD4BAD5CAD6DAD7EAD95
:104F70008FAD21969FAD2197F301A080B180C280B3
:104F8000D380E480F580068117810E94E33EC35AF6
:104F9000DE4F2883CD55D140C25ADE4F3883CE55DF
:104FA000D140C15ADE4F4883CF55D140C05ADE4F61
:104FB0005883C056D140CF59DE4F6883C156D14087
:104FC000CE59DE4F7883C256D140CD59DE4F88830B
:104FD000C356D140CC59DE4F9883C456D140DE0130
:104FE000AF5BBF4FFE01E35AFE4F88E001900D9288
:104FF0008150E1F722962FAD229723963FAD23975C
:10500000FE01ED5BFF4F4081FE01EC5BFF4F5081E5
:10501000FE01EB5BFF4F6081FE01EA5BFF4F708199
:10502000FE01E95BFF4F8081FE01E85BFF4F90814D
:10503000AA96AFACAA97AB96BFACAB97AC96CFACE9
:10504000AC97AD96DFACAD97AE96EFACAE97AF96A2
:10505000FFACAF97E0960FADE097E1961FADE197FB
:105060000E94A63FC35ADE4F2883CD55D140C25A75
:10507000DE4F3883CE55D140C15ADE4F4883CF55DD
:10508000D140C05ADE4F5883C056D140CF59DE4F71
:105090006883C156D140CE59DE4F7883C256D14085
:1050A000CD59DE4F8883C356D140CC59DE4F98830B
:1050B000C456D140DE01AF58BF4FFE01E35AFE4F48
:1050C00088E001900D928150E1F7CB58DE4FA88126
:1050D000B981C557D1406D917C9180E090E00E94EC
:1050E000585F7B018C012091BE083091BF08409130
:1050F000C0085091C108CA01B9010E94FB5D9B0123
:10510000AC01C801B7010E94875E18160CF490C16B
:10511000F101EE0FFF1FE20DF31DEE0FFF1FEE0F6B
:10512000FF1FEE5FF74FE080F18002811381248141
:1051300035814681578160857185828593850E947E
:10514000F740C35ADE4F2883CD55D140C25ADE4FB7
:105150003883CE55D140C15ADE4F4883CF55D14018
:10516000C05ADE4F5883C056D140CF59DE4F6883B6
:10517000C156D140CE59DE4F7883C256D140CD5969
:10518000DE4F8883C356D140CC59DE4F9883C45636
:10519000D140DE01A75BBF4FFE01E35AFE4F88E01E
:1051A00001900D928150E1F7FE01E75BFF4FE2961F
:1051B0002FADE297E3963FADE397E4964FADE497CA
:1051C000E5965FADE597E6966FADE697E7967FAD1E
:1051D000E797E8968FADE897E9969FADE997A080AD
:1051E000B180C280D380E480F580068117810E945F
:1051F000A63FC35ADE4F2883CD55D140C25ADE4F59
:105200003883CE55D140C15ADE4F4883CF55D14067
:10521000C05ADE4F5883C056D140CF59DE4F688305
:10522000C156D140CE59DE4F7883C256D140CD59B8
:10523000DE4F8883C356D140CC59DE4F9883C45685
:10524000D140DE01AF5ABF4FFE01E35AFE4F88E066
:1052500001900D928150E1F7FE01EF5AFF4F20813E
:105260003181428153816481758186819781C359DF
:10527000DE4FE880F9800A811B81CD56D1400E9423
:105280006F40C35ADE4F2883CD55D140C25ADE4FFE
:105290003883CE55D140C15ADE4F4883CF55D140D7
:1052A000C05ADE4F5883C056D140CF59DE4F688375
:1052B000C156D140CE59DE4F7883C256D140CD5928
:1052C000DE4F8883C356D140CC59DE4F9883C456F5
:1052D000D140DE01A75ABF4FFE01E35AFE4F88E0DE
:1052E00001900D928150E1F7F101EE0FFF1FE20DE9
:1052F000F31DEE0FFF1FEE0FFF1FEE5FF74FE08075
:10530000F180028113812481358146815781608536
:105310007185828593850E94F740C35ADE4F2883AA
:10532000CD55D140C25ADE4F3883CE55D140C15AF7
:10533000DE4F4883CF55D140C05ADE4F5883C05608
:10534000D140CF59DE4F6883C156D140CE59DE4F90
:105350007883C256D140CD59DE4F8883C356D140A1
:10536000CC59DE4F9883C456D140DE01AF59BF4FB0
:10537000FE01E35AFE4F88E001900D928150E1F763
:10538000FE01E75AFF4FDE01AF59BF4F2081318147
:10539000428153816481758186819781AC90119699
:1053A000BC9011971296CC9012971396DC9013979D
:1053B0001496EC9014971596FC90159716960C91F0
:1053C000169717961C910E94E33EC35ADE4F28831E
:1053D000CD55D140C25ADE4F3883CE55D140C15A47
:1053E000DE4F4883CF55D140C05ADE4F5883C05658
:1053F000D140CF59DE4F6883C156D140CE59DE4FE0
:105400007883C256D140CD59DE4F8883C356D140F0
:10541000CC59DE4F9883C456D140DE01AF58BF4F00
:10542000FE01E35AFE4F88E001900D928150E1F7B2
:10543000C959DE4FE881F981C756D14020813181B9
:1054400042815381E996ECACFDAC0EAD1FADE997FE
:10545000E5968CAD9DADAEADBFADE597C352DF4FC8
:1054600088839983AA83BB83CD5DD040CF51DF4F22
:10547000288339834A835B83C15ED040CB51DF4FA1
:10548000E882F9820A831B83C55ED040C758DE4F8D
:10549000A881B981C957D1408C9190E0C558DE4FA1
:1054A000E881F981CB57D14020813181829F500121
:1054B000839FB00C929FB00C1124C358DE4FA8817B
:1054C000B981CD57D1409C90C158DE4FE881F98118
:1054D000CF57D140208131814281538180E090E0DB
:1054E000A0E0B0E0C751DF4F88839983AA83BB83D4
:1054F000C95ED040C351DF4F288339834A835B8321
:10550000CD5ED040CF50DF4F88839983AA83BB8381
:10551000C15FD0402DB73EB72C5030400FB6F89445
:105520003EBF0FBE2DBFF101EE0FFF1FE20DF31DB9
:10553000EE0FFF1FEE0FFF1FEE5FF74F2F5F3F4F86
:10554000AE0147515F4F8CE0DA010D90AD01D901FA
:105550000D929D018150C1F7CE018B509F4FC080AD
:10556000D180E280F38004811581268137814085D6
:105570005185628573850E947B3EEDB7FEB73797F4
:105580000FB6F894FEBF0FBEEDBF319661E070E03C
:10559000022C02C0660F771F0A94E2F720E030E089
:1055A00040E050E0ADB7BEB711962D933D934D93BB
:1055B0005C931497B582A48296821896FE01EB50F4
:1055C000FF4F8CE001900D928150E1F7C201C35270
:1055D000DF4FA880CD5DD040C252DF4FB880CE5D96
:1055E000D040C152DF4FC880CF5DD040C052DF4FA6
:1055F000D880C05ED040CF51DF4FE880C15ED04040
:10560000CE51DF4FF880C25ED040CD51DF4F0881D0
:10561000C35ED040CC51DF4F1881C45ED040CB5127
:10562000DF4F2881C55ED040CA51DF4F3881C65E4A
:10563000D040C951DF4F4881C75ED040C851DF4FCD
:105640005881C85ED040882483940E949019EDB799
:10565000FEB773960FB6F894FEBF0FBEEDBF089469
:10566000211C311CC959DE4F28813981C756D140D0
:10567000245F3F4FC959DE4F39832883C756D14035
:1056800036E02316310411F00C9418238091990808
:1056900090E0FC01EE56F74F47E650E0440E551EF1
:1056A000D2012C912083E9EFFFEF4E0E5F1ED20155
:1056B0006C91E0EAFFEF4E0E5F1E019670E00E94D3
:1056C0000665809399081092980820E0A201405A3C
:1056D0005F4F16C0E22FF0E0DF01AE56B74F8C915E
:1056E000882319F081508C930AC0E40DF51DE65A09
:1056F000FF4F809198089081890F809398082F5FC1
:10570000DA018C91281730F3F201EC5AFF4F6081D7
:1057100071818281938120E030E040E050E00E947E
:10572000875E882309F069C0D090980831E0E32EA5
:10573000F32EEC0EFD1EF201E45BFF4FC70100816A
:1057400011812281338144815581668177810E9454
:10575000BE40E2E6F0E04E0E5F1ED2019C91EEE903
:10576000FFEF4E0E5F1EFE01EF5CFE4F80E1DF019A
:105770001D928A95E9F73196D7018CE00D90019240
:105780008150E1F7FE01EF5CFE4FD08295871686CF
:1057900000D0ADB7BEB712961C921E9211978FE241
:1057A00094E080809180A280B380C480D580E68020
:1057B000F78000851185228533854485558566856A
:1057C00077850E94030A0F900F9080919808882394
:1057D00009F4F3C4F20182819381009709F4EDC4C6
:1057E000E45BFF4F00811181228133814481558127
:1057F000668177810E943B43E0C42BE836E0C759BD
:10580000DE4F39832883C956D140C559DE4F1982EE
:105810001882CB56D1402CE4622E712C640C751C7E
:10582000A2014E595F4FCF58DE4F59834883C1576D
:10583000D14091E4292E91E0392E2C0E3D1EB1016C
:105840006F5F7F4FCD58DE4F79836883C357D14058
:105850008091980890E0C559DE4F0880CB56D14022
:1058600002C0959587950A94E2F780FF1EC3C5593B
:10587000DE4F8881CB56D1400E948E46C35ADE4F00
:105880002883CD55D140C25ADE4F3883CE55D14002
:10589000C15ADE4F4883CF55D140C05ADE4F58839E
:1058A000C056D140CF59DE4F6883C156D140CE5942
:1058B000DE4F7883C256D140CD59DE4F8883C35620
:1058C000D140CC59DE4F9883C456D140DE01A75950
:1058D000BF4FFE01E35AFE4F88E001900D928150C8
:1058E000E1F7C559DE4FE881F981CB56D140EE0F83
:1058F000FF1FC559DE4F88819981CB56D140E80FF3
:10590000F91FEE0FFF1FEE0FFF1FE957F94FE08061
:10591000F180028113812481358146815781608520
:105920007185828593850E94F740C35ADE4F288394
:10593000CD55D140C25ADE4F3883CE55D140C15AE1
:10594000DE4F4883CF55D140C05ADE4F5883C056F2
:10595000D140CF59DE4F6883C156D140CE59DE4F7A
:105960007883C256D140CD59DE4F8883C356D1408B
:10597000CC59DE4F9883C456D140DE01A758BF4FA3
:10598000FE01E35AFE4F88E001900D928150E1F74D
:10599000EA962FADEA97EB963FADEB97EC964FADBD
:1059A000EC97ED965FADED97EE966FADEE97EF96B7
:1059B0007FADEF97C158DF4F8881CF57D040C05897
:1059C000DF4F9881C058D040AA96AFACAA97AB964B
:1059D000BFACAB97AC96CFACAC97AD96DFACAD9708
:1059E000AE96EFACAE97AF96FFACAF97E0960FAD2B
:1059F000E097E1961FADE1970E94E33EC35ADE4F68
:105A00002883CD55D140C25ADE4F3883CE55D14080
:105A1000C15ADE4F4883CF55D140C05ADE4F58831C
:105A2000C056D140CF59DE4F6883C156D140CE59C0
:105A3000DE4F7883C256D140CD59DE4F8883C3569E
:105A4000D140CC59DE4F9883C456D140DE01AF57C8
:105A5000BF4FFE01E35AFE4F88E001900D92815046
:105A6000E1F7CF57DF4F2881C158D040CE57DF4FE5
:105A70003881C258D040CD57DF4F4881C358D040FD
:105A8000CC57DF4F5881C458D040CB57DF4F688187
:105A9000C558D040CA57DF4F7881C658D040C95743
:105AA000DF4F8881C758D040C857DF4F9881C8580A
:105AB000D040D301AC901196BC9011971296CC9027
:105AC00012971396DC9013971496EC9014971596F2
:105AD000FC90159716960C91169717961C910E949C
