:100000000C9474020C949E020C949E020C949E021A
:100010000C949E020C949E020C949E020C949E02E0
:100020000C949E020C949E020C949E020C949E02D0
:100030000C949E020C949E020C949E020C940D0D46
:100040000C949E020C949E020C949E020C949E02B0
:100050000C949E020C949E020C949E020C943A0DF9
:100060000C949E020C94DF0D0C949E020C949E0244
:100070000C949E020C949E020C949E020C949E0280
:100080000C949E020C949E020C949E020C949E0270
:100090000C94D0020C949E020C949E020C949E022E
:1000A0000C949E020C949E020C949E020C949E0250
:1000B0000C949E020C949E020C949E020C949E0240
:1000C0000C949E020C949E020C949E020C94140EAE
:1000D0000C949E020C949E020C94490E0C949E0269
:1000E0000C949E02E003DE03DC03DC03DC03DC0390
:1000F000E003DE03E003DE03DE03DC03DC03DC03FA
:10010000E003DE03DC03DC03DC03DC03E003DE03EB
:10011000E003DE03DC03DC03DC03DC03DC03DC03E1
:10012000E003DE03E003DE03E003DE03E003DE03BF
:10013000E003DE03E003DE03DC03DC03DC03DE03B9
:10014000DC03DC03E003F003F003F003F403F20349
:10015000F403F203F203F003F003F003F403F203F9
:10016000F003F003F003F003F203F203F203F203EF
:10017000F003F003F003F003F003F003F403F203E1
:10018000F403F203F403F203F203F203F203F203C3
:10019000F203F203F203F203F003F203F203F003BB
:1001A000F4035E075C0766076607660762075C077D
:1001B0006607600760076407660760075C076007FB
:1001C0005A075C0760075C075C075C075C075C0715
:1001D0005C075C075C076007600764075C076407EF
:1001E0005C07640766076607660766075C075C07C7
:1001F00066075C075E075C075C075C0766076607C7
:1002000066075C0766076607660766076607660790
:100210006407660766075C07640766076407640788
:10022000640766075C075C075C075C075C075A07A6
:100230005C075C075E0760075C075E0766075C0794
:100240005C075C075C075A075C075A075C07660790
:10025000660766075C075C075C0764075C07640762
:100260007A077C077C077E077E077E077C077E0770
:100270007A077A077E077E077A077C077A077C076A
:100280007C077A077C077C077C077C077C077C0758
:100290007C077C077A077A077E077C077E077C0746
:1002A0007E077E077E077E077E077C077C077E072A
:1002B0007C077A077C077C077C077E077E077E0722
:1002C0007C077E077E077E077E077E077E077E0708
:1002D0007E077E077C077E077E077E077E077E07F8
:1002E0007E077C077C077C077C077C077C077C07F4
:1002F0007C077A077A077C077A077E077C077C07EA
:100300007C077C077C077C077C077C077E077E07D1
:100310007E077C077C077C077E077C07084AD73B63
:100320003BCE016E84BCBFFDC12F3D6C74319ABDC4
:1003300056833DDA3D00C77F11BED9E4BB4C3E91E8
:100340006BAAAABE000000803F07634236B79BD865
:10035000A71A39685618AEBAAB558C1D3CB7CC57A6
:1003600063BD6DEDFD753EF6177231BF0000008074
:100370003F072C7AA5BA6CC590DA3B9365FC8BBC21
:1003800053F810FD3C5692834DBD879D3AB63DCB48
:10039000C9BF5BBE73DA0FC93F05A84CCDB2D44EBE
:1003A000B93836A9020C50B9918688083CA6AAAA89
:1003B0002ABE000000803F00002100240027002A00
:1003C000002D003000330001010000040107010A84
:1003D0000100002200250028002B002E00310034EF
:1003E0000002010000050108010B010000200023AC
:1003F00000260029002C002F00320000010000031D
:100400000106010901050505050705080808080298
:100410000202020A0A08080404040401010101019D
:100420000101010303030303030303040707070C8C
:100430000C0C0C0C0C0C0C02020202060606060642
:100440000606060B0B0B0B0B0B0B0B0102102020EF
:100450000808102040102040800201020108040218
:10046000010102040810204080804020100804028E
:1004700001800402018040201008040201080402E7
:1004800001010204081020408001020408102040ED
:10049000800000090A02080B0C0D07060304010086
:1004A000000000000000000000000000000000004C
:1004B00000000000000000000000000000100F0E0F
:1004C000000000000000000000000000000000002C
:1004D000000000000000000039078E07520C1F0FBB
:1004E0001710423CFE4EF74E11241FBECFEFD1E253
:1004F000DEBFCDBF13E0A0E0B2E0E2E6F7ED00E042
:100500000BBF02C007900D92AC3FB107D9F719E0BD
:10051000ACEFB3E001C01D92A332B107E1F714E0E4
:10052000C6EED4E004C02297FE010E94A06BC83D35
:10053000D107C9F70E94BD0F0C94C06A0C9400004B
:10054000E9ECF0E080818F77808380818F7E8083EB
:100550008081886080830895EEE6F0E080818E7F60
:100560008083E9ECF0E08081877F808380818061F7
:10057000808380818068808310921C040895E9EC58
:10058000F0E080818F77808380818F7E808380817F
:10059000877F8083EEE6F0E080818160808308952C
:1005A0001F920F920FB60F920BB60F9211248F93DA
:1005B0009F93EF93FF9380911C049091CE00ECEFFA
:1005C000F3E0E80FF11D90838F5F80931C04FF918F
:1005D000EF919F918F910F900BBE0F900FBE0F90D8
:1005E0001F9018959B01AC0183E0220F331F441F1D
:1005F000551F8A95D1F760E074E284EF90E00E9485
:10060000616B21503040E8ECF0E0808182608083B3
:100610003093CD002093CC0010921C040E94BF02A6
:100620000895FC016083118282E082830895FC01B9
:100630008EEF8083118212820895DF92EF92FF92F3
:100640000F931F93082FD62E142FF22EE32E0E9405
:10065000A0028091C80085FFFCCF8FEF8093CE0071
:100660008091C80085FFFCCF8FEF8093CE008091F2
:10067000C80085FFFCCF0093CE004D2D4E5F8091CA
:10068000C80085FFFCCF4093CE008091C80085FF55
:10069000FCCF1093CE00410F400F8F2D9E2D9C015B
:1006A000F90190E00AC020818091C80085FFFCCF4D
:1006B0002093CE00420F9F5F31969D15A0F380914D
:1006C000C80085FFFCCF40954093CE000E94AC024D
:1006D0001F910F91FF90EF90DF900895FF920F937D
:1006E0001F9300E010E007C02F5F3F4F84E02E34DF
:1006F000380741F415C020E030E0E02FF0E0AF0112
:10070000410F511D80911C0490E04817590761F377
:100710003CC0E450FC4F80818F3FC9F10F5FEBCFAD
:100720000E94BF0290E09F5FF92EF00E212F291B3F
:100730004F2D50E0FA01E450FC4F80818F3F99F338
:10074000923008F090E0DA011196FD01E450FC4F80
:1007500070817E5F27139E5F9A0160E007C0F901F8
:10076000E450FC4F8081680F2F5F3F4F822F841B26
:100770008717A8F36F3F09F09C5FA450BC4F9C9370
:100780008F2D1F910F91FF900895112311F21F5F7C
:100790001D3008F4B0CFC4CF880F81500895E82FE2
:1007A000F0E0E133F10550F4EE58FF4FEE0FFF1F7C
:1007B0000590F491E02D099481E0089580E008957A
:1007C00082E0089590E0FC013397EE32F10550F499
:1007D000ED55FF4FEE0FFF1F0590F491E02D0994AA
:1007E00081E0089580E0089582E00895CF93DF933B
:1007F000EC018A81861750F10E946E03282F30E0A9
:10080000F901E450FC4F9081F901E350FC4F608105
:10081000F901E250FC4FA0818881981719F440E05B
:1008200050E002C040E054E0E62FF0E0F695FE2FE5
:10083000EE27F795E7958A2F90E0E82BF92BE42B2C
:10084000F52BC90181509C4F382F04C00E94BF0274
:10085000EFEFFFEF832FBF01DF91CF9108950F934B
:100860001F93DF93CF9300D0CDB7DEB78C016983A0
:100870004A83FC01808162E042E09E012F5F3F4F8E
:100880000E941D03C80161E00E94F6030F900F90C3
:10089000CF91DF911F910F9108950F931F938C01BA
:1008A000FC01808160E041E020E030E00E941D0317
:1008B000C80160E00E94F603CB011F910F910895DB
:1008C000DC01FA01643251F0653218F46E31C9F579
:1008D00005C0663281F06832A1F50DC011968C9189
:1008E000882379F18FEF93E020813181821B930B74
:1008F0009183808308954081518120E030E060E061
:1009000070E084E04030580714F061E070E0119628
:100910008C9190E06817790711F021E030E0220F08
:10092000331F822F8150992787FD909553709C012A
:10093000249FC001259F900D349F900D1124918319
:1009400080830895EF92FF920F931F93DF93CF93CD
:1009500000D000D0CDB7DEB77C01062F862F0E94D5
:10096000CF03182F8EEF9FEF9A8389831123D9F03D
:10097000C701602F412F0E942F04FC017A836983F5
:100980002081113031F0918180E030E0282B392B2B
:1009900001C030E03C832B83C701602FAE014D5F67
:1009A0005F4F0E94600469817A818B819C810F90E6
:1009B0000F900F900F90CF91DF911F910F91FF90AB
:1009C000EF9008952F923F924F925F926F927F9295
:1009D0008F929F92AF92BF92CF92DF92EF92FF924F
:1009E0000F931F93DF93CF93CDB7DEB7862E242EC0
:1009F00039014DB65EB6362E3394439D902C1124AA
:100A000022E0920EEDB7FEB7E919F1090FB6F8949E
:100A1000FEBF0FBEEDBFADB6BEB60894A11CB11CA3
:100A20008183F5016183680112E0EE24FF241DC07B
:100A3000D501A10FB11DF301EE0DFF1D80818C9337
:100A40001F5F9501210F311D1150F60160817181E9
:100A5000C901482D50E00E94C36A130D0894E11C9F
:100A6000F11C22E030E0C20ED31EE21408F38EEF38
:100A7000692D43E895010E941D030E94BF020FB635
:100A8000F8945EBE0FBE4DBECF91DF911F910F91C6
:100A9000FF90EF90DF90CF90BF90AF909F908F909E
:100AA0007F906F905F904F903F902F9008956F923E
:100AB0007F928F929F92AF92BF92CF92DF92EF92EE
:100AC000FF920F931F93DF93CF93CDB7DEB7082F1D
:100AD0005B018DB69EB690E0BC01660F771F660F76
:100AE000771FADB7BEB7A61BB70B0FB6F894BEBF46
:100AF0000FBEADBFEDB6FEB60894E11CF11C880F29
:100B0000991FEDB7FEB7E81BF90B0FB6F894FEBFBF
:100B10000FBEEDBFCDB6DEB60894C11CD11CBA0124
:100B2000A90110E032C0A12FB0E09D01220F331FB8
:100B3000220F331F2E0D3F1DFB018081F9018083A1
:100B4000FB0181919191BF01892F990F990BF901B7
:100B500081833D01660C771CF3013196EE0FFF1F78
:100B6000EE0DFF1DDA018C918083FA018191919144
:100B7000AF01892F990F990BD90113968C936C0CA7
:100B80007D1CF301318320831F5F101760F28EE11B
:100B900064E0402F950186010E94E2040FB6F894AC
:100BA0009EBE0FBE8DBECF91DF911F910F91FF9022
:100BB000EF90DF90CF90BF90AF909F908F907F90FD
:100BC0006F9008959F92AF92BF92CF92DF92EF9273
:100BD000FF920F931F93DF93CF93CDB7DEB76C01D6
:100BE000962E142FADB6BEB6842F90E001964DB769
:100BF0005EB7481B590B0FB6F8945EBF0FBE4DBFD2
:100C0000EDB6FEB60894E11CF11CEDB7FEB76183AA
:100C1000A7014F5F5F4FCA01B901412F50E00E9409
:100C2000C36A612F6F5F002321F0F601808144E0E9
:100C300003C0F601808143E097010E941D03C601B5
:100C400062E00E94F603072F162FF6E1F91530F047
:100C500065E070E080E090E00E94E30C812F902F2F
:100C60000FB6F894BEBE0FBEADBECF91DF911F91FF
:100C70000F91FF90EF90DF90CF90BF90AF909F903B
:100C80000895BF92CF92DF92EF92FF920F931F933E
:100C9000DF93CF9300D0CDB7DEB77C01062F5A8308
:100CA0004983B22ECDB6DEB6862F0E94E203182FFE
:100CB000882319F42EEF3FEF27C0C701602FAE0144
:100CC0004F5F5F4F0E9460048DB79EB7811B9109F3
:100CD0000FB6F8949EBF0FBE8DBFEDB7FEB731962D
:100CE00089819A81ADB7BEB711968C93113021F0EE
:100CF000892F990F990B8183C701602F412F9F0185
:100D00000B2D0E94E2059C01C9010FB6F894DEBECE
:100D10000FBECDBE0F900F90CF91DF911F910F911D
:100D2000FF90EF90DF90CF90BF900895FC01462F89
:100D3000628360E150E020E00E9441060895DA01FC
:100D4000660F660F660F680F6D3028F4693070F417
:100D50006830F1F507C06031E1F06F3159F16F3063
:100D6000B9F511C08C9180932A040895E62FF0E024
:100D7000EE0FFF1FE35BFC4F0190F081E02D8C91A3
:100D800084568083089587ED98E06C910E94CE6030
:100D9000089511962C9111978C9190E09695982F2B
:100DA000882797958795820F911D909330048093A3
:100DB0002F0408958C9180932A0411968C91119799
:100DC000845680932B0412968C91845680932C0425
:100DD0000895662311F08DE201C08EE24C51534F0D
:100DE000BA010E948F4B0895AF92BF92CF92DF92CB
:100DF000EF92FF920F931F93DF93CF93CDB7DEB7A0
:100E00002D970FB6F894DEBF0FBECDBF182FF92E69
:100E10000E947E3C5E010894A11CB11CC50162EFDA
:100E200075E020E032EC41E050E003E0F2E0EF2E2C
:100E3000EFE9CE2EE6E0DE2E0E94C53C212F3F2DAD
:100E4000C901DC01F5018DE001900D928150E1F7BF
:100E50002D960FB6F894DEBF0FBECDBFCF91DF91B8
:100E60001F910F91FF90EF90DF90CF90BF90AF90C8
:100E700008958DE194E00E94F4060895FC017383C7
:100E80006283568345831286118689E080870895A0
:100E9000772767FD7095872F972FFB01B097EF3568
:100EA000F105A0F4EF52FF4FEE0FFF1F0590F491F4
:100EB000E02D099484E0089585E0089582E0089586
:100EC00083E0089587E0089588E0089586E0089516
:100ED000772767FD7095872F972FFB01B097EE3529
:100EE000F10560F4E05DFE4FEE0FFF1F0590F491F9
:100EF000E02D099482E0089581E0089580E008954E
:100F0000FC018085883011F020E006C020E081855A
:100F10009285892B09F421E0822F089510923204E2
:100F2000109231048AE0809339040895EF92FF9281
:100F30000F931F93CF93DF93162FE42E022FF32EE0
:100F400085E360E00E94034D110F110F1E0D812FEC
:100F500080580E94D90C202F3F2DC901EC0110E0D0
:100F600004C089910E94D90C1F5F1E15D0F385E340
:100F700061E00E94034D80E0DF91CF911F910F91BE
:100F8000FF90EF900895DF93CF9300D0CDB7DEB7F9
:100F90006983465F4A8368E142E09E012F5F3F4FCD
:100FA0000E9496070F900F90CF91DF910895CF93F5
:100FB000DF93262F332727FD3095FC01C081D18197
:100FC000FE0101900020E9F73197EC1BFD0B2E1775
:100FD0003F0730F467FD04C0C20FD31F688101C012
:100FE00060E20E94C307DF91CF9108950F93DF93D2
:100FF000CF9300D00F92CDB7DEB7665F6983465FAF
:101000004A83000F020F0B8366E143E09E012F5FCE
:101010003F4F0E9496070F900F900F90CF91DF9156
:101020000F91089560E140E020E030E00E949607D3
:101030000895DF92EF92FF920F931F93CF93DF9368
:10104000EC017A018B0180913C0490913D04A091C8
:101050003E04B0913F049A01AB01281B390B4A0BA7
:101060005B0B8A819B81AA2797FDA095BA2F281731
:1010700039074A075B0708F4CCC0E0923C04F092C1
:101080003D0400933E0410933F0489859A85181609
:10109000190624F401979A878987BBC08F8188231A
:1010A00019F0109240041F828885883021F0893021
:1010B00009F0AFC0A2C0D09040048C81D81AD09261
:1010C00040040D811E81E880F980F701E00FF11FD7
:1010D0003197CE0160810E9448072D2D332727FDCF
:1010E000309590E02817390739F4015010401E83DD
:1010F0000D831092400413C0D7FE11C0C8010196A1
:101100009E838D83E80EF91E0894E108F108CE0154
:10111000F70160810E944807815080934004CE010E
:101120006C8140E020E001E00E94F6078C818F3F57
:10113000C1F1813009F050C00D811E81E881F98133
:10114000E00FF11FCE0160810E946807909140047A
:10115000482F491BCE01602F0E94D707D090400432
:1011600008811981FD808F2D9E81080F191FCE01E6
:10117000F80160810E944807E82E8D2D992787FD90
:1011800090958E0D911D07973CF5CE01F801618178
:101190000E946807F394482F4E194D19CE016F2D08
:1011A00019C0ED80FE80E881F981EE0DFF1D3197B9
:1011B0000081CE01602F0E946807182FCE01602F9A
:1011C0000E944807EA94180F80914004181BCE0132
:1011D0006E2D412F0E94D7078D819E81A881B981F4
:1011E000FD0101900020E9F73197EA1BFB0B8E17F8
:1011F0009F0768F497FF0DC00AC0CE010E94120835
:101200008D819E8101979E838D83892B11F48AE0C5
:101210008887DF91CF911F910F91FF90EF90DF9022
:101220000895DF93CF930F92CDB7DEB7660F660FA9
:10123000660F640F698368E041E09E012F5F3F4FB6
:101240000E9496070F90CF91DF910895DF93CF937F
:1012500000D00F92CDB7DEB769834A832B8363E05A
:1012600043E09E012F5F3F4F0E9496070F900F9023
:101270000F90CF91DF9108959F92AF92BF92CF923E
:10128000DF92EF92FF920F931F93CF93DF93EC01C6
:10129000162F972E6A01590188819981009711F0C4
:1012A0000E942169E12FF92DDF010D900020E9F75F
:1012B000CD018E1B9F0B0E94746888839983612FD8
:1012C000792D0E94D76ADB82CA82BA86A9860C83EE
:1012D000FE82ED8288E0888781E08F83DF91CF9165
:1012E0001F910F91FF90EF90DF90CF90BF90AF9044
:1012F0009F9008950F931F93DF93CF93CDB7DEB7E1
:1013000064970FB6F894DEBF0FBECDBF8C01DC0131
:1013100014962D913C91159784E1489FA0011124CA
:10132000DE011196F901E40FF51F01900D92815035
:10133000E1F784E1689FB0011124FA01E20FF31F85
:10134000D901A60FB71F0D9001928150E1F7D80186
:101350001496ED91FC911597E60FF71FDE0111969B
:1013600084E10D9001928150E1F764960FB6F894F4
:10137000DEBF0FBECDBFCF91DF911F910F910895BA
:10138000FC01262F868190E06085820F911D70E020
:101390000E944E6B0895CF92DF92EF92FF920F93CF
:1013A0001F93D82EC92E8B01DB011696EC90CB0132
:1013B00061E00E94C009F80186838781815087839C
:1013C000FF2484E190E09C01E29EC001E39E900D29
:1013D000F29E900D11240480F581E02DE80FF91F95
:1013E0002D2D3C2DC901DC01349680E101900D9238
:1013F0008150E1F78D2D9C2D1F910F91FF90EF9063
:10140000DF90CF9008956F927F928F929F92AF92CC
:10141000BF92CF92DF92EF92FF920F931F93DF93D1
:10142000CF93CDB7DEB760970FB6F894DEBF0FBE8F
:10143000CDBF3C0189829A82AB82BC82CD82DE82A2
:10144000EF82F88609871A872B873C874D875E874E
:101450006F87788BDC0117966C91179718968C9193
:10146000681710F080E077C0809170008E7F8093C5
:101470007000C3010E94C009F82E24E1829F9001F0
:101480001124F30140815181628173810480F581CF
:10149000E02D89A19AA1AA2797FDA095BA2F840FC4
:1014A000951FA61FB71FE20FF31F81939193A1937E
:1014B000B193DE01119680E10D9001928150E1F728
:1014C000D30117960C910023C9F184E1C82ED12CC9
:1014D0000150C301602F0E94C009182FF301A4819D
:1014E000B5818F2D90E08C9DF0018D9DF00D9C9D20
:1014F000F00D1124EA0FFB1F812F90E09C012C9D21
:10150000C0012D9D900D3C9D900D1124A80FB91F79
:1015100020813181428153818D919D910D90BC91AB
:10152000A02D281739074A075B0740F4C3016F2D28
:10153000412F0E947A09F12E002351F6D30117960C
:101540008C9117978F5F17968C93809170008160B4
:101550008093700081E060960FB6F894DEBF0FBEF6
:10156000CDBFCF91DF911F910F91FF90EF90DF9052
:10157000CF90BF90AF909F908F907F906F90089585
:101580007F928F929F92AF92BF92CF92DF92EF9213
:10159000FF920F931F93CF93DF937C014A015B016E
:1015A000DC011796CC9001E010E002C0000F111F83
:1015B0002A95E2F7CFEFDFEFDD2494E1792E21C009
:1015C000C7016D2D0E94C009282F879DC0011124DD
:1015D000D7011496ED91FC911597E80FF91F8081C2
:1015E0009181A281B38188169906AA06BB0658F09C
:1015F000848190E080239123892B11F0C22FD0E0C9
:10160000D394DC14E8F2CE01DF91CF911F910F91BA
:10161000FF90EF90DF90CF90BF90AF909F908F9012
:101620007F9008955F926F927F928F929F92AF9278
:10163000BF92CF92DF92EF92FF920F931F93CF93BF
:10164000DF93982E892EEB01542E89018091700032
:101650008E7F80937000292D392FC901DC01E9E6C6
:10166000F3E08CE001900D928150E1F7888199813F
:10167000AA81BB81A801662757FD6095762F480F88
:10168000591F6A1F7B1FE4E16E2E712CCE01252DA0
:101690000E94C00A2FEF8F3F920759F1869D50019B
:1016A000879DB00C969DB00C1124EC81FD81EA0D54
:1016B000FB1D892D982DC580D680E780F08401859B
:1016C00012852385348545855685678570890E94F6
:1016D000CD42EC81FD81EA0DFB1D4081518162818B
:1016E00073818389882311F54150504060407040D8
:1016F000CDCF852D90E0FC01EE0FFF1FE80FF91F05
:10170000EE0FFF1FEE0FFF1FE756F94F892D982DA3
:10171000C080D180E280F3800481158126813781E9
:1017200040855185628573850E94CD42809170000D
:10173000816080937000892D982DDF91CF911F914A
:101740000F91FF90EF90DF90CF90BF90AF909F9060
:101750008F907F906F905F9008952F923F924F925D
:101760005F926F927F928F929F92AF92BF92CF9231
:10177000DF92EF92FF920F931F93DF93CF93CDB73A
:10178000DEB760970FB6F894DEBF0FBECDBF3C0149
:101790009924F4E12F2E312C2E010894411C511C68
:1017A00017C0C201B3010E94CB09AE84BF848981F6
:1017B000CA80DB80EC80FD800E811F812885398501
:1017C0004A855B856C857D8588880E94E2159394A7
:1017D000D30117968C91882329F42FEF3FEF4FEF19
:1017E0005FEF14C0F301868190E09C01229DC0014F
:1017F000239D900D329D900D11240480F581E02DE4
:10180000E80FF91F2081318142815381F3018081EA
:101810009181A281B38182179307A407B50708F6C7
:10182000992019F00E94E510982EF3018081918192
:10183000A281B3810196A11DB11D80839183A283F2
:10184000B383892D60960FB6F894DEBF0FBECDBF6F
:10185000CF91DF911F910F91FF90EF90DF90CF908C
:10186000BF90AF909F908F907F906F905F904F90C0
:101870003F902F9008950F931F938C01FC01608778
:1018800084E1689FC00111240E947468F801848378
:1018900095831682178210821182128213821F9101
:1018A0000F91089581E494E060E80E943B0C089554
:1018B000789484B5826084BD84B5816084BD85B52B
:1018C000826085BD85B5816085BDEEE6F0E08081F2
:1018D00081608083E1E8F0E0108280818260808313
:1018E000808181608083E0E8F0E080818160808396
:1018F00020E730E0F90180818E7F8083E0EBF0E02B
:1019000080818C7F8083A1EBB0E08C91877F8C936A
:10191000E6EBF0E080818F7D8083F90180818D7F0F
:1019200080838C9187608C93808181608083E1E9E2
:10193000F0E0808182608083808181608083E0E943
:10194000F0E0808181608083E1EAF0E08081826064
:101950008083808181608083E0EAF0E08081816023
:101960008083E0E2F1E080818260808380818E7FED
:101970008083E1E2F1E080818A61808380818A7FD7
:10198000808380E49CE99093270180932601109244
:10199000C1000895EAE7F0E080818460808380815F
:1019A0008260808380818160808380818068808381
:1019B00008958EBD0DB407FEFDCF8EE090E0019737
:1019C000F1F78EB50895EF92FF920F931F937B016D
:1019D0008C018FB7F89440914E0450914F04609160
:1019E0005004709151048FBF2FB7F89480914E042A
:1019F00090914F04A0915004B09151042FBF841BCB
:101A0000950BA60BB70B8E159F05A007B10760F3CA
:101A10001F910F91FF90EF9008951F920F920FB6B4
:101A20000F920BB60F9211242F933F934F935F9316
:101A30006F937F938F939F93AF93BF93EF93FF9396
:101A400088EC8093B20081E494E00E94AD0BFF919A
:101A5000EF91BF91AF919F918F917F916F915F9126
:101A60004F913F912F910F900BBE0F900FBE0F9093
:101A70001F9018951F920F920FB60F920BB60F92F0
:101A80001124DF92EF92FF920F931F932F933F93B6
:101A90004F935F936F937F938F939F93AF93BF9376
:101AA000EF93FF93E0904E04F0904F0400915004A8
:101AB00010915104809152040894E11CF11C011D05
:101AC000111D43E0D42ED80E9CE79D1540F436E856
:101AD000D32ED80E0894E11CF11C011D111D80911C
:101AE000670380FF06C085E097E0B801A7010E9468
:101AF00034228091670381FF06C081E394E0B8013E
:101B0000A7010E9419088091670382FF04C08DE13C
:101B100094E00E94A93CD0925204E0924E04F092CC
:101B20004F04009350041093510480914A04909103
:101B30004B04A0914C04B0914D040196A11DB11D20
:101B400080934A0490934B04A0934C04B0934D04AB
:101B5000FF91EF91BF91AF919F918F917F916F9185
:101B60005F914F913F912F911F910F91FF90EF90B7
:101B7000DF900F900BBE0F900FBE0F901F90189527
:101B800084E361E00E946A4C83E361E00E946A4C56
:101B900085E361E00E946A4C84E360E00E94034DAB
:101BA00083E360E00E94034D85E361E00E94034D02
:101BB0008CB580618CBD8CB580648CBD08951F92FE
:101BC0000F920FB60F920BB60F9211242F933F93E3
:101BD0004F938F939F93EF93FF934091C600E091B3
:101BE000D304F091D40431969F012F773070319750
:101BF0008091D5049091D6042817390739F0ED5A11
:101C0000FB4F40833093D4042093D304FF91EF9192
:101C10009F918F914F913F912F910F900BBE0F90FD
:101C20000FBE0F901F9018951F920F920FB60F9234
:101C30000BB60F9211242F933F934F938F939F9343
:101C4000EF93FF934091D600E0915705F09158052E
:101C500031969F012F77307031978091590590917F
:101C60005A052817390739F0E952FB4F4083309362
:101C7000580520935705FF91EF919F918F914F91B8
:101C80003F912F910F900BBE0F900FBE0F901F90A2
:101C900018951F920F920FB60F920BB60F92112448
:101CA0002F933F934F938F939F93EF93FF93409185
:101CB0003601E091DB05F091DC0531969F012F772D
:101CC000307031978091DD059091DE052817390736
:101CD00039F0E55AFA4F40833093DC052093DB0559
:101CE000FF91EF919F918F914F913F912F910F9085
:101CF0000BBE0F900FBE0F901F901895CF93DF93E0
:101D0000EC019A01AB01E885F985203081EE3807B6
:101D100080E0480780E0580709F445C081E090E082
:101D20000A8802C0880F991F0A94E2F7808360E056
:101D300079E08DE390E00E94616B2150304040409B
:101D400050405695479537952795EC81FD81308316
:101D5000EE81FF812083EA85FB85208141E050E010
:101D6000CA010E8402C0880F991F0A94E2F7282B3B
:101D70002083EA85FB852081CA010F8402C0880F79
:101D8000991F0A94E2F7282B2083EA85FB8580813E
:101D9000088802C0440F551F0A94E2F7842B808301
:101DA000DF91CF910895108220E130E0CECFDC01A9
:101DB0001296ED91FC911397E058FF4F21913191CC
:101DC00080819181281B390B2F773070C9010895CC
:101DD000DC011296ED91FC911397DF01AE57BF4FD6
:101DE0002D913C911197E058FF4F80819181E058EF
:101DF000F0408217930719F42FEF3FEF0BC0E20F6B
:101E0000F31F80812F5F3F4F2F7730702D933C93CE
:101E1000282F30E0C9010895FC01A085B1852189F2
:101E20008C9190E0022E02C0959587950A94E2F776
:101E300080FFF6CF0484F585E02D6083089529E7BF
:101E400033E03093E0052093DF0583E594E0909341
:101E5000E2058093E10585EC90E09093E4058093A2
:101E6000E30584EC90E09093E6058093E50580EC33
:101E700090E09093E8058093E70581EC90E09093E3
:101E8000EA058093E90586EC90E09093EC05809359
:101E9000EB05E4E0E093ED0573E07093EE0567E099
:101EA0006093EF0555E05093F00541E04093F10554
:101EB0003093F3052093F20587ED94E09093F505B8
:101EC0008093F40585ED90E09093F7058093F605F7
:101ED00084ED90E09093F9058093F80580ED90E013
:101EE0009093FB058093FA0581ED90E09093FD05BA
:101EF0008093FC0586ED90E09093FF058093FE05AE
:101F0000E093000670930106609302065093030667
:101F10004093040630930606209305068BE595E072
:101F2000909308068093070685E391E090930A0654
:101F30008093090684E391E090930C0680930B064E
:101F400080E391E090930E0680930D0681E391E08B
:101F50009093100680930F0686E391E0909312060B
:101F600080931106E0931306709314066093150690
:101F700050931606409317060895EF92FF920F9321
:101F80000E94580C0E94C00D81E394E062E04CE195
:101F90002FE10E9426090E949C130E94CA0C80E037
:101FA0000E945B4B0E94F13D8DE194E060E040E0D7
:101FB00050E00E94E9068DE194E061E040E951E0E3
:101FC0000E94E90681E394E06CE370E04AE050E0AF
:101FD0000E943E076CEB72E080E090E00E94E30C10
:101FE00081E394E060E072E04BE450E020E030E018
:101FF00001E0EE24EA94FE2C0E943C0985E097E083
:102000000E94BA1A64EC79E080E090E00E94E30C50
:102010008FED95E040E052EC61E070E00E947E0EB2
:102020006DE070E080E090E00E94E30CF9CFCF9388
:10203000DF93C8E1D6E0CE010E941703CE010396DC
:102040000E941703CE0106960E941703299686E088
:10205000CE34D80781F78EE496E00E941703DF9113
:10206000CF9108950F931F93182F092FCB01BA0119
:102070000E944C4DBC01812F902F0E94C84D812F92
:10208000902F1F910F9108950F931F93CF93DF937C
:10209000082F162F83E0689FE001112489E0089F34
:1020A000C0011124C80FD91FC85ED94FCE0161E00D
:1020B0000E949606CE016EE04FEF53E020E00E94B2
:1020C0004106CE016BE04BE450E020E00E94410667
:1020D000CE016CE045E550E020E00E944106CE01D3
:1020E0006DE04DE750E020E00E944106CE0165E042
:1020F00042E350E020E00E944106CE016AE141E067
:1021000050E020E00E944106CE016BE141E050E04A
:1021100020E00E9441061123A9F0113099F4033008
:1021200060F4CE016CE140E450E020E00E94410602
:10213000CE016DE140E850E010C0CE016CE140E816
:1021400050E004C0CE016CE140E450E020E00E9489
:102150004106CE016DE140E450E020E00E944106DE
:10216000CE0160E340E250E020E00E9441060330EF
:1021700070F4113029F4CE0166E047EC50E014C051
:102180001230A9F4CE0166E043E451E00DC01130F5
:1021900029F4CE0168E04BE353E006C0123039F475
:1021A000CE0168E04AEB52E020E00E94410668E27E
:1021B00070E080E090E00E94E30CCE010E944D04AC
:1021C000DF91CF911F910F9108952F923F924F92DF
:1021D0005F926F927F928F929F92AF92BF92CF92B7
:1021E000DF92EF92FF920F931F93DF93CF93CDB7C0
:1021F000DEB7C056D0400FB6F894DEBF0FBECDBFDD
:1022000027EE36E06F963FAF2EAF6F973324AA24A8
:10221000BB24B1C0D6010D911C91F4018081918144
:10222000081B190B09F487C0232D30E0A1963FAF9E
:102230002EAFA197E1E0F0E0EC0FFD1FE20FF31FDE
:10224000D2018C91808380E0B2E0BA1508F481E07D
:102250000E94CC03282EF4010190F081E02D6D96B0
:10226000FFAFEEAF6D97980117FF03C03095219532
:102270003F4FB901882777FD8095982F0E94A2656E
:1022800029E53CE44BED52E40E94A0677B018C0100
:10229000D3016D917C91882777FD8095982F0E94BE
:1022A000A2659B01AC01C801B7010E94D6647B0105
:1022B0008C0120E030E040E85FE30E94CF64882397
:1022C0001CF461E070E011C0C801B70120E030ECFF
:1022D0004FE754E40E94CB6618161CF46FEF73E0CE
:1022E00004C0C801B7010E946F65A196EEADFFADB5
:1022F000A197EE0FFF1F21E030E02C0F3D1FE20FF2
:10230000F31F822D992787FD9095AC016D96AEAD98
:10231000BFAD6D974A9FC0014B9F900D5A9F900D86
:1023200011248A5F9D4F938B828B77AB66AB33947E
:10233000F601B183A08322E030E0C20ED31E820EEC
:10234000931E0894411C511C620E731E6F964EAD75
:102350005FAD6F97C416D50609F05CCF0894A11C39
:10236000B11CC60106966F969FAF8EAF6F9796E031
:10237000A916B10409F1C501880F991F8A0D9B1D8B
:102380009C01220F331FE1EECE2EE6E0DE2EC20EC0
:10239000D31E71E5872E76E0972E820E931E6FE78F
:1023A000462E63E0562E480E591E55E7652E56E020
:1023B000752E620E731E2ECF832DBE016F5F7F4F71
:1023C000AE014D5E5F4F9E01295C3F4F0E94570555
:1023D000832DC05ADF4F0FB6F894DEBF0FBECDBFBE
:1023E000CF91DF911F910F91FF90EF90DF90CF90F1
:1023F000BF90AF909F908F907F906F905F904F9025
:102400003F902F9008952F923F924F925F926F923C
:102410007F928F929F92AF92BF92CF92DF92EF9274
:10242000FF920F931F93DF93CF93CDB7DEB76297E1
:102430000FB6F894DEBF0FBECDBF9E878D877B01A0
:102440008E010F5F1F4F8DE0C82ED12CCC0EDD1EEC
:10245000F701619171917F01882777FD8095982F11
:102460000E94A2652BED3FE049E450E40E94A06782
:1024700020E030E849E154E40E94D664F801619319
:102480007193819391938F01EC15FD0509F769858F
:102490007A858B859C852BED3FE049EC5FE30E94BC
:1024A00042640E94D36427E431EE4FE353EC0E9470
:1024B000A06728E431E24CE453E40E9443647B01CA
:1024C0008C010E940D683B014C01C801B7012DEC45
:1024D0003CE44BE852E40E9442647B018C01C4015D
:1024E000B30123E333E343E851E40E94A0679B0177
:1024F000AC01C801B7010E94D6640E9434649B01FC
:10250000AC016D817E818F8198850E9442647B0140
:102510008C01C8010E94D3649B01AC01C401B301CA
:102520000E94A06720E030E040EA50E40E9443644B
:102530006F87788B898B9A8BA980BA80CB80DC805F
:10254000C601B5010E94D3641B012C01B701C8016B
:102550000E9403687B018C01C601B5010E940368DB
:102560005B016C016F85788989899A89A201910143
:102570000E94A067ED85FE856083718382839383CB
:10258000C401B301A80197010E94A067ED85FE85F3
:1025900064837583868397836F85788989899A890F
:1025A000A60195010E94A067ED85FE856087718771
:1025B00082879387CF0162960FB6F894DEBF0FBE75
:1025C000CDBFCF91DF911F910F91FF90EF90DF90E2
:1025D000CF90BF90AF909F908F907F906F905F90C3
:1025E0004F903F902F9008954F925F926F927F92FD
:1025F0008F929F92AF92BF92CF92DF92EF92FF9213
:102600000F931F93DF93CF93CDB7DEB762970FB6CB
:10261000F894DEBF0FBECDBF2C01662E80917000F6
:102620008E7F809370006E010894C11CD11C00E065
:1026300010E089E0689F40011124C801880F991FAC
:10264000800F911F880D991D885E994F64E20E944A
:10265000A204AC019AEFE92E9DEFF92EE40EF51ECF
:10266000AA2422E0261510F4AA24A3948A2D0E94FD
:10267000CC03992787FD9095FC01EE9DC001EF9D4D
:10268000900DFE9D900D1124F601819391936F01A1
:102690000F5F1F4F0330110581F68091700081603C
:1026A00080937000CE010796BE016F5F7F4F0E943E
:1026B0000312EF80F88409851A858A2D0E94CC03C5
:1026C000AB84BC84CD84DE846F84788889889A88C2
:1026D000992787FD9095A92FB92FBC01CD010E94A4
:1026E000A2659B01AC01C801B7010E94A067F2017D
:1026F0006083718382839383A482B582C682D782EA
:102700006086718682869386C20162960FB6F894BF
:10271000DEBF0FBECDBFCF91DF911F910F91FF9014
:10272000EF90DF90CF90BF90AF909F908F907F9071
:102730006F905F904F9008952F923F924F925F92CB
:102740006F927F928F929F92AF92BF92CF92DF92C1
:10275000EF92FF920F931F93DF93CF93CDB7DEB726
:10276000E9970FB6F894DEBF0FBECDBF60E472E408
:102770008FE090E00E94F202CC24DD2486E0882ED7
:10278000D0C0A22CCE010196F70160810E941103F6
:10279000D801FE01319683E001900D928150E1F75E
:1027A000842D6A2D0E944410892B09F479C081E39D
:1027B00094E062E041E328E30E94260900E1402E14
:1027C000512C4C0E5D1EC20168E272E00E94E34D86
:1027D0001AE0612E712C6C0E7D1EC301B6014AE019
:1027E00050E00E940B4EB6E18B2E912C8C0E9D1E5C
:1027F000C401B201A3010E943210ACE1AA2EB12C97
:10280000AC0EBD1EC50164E372E00E94E34DF2E22E
:10281000CF2ED12CCC0EDD1EC601B401A5010E9425
:1028200032108E01085D1F4FC801B1014AE050E02F
:102830000E940B4EE4E0EE2EF12CEC0EFD1EC701C3
:10284000B601A8010E943210C8010E943C4DC60189
:102850000E943C4DC5010E943C4DC4010E943C4D6C
:10286000C3010E943C4DC2010E943C4DDE2C1F2D35
:102870008D2D912F0E94384DBC0181E394E046E4F8
:1028800050E020E030E001E0EE24EA94FE2C0E94CB
:102890003C0964EF7AE180E090E00E94E30CE8CF2D
:1028A000C101880F991F820D931D860D971D885EAB
:1028B000994F68E141E050E020E00E944106F3E0DA
:1028C000AF0E81E394E06A2D482D0E94110908940F
:1028D000211C311C0894E11CF11C0D5F1F4F83E08B
:1028E0002816310409F04DCF8601000F111F0C0D81
:1028F0001D1D000F111F000F111F0756194FCE018C
:102900008E96642D0E94F412D801FE01BE968CE0D2
:1029100001900D928150E1F70894C11CD11C8A945A
:10292000C9F04C2C7601EE0CFF1CEC0CFD1CEFE703
:10293000F3E0EE0EFF1EC60133E0880F991F3A95B3
:10294000E1F78C0D9D1D8C01085E194F2224332464
:102950003C0117CFE9960FB6F894DEBF0FBECDBF8E
:10296000CF91DF911F910F91FF90EF90DF90CF906B
:10297000BF90AF909F908F907F906F905F904F909F
:102980003F902F9008952F923F924F925F926F92B7
:102990007F928F929F92AF92BF92CF92DF92EF92EF
:1029A000FF920F931F93DF93CF93CDB7DEB76E9750
:1029B0000FB6F894DEBF0FBECDBFEF82F886098751
:1029C0001A872B873C874D875E876F87788B898B2B
:1029D0009A8BEF80F88409851A85AF84B888C988F6
:1029E000DA888B859C85AD85BE858B8B9C8BAD8B6A
:1029F000BE8BC801B70120E030E040E050E00E940B
:102A0000CB6687FF04C017FB109517F91095C60118
:102A1000B501A80197010E94D86620E030E040EAA5
:102A200050E40E9442643B014C01C601B501A8017B
:102A300097010E94D6640E94A7646F8B788F898F5C
:102A40009A8FC401B301A40193010E94A0671B01E6
:102A50002C016B897C898D899E899B01AC010E9428
:102A6000A0676B8F7C8F8D8F9E8FC201B1012B8DE4
:102A70003C8D4D8D5E8D0E9443647B018C010E94D4
:102A80000D685B016C01C801B7012DEC3CE44BE81B
:102A900052E40E9442647B018C01C601B50123E32C
:102AA00033E343E851E40E94A0679B01AC01C801F5
:102AB000B7010E94D6640E9434645B016C016B898B
:102AC0007C898D899E89A40193010E94D6640E940D
:102AD000A7647B018C0168E471E28CE493E4A201B9
:102AE00091010E9442642B8D3C8D4D8D5E8D0E9424
:102AF000426427E431EE4FE353E40E94D6640E941F
:102B0000346420E030E849E154E40E94A0672BEDF2
:102B10003FE049E450EC0E94D66420E030E849E907
:102B200053E40E9443640E946F657E836D83C601F7
:102B3000B501A80197010E94436420E030E849E113
:102B400054E40E94A0672BED3FE049E450E40E946A
:102B5000D6640E946F657C836B836F89788D898DC5
:102B60009A8D20E030E849E154E40E94A0672BED03
:102B70003FE049E450E40E94D6640E946F657A8386
:102B8000698329813A814B815C816D817E8180E0FE
:102B900090E06E960FB6F894DEBF0FBECDBFCF911A
:102BA000DF911F910F91FF90EF90DF90CF90BF903A
:102BB000AF909F908F907F906F905F904F903F90DD
:102BC0002F9008952F923F924F925F926F927F9233
:102BD0008F929F92AF92BF92CF92DF92EF92FF922D
:102BE0000F931F93DF93CF93CDB7DEB76E970FB6DA
:102BF000F894DEBF0FBECDBF898FCF82D886E9861D
:102C0000FA860B871C872D873E874F87588B698BE9
:102C10007A8BBB8EAA8E8C8E8820E1F07601098596
:102C20001A852B853C854D855E856F8578898989D8
:102C30009A890E94C3142B8B3C8B4D8B5E8B6F8BC0
:102C4000788FDE011196FE01739686E001900D9259
:102C50008150E1F751E5452E56E0552E45E7642EAB
:102C600046E0742E39E9232E36E0332E8824992449
:102C7000398D232F30E03E8F2D8F8D8D9E8D082C2A
:102C800002C0959587950A94E2F780FF60C08C8D0D
:102C9000882349F0D101FE0137968CE001900D9216
:102CA0008150E1F73AC05401AA0CBB1CA80CB91C16
:102CB000AA0CBB1CAA0CBB1CE9E9F6E0AE0EBF1EB9
:102CC000C501CF80D884E984FA840B851C852D85C5
:102CD0003E854F85588969897A890E94CD42F501E0
:102CE000E080F18002811381248135814681578102
:102CF00060857185828593850E94C3142B8B3C8BE4
:102D00004D8B5E8B6F8B788FDE011196FE01739673
:102D100086E001900D928150E1F78B819C814D817D
:102D20005E8129813A81F201318320832A8D3B8D96
:102D3000F30131832083F20193838283F301338390
:102D40002283F20155834483F3013583248308945D
:102D5000811C911C26E030E0420E531E620E731E51
:102D60008CE090E0280E391E96E08916910409F057
:102D700084CF6E960FB6F894DEBF0FBECDBFCF9155
:102D8000DF911F910F91FF90EF90DF90CF90BF9058
:102D9000AF909F908F907F906F905F904F903F90FB
:102DA0002F9008959C012C5F3F4FC9010895FC01AD
:102DB000E853FE4F108208956C31710514F462E0FF
:102DC0000AC06435710514F065E005C0CB016EE002
:102DD00070E00E944E6B862F0895AF92BF92CF9203
:102DE000DF92EF92FF920F931F935801690150E019
:102DF000CB01489FB001499F700D589F700D112461
:102E0000882777FD8095982F0E94A2657B018C0111
:102E1000C601B50120E030E040E251E40E94D664F2
:102E20009B01AC01C801B7010E94A06720E030E01F
:102E300040E651E40E94D6647B018C0120E030E042
:102E400040E050E40E94CF64882314F482E011C073
:102E5000C801B70120E030E040E251E40E94CB66B7
:102E6000181614F48AE005C0C801B7010E94746501
:102E7000862F1F910F91FF90EF90DF90CF90BF9022
:102E8000AF9008950F931F93CF93DF93EC01FC0154
:102E9000EE59FF4F10811F3F49F11F5F1083C4534C
:102EA000DE4F612F70E0882777FD8095982F0E9474
:102EB000A26520E030E040E850E40E94A0670E9454
:102EC0006F6579836883C556D14068817981C7561B
:102ED000D040CE01412F00E010E020E231E40E941A
:102EE000ED16C259DF4F8883CE56D040CE59DF4F02
:102EF0008881DF91CF911F910F9108950F931F93B8
:102F0000CF93DF93EC01FC01EE59FF4F108112309B
:102F100048F111501083C453DE4F612F70E08827B1
:102F200077FD8095982F0E94A26520E030E040E870
:102F300050E40E94A0670E946F6579836883C5563C
:102F4000D14068817981C756D040CE01412F00E041
:102F500010E020E231E40E94ED16C259DF4F888371
:102F6000CE56D040CE59DF4F8881DF91CF911F914F
:102F70000F910895CF92DF92EF92FF920F931F93DC
:102F8000CF93DF93EC0184E5C82ED12CCC0EDD1E4F
:102F9000F601E080F18002811381C801B70120E0D1
:102FA00030E040E050E00E94CF648823E9F0B801AF
:102FB000A7017058CE0184519F4F0E94E949C85122
:102FC000DF4FF6016081718182819381288139818F
:102FD0004A815B810E94A067AB01BC016496CE016F
:102FE000CC5FD0400E94E94920E0AE01405A5F4FDB
:102FF000DE01A959BF4F0AC0FE01E20FF11DE25FD9
:10300000FE4F80819C91890F80832F5FFA01808120
:10301000281790F3C759DF4F1882C956D040FE01D8
:10302000E653FE4FCD59DF4F6881798180819181D0
:103030000E943A6B91838083DF91CF911F910F9112
:10304000FF90EF90DF90CF900895DC011496E9E9AE
:10305000F6E088E401900D928150E1F70895DC01DB
:103060001496FB0188E401900D928150E1F70895D8
:103070002F923F924F925F926F927F928F929F9288
:10308000AF92BF92CF92DF92EF92FF920F931F9376
:10309000DF93CF93CDB7DEB76A970FB6F894DEBF54
:1030A0000FBECDBF2C0120E630E0420E531ED201F0
:1030B0008C9190E0E3E0F0E04E0E5F1ED2012D9186
:1030C0003C91EEEFFFEF4E0E5F1ED2016C91FC01C2
:1030D000E29FC001E39F900DF29F900D112470E0DC
:1030E0000E944E6B882777FD8095982F0E94A265DD
:1030F0007B018C0123E830E0420E531ED2016D9318
:103100007D938D939C931397ECE1FFEF4E0E5F1E22
:1031100078EEA72EB12CA40CB51C27E630E0420EA9
:10312000531ED2016D917C91E9E9FFEF4E0E5F1EB7
:10313000882777FD8095982F0E94A2659B01AC019E
:10314000C801B7010E94426420E030E040E05FE344
:103150000E94A067D5016D937D938D939C931397E7
:1031600064E5C62ED12CC40CD51CF601E080F1809C
:1031700002811381C801B70120E030E040E050E057
:103180000E94CF64882309F1B801A7017058C201D9
:1031900084519F4F0E94E9492CEF30E0420E531EAC
:1031A000D6016D917D918D919C91F50120813181A8
:1031B000428153810E94A067AB01BC01C20124E09F
:1031C0003FEF420E531E0E94E94990E09201205ABF
:1031D0003F4FD201A959BF4F08C0F201E90FF11DBD
:1031E000E25FFE4F8C9180839F5FF90160819617AB
:1031F000A0F3F201E45FFE4F808190E070E00E9456
:103200003A6B808329E630E0420E531ED2018C9146
:10321000E7E9FFEF4E0E5F1E9201245A3E4F8823CE
:1032200009F498C0D901E9E9F6E088E401900D922B
:103230008150E1F7B2016C5F7F4FC9010E9480436A
:103240002224332492012C513F4F3A8F298F4DB7BE
:103250005EB74C5050400FB6F8945EBF0FBE4DBFE6
:10326000C101880F991F820D931DFC013196EE0F4D
:10327000FF1FEE0FFF1FE40DF51DAC01440F551F9E
:10328000440F551F440D551D2DB73EB72F5F3F4FBF
:10329000445A5E4F8CE0DA010D90AD01D9010D92D8
:1032A0009D018150C1F7CE010196C080D180E2809E
:1032B000F38004811581268137814085518562859F
:1032C00073850E943A3F3101660C771C620C731CB7
:1032D000660C771C660C771C640C751CE4E1F1E04D
:1032E0006E0E7F1E2DB73EB7245F3F4F0FB6F8948A
:1032F0003EBF0FBE2DBF60E070E080E09FE3A98D70
:10330000BA8D2D913D914D915C910E94D6644B01F7
:103310005C01CE010D96C980DA80EB80FC800D81C6
:103320001E812F81388549855A856B857C850E9451
:10333000FD3FD301FE013D968CE001900D9281503E
:10334000E1F70894211C311CB6E02B16310409F07A
:103350007ECF08C0D901F201349688E401900D9225
:103360008150E1F7820104531E4FE2E6F0E04E0E79
:103370005F1ED2016C91EEE9FFEF4E0E5F1E70E012
:10338000882777FD8095982F0E94A26520E030E085
:1033900040E850E40E94A0670E946F65D8016D93D9
:1033A0007C93F201E45FFE4F21E630E0420E531EB3
:1033B000D2016C91808190E070E00E943A6BE4E071
:1033C000F0E04E0E5F1ED2012D913C91FC01E29F78
:1033D000C001E39F900DF29F900D112425E631E08E
:1033E000420E531ED2018D939C93EEEFFFEF4E0ED3
:1033F0005F1E81E0D2018C936A960FB6F894DEBF0F
:103400000FBECDBFCF91DF911F910F91FF90EF9035
:10341000DF90CF90BF90AF909F908F907F906F90F4
:103420005F904F903F902F9008956F927F928F9270
:103430009F92AF92BF92CF92DF92EF92FF920F9343
:103440001F93DF93CF93CDB7DEB728970FB6F894CD
:10345000DEBF0FBECDBF3C0109831A832B833C83A3
:103460004D835E836F837887198DDC01A45BBF4F2A
:10347000FE01319688E001900D928150E1F724E53C
:1034800030E0620E731EF301C192D192E192F1928B
:103490003F01B182A08228EA3FEF620E731E9301C2
:1034A000265A3F4FC901B401412F50E00E94C36A20
:1034B00080E690E0680E791EF30111938A8D819366
:1034C0008B8D81938C8D9D8D819391938E8D9F8D0E
:1034D000819391933F0188A199A19183808323E0F7
:1034E00030E0620E731E8AA19BA1ACA1BDA1F301C5
:1034F00081939193A193B1933F018EA180832BEF90
:103500003FEF620E731E8FA1F30180832FE531E040
:10351000620E731EF301808128E33EEF620E731E7C
:10352000882361F089EC91E0680E791EF3018081B7
:1035300027E33EEF620E731E882321F0C3010E9431
:10354000381803C0C3010E94BA1728960FB6F89422
:10355000DEBF0FBECDBFCF91DF911F910F91FF90C6
:10356000EF90DF90CF90BF90AF909F908F907F9023
:103570006F9008958F929F92AF92BF92CF92DF92F9
:10358000EF92FF920F931F93DF93CF93CDB7DEB7E8
:103590002E970FB6F894DEBF0FBECDBF9C01DE01A3
:1035A0001796E7E9F3E088E001900D928150E1F78A
:1035B000DE011196E1E9F3E086E001900D92815081
:1035C000E1F78DB79EB70F970FB6F8949EBF0FBE69
:1035D0008DBFEDB7FEB7319686E0ADB7BEB7119699
:1035E0008C9381E0818382838FE090E09483838356
:1035F000968385838CE390E09087878380E090E0DA
:10360000A0E2B1E481879287A387B48787E08587AA
:103610001686C9010F81188529853A854B855C85F9
:103620006D857E850F2EF0E0CF2EF0E0DF2EF0E0EE
:10363000EF2EF0E0FF2EF02DEAE5AE2EB12C4E017C
:103640000894811C911C0E94151A8DB79EB70F9685
:103650000FB6F8949EBF0FBE8DBF2E960FB6F8948E
:10366000DEBF0FBECDBFCF91DF911F910F91FF90B5
:10367000EF90DF90CF90BF90AF909F908F90089584
:103680000F931F938C010E942F18C8010E94BA1A31
:103690001F910F9108952F923F924F925F926F92D8
:1036A0007F928F929F92AF92BF92CF92DF92EF92D2
:1036B000FF920F931F93DF93CF93CDB7DEB7A09701
:1036C0000FB6F894DEBF0FBECDBF5E8F4D8F1901D0
:1036D0002B0166247724CE010D9698A38F8FDE01EF
:1036E0001196F2018CE001900D928150E1F7EF8D7F
:1036F000F8A180E111928A95E9F7DE011E96FE019C
:1037000031968CE001900D928150E1F781E090E0DC
:10371000062C02C0880F991F0A94E2F78D873B8E12
:103720002A8E91E09C8F00D08D8D9E8DEDB7FEB7D7
:103730009283818381E494E08D849E84AF84B888F1
:10374000C988DA88EB88FC880D891E892F89388D15
:10375000498D5A8D6B8D7C8D0E94030A0894611CE3
:10376000711CECE0F0E04E0E5F1E0F900F90F6E043
:103770006F16710409F0B3CFA0960FB6F894DEBFB0
:103780000FBECDBFCF91DF911F910F91FF90EF90B2
:10379000DF90CF90BF90AF909F908F907F906F9071
:1037A0005F904F903F902F9008952F923F924F92AD
:1037B0005F926F927F928F929F92AF92BF92CF92C1
:1037C000DF92EF92FF920F931F93DF93CF93CDB7CA
:1037D000DEB7C359D0400FB6F894DEBF0FBECDBFE1
:1037E000EB966FAFEB97BE016F5B7F4FDB01AC9247
:1037F000FE01EE5BFF4FB082FE01ED5BFF4FC0822A
:10380000FE01EC5BFF4FD082CE018B5B9F4FFC0132
:10381000E082FE01EA5BFF4FF082FE01E95BFF4FB1
:103820000083FE01E85BFF4F1083DE01A75BBF4F03
:103830002C93FE01E65BFF4F3083FE01E55BFF4FFB
:103840004083FE01E45BFF4F5083EC968FAEEC9714
:10385000FB012081318142815381A5962CAF3DAF80
:103860004EAF5FAFA597FC0120813181428153812A
:10387000A1962CAF3DAF4EAF5FAFA1972D913D917B
:103880004D915C916D962CAF3DAF4EAF5FAF6D9794
:10389000C155DF4F88819981AA81BB81CF5AD04021
:1038A00069968CAF9DAFAEAFBFAF6997CD54DF4F78
:1038B000288139814A815B81C35BD04065962CAFFA
:1038C0003DAF4EAF5FAF6597C954DF4F8881998197
:1038D000AA81BB81C75BD04061968CAF9DAFAEAF74
:1038E000BFAF6197C255DF4F9881CE5AD040692F44
:1038F00070E0882777FD8095982F0E94A2659B0134
:10390000AC0160E070E080E89FE30E94D664EA9634
:103910006CAF7DAF8EAF9FAFEA97C455DF4F688124
:103920007981CC5AD040882777FD8095982F0E94C6
:10393000A265EA962CAD3DAD4EAD5FADEA970E9413
:10394000A067E6966CAF7DAF8EAF9FAFE6978820FD
:10395000B9F420E030E040E050E0E1962CAF3DAF1C
:103960004EAF5FAFE197AD962CAF3DAF4EAF5FAFBF
:10397000AD97A9962CAF3DAF4EAF5FAFA99738C0BA
:10398000EB968FADEB970E948345F82EC855DF4F1D
:10399000688179818A819B81C85AD0400E946F6575
:1039A0008B019C01CE01499661E474E04F2D980192
:1039B0000E94120B89A19AA1ABA1BCA1E1968CAF88
:1039C0009DAFAEAFBFAFE1972D8D3E8D4F8D58A10E
:1039D000AD962CAF3DAF4EAF5FAFAD97898D9A8D51
:1039E000AB8DBC8DA9968CAF9DAFAEAFBFAFA99785
:1039F0000F2EF0E04F2EF0E05F2EF0E06F2EF0E0A3
:103A00007F2EF02DE2961FAEE297C157DF4F18824E
:103A1000CF58D040C057DF4F1882C059D040CF5642
:103A2000DF4F1882C159D0403324C457DF4F18826A
:103A3000CC58D040C357DF4F1882CD58D040C25722
:103A4000DF4F1882CE58D0402224C857DF4F18824B
:103A5000C858D040C757DF4F1882C958D040C65702
:103A6000DF4F1882CA58D040C557DF4F1882CB5855
:103A7000D040CC57DF4F1882C458D040CB57DF4FCF
:103A80001882C558D040CA57DF4F1882C658D04058
:103A9000C957DF4F1882C758D040C058DF4F18822F
:103AA000C058D040CF57DF4F1882C158D040CE57B2
:103AB000DF4F1882C258D040CD57DF4F1882C3580D
:103AC000D040ED961FAEED97EE961FAEEE97EF96B7
:103AD0001FAEEF97C158DF4F1882CF57D040DE019D
:103AE000D196CE56DF4FB983A883C259D04006C2C3
:103AF000C301B201EA962CAD3DAD4EAD5FADEA9784
:103B00000E9443642B013C01EC96BFADEC97BB23B4
:103B100009F068C0C857DF4FE881C858D040CC577B
:103B2000DF4FE883C458D040C757DF4FF881C958EA
:103B3000D040CB57DF4FF883C558D040C657DF4F32
:103B40002881CA58D040CA57DF4F2883C658D04072
:103B5000C557DF4F3881CB58D040C957DF4F388326
:103B6000C758D040C457DF4F4881CC58D040C058C8
:103B7000DF4F4883C058D040C357DF4F5881CD58DE
:103B8000D040CF57DF4F5883C158D040C257DF4F86
:103B90008881CE58D040CE57DF4F8883C258D0405E
:103BA000CD57DF4F2882C358D040C157DF4F98818F
:103BB000CF58D040ED969FAFED97C057DF4FA8810B
:103BC000C059D040EE96AFAFEE97CF56DF4FB881D9
:103BD000C159D040EF96BFAFEF97C158DF4F388241
:103BE000CF57D040A9966CAD7DAD8EAD9FADA99756
:103BF00069962CAD3DAD4EAD5FAD6997A596ECAC29
:103C0000FDAC0EAD1FADA597630152010E94083EA9
:103C1000C857DF4F6883C858D040C757DF4F7883F5
:103C2000C958D040C657DF4F8883CA58D040C557BF
:103C3000DF4F9883CB58D040AD966CAD7DAD8EAD47
:103C40009FADAD9765962CAD3DAD4EAD5FAD659723
:103C5000A196ECACFDAC0EAD1FADA1970E94083E45
:103C6000C457DF4F6883CC58D040C357DF4F7883A9
:103C7000CD58D040C257DF4F8883CE58D040292E30
:103C8000E1966CAD7DAD8EAD9FADE19761962CADAB
:103C90003DAD4EAD5FAD61976D96ECACFDAC0EAD3C
:103CA0001FAD6D970E94083EC157DF4F6883CF5804
:103CB000D040C057DF4F7883C059D040CF56DF4F38
:103CC0008883C159D040392E482F592FCB01DA01B2
:103CD00089879A87AB87BC87C457DF4F2881CC5828
:103CE000D040C357DF4F3881CD58D040C257DF4F47
:103CF0004881CE58D040522DC901DA018D839E8370
:103D0000AF83B887C857DF4F2881C858D040C757FE
:103D1000DF4F3881C958D040C657DF4F4881CA5855
:103D2000D040C557DF4F5881CB58D040C901DA0188
:103D300089839A83AB83BC83CC57DF4F2881C458D7
:103D4000D040CB57DF4F3881C558D040CA57DF4FDE
:103D50004881C658D040C957DF4F5881C758D04016
:103D6000C901DA018D879E87AF87B88BC058DF4FB6
:103D70002881C058D040CF57DF4F3881C158D0403C
:103D8000CE57DF4F4881C258D040CD57DF4F5881C2
:103D9000C358D040C901DA01898B9A8BAB8BBC8B9D
:103DA000ED962FADED97EE963FADEE97EF964FADBA
:103DB000EF97C158DF4F5881CF57D040C901DA0182
:103DC0008D8B9E8BAF8BB88FEDB7FEB73C970FB640
:103DD000F894FEBF0FBEEDBFADB7BEB71196FE01A2
:103DE0003D968CE001900D928150E1F7CE018596D1
:103DF000C980DA80EB80FC800D811E812F8138859F
:103E000049855A856B857C850E943A3FCE56DF4FA7
:103E1000A881B981C259D040E0E11D92EA95E9F745
:103E2000DE01D296FE01B5968CE001900D92815094
:103E3000E1F7EB96FFADEB97F9ABE6966CAD7DAD98
:103E40008EAD9FADE6970E946F657FAF6EAFEC962B
:103E50002FADEC9721962FAF21974DB75EB7465FF8
:103E60005F4F0FB6F8945EBF0FBE4DBF0DB71EB7C4
:103E70000F5F1F4FC855DF4F688179818A819B8111
:103E8000C85AD0400E946F65D8016D937C9381E43D
:103E900094E089A89AA8ABA8BCA8CDA8DEA8EFA8F2
:103EA000F8AC09AD1AAD2BAD3CAD4DAD5EAD6FAD0F
:103EB00021967FAD21970E94030AC855DF4F688184
:103EC00079818A819B81C85AD040E6962CAD3DAD60
:103ED0004EAD5FADE6970E944364C855DF4F6883DF
:103EE00079838A839B83C85AD040E296BFADE2971C
:103EF000BF5FE296BFAFE2970F900F90E296EFADF3
:103F0000E297C255DF4FF881CE5AD040EF1708F440
:103F1000EFCDCD56DF4F0FB6F894DEBF0FBECDBF4D
:103F2000CF91DF911F910F91FF90EF90DF90CF9095
:103F3000BF90AF909F908F907F906F905F904F90C9
:103F40003F902F9008952F923F924F925F926F92E1
:103F50007F928F929F92AF92BF92CF92DF92EF9219
:103F6000FF920F931F93DF93CF93CDB7DEB7C95A5C
:103F7000D0400FB6F894DEBF0FBECDBFCA55DF4F9D
:103F800099838883C65AD040962E872EFE01E75B20
:103F9000FF4FA082B182C282D382E482F58206837F
:103FA00017832087318742875387C653DF4F488066
:103FB00059806A807B80CA5CD040CA52DF4F08813A
:103FC0001981C65DD040C852DF4F8881C85DD0409E
:103FD000882371F4CA55DF4F88819981C65AD04031
:103FE000B8010E94DC16C852DF4F8883C85DD040FC
:103FF000DE011196892D982D9C01F90188E401902C
:104000000D928150E1F7C852DF4F9881C85DD040D2
:10401000692F70E0882777FD8095982F0E94A26510
:104020009B01AC0160E070E080E89FE30E94D664F1
:10403000CE55DF4F688379838A839B83C25AD040F1
:10404000B801882777FD8095982F0E94A265CE55EC
:10405000DF4F288139814A815B81C25AD0400E945A
:10406000A0670E946F65C056DF4F79836883C05A8E
:10407000D0408E01075B1F4FD8016D917D918D91CE
:104080009C9120E030E040E050E00E94CF64882323
:1040900011F5F801648175818681978120E030E017
:1040A00040E050E00E94CF648823A9F4D80118961C
:1040B0006D917D918D919C911B9720E030E040E0C7
:1040C00050E00E94CF64882331F4C156DF4F18823C
:1040D000CF59D04024C0FE01E75BFF4FCE55DF4FE4
:1040E00088809980AA80BB80C25AD040B7FAB09429
:1040F000B7F8B094CF01C080D180E280F380048112
:1041000015812681378140855185628573850E949E
:10411000FD3FB1E0C156DF4FB883CF59D040C30156
:10412000B20120E030E040E050E00E94CF648823FC
:1041300031F5C253DF4F688179818A819B81CE5CE2
:10414000D04020E030E040E050E00E94CF6488237F
:10415000B1F4CE52DF4F688179818A819B81C25D43
:10416000D04020E030E040E050E00E94CF6488235F
:1041700031F4C256DF4F1882CE59D04054C084E289
:1041800090E00E947468C855DF4F8883C85AD040B9
:10419000C755DF4F9883C95AD040CE55DF4FE880CE
:1041A000F9800A811B81C25AD04017FB109517F97C
:1041B0001095C301B201A80197010E94A0672B01CD
:1041C0003C01C253DF4F688179818A819B81CE5C3B
:1041D000D040A80197010E94A0674B015C01CE521C
:1041E000DF4F688179818A819B81C25DD040A801BF
:1041F00097010E94A0676B017C01C855DF4F888141
:10420000C85AD040C755DF4F9881C95AD040B30132
:10421000A201950184010E941F4AE1E0C256DF4FCE
:10422000E883CE59D0400F2EF0E02F2EF0E03F2E45
:10423000F0E04F2EF0E05F2EF02DC356DF4F1882D6
:10424000CD59D040F9E46F2E712C6C0E7D1ED2C07A
:10425000C156DF4FF881CF59D040FF23A1F1CE01E5
:104260008B5A9F4FBE016F5F7F4FD301AC90119669
:10427000BC9011971296CC9012971396DC901397DE
:104280001496EC9014971596FC90159716960C9131
:10429000169717961C91179718962C9118971996A0
:1042A0003C9119971A964C911A971B965C910E9413
:1042B0009945DE011196FE01EB5AFF4F88E401900B
:1042C0000D928150E1F7C256DF4FB881CE59D040F0
:1042D000BB2309F458C0CE018B5A9F4FBE016F5FBC
:1042E0007F4FC254DF4FA880CE5BD040C154DF4F18
:1042F000B880CF5BD040C054DF4FC880C05CD04096
:10430000CF53DF4FD880C15CD040CE53DF4FE88021
:10431000C25CD040CD53DF4FF880C35CD040CC535B
:10432000DF4F0881C45CD040CB53DF4F1881C55CA0
:10433000D040CA53DF4F2881C65CD040C953DF4FFD
:104340003881C75CD040C853DF4F4881C85CD0403B
:10435000C753DF4F5881C95CD040C855DF4F8880B4
:10436000C85AD040C755DF4F9880C95AD0400E94E4
:104370003E47DE011196FE01EB5AFF4F88E40190A3
:104380000D928150E1F7C201B10120E030E040E040
:104390005FE30E9443640E946F659B01AC01CA55B4
:1043A000DF4F88819981C65AD040BE016F5F7F4F31
:1043B000A901C056DF4F28813981C05AD0400E94E0
:1043C0004B1BC201B101CE55DF4F288139814A8193
:1043D0005B81C25AD0400E9443641B012C01C3562A
:1043E000DF4FE881CD59D040EF5FC356DF4FE88300
:1043F000CD59D040C356DF4FF881CD59D040C85277
:10440000DF4F8881C85DD040F81708F421CFC2562D
:10441000DF4F9881CE59D040992361F0C855DF4FC6
:104420008881C85AD040C755DF4F9881C95AD040BB
:104430000E942169C755DF4F0FB6F894DEBF0FBE4B
:10444000CDBFCF91DF911F910F91FF90EF90DF9043
:10445000CF90BF90AF909F908F907F906F905F9024
:104460004F903F902F9008952F923F924F925F92DE
:104470006F927F928F929F92AF92BF92CF92DF9274
:10448000EF92FF920F931F93DF93CF93CDB7DEB7D9
:10449000C457D1400FB6F894DEBF0FBECDBF3C016C
:1044A0007A018B018091D3089091D408A091D5080E
:1044B000B091D6089A01AB01281B390B4A0B5B0B54
:1044C0006CEC71E0660E771ED3018D919C91E4E354
:1044D000FEEF6E0E7F1EAA2797FDA095BA2F281714
:1044E00039074A075B0710F40C94EF31E092D308C8
:1044F000F092D4080093D5081093D608A30148532E
:104500005E4FDA018C91882311F40C94EF31D301C2
:10451000A653BE4F6D917C911197E8E5F0E06E0EC9
:104520007F1EF3018081918128EA3FEF620E731EA6
:104530006817790710F00C94ED3149EC51E0640EE6
:10454000751EF301808127E33EEF620E731E882300
:1045500031F0813011F00C94E4310C94953049E63F
:1045600050E0640E751ED3018C91E7E9FFEF6E0EEB
:104570007F1E882309F448C080E090E00E94A06577
:104580007B018C0124EE30E0620E731ED3012D916D
:104590003D914D915C91ECE1FFEF6E0E7F1ECA01E3
:1045A000B9010E9443649B01AC01C801B7010E949C
:1045B000CF6488234CF5AA24BB24C501880F991F1A
:1045C0008A0D9B1D880F991F880F991FF301E80F13
:1045D000F91FEC5EFE4F845A9E4F860D971DC080DA
:1045E000D180E280F3800481158126813781408566
:1045F0005185628573850E94CD420894A11CB11C2F
:10460000F6E0AF16B104C9F6FAECEF2EF1E0FF2E9A
:10461000E60CF71C23E630E0620E731ED3016D91A9
:104620007C91EDE9FFEF6E0E7F1ED7018D919C917D
:104630000E943A6BFC018301045F1E4F21E630E0CB
:10464000620E731ED3016C91D8018C9190E070E0E2
:104650000E943A6B24E030E0620E731ED3012D916C
:104660003C914BE95FEF640E751EBC01629FC00177
:10467000639F900D729F900D1124E817F90711F0B8
:104680000C94302CC30184509F4FC55ADE4F998340
:104690008883CB55D140D301A05ABE4FC15BDE4FBA
:1046A000B983A883CF54D14022243324CD59DE4F7F
:1046B00019830883C356D140CB59DE4FF982E88273
:1046C000C556D140F301EC51FF4FC959DE4FF98374
:1046D000E883C756D14093012C5A3F4FC759DE4F4C
:1046E00039832883C956D140A3014E595F4FC5591C
:1046F000DE4F59834883CB56D140B30169597F4F70
:10470000C359DE4F79836883CD56D140C3018259A6
:104710009F4FC159DE4F99838883CF56D140D30133
:10472000A659BF4FCF58DE4FB983A883C157D14098
:10473000ECE44E2E512C460C571C922CCD59DE4FDA
:10474000E881F981C356D1408081F301E80FF11D62
:10475000E65AFF4F808190E0022C02C09595879524
:104760000A94E2F780FD02C00C94F72BCB59DE4F80
:10477000A881B981C556D1406D917C9180E090E0CF
:104780000E94A0655B016C01C959DE4FE881F98187
:10479000C756D140E080F18002811381C801B70182
:1047A000A80197010E9443649B01AC01C601B501B9
:1047B0000E94CF6418166CF420E030E040E85FE31C
:1047C000CB5ADE4F288339834A835B83C555D1405A
:1047D00022C0C601B50120E030E040E05FE30E9466
:1047E000A067A80197010E94D6640E94F63D2DECB7
:1047F0003CEC4CEC5FE30E94A0672AE939E949E10F
:104800005FE30E944264CB5ADE4F688379838A83D8
:104810009B83C555D140C759DE4FA881B981C95680
:10482000D1406D917D918D919C9120E030E040E0F0
:1048300050E00E94CF64882309F0E6C2F101EE0F38
:10484000FF1FE20DF31DEE0FFF1FEE0FFF1FE60D22
:10485000F71DE45AFE4FE080F1800281138124812C
:1048600035814681578160857185828593850E9457
:10487000F340CB5BDE4F2883C554D140CA5BDE4F8B
:104880003883C654D140C95BDE4F4883C754D140FA
:10489000C85BDE4F5883C854D140C75BDE4F688386
:1048A000C954D140C65BDE4F7883CA54D140C55B42
:1048B000DE4F8883CB54D140C45BDE4F9883CC5409
:1048C000D140DE011196FE01EB5BFE4F88E00190C6
:1048D0000D928150E1F7E8EEF0E06E0E7F1ED301FD
:1048E0006D917D918D919C91E8E1FFEF6E0E7F1EA1
:1048F0009058CB5ADE4F288139814A815B81C5555A
:10490000D1400E94A0677B018C01D2012C911196AD
:104910003C91119712964C91129713965C911397B4
:1049200014966C91149715967C91159716968C9108
:10493000169717969C910E946B40CB5BDE4F2883A5
:10494000C554D140CA5BDE4F3883C654D140C95BE1
:10495000DE4F4883C754D140C85BDE4F5883C854EC
:10496000D140C75BDE4F6883C954D140C65BDE4F80
:104970007883CA54D140C55BDE4F8883CB54D14085
:10498000C45BDE4F9883CC54D140DE011996FE0102
:10499000EB5BFE4F88E001900D928150E1F7298199
:1049A0003A814B815C816D817E818F819885A9845C
:1049B000BA84CB84DC84ED84FE840F8518890E9440
:1049C000DF3ECB5BDE4F2883C554D140CA5BDE4F50
:1049D0003883C654D140C95BDE4F4883C754D140A9
:1049E000C85BDE4F5883C854D140C75BDE4F688335
:1049F000C954D140C65BDE4F7883CA54D140C55BF1
:104A0000DE4F8883CB54D140C45BDE4F9883CC54B7
:104A1000D140DE01AF58BF4FFE01EB5BFE4F88E097
:104A200001900D928150E1F7CB59DE4FE881F98179
:104A3000C556D1406081718180E090E00E94A06500
:104A40007B018C01C959DE4FA881B981C756D1407D
:104A50002D913D914D915C91CA01B9010E94436431
:104A60009B01AC01C801B7010E94CB6618160CF07F
:104A7000A4C5F101EE0FFF1FE20DF31DEE0FFF1FA6
:104A8000EE0FFF1FE756F94FE080F180028113819E
:104A90002481358146815781608571858285938522
:104AA0000E94F340DE01AB5BBE4F2C93FE01EA5B3C
:104AB000FE4F3083FE01E95BFE4F4083FE01E85B61
:104AC000FE4F5083FE01E75BFE4F6083FE01E65B15
:104AD000FE4F7083FE01E55BFE4F8083FE01E45BC9
:104AE000FE4F90839E012F5E3F4FFD0188E00190B5
:104AF000D9010D929D018150D1F731E7832E912C80
:104B00008C0E9D1EF401208131814281538164818C
:104B1000758186819781A988BA88CB88DC88ED88E1
:104B2000FE880F89188D0E94A23FDE01AB5BBE4F4D
:104B30002C93FE01EA5BFE4F3083FE01E95BFE4FE2
:104B40004083FE01E85BFE4F5083FE01E75BFE4FB2
:104B50006083FE01E65BFE4F7083FE01E55BFE4F66
:104B60008083FE01E45BFE4F90839401FD0188E0A9
:104B70000190D9010D929D018150D1F7ECE0F1E057
:104B80006E0E7F1ED3018C91E4EFFEEF6E0E7F1E42
:104B9000F301E80FF11DE65AFF4F208021E7E22ED6
:104BA000F12CEC0EFD1ECE018F559F4FD7010C91BD
:104BB00011961C91119712962C91129713963C9175
:104BC000139714964C91149715965C911597169619
:104BD0006C91169717967C910E94BA40E2E6F0E03D
:104BE0006E0E7F1ED3018C9190E0E5E0F0E06E0E3A
:104BF0007F1ED3012D913C91829F2001839F500CF9
:104C0000929F500C1124E7E0F0E06E0E7F1ED3015E
:104C10003C90E2E9FFEF6E0E7F1ED7012C911196BA
:104C20003C91119712964C91129713965C911397A1
:104C300014966C91149715967C91159716968C91F5
:104C4000169717969C910F2EF0E0EF2EF0E0FF2EB6
:104C5000F0E00F2FFFE31F2FF02D0E946B40DE01CD
:104C6000AB5BBE4F2C93FE01EA5BFE4F3083FE012F
:104C7000E95BFE4F4083FE01E85BFE4F5083FE017F
:104C8000E75BFE4F6083FE01E65BFE4F7083FE0133
:104C9000E55BFE4F8083FE01E45BFE4F90839E0147
:104CA000275E3F4FFD0188E00190D9010D929D01E3
:104CB0008150D1F79DEAA92EB12CAC0EBD1EC501C5
:104CC000098D1A8D2B8D3C8D4D8D5E8D6F8D78A14C
:104CD0000E94BA40EAE6F0E06E0E7F1ED3012D91ED
:104CE0003D914D915C91E6E9FFEF6E0E7F1EFE0156
:104CF000E754FF4F80E090E0A0E0B0E08083918334
:104D0000A283B38324833583468357838087918727
:104D1000A287B3872DB73EB72C5030400FB6F8941A
:104D20003EBF0FBE2DBFADB7BEB711968CE0019050
:104D30000D928150E1F7CE018B539F4FD501CC905E
:104D40001196DC9011971296EC9012971396FC90A6
:104D5000139714960C91149715961C911597169607
:104D60002C91169717963C91179718964C91189777
:104D700019965C9119971A966C911A971B967C91CB
:104D80000E94773EEDB7FEB737970FB6F894FEBF97
:104D90000FBEEDBF319681EA882E912C8C0E9D1EA0
:104DA00020E030E040E050E0ADB7BEB711962D9363
:104DB0003D934D935C9314975582448236821896A6
:104DC000FE01EB53FF4F8CE001900D928150E1F713
:104DD000C301622DF401A080B180C280D380E48041
:104DE000F580068117812085318542855385882489
:104DF0000E94D51B2DB73EB72D5E3F4F0FB6F894DE
:104E00003EBF0FBE2DBF0AC5892D0E94ED46CB5B6C
:104E1000DE4F2883C554D140CA5BDE4F3883C65469
:104E2000D140C95BDE4F4883C754D140C85BDE4FD9
:104E30005883C854D140C75BDE4F6883C954D14002
:104E4000C65BDE4F7883CA54D140C55BDE4F888392
:104E5000CB54D140C45BDE4F9883CC54D140DE01AB
:104E6000A759BF4FFE01EB5BFE4F88E001900D920A
:104E70008150E1F7F101EE0FFF1FE20DF31DEE0F80
:104E8000FF1FEE0FFF1FE60DF71DE45AFE4FE080F7
:104E9000F1800281138124813581468157816085AB
:104EA0007185828593850E94F340CB5BDE4F28831A
:104EB000C554D140CA5BDE4F3883C654D140C95B6C
:104EC000DE4F4883C754D140C85BDE4F5883C85477
:104ED000D140C75BDE4F6883C954D140C65BDE4F0B
:104EE0007883CA54D140C55BDE4F8883CB54D14010
:104EF000C45BDE4F9883CC54D140DE019196FE0115
:104F0000EB5BFE4F88E001900D928150E1F729A103
:104F10003AA14BA15CA16DA17EA18FA198A5AA96F3
:104F2000AFACAA97AB96BFACAB97AC96CFACAC97F7
:104F3000AD96DFACAD97AE96EFACAE97AF96FFAC4B
:104F4000AF97E0960FADE097E1961FADE1970E9415
:104F5000DF3ECB5BDE4F2883C554D140CA5BDE4FBA
:104F60003883C654D140C95BDE4F4883C754D14013
:104F7000C85BDE4F5883C854D140C75BDE4F68839F
:104F8000C954D140C65BDE4F7883CA54D140C55B5B
:104F9000DE4F8883CB54D140C45BDE4F9883CC5422
:104FA000D140DE019996FE01EB5BFE4F88E0019057
:104FB0000D928150E1F729A53AA54BA55CA56DA5F9
:104FC0007EA58FA598A9D201AC901196BC9011979F
:104FD0001296CC9012971396DC9013971496EC903F
:104FE00014971596FC90159716960C911697179690
:104FF0001C910E94A23FCB5BDE4F2883C554D14059
:10500000CA5BDE4F3883C654D140C95BDE4F48834C
:10501000C754D140C85BDE4F5883C854D140C75BEA
:10502000DE4F6883C954D140C65BDE4F7883CA54D3
:10503000D140C55BDE4F8883CB54D140C45BDE4F8B
:105040009883CC54D140DE01D196FE01EB5BFE4F3C
:1050500088E001900D928150E1F729A93AA94BA966
:105060005CA96DA97EA98FA998ADC55ADE4F0881AC
:105070001981CB55D1400E944242CB5BDE4F288341
:10508000C554D140CA5BDE4F3883C654D140C95B9A
:10509000DE4F4883C754D140C85BDE4F5883C854A5
:1050A000D140C75BDE4F6883C954D140C65BDE4F39
:1050B0007883CA54D140C55BDE4F8883CB54D1403E
:1050C000C45BDE4F9883CC54D140DE01D996FE01FB
:1050D000EB5BFE4F88E001900D928150E1F729AD26
:1050E0003AAD4BAD5CAD6DAD7EAD8FAD21969FAD54
:1050F0002197F201A080B180C280D380E480F58046
:10510000068117810E94DF3ECB5BDE4F2883C554AA
:10511000D140CA5BDE4F3883C654D140C95BDE4FF5
:105120004883C754D140C85BDE4F5883C854D14030
:10513000C75BDE4F6883C954D140C65BDE4F7883BE
:10514000CA54D140C55BDE4F8883CB54D140C45B89
:10515000DE4F9883CC54D140DE01AF5BBF4FFE01E0
:10516000EB5BFE4F88E001900D928150E1F7FE016C
:10517000EF5BFF4F2081FE01EE5BFF4F3081FE01B0
:10518000ED5BFF4F4081FE01EC5BFF4F5081FE0164
:10519000EB5BFF4F6081FE01EA5BFF4F7081FE0118
:1051A000E95BFF4F8081FE01E85BFF4F9081AA968B
:1051B000AFACAA97AB96BFACAB97AC96CFACAC9765
:1051C000AD96DFACAD97AE96EFACAE97AF96FFACB9
:1051D000AF97E0960FADE097E1961FADE1970E9483
:1051E000A23FCB5BDE4F2883C554D140CA5BDE4F64
:1051F0003883C654D140C95BDE4F4883C754D14081
:10520000C85BDE4F5883C854D140C75BDE4F68830C
:10521000C954D140C65BDE4F7883CA54D140C55BC8
:10522000DE4F8883CB54D140C45BDE4F9883CC548F
:10523000D140DE01AF58BF4FFE01EB5BFE4F88E06F
:1052400001900D928150E1F7CB59DE4FA881B981D1
:10525000C556D1406D917C9180E090E00E94A065A0
:105260007B018C01C959DE4FE881F981C756D140D5
:105270002081318142815381CA01B9010E94436476
:105280009B01AC01C801B7010E94CF6418160CF451
:1052900094C1F101EE0FFF1FE20DF31DEE0FFF1F92
:1052A000EE0FFF1FE60DF71DE45AFE4FE080F18080
:1052B0000281138124813581468157816085718502
:1052C000828593850E94F340CB5BDE4F2883C554D3
:1052D000D140CA5BDE4F3883C654D140C95BDE4F34
:1052E0004883C754D140C85BDE4F5883C854D1406F
:1052F000C75BDE4F6883C954D140C65BDE4F7883FD
:10530000CA54D140C55BDE4F8883CB54D140C45BC7
:10531000DE4F9883CC54D140DE01A75BBF4FFE0126
:10532000EB5BFE4F88E001900D928150E1F7FE01AA
:10533000E75BFF4FE2962FADE297E3963FADE39731
:10534000E4964FADE497E5965FADE597E6966FADD1
:10535000E697E7967FADE797E8968FADE897E996F1
:105360009FADE997A080B180C280D380E480F580B2
:10537000068117810E94A23FCB5BDE4F2883C55474
:10538000D140CA5BDE4F3883C654D140C95BDE4F83
:105390004883C754D140C85BDE4F5883C854D140BE
:1053A000C75BDE4F6883C954D140C65BDE4F78834C
:1053B000CA54D140C55BDE4F8883CB54D140C45B17
:1053C000DE4F9883CC54D140DE01AF5ABF4FFE016F
:1053D000EB5BFE4F88E001900D928150E1F7FE01FA
:1053E000EF5AFF4F20813181428153816481758161
:1053F00086819781CB5ADE4FE880F9800A811B8134
:10540000C555D1400E946B40CB5BDE4F2883C5540D
:10541000D140CA5BDE4F3883C654D140C95BDE4FF2
:105420004883C754D140C85BDE4F5883C854D1402D
:10543000C75BDE4F6883C954D140C65BDE4F7883BB
:10544000CA54D140C55BDE4F8883CB54D140C45B86
:10545000DE4F9883CC54D140DE01A75ABF4FFE01E6
:10546000EB5BFE4F88E001900D928150E1F7F10176
:10547000EE0FFF1FE20DF31DEE0FFF1FEE0FFF1FDC
:10548000E60DF71DE45AFE4FE080F18002811381A2
:105490002481358146815781608571858285938518
:1054A0000E94F340CB5BDE4F2883C554D140CA5BDA
:1054B000DE4F3883C654D140C95BDE4F4883C754A2
:1054C000D140C85BDE4F5883C854D140C75BDE4F24
:1054D0006883C954D140C65BDE4F7883CA54D1403B
:1054E000C55BDE4F8883CB54D140C45BDE4F9883CD
:1054F000CC54D140DE01AF59BF4FFE01EB5BFE4FF4
:1055000088E001900D928150E1F7FE01E75AFF4FCC
:10551000DE01AF59BF4F20813181428153816481C7
:10552000758186819781AC901196BC9011971296E7
:10553000CC9012971396DC9013971496EC901497D6
:105540001596FC90159716960C91169717961C9128
:105550000E94DF3ECB5BDE4F2883C554D140CA5B3F
:10556000DE4F3883C654D140C95BDE4F4883C754F1
:10557000D140C85BDE4F5883C854D140C75BDE4F73
:105580006883C954D140C65BDE4F7883CA54D1408A
:10559000C55BDE4F8883CB54D140C45BDE4F98831C
:1055A000CC54D140DE01AF58BF4FFE01EB5BFE4F44
:1055B00088E001900D928150E1F7C15BDE4FA88138
:1055C000B981CF54D1402D913D914D915C91E99697
:1055D000ECACFDAC0EAD1FADE997E5968CAD9DAD85
:1055E000AEADBFADE597CF52DF4F88839983AA83D5
:1055F000BB83C15DD040CB52DF4F288339834A83C0
:105600005B83C55DD040C752DF4FE882F9820A83D1
:105610001B83C95DD040C559DE4FE881F981CB5667
:10562000D140808190E0C359DE4FA881B981CD5629
:10563000D1402D913C91829F5001839FB00C929F4D
:10564000B00C1124C159DE4FE881F981CF56D14009
:105650009080CF58DE4FA881B981C157D1402D919C
:105660003D914D915C9180E090E0A0E0B0E0C352AC
:10567000DF4F88839983AA83BB83CD5DD040CF5110
:10568000DF4F288339834A835B83C15ED040CB518F
:10569000DF4F88839983AA83BB83C55ED040EDB773
:1056A000FEB73C970FB6F894FEBF0FBEEDBFF101F9
:1056B000EE0FFF1FE20DF31DEE0FFF1FEE0FFF1F9A
:1056C000E60DF71DE45AFE4F2DB73EB72F5F3F4F53
:1056D000AE0143525F4F8CE0DA010D90AD01D9016C
:1056E0000D929D018150C1F7CE0187519F4FC0801F
:1056F000D180E280F3800481158126813781408545
:105700005185628573850E94773EEDB7FEB7379766
:105710000FB6F894FEBF0FBEEDBF319661E070E0AA
:10572000022C02C0660F771F0A94E2F720E030E0F7
:1057300040E050E0ADB7BEB711962D933D934D9329
:105740005C931497B582A48296821896FE01E75165
:10575000FF4F8CE001900D928150E1F7C301CF52D1
:10576000DF4FA880C15DD040CE52DF4FB880C25D10
:10577000D040CD52DF4FC880C35DD040CC52DF4F08
:10578000D880C45DD040CB52DF4FE880C55DD040AB
:10579000CA52DF4FF880C65DD040C952DF4F088142
:1057A000C75DD040C852DF4F1881C85DD040C75296
:1057B000DF4F2881C95DD040C652DF4F3881CA5DB6
:1057C000D040C552DF4F4881CB5DD040C452DF4F3F
:1057D0005881CC5DD040882483940E94D51BEDB7BE
:1057E000FEB773960FB6F894FEBF0FBEEDBF0894D8
:1057F000211C311CC15BDE4F28813981CF54D1403F
:10580000245F3F4FC15BDE4F39832883CF54D140A3
:1058100036E02316310411F00C949D238301045FBC
:105820001E4FD8018C9190E0F301E80FF91FE25F61
:10583000FE4F27E630E0620E731ED3012C912083C9
:10584000E9EFFFEF6E0E7F1ED3016C91E0EAFFEFF0
:105850006E0E7F1E019670E00E944E6BD8018C93F5
:10586000F301E35FFE4F108220E0B301605A7F4FE7
:10587000AF0113C0D301A20FB11DFD01E25FFE4FC6
:105880008081882311F0815006C0A65ABF4F8C91A9
:10589000FA019081890F80832F5FDB018C9128179B
:1058A00048F3F301EC5AFF4F60817181828193814B
:1058B00020E030E040E050E00E94CF64882309F00F
:1058C0007CC0EDE0F1E06E0E7F1ED301DC90E3EFD3
:1058D000FEEF6E0E7F1E35EFE32EF12CEC0EFD1E5B
:1058E000F301E45BFF4FC701008111812281338105
:1058F00044815581668177810E94BA4022E630E07A
:10590000620E731ED3019C91EEE9FFEF6E0E7F1EB7
:10591000FE01EB5DFE4F80E1DF011D928A95E9F704
:105920003196D7018CE00D9001928150E1F7FE0194
:10593000EB5DFE4FD0829587168600D0ADB7BEB71F
:1059400012961C921E92119781E494E080809180BF
:10595000A280B380C480D580E680F7800085118561
:105960002285338544855585668577850E94030A9F
:10597000EDE0F1E06E0E7F1E0F900F90D3018C9141
:10598000E3EFFEEF6E0E7F1E882309F41DC5D301E1
:1059900012968D919C911397009709F415C5F30108
:1059A000E45BFF4F00811181228133814481558165
:1059B000668177810E94374307C5F301E451FF4FA9
:1059C000C75ADE4FF983E883C955D1402DE936E047
:1059D000CF5ADE4F39832883C155D140CD5ADE4F8F
:1059E00019821882C355D140A301435F5E4FC35A49
:1059F000DE4F59834883CD55D1402CE4422E512CA3
:105A0000460C571CB3016E597F4FC15ADE4F798344
:105A10006883CF55D14095E3292E91E0392E2C0E85
:105A20003D1EC1010196CF59DE4F99838883C1562F
:105A3000D140C35ADE4FA881B981CD55D1408C9158
:105A400090E0CD5ADE4F0880C355D14002C09595F5
:105A500087950A94E2F780FF22C3CD5ADE4F8881F2
:105A6000C355D1400E94ED46CB5BDE4F2883C55421
:105A7000D140CA5BDE4F3883C654D140C95BDE4F8C
:105A80004883C754D140C85BDE4F5883C854D140C7
:105A9000C75BDE4F6883C954D140C65BDE4F788355
:105AA000CA54D140C55BDE4F8883CB54D140C45B20
:105AB000DE4F9883CC54D140DE01A759BF4FFE0181
:105AC000EB5BFE4F88E001900D928150E1F7CD5ADB
:105AD000DE4FE881F981C355D140EE0FFF1FCD5A4B
