:100000000C945E020C9488020C9488020C94880272
:100010000C9488020C9488020C9488020C94880238
:100020000C9488020C9488020C9488020C94880228
:100030000C9488020C9488020C9488020C94E40CB2
:100040000C9488020C9488020C9488020C94880208
:100050000C9488020C9488020C9488020C944F0C27
:100060000C9488020C94110D0C9488020C94880254
:100070000C9488020C9488020C9488020C948802D8
:100080000C9488020C9488020C9488020C948802C8
:100090000C94BA020C9488020C9488020C94880286
:1000A0000C9488020C9488020C9488020C948802A8
:1000B0000C9488020C9488020C9488020C94880298
:1000C0000C9488020C9488020C9488020C94460DBF
:1000D0000C9488020C9488020C947B0D0C9488027A
:1000E0000C948802CA03C803C603C603C603C6032A
:1000F000CA03C803CA03C803C803C603C603C603AA
:10010000CA03C803C603C603C603C603CA03C8039B
:10011000CA03C803C603C603C603C603C603C60391
:10012000CA03C803CA03C803CA03C803CA03C8036F
:10013000CA03C803CA03C803C603C603C603C80369
:10014000C603C603CA03DA03DA03DA03DE03DC03F9
:10015000DE03DC03DC03DA03DA03DA03DE03DC03A9
:10016000DA03DA03DA03DA03DC03DC03DC03DC039F
:10017000DA03DA03DA03DA03DA03DA03DE03DC0391
:10018000DE03DC03DE03DC03DC03DC03DC03DC0373
:10019000DC03DC03DC03DC03DA03DC03DC03DA036B
:1001A000DE03050703070D070D070D070907030702
:1001B0000D07070707070B070D07070703070707C3
:1001C00001070307070703070307030703070307DD
:1001D000030703070307070707070B0703070B07B7
:1001E00003070B070D070D070D070D07030703078F
:1001F0000D07030705070307030703070D070D078F
:100200000D0703070D070D070D070D070D070D0758
:100210000B070D070D0703070B070D070B070B0750
:100220000B070D070307030703070307030701076E
:100230000307030705070707030705070D0703075C
:1002400003070307030701070307010703070D0758
:100250000D070D070307030703070B0703070B072A
:100260002107230723072507250725072307250738
:100270002107210725072507210723072107230732
:100280002307210723072307230723072307230720
:10029000230723072107210725072307250723070E
:1002A00025072507250725072507230723072507F2
:1002B00023072107230723072307250725072507EA
:1002C00023072507250725072507250725072507D0
:1002D00025072507230725072507250725072507C0
:1002E00025072307230723072307230723072307BC
:1002F00023072107210723072107250723072307B2
:100300002307230723072307230723072507250799
:10031000250723072307230725072307084AD73B79
:100320003BCE016E84BCBFFDC12F3D6C74319ABDC4
:1003300056833DDA3D00C77F11BED9E4BB4C3E91E8
:100340006BAAAABE000000803F07634236B79BD865
:10035000A71A39685618AEBAAB558C1D3CB7CC57A6
:1003600063BD6DEDFD753EF6177231BF0000008074
:100370003F05A84CCDB2D44EB93836A9020C50B9BD
:10038000918688083CA6AAAA2ABE000000803F00E9
:10039000002100240027002A002D00300033000136
:1003A000010000040107010A0100002200250028C5
:1003B000002B002E0031003400020100000501086E
:1003C000010B01000020002300260029002C002F33
:1003D00000320000010000030106010901050505C6
:1003E00005070508080808020202020A0A080804AC
:1003F00004040401010101010101010303030303DA
:10040000030303040707070C0C0C0C0C0C0C0C0268
:1004100002020206060606060606060B0B0B0B0B6F
:100420000B0B0B0102102020080810204010204068
:1004300080020102010804020101020408102040A8
:1004400080804020100804020180040201804020C6
:1004500010080402010804020101020408102040EF
:100460008001020408102040800000090A02080BE5
:100470000C0D07060304010000000000000000004E
:10048000000000000000000000000000000000006C
:100490000000000000100F0E00000000000000002F
:1004A000000000000000000000000000000000004C
:1004B00080062707D30B770E920F4F1611241FBE0D
:1004C000CFEFD1E2DEBFCDBF12E0A0E0B2E0ECEAB8
:1004D000F8E600E00BBF02C007900D92AE37B107FF
:1004E000D9F716E0AEE7B2E001C01D92A632B1071F
:1004F000E1F714E0CCEBD4E004C02297FE010E94A7
:100500005034C03BD107C9F70E94150F0C94AC338F
:100510000C940000E9ECF0E080818F77808380818B
:100520008F7E80838081886080830895EEE6F0E08E
:1005300080818E7F8083E9ECF0E08081877F8083FB
:1005400080818061808380818068808310929E0298
:100550000895E9ECF0E080818F77808380818F7E41
:1005600080838081877F8083EEE6F0E080818160F8
:10057000808308951F920F920FB60F920BB60F92C1
:1005800011248F939F93EF93FF9380919E029091FC
:10059000CE00EEE7F2E0E80FF11D90838F5F8093CD
:1005A0009E02FF91EF919F918F910F900BBE0F9044
:1005B0000FBE0F901F9018959B01AC0183E0220F96
:1005C000331F441F551F8A95D1F760E074E284EF12
:1005D00090E00E94113421503040E8ECF0E080813E
:1005E000826080833093CD002093CC0010929E02D5
:1005F0000E94A9020895FC016083118282E0828337
:100600000895FC018EEF8083118212820895DF929B
:10061000EF92FF920F931F93082FD62E142FF22ED6
:10062000E32E0E948A028091C80085FFFCCF8FEFE5
:100630008093CE008091C80085FFFCCF8FEF809320
:10064000CE008091C80085FFFCCF0093CE004D2DD9
:100650004E5F8091C80085FFFCCF4093CE00809113
:10066000C80085FFFCCF1093CE00410F400F8F2DA7
:100670009E2D9C01F90190E00AC020818091C80064
:1006800085FFFCCF2093CE00420F9F5F31969D15D2
:10069000A0F38091C80085FFFCCF40954093CE0029
:1006A0000E9496021F910F91FF90EF90DF900895A6
:1006B000FF920F931F9300E010E007C02F5F3F4FA2
:1006C00084E02E34380741F415C020E030E0E02FFC
:1006D000F0E0AF01410F511D80919E0290E048175C
:1006E000590761F33CC0E258FD4F80818F3FC9F14B
:1006F0000F5FEBCF0E94A90290E09F5FF92EF00EF2
:10070000212F291B4F2D50E0FA01E258FD4F808127
:100710008F3F99F3923008F090E0DA011196FD01D5
:10072000E258FD4F70817E5F27139E5F9A0160E063
:1007300007C0F901E258FD4F8081680F2F5F3F4FDE
:10074000822F841B8717A8F36F3F09F09C5FA25884
:10075000BD4F9C938F2D1F910F91FF9008951123F2
:1007600011F21F5F1D3008F4B0CFC4CF880F815045
:100770000895E82FF0E0E133F10550F4EE58FF4F13
:10078000EE0FFF1F0590F491E02D099481E008958C
:1007900080E0089582E0089590E0FC013397EE3206
:1007A000F10550F4ED55FF4FEE0FFF1F0590F4914A
:1007B000E02D099481E0089580E0089582E0089595
:1007C000CF93DF93EC018A81861750F10E94580382
:1007D000282F30E0F901E258FD4F9081F901E158EE
:1007E000FD4F6081F901E058FD4FA0818881981785
:1007F00019F440E050E002C040E054E0E62FF0E0A1
:10080000F695FE2FEE27F795E7958A2F90E0E82BD7
:10081000F92BE42BF52BC9018F579D4F382F04C0BE
:100820000E94A902EFEFFFEF832FBF01DF91CF916D
:1008300008950F931F93DF93CF9300D0CDB7DEB70A
:100840008C0169834A83FC01808162E042E09E0161
:100850002F5F3F4F0E940703C80161E00E94E00341
:100860000F900F90CF91DF911F910F9108950F93EB
:100870001F938C01FC01808160E041E020E030E0CA
:100880000E940703C80160E00E94E003CB011F91B2
:100890000F910895DC01FA01643251F0653218F4C9
:1008A0006E3179F505C0663281F0683251F50DC0C0
:1008B00011968C91882329F18FEF93E0208131816B
:1008C000821B930B9183808308952081318190E076
:1008D00044E0203034070CF091E011968C91982779
:1008E000990F9150892F992787FD90953370AC010E
:1008F000429FC001439F900D529F900D1124918300
:1009000080830895EF92FF920F931F93DF93CF930D
:1009100000D000D0CDB7DEB77C01062F862F0E9415
:10092000B903182F8EEF9FEF9A8389831123D9F093
:10093000C701602F412F0E941904FC017A8369834B
:100940002081113031F0918180E030E0282B392B6B
:1009500001C030E03C832B83C701602FAE014D5FA7
:100960005F4F0E944A0469817A818B819C810F903C
:100970000F900F900F90CF91DF911F910F91FF90EB
:10098000EF9008952F923F924F925F926F927F92D5
:100990008F929F92AF92BF92CF92DF92EF92FF928F
:1009A0000F931F93DF93CF93CDB7DEB7862E242E00
:1009B00039014DB65EB6362E3394439D902C1124EA
:1009C00022E0920EEDB7FEB7E919F1090FB6F894DF
:1009D000FEBF0FBEEDBFADB6BEB60894A11CB11CE4
:1009E0008183F5016183680112E0EE24FF241DC0BC
:1009F000D501A10FB11DF301EE0DFF1D80818C9378
:100A00001F5F9501210F311D1150F6016081718129
:100A1000C901482D50E00E94AF33130D0894E11C2A
:100A2000F11C22E030E0C20ED31EE21408F38EEF78
:100A3000692D43E895010E9407030E94A9020FB6A1
:100A4000F8945EBE0FBE4DBECF91DF911F910F9106
:100A5000FF90EF90DF90CF90BF90AF909F908F90DE
:100A60007F906F905F904F903F902F9008956F927E
:100A70007F928F929F92AF92BF92CF92DF92EF922E
:100A8000FF920F931F93DF93CF93CDB7DEB7082F5D
:100A90005B018DB69EB690E0BC01660F771F660FB6
:100AA000771FADB7BEB7A61BB70B0FB6F894BEBF86
:100AB0000FBEADBFEDB6FEB60894E11CF11C880F69
:100AC000991FEDB7FEB7E81BF90B0FB6F894FEBF00
:100AD0000FBEEDBFCDB6DEB60894C11CD11CBA0165
:100AE000A90110E032C0A12FB0E09D01220F331FF9
:100AF000220F331F2E0D3F1DFB018081F9018083E2
:100B0000FB0181919191BF01892F990F990BF901F7
:100B100081833D01660C771CF3013196EE0FFF1FB8
:100B2000EE0DFF1DDA018C918083FA018191919184
:100B3000AF01892F990F990BD90113968C936C0CE7
:100B40007D1CF301318320831F5F101760F28EE15B
:100B500064E0402F950186010E94C2040FB6F8940C
:100B60009EBE0FBE8DBECF91DF911F910F91FF9062
:100B7000EF90DF90CF90BF90AF909F908F907F903D
:100B80006F9008959F92AF92BF92CF92DF92EF92B3
:100B9000FF920F931F93DF93CF93CDB7DEB76C0116
:100BA000962E142FADB6BEB6842F90E001964DB7A9
:100BB0005EB7481B590B0FB6F8945EBF0FBE4DBF12
:100BC000EDB6FEB60894E11CF11CEDB7FEB76183EB
:100BD000A7014F5F5F4FCA01B901412F50E00E944A
:100BE000AF33612F6F5F002321F0F601808144E075
:100BF00003C0F601808143E097010E940703C6010C
:100C000062E00E94E003072F162FF6E1F91530F09D
:100C100065E070E080E090E00E94250C812F902F2D
:100C20000FB6F894BEBE0FBEADBECF91DF911F913F
:100C30000F91FF90EF90DF90CF90BF90AF909F907B
:100C40000895BF92CF92DF92EF92FF920F931F937E
:100C5000DF93CF9300D0CDB7DEB77C01062F5A8348
:100C60004983B22ECDB6DEB6862F0E94CC03182F54
:100C7000882319F42EEF3FEF27C0C701602FAE0184
:100C80004F5F5F4F0E944A048DB79EB7811B910949
:100C90000FB6F8949EBF0FBE8DBFEDB7FEB731966D
:100CA00089819A81ADB7BEB711968C93113021F02E
:100CB000892F990F990B8183C701602F412F9F01C5
:100CC0000B2D0E94C2059C01C9010FB6F894DEBE2F
:100CD0000FBECDBE0F900F90CF91DF911F910F915E
:100CE000FF90EF90DF90CF90BF900895FC01462FCA
:100CF000628360E150E020E00E942106089508959B
:100D0000CF92DF92EF920F938FE992E06BE674E05F
:100D100020E032EC41E050E003E0F2E0EF2EEFE7BC
:100D2000CE2EE6E0DE2E0E94EA270F91EF90DF90B4
:100D3000CF9008951F93DF93CF9300D0CDB7DEB748
:100D4000182F8FE992E0612F40E020E030E00E9410
:100D50003D27153018F4612F41E004C0153011F41F
:100D600060E042E08FE992E09E012F5F3F4F0E94DA
:100D7000A427882319F421E03FEF18C0112321F4A0
:100D80008981282F30E012C08981153059F4282F2D
:100D900030E03695322F2227379527958A81280F04
:100DA000311D04C0282F30E024563040C9010F9077
:100DB0000F90CF91DF911F910895882311F08DE25C
:100DC00001C08EE26C51734F0E94D52C0895FC0136
:100DD000738362835683458389E0808708957727EC
:100DE00067FD7095872F972FFB01B097EF35F105C1
:100DF000A0F4EF52FF4FEE0FFF1F0590F491E02D8E
:100E0000099484E0089585E0089582E0089583E0E0
:100E1000089587E0089588E0089586E0089577278B
:100E200067FD7095872F972FFB01B097EE35F10581
:100E300060F4E05DFE4FEE0FFF1F0590F491E02D92
:100E4000099482E0089581E0089580E00895109269
:100E5000AD021092AC028FEF8093B4020895EF922E
:100E6000FF920F931F93CF93DF93162FE42E022F41
:100E7000F32E85E360E00E94492E110F110F1E0D25
:100E8000812F80580E941B0C202F3F2DC901EC019F
:100E900010E004C089910E941B0C1F5F1E15D0F347
:100EA00085E361E00E94492E80E0DF91CF911F91A0
:100EB0000F91FF90EF900895DF93CF9300D0CDB7BF
:100EC000DEB76983465F4A8368E142E09E012F5F97
:100ED0003F4F0E942F070F900F90CF91DF91089501
:100EE000CF93DF93262F332727FD3095FC01C08158
:100EF000D181FE0101900020E9F73197EC1BFD0B39
:100F00002E173F0730F467FD04C0C20FD31F68815E
:100F100001C060E20E945C07DF91CF9108950F93BA
:100F2000DF93CF9300D00F92CDB7DEB7665F6983B2
:100F3000465F4A83000F020F0B8366E143E09E0188
:100F40002F5F3F4F0E942F070F900F900F90CF9170
:100F5000DF910F91089560E140E020E030E00E94D1
:100F60002F070895DF92EF92FF920F931F93CF9375
:100F7000DF93EC017A018B018091B5029091B6026A
:100F8000A091B702B091B8029A01AB01281B390BAE
:100F90004A0B5B0B8A819B81AA2797FDA095BA2FEC
:100FA000281739074A075B0708F4C3C0E092B50267
:100FB000F092B6020093B7021093B8028F81882393
:100FC00019F01092B9021F828885883021F089308B
:100FD00009F0AFC0A2C0D090B9028C81D81AD092CB
:100FE000B9020D811E81E880F980F701E00FF11F41
:100FF0003197CE0160810E94EF062D2D332727FD0A
:10100000309590E02817390739F4015010401E83BD
:101010000D831092B90213C0D7FE11C0C80101960A
:101020009E838D83E80EF91E0894E108F108CE0135
:10103000F70160810E94EF0681508093B902CE01D2
:101040006C8140E020E001E00E948F078C818F3F9F
:10105000C1F1813009F050C00D811E81E881F98114
:10106000E00FF11FCE0160810E940F079091B9023D
:10107000482F491BCE01602F0E947007D090B90203
:1010800008811981FD808F2D9E81080F191FCE01C7
:10109000F80160810E94EF06E82E8D2D992787FDCB
:1010A00090958E0D911D07973CF5CE01F801618159
:1010B0000E940F07F394482F4E194D19CE016F2D42
:1010C00019C0ED80FE80E881F981EE0DFF1D31979A
:1010D0000081CE01602F0E940F07182FCE01602FD4
:1010E0000E94EF06EA94180F8091B902181BCE01F6
:1010F0006E2D412F0E9470078D819E81A881B9813C
:10110000FD0101900020E9F73197EA1BFB0B8E17D8
:101110009F0768F497FF0DC00AC0CE010E94AB077D
:101120008D819E8101979E838D83892B11F48FEF92
:101130008887DF91CF911F910F91FF90EF90DF9003
:101140000895DF93CF930F92CDB7DEB7660F660F8A
:10115000660F640F698368E041E09E012F5F3F4F97
:101160000E942F070F90CF91DF910895DF93CF93C7
:1011700000D00F92CDB7DEB769834A832B8363E03B
:1011800043E09E012F5F3F4F0E942F070F900F906B
:101190000F90CF91DF910895BF92CF92DF92EF929F
:1011A000FF920F931F93CF93DF93EC01D62EC72EA0
:1011B0007A01B22E88819981009711F00E94E9325C
:1011C000ED2DFC2DDF010D900020E9F7CD018E1BE8
:1011D0009F0B0E943C32888399836D2D7C2D0E9449
:1011E000B833FB82EA82BC821E830D8388E0888745
:1011F00081E08F83DF91CF911F910F91FF90EF904E
:10120000DF90CF90BF9008950F931F93DF93CF93FC
:10121000CDB7DEB764970FB6F894DEBF0FBECDBF73
:101220008C01DC0114962D913C91159784E1489F27
:10123000A0011124DE011196F901E40FF51F0190C0
:101240000D928150E1F784E1689FB0011124FA0109
:10125000E20FF31FD901A60FB71F0D900192815025
:10126000E1F7D8011496ED91FC911597E60FF71F61
:10127000DE01119684E10D9001928150E1F76496B0
:101280000FB6F894DEBF0FBECDBFCF91DF911F9197
:101290000F910895FC01262F868190E06085820FD2
:1012A000911D70E00E94FE330895CF92DF92EF927D
:1012B000FF920F931F93D82EC92E8B01DB01169638
:1012C000EC90CB0161E00E944A09F8018683878196
:1012D00081508783FF2484E190E09C01E29EC0015D
:1012E000E39E900DF29E900D11240480F581E02D77
:1012F000E80FF91F2D2D3C2DC901DC01349680E14A
:1013000001900D928150E1F78D2D9C2D1F910F9131
:10131000FF90EF90DF90CF9008957F928F929F92F1
:10132000AF92BF92CF92DF92EF92FF920F931F93F3
:10133000CF93DF937C014A015B01DC011796CC90CF
:1013400001E010E002C0000F111F2A95E2F7CFEF75
:10135000DFEFDD2484E1782E21C0C7016D2D0E94CE
:101360004A09282F879DC0011124D7011496ED91B9
:10137000FC911597E80FF91F80819181A281B381BB
:1013800088169906AA06BB0658F0848190E080234F
:101390009123892B11F0C22FD0E0D394DC14E8F212
:1013A000CE01DF91CF911F910F91FF90EF90DF90D1
:1013B000CF90BF90AF909F908F907F9008955F9255
:1013C0006F927F928F929F92AF92BF92CF92DF9255
:1013D000EF92FF920F931F93CF93DF93982E892E56
:1013E000EB01542E89010E94DF0B892D982D9C0161
:1013F000D901EDE4F2E08CE001900D928150E1F72B
:1014000088819981AA81BB81A801662757FD6095D3
:10141000762F480F591F6A1F7B1F34E1632E712CF2
:10142000CE01252D0E948D092FEF8F3F920759F194
:10143000869D5001879DB00C969DB00C1124EC81C7
:10144000FD81EA0DFB1D892D982DC580D680E78092
:10145000F084018512852385348545855685678509
:1014600070890E946E2BEC81FD81EA0DFB1D40818D
:101470005181628173818389882311F541505040E5
:1014800060407040CDCF852D90E0FC01EE0FFF1F36
:10149000E80FF91FEE0FFF1FEE0FFF1FEE5EFA4F72
:1014A000892D982DC080D180E280F3800481158140
:1014B0002681378140855185628573850E946E2B18
:1014C0000E94D90B892D982DDF91CF911F910F91FB
:1014D000FF90EF90DF90CF90BF90AF909F908F9054
:1014E0007F906F905F9008956F927F928F929F92FE
:1014F000AF92BF92CF92DF92EF92FF920F931F9322
:10150000DF93CF93CDB7DEB760970FB6F894DEBF09
:101510000FBECDBF3C0189829A82AB82BC82CD8254
:10152000DE82EF82F88609871A872B873C874D87F2
:101530005E876F87788BDC0117969C9117971896BA
:101540008C91981710F080E074C00E94DF0BC301EB
:10155000F30167810E944A09D82E84E1D89EC00118
:101560001124D301ED90FD900D911C9113971496C9
:10157000ED91FC91159729A13AA1442737FD40959B
:10158000542F2E0D3F1D401F511FE80FF91F2193AF
:10159000319341935193DE01119680E10D900192B8
:1015A0008150E1F7F30107810023C9F144E1E42E02
:1015B000F12C0150C301602F0E944A09182FF3013A
:1015C000A481B5818D2D90E08E9DF0018F9DF00D51
:1015D0009E9DF00D1124EA0FFB1F812F90E09C01CE
:1015E0002E9DC0012F9D900D3E9D900D1124A80FA2
:1015F000B91F20813181428153818D919D910D9040
:10160000BC91A02D281739074A075B0740F4C30196
:101610006D2D412F0E940409D12E002351F6D301D4
:1016200017968C9117978F5F17968C930E94D90B02
:1016300081E060960FB6F894DEBF0FBECDBFCF91AC
:10164000DF911F910F91FF90EF90DF90CF90BF90AF
:10165000AF909F908F907F906F9008952F923F92C0
:101660004F925F926F927F928F929F92AF92BF92B2
:10167000CF92DF92EF92FF920F931F93DF93CF935E
:10168000CDB7DEB760970FB6F894DEBF0FBECDBF03
:101690003C01992454E1252E312C2E010894411C43
:1016A000511C17C0C201B3010E945509AE84BF840A
:1016B0008981CA80DB80EC80FD800E811F812885B6
:1016C00039854A855B856C857D8588880E94DD1219
:1016D0009394D30117968C91882329F42FEF3FEF31
:1016E0004FEF5FEF14C0F301868190E09C01229DD3
:1016F000C001239D900D329D900D11240480F58131
:10170000E02DE80FF91F2081318142815381F301DF
:1017100080819181A281B38182179307A407B507C5
:1017200008F6992019F00E944E10982EF30180813E
:101730009181A281B3810196A11DB11D8083918306
:10174000A283B383892D60960FB6F894DEBF0FBED7
:10175000CDBFCF91DF911F910F91FF90EF90DF9060
:10176000CF90BF90AF909F908F907F906F905F9041
:101770004F903F902F9008950F931F938C01FC0181
:10178000608784E1689FC00111240E943C32F80107
:1017900084839583168217821082118212821382AB
:1017A0001F910F9108958AEB92E060E80E94BC0BB4
:1017B0000895E0E7F0E08081816080830895E0E7AC
:1017C000F0E080818E7F8083089520E730E0F9018A
:1017D00080818E7F8083E0EBF0E080818C7F80834E
:1017E000A1EBB0E08C91877F8C93E6EBF0E08081F9
:1017F0008F7D8083F90180818D7F80838C918760CC
:101800008C93808181608083E0E2F1E0808182605E
:10181000808380818E7F8083E1E2F1E080818A6134
:10182000808380818A7F808380E49CE99093270174
:101830008093260108958EBD0DB407FEFDCF8EE086
:1018400090E00197F1F78EB50895EF92FF920F9314
:101850001F937B018C018FB7F8944091C702509180
:10186000C8026091C9027091CA028FBF2FB7F89465
:101870008091C7029091C802A091C902B091CA029A
:101880002FBF841B950BA60BB70B8E159F05A007CA
:10189000B10760F31F910F91FF90EF9008951F9291
:1018A0000F920FB60F920BB60F921124DF92EF92A8
:1018B000FF920F931F932F933F934F935F936F93D9
:1018C0007F938F939F93AF93BF93EF93FF93E0909A
:1018D000C702F090C8020091C9021091CA0280911B
:1018E000CB020894E11CF11C011D111D43E0D42E14
:1018F000D80E9CE79D1540F436E8D32ED80E0894F8
:10190000E11CF11C011D111D8EE795E0B801A70136
:101910000E941E1A8CEA92E0B801A7010E94B20749
:10192000D092CB02E092C702F092C8020093C902A3
:101930001093CA028091C3029091C402A091C50283
:10194000B091C6020196A11DB11D8093C302909370
:10195000C402A093C502B093C602FF91EF91BF915C
:10196000AF919F918F917F916F915F914F913F9137
:101970002F911F910F91FF90EF90DF900F900BBE72
:101980000F900FBE0F901F90189584E361E00E94A6
:10199000B02D83E361E00E94B02D85E361E00E94F9
:1019A000B02D84E360E00E94492E83E360E00E9452
:1019B000492E85E361E00E94492E8CB580618CBD83
:1019C0008CB580648CBD08951F920F920FB60F9254
:1019D0000BB60F9211242F933F934F935F936F9306
:1019E0007F938F939F93AF93BF93EF93FF9388EC75
:1019F0008093B2008AEB92E00E942E0BFF91EF9150
:101A0000BF91AF919F918F917F916F915F914F9116
:101A10003F912F910F900BBE0F900FBE0F901F9014
:101A200018951F920F920FB60F920BB60F921124BA
:101A30002F933F934F938F939F93EF93FF934091F7
:101A4000C600E0914C03F0914D0331969F012F7732
:101A50003070319780914E0390914F0328173907CA
:101A600039F0E453FD4F408330934D0320934C03F2
:101A7000FF91EF919F918F914F913F912F910F90F7
:101A80000BBE0F900FBE0F901F9018951F920F92D4
:101A90000FB60F920BB60F9211242F933F934F93D3
:101AA0008F939F93EF93FF934091D600E091D003E3
:101AB000F091D10331969F012F773070319780914B
:101AC000D2039091D3032817390739F0E05BFC4F1C
:101AD00040833093D1032093D003FF91EF919F91E6
:101AE0008F914F913F912F910F900BBE0F900FBE92
:101AF0000F901F9018951F920F920FB60F920BB672
:101B00000F9211242F933F934F938F939F93EF93B3
:101B1000FF9340913601E0915404F09155043196C1
:101B20009F012F7730703197809156049091570420
:101B30002817390739F0EC52FC4F40833093550495
:101B400020935404FF91EF919F918F914F913F917A
:101B50002F910F900BBE0F900FBE0F901F901895F6
:101B6000CF93DF93EC019A01AB01E885F985203032
:101B700081EE380780E0480780E0580709F445C047
:101B800081E090E00A8802C0880F991F0A94E2F76A
:101B9000808360E079E08DE390E00E941134215071
:101BA0003040404050405695479537952795EC81F9
:101BB000FD813083EE81FF812083EA85FB852081D2
:101BC00041E050E0CA010E8402C0880F991F0A94B8
:101BD000E2F7282B2083EA85FB852081CA010F8448
:101BE00002C0880F991F0A94E2F7282B2083EA8508
:101BF000FB858081088802C0440F551F0A94E2F7D4
:101C0000842B8083DF91CF910895108220E130E012
:101C1000CECFDC011296ED91FC911397E058FF4F67
:101C20002191319180819181281B390B2F77307060
:101C3000C9010895DC011296ED91FC911397EE57BE
:101C4000FF4F2081318192918291E058F0408217BC
:101C5000930719F42FEF3FEF05C0E20FF31F8081C8
:101C6000282F30E0C9010895DC011296ED91FC9116
:101C70001397DF01AE57BF4F2D913C911197E0585C
:101C8000FF4F80819181E058F0408217930719F44B
:101C90002FEF3FEF0BC0E20FF31F80812F5F3F4F0D
:101CA0002F7730702D933C93282F30E0C901089591
:101CB000DC011296ED91FC911397EE57FF4F808156
:101CC0009181929382930895FC01A085B185218929
:101CD0008C9190E0022E02C0959587950A94E2F7C8
:101CE00080FFF6CF0484F585E02D608308952DE50F
:101CF00032E030935904209358048CEC92E0909396
:101D00005B0480935A0485EC90E090935D0480938B
:101D10005C0484EC90E090935F0480935E0480EC1C
:101D200090E0909361048093600481EC90E0909344
:101D300063048093620486EC90E090936504809342
:101D40006404E4E0E093660473E07093670467E082
:101D50006093680455E05093690441E040936A043D
:101D600030936C0420936B0480E593E090936E04B1
:101D700080936D0485ED90E09093700480936F04E0
:101D800084ED90E0909372048093710480ED90E074
:101D9000909374048093730481ED90E090937604A3
:101DA0008093750486ED90E0909378048093770497
:101DB000E093790470937A0460937B0450937C04DD
:101DC00040937D0430937F0420937E0484ED93E060
:101DD000909381048093800485E391E09093830441
:101DE0008093820484E391E090938504809384043B
:101DF00080E391E0909387048093860481E391E0EF
:101E0000909389048093880486E391E090938B04F7
:101E100080938A04E0938C0470938D0460938E0405
:101E200050938F04409390040895CF92DF92EF92E5
:101E3000FF920F931F930E943F2C80E00E94A12CE1
:101E40000E947E2E0E94C50C8CEA92E062E04CE17A
:101E50002FE10E94B6080E947F150E94E50B80E0EA
:101E600060E070E00E94DD0681E060E971E00E94C0
:101E7000DD068CEA92E06CE370E04AE050E00E94FC
:101E8000E7066CEB72E080E090E00E94250C8CEAA3
:101E900092E060E072E048E550E021E00FEF1FEFD4
:101EA0000E94CC0888E594E040E052EC61E070E0EC
:101EB0000E94B00D68E273E280E090E00E94250C81
:101EC00085E00E949A068C0181E00E949A067C01BE
:101ED00082E00E949A066C0188E594E0B8014AE02D
:101EE00050E00E94F82688E594E068E272E00E94E3
:101EF000202688E594E0B7014AE050E00E94F826E9
:101F000088E594E068E272E00E94202688E594E08B
:101F1000B6014AE050E00E9422276AE070E080E0CB
:101F200090E0CCCFCF93DF93C1E9D4E0CE010E9403
:101F30000103CE0103960E940103CE0106960E9482
:101F40000103299684E0C73CD80781F787EC94E029
:101F50000E940103DF91CF9108950F931F93CF93B8
:101F6000DF93082F162F83E0689FE001112489E09A
:101F7000089FC0011124C80FD91FCF56DB4FCE01D7
:101F800061E00E947606CE016EE04FEF53E020E064
:101F90000E942106CE016BE04BE450E020E00E945D
:101FA0002106CE016CE045E550E020E00E942106CC
:101FB000CE016DE04DE750E020E00E942106CE0109
:101FC00065E042E350E020E00E942106CE016AE194
:101FD00041E050E020E00E942106CE016BE141E0AB
:101FE00050E020E00E9421061123A9F0113099F45D
:101FF000033060F4CE016CE140E450E020E00E9448
:102000002106CE016DE140E850E010C0CE016CE148
:1020100040E850E004C0CE016CE140E450E020E034
:102020000E942106CE016DE140E450E020E00E94D4
:102030002106CE0160E340E250E020E00E9421064C
:10204000033070F4113029F4CE0166E047EC50E023
:1020500014C01230A9F4CE0166E043E451E00DC093
:10206000113029F4CE0168E04BE353E006C0123092
:1020700039F4CE0168E04AEB52E020E00E942106EC
:1020800068E270E080E090E00E94250CCE010E94A2
:102090003704DF91CF911F910F9108952F923F92B6
:1020A0004F925F926F927F928F929F92AF92BF9268
:1020B000CF92DF92EF92FF920F931F93DF93CF9314
:1020C000CDB7DEB7C056D0400FB6F894DEBF0FBE16
:1020D000CDBF20E635E06F963FAF2EAF6F9733242C
:1020E000AA24BB24B1C0D6010D911C91F4018081BA
:1020F0009181081B190B09F487C0232D30E0A196AC
:102100003FAF2EAFA197E1E0F0E0EC0FFD1FE20F33
:10211000F31FD2018C91808380E0B2E0BA1508F4FD
:1021200081E00E94B603282EF4010190F081E02D99
:102130006D96FFAFEEAF6D97980117FF03C0309516
:1021400021953F4FB901882777FD8095982F0E94F0
:10215000E62F29E53CE44BED52E40E9468317B0117
:102160008C01D3016D917C91882777FD8095982F04
:102170000E94E62F9B01AC01C801B7010E941A2FF3
:102180007B018C0120E030E040E85FE30E94132FE8
:1021900088231CF461E070E011C0C801B70120E0A1
:1021A00030EC4FE754E40E94F43018161CF46FEF43
:1021B00073E004C0C801B7010E94B32FA196EEAD31
:1021C000FFADA197EE0FFF1F21E030E02C0F3D1F68
:1021D000E20FF31F822D992787FD9095AC016D9634
:1021E000AEADBFAD6D974A9FC0014B9F900D5A9FFA
:1021F000900D11248A5F9D4F938B828B77AB66ABDA
:102200003394F601B183A08322E030E0C20ED31EE6
:10221000820E931E0894411C511C620E731E6F9611
:102220004EAD5FAD6F97C416D50609F05CCF08942C
:10223000A11CB11CC60106966F969FAF8EAF6F971B
:1022400096E0A916B10409F1C501880F991F8A0DFE
:102250009B1D9C01220F331FEAE5CE2EE5E0DE2E0A
:10226000C20ED31E7AEC872E74E0972E820E931E38
:102270006BE6462E62E0562E480E591E5EEE652E27
:1022800054E0752E620E731E2ECF832DBE016F5F3C
:102290007F4FAE014D5E5F4F9E01295C3F4F0E9414
:1022A0003705832DC05ADF4F0FB6F894DEBF0FBE3F
:1022B000CDBFCF91DF911F910F91FF90EF90DF90F5
:1022C000CF90BF90AF909F908F907F906F905F90D6
:1022D0004F903F902F9008952F923F924F925F9290
:1022E0006F927F928F929F92AF92BF92CF92DF9226
:1022F000EF92FF920F931F93DF93CF93CDB7DEB78B
:102300006E970FB6F894DEBF0FBECDBFEF82F88692
:1023100009871A872B873C874D875E876F87788B65
:10232000898B9A8BEF80F88409851A856F84788869
:1023300089889A888B859C85AD85BE858B8B9C8B87
:10234000AD8BBE8BC801B70120E030E040E050E02B
:102350000E94F43018161CF4C801B70103C0C8016C
:10236000B701905820E030E040EA50E40E94872E08
:102370005B016C01C401B301A40193010E946831A7
:102380007B018C01C601B501A60195010E9468314F
:102390009B01AC01C801B7010E94872E0E94D53174
:1023A00020E030E040EA50E40E94862E6B8F7C8F64
:1023B0008D8F9E8FC401B301A60195010E941A2F33
:1023C0000E94EB2E6F8B788F898F9A8F6B8D7C8D0F
:1023D0008D8D9E8D9B01AC010E9468313B014C01AB
:1023E0006B897C898D899E899B01AC010E94683133
:1023F0001B012C01C401B301A20191010E94872E8F
:102400007B018C010E94D5315B016C01C801B701D1
:102410002DEC3CE44BE852E40E94862E7B018C01BB
:10242000C601B50123E333E343E851E40E94683178
:102430009B01AC01C801B7010E941A2F7B018C01DE
:1024400068E471E28CE493E4A40193010E94862E77
:10245000A20191010E94862E27E431EE4FE353E45E
:102460000E941A2F5B016C01C801B701A8019701F6
:102470000E9468319B01AC0160E070E080E89FE35E
:102480000E94862E0E94D5319B01AC0117FB10954E
:1024900017F91095C801B7010E941A2F0E94EB2E60
:1024A0003B014C016B897C898D899E892B8D3C8DEC
:1024B0004D8D5E8D0E941A2F0E94EB2E7B018C01A8
:1024C000C601B501A60195010E9468319B01AC01CE
:1024D00060E070E080E89FE30E94862E0E94D53184
:1024E0009B01AC01D7FAD094D7F8D094C601B501BE
:1024F0000E941A2F0E94EB2E20E030E849E154ECB4
:102500000E9468312BED3FE049E450E40E941A2F0D
:102510000E94B32F7E836D83C401B301A80197018C
:102520000E94872E20E030E849E154E40E9468319F
:102530002BED3FE049E450E40E941A2F20E030E800
:1025400049E953E40E94872E0E94B32F7C836B835A
:102550006F89788D898D9A8D20E030E849E154E4C7
:102560000E9468312BED3FE049E450E40E941A2FAD
:102570000E94B32F7A83698329813A814B815C81E0
:102580006D817E8180E090E06E960FB6F894DEBF9C
:102590000FBECDBFCF91DF911F910F91FF90EF90B4
:1025A000DF90CF90BF90AF909F908F907F906F9073
:1025B0005F904F903F902F9008952F923F924F92AF
:1025C0005F926F927F928F929F92AF92BF92CF92C3
:1025D000DF92EF92FF920F931F93DF93CF93CDB7CC
:1025E000DEB76E970FB6F894DEBF0FBECDBF898FF2
:1025F000CF82D886E986FA860B871C872D873E878F
:102600004F87588B698B7A8BBB8EAA8E8C8E8820D5
:10261000E1F0760109851A852B853C854D855E851F
:102620006F85788989899A890E946C112B8B3C8BE4
:102630004D8B5E8B6F8B788FDE011196FE0173964A
:1026400086E001900D928150E1F72AEC422E24E0C1
:10265000522E9EEE692E94E0792E82E1282E85E09E
:10266000382E88249924398D232F30E03E8F2D8FEA
:102670008D8D9E8D082C02C0959587950A94E2F762
:1026800080FF60C08C8D882349F0D101FE01379610
:102690008CE001900D928150E1F73AC05401AA0CF0
:1026A000BB1CA80CB91CAA0CBB1CAA0CBB1CE2E1ED
:1026B000F5E0AE0EBF1EC501CF80D884E984FA8450
:1026C0000B851C852D853E854F85588969897A89BA
:1026D0000E946E2BF501E080F1800281138124813C
:1026E00035814681578160857185828593850E94F9
:1026F0006C112B8B3C8B4D8B5E8B6F8B788FDE013F
:102700001196FE01739686E001900D928150E1F7DB
:102710008B819C814D815E8129813A81F2013183D7
:1027200020832A8D3B8DF30131832083F201938333
:102730008283F30133832283F20155834483F301BF
:10274000358324830894811C911C26E030E0420EDE
:10275000531E620E731E8CE090E0280E391E96E028
:102760008916910409F084CF6E960FB6F894DEBFF7
:102770000FBECDBFCF91DF911F910F91FF90EF90D2
:10278000DF90CF90BF90AF909F908F907F906F9091
:102790005F904F903F902F9008952F923F924F92CD
:1027A0005F926F927F928F929F92AF92BF92CF92E1
:1027B000DF92EF92FF920F931F93DF93CF93CDB7EA
:1027C000DEB762970FB6F894DEBF0FBECDBF9E870F
:1027D0008D877B018E010F5F1F4F3DE0C32ED12CF3
:1027E000CC0EDD1EF701619171917F01882777FD85
:1027F0008095982F0E94E62F2BED3FE049E450E4AE
:102800000E94683120E030E849E154E40E941A2F28
:10281000F80161937193819391938F01EC15FD05FC
:1028200009F769857A858B859C852BED3FE049EC1E
:102830005FE30E94862E0E94172F27E431EE4FE3BC
:1028400053EC0E94683128E431E24CE453E40E94E6
:10285000872E7B018C010E94D5311B012C01C80100
:10286000B7012DEC3CE44BE852E40E94862E7B013C
:102870008C01C201B10123E333E343E851E40E9438
:1028800068319B01AC01C801B7010E941A2F7B017E
:102890008C01A80197010E9468319B01AC0160E0A6
:1028A00070E080E89FE30E94862E0E94D5319B0154
:1028B000AC01C801B7010E941A2F0E94EB2E2D8196
:1028C0003E814F8158850E94872E2BED3FE049ECD9
:1028D0005FE30E94862E7B018C01C8010E94172FA6
:1028E0009B01AC01C201B1010E94683120E030E0DF
:1028F00040EA50E40E94872E6F87788B898B9A8BF1
:10290000A980BA80CB80DC80C601B5010E94172F58
:102910003B014C01B701C8010E94CB317B018C0106
:10292000C601B5010E94CB315B016C016F857889CE
:1029300089899A89A40193010E94683120E030E0DE
:1029400040EA50E40E94862EED85FE856083718307
:1029500082839383C201B101A80197010E9468316B
:10296000ED85FE8564837583868397836F8578897B
:1029700089899A89A60195010E946831ED85FE85B5
:102980006087718782879387CF0162960FB6F8942C
:10299000DEBF0FBECDBFCF91DF911F910F91FF9092
:1029A000EF90DF90CF90BF90AF909F908F907F90EF
:1029B0006F905F904F903F902F9008954F925F924D
:1029C0006F927F928F929F92AF92BF92CF92DF923F
:1029D000EF92FF920F931F93DF93CF93CDB7DEB7A4
:1029E00062970FB6F894DEBF0FBECDBF2C01662EE6
:1029F0000E94DF0B6E010894C11CD11C00E010E0A6
:102A000089E0689E40011124C801880F991F800F3A
:102A1000911F880D991D8F569B4F64E20E9482047E
:102A20006AEFE62E6DEFF62EE80EF91EAA2422E0DC
:102A3000261510F4AA24A3948A2D0E94B603992780
:102A400087FD9095FC01EE9DC001EF9D900DFE9DD0
:102A5000900D1124F601819391936F010F5F1F4F29
:102A60000330110589F60E94D90BCE010796BE01ED
:102A70006F5F7F4F0E94CD13EF80F88409851A8520
:102A80008A2D0E94B603AB84BC84CD84DE846F841F
:102A9000788889889A88992787FD9095A92FB92FDA
:102AA000BC01CD010E94E62F9B01AC01C801B7011A
:102AB0000E946831F2016083718382839383A482D0
:102AC000B582C682D7826086718682869386C2016D
:102AD00062960FB6F894DEBF0FBECDBFCF91DF91E7
:102AE0001F910F91FF90EF90DF90CF90BF90AF902C
:102AF0009F908F907F906F905F904F9008952F924E
:102B00003F924F925F927F928F929F92AF92BF922D
:102B1000CF92DF92EF92FF920F931F93DF93CF93A9
:102B2000CDB7DEB72F970FB6F894DEBF0FBECDBF7F
:102B300060E472E48FE090E00E94DC02EE24FF2467
:102B400046E0742E34E0232E312C2C0E3D1E75C031
:102B5000BC2CCE010196F80160810E94FB02D401D9
:102B6000FE01319683E001900D928150E1F78A2DAC
:102B70006B2D0E94AD0F892B01F18CEA92E060E091
:102B800049E329E30E94B608F0E3AF0EA0923802B1
:102B9000BF0EB09240028CEA92E06DE272E040E536
:102BA00050E021E00FEF1FEF0E94CC0864E17EE1CE
:102BB00080E090E00E94250CEECFC601880F991F9F
:102BC0008C0D9D1D840D951D8F569B4F68E141E036
:102BD00050E020E00E94210683E0B80E8CEA92E0EB
:102BE0006B2D472D0E94A1080894C11CD11C0F5FBA
:102BF0001F4FE3E0F0E08E0E9F1EF3E0CF16D104EE
:102C000009F0A6CF8701000F111F0E0D1F1D000F29
:102C1000111F000F111F0E5E1A4FC1016A2D0E9475
:102C2000DE14D801F1018CE001900D928150E1F7A2
:102C30000894E11CF11C7A94D1F0AE2C8701000FAE
:102C4000111F0E0D1F1D05591D4FC701F3E0880F01
:102C5000991FFA95E1F78E0D9F1DE1E98E2EE4E0B4
:102C60009E2E880E991ECC24DD242C0171CF2F9628
:102C70000FB6F894DEBF0FBECDBFCF91DF911F918D
:102C80000F91FF90EF90DF90CF90BF90AF909F900B
:102C90008F907F905F904F903F902F900895089570
:102CA0002F923F924F925F926F927F928F929F925C
:102CB000AF92BF92CF92DF92EF92FF920F931F934A
:102CC000DF93CF93CDB7DEB7C359D0400FB6F8949A
:102CD000DEBF0FBECDBFEB966FAFEB97BE016F5B54
:102CE0007F4FDB01AC92FE01EE5BFF4FB082FE0135
:102CF000ED5BFF4FC082FE01EC5BFF4FD082CE0147
:102D00008B5B9F4FFC01E082FE01EA5BFF4FF0828C
:102D1000FE01E95BFF4F0083FE01E85BFF4F10837C
:102D2000DE01A75BBF4F2C93FE01E65BFF4F3083B4
:102D3000FE01E55BFF4F4083FE01E45BFF4F5083E4
:102D4000EC968FAEEC97FB0120813181428153815B
:102D5000A5962CAF3DAF4EAF5FAFA597FC0120818C
:102D6000318142815381A1962CAF3DAF4EAF5FAF11
:102D7000A1972D913D914D915C916D962CAF3DAFFA
:102D80004EAF5FAF6D97C155DF4F88819981AA81A2
:102D9000BB81CF5AD04069968CAF9DAFAEAFBFAF6D
:102DA0006997CD54DF4F288139814A815B81C35BAC
:102DB000D04065962CAF3DAF4EAF5FAF6597C9541D
:102DC000DF4F88819981AA81BB81C75BD040619622
:102DD0008CAF9DAFAEAFBFAF6197C255DF4F98814B
:102DE000CE5AD040692F70E0882777FD8095982FC4
:102DF0000E94E62F9B01AC0160E070E080E89FE359
:102E00000E941A2FEA966CAF7DAF8EAF9FAFEA9704
:102E1000C455DF4F68817981CC5AD040882777FD2F
:102E20008095982F0E94E62FEA962CAD3DAD4EADD1
:102E30005FADEA970E946831E6966CAF7DAF8EAFCA
:102E40009FAFE6978820B9F420E030E040E050E002
:102E5000E1962CAF3DAF4EAF5FAFE197AD962CAF93
:102E60003DAF4EAF5FAFAD97A9962CAF3DAF4EAF24
:102E70005FAFA99738C0EB968FADEB970E94D82B28
:102E8000F82EC855DF4F688179818A819B81C85AA5
:102E9000D0400E94B32F8B019C01CE0149966AEB72
:102EA00072E04F2D98010E94DF0989A19AA1ABA180
:102EB000BCA1E1968CAF9DAFAEAFBFAFE1972D8DBA
:102EC0003E8D4F8D58A1AD962CAF3DAF4EAF5FAF4D
:102ED000AD97898D9A8DAB8DBC8DA9968CAF9DAF2A
:102EE000AEAFBFAFA9970F2EF0E04F2EF0E05F2EF0
:102EF000F0E06F2EF0E07F2EF02DE2961FAEE2970D
:102F0000C157DF4F1882CF58D040C057DF4F1882CB
:102F1000C059D040CF56DF4F1882C159D04033241A
:102F2000C457DF4F1882CC58D040C357DF4F1882A8
:102F3000CD58D040C257DF4F1882CE58D0402224FF
:102F4000C857DF4F1882C858D040C757DF4F188284
:102F5000C958D040C657DF4F1882CA58D040C5570D
:102F6000DF4F1882CB58D040CC57DF4F1882C4585F
:102F7000D040CB57DF4F1882C558D040CA57DF4FDB
:102F80001882C658D040C957DF4F1882C758D04062
:102F9000C058DF4F1882C058D040CF57DF4F18823B
:102FA000C158D040CE57DF4F1882C258D040CD57BD
:102FB000DF4F1882C358D040ED961FAEED97EE96C6
:102FC0001FAEEE97EF961FAEEF97C158DF4F1882F6
:102FD000CF57D040DE01D196CE56DF4FB983A883BC
:102FE000C259D04006C2C301B201EA962CAD3DAD34
:102FF0004EAD5FADEA970E94872E2B013C01EC9607
:10300000BFADEC97BB2309F068C0C857DF4FE8811C
:10301000C858D040CC57DF4FE883C458D040C7577A
:10302000DF4FF881C958D040CB57DF4FF883C558E0
:10303000D040C657DF4F2881CA58D040CA57DF4F0B
:103040002883C658D040C557DF4F3881CB58D04071
:10305000C957DF4F3883C758D040C457DF4F488126
:10306000CC58D040C058DF4F4883C058D040C357D9
:10307000DF4F5881CD58D040CF57DF4F5883C158CC
:10308000D040C257DF4F8881CE58D040CE57DF4F57
:103090008883C258D040CD57DF4F2882C358D040D4
:1030A000C157DF4F9881CF58D040ED969FAFED9735
:1030B000C057DF4FA881C059D040EE96AFAFEE9712
:1030C000CF56DF4FB881C159D040EF96BFAFEF97D1
:1030D000C158DF4F3882CF57D040A9966CAD7DAD37
:1030E0008EAD9FADA99769962CAD3DAD4EAD5FAD50
:1030F0006997A596ECACFDAC0EAD1FADA59763012D
:1031000052010E942B28C857DF4F6883C858D0400F
:10311000C757DF4F7883C958D040C657DF4F8883E1
:10312000CA58D040C557DF4F9883CB58D040AD9692
:103130006CAD7DAD8EAD9FADAD9765962CAD3DADC3
:103140004EAD5FAD6597A196ECACFDAC0EAD1FAD7D
:10315000A1970E942B28C457DF4F6883CC58D040DA
:10316000C357DF4F7883CD58D040C257DF4F888395
:10317000CE58D040292EE1966CAD7DAD8EAD9FAD81
:10318000E19761962CAD3DAD4EAD5FAD61976D960B
:10319000ECACFDAC0EAD1FAD6D970E942B28C15756
:1031A000DF4F6883CF58D040C057DF4F7883C05976
:1031B000D040CF56DF4F8883C159D040392E482F99
:1031C000592FCB01DA0189879A87AB87BC87C4570F
:1031D000DF4F2881CC58D040C357DF4F3881CD58BE
:1031E000D040C257DF4F4881CE58D040522DC90140
:1031F000DA018D839E83AF83B887C857DF4F28815C
:10320000C858D040C757DF4F3881C958D040C6573B
:10321000DF4F4881CA58D040C557DF4F5881CB583F
:10322000D040C901DA0189839A83AB83BC83CC5730
:10323000DF4F2881C458D040CB57DF4F3881C55865
:10324000D040CA57DF4F4881C658D040C957DF4FDA
:103250005881C758D040C901DA018D879E87AF8752
:10326000B88BC058DF4F2881C058D040CF57DF4FB0
:103270003881C158D040CE57DF4F4881C258D04026
:10328000CD57DF4F5881C358D040C901DA01898B2F
:103290009A8BAB8BBC8BED962FADED97EE963FAD39
:1032A000EE97EF964FADEF97C158DF4F5881CF574C
:1032B000D040C901DA018D8B9E8BAF8BB88FEDB7F3
:1032C000FEB73C970FB6F894FEBF0FBEEDBFADB78B
:1032D000BEB71196FE013D968CE001900D92815093
:1032E000E1F7CE018596C980DA80EB80FC800D8104
:1032F0001E812F81388549855A856B857C850E9482
:103300005D29CE56DF4FA881B981C259D040E0E196
:103310001D92EA95E9F7DE01D296FE01B5968CE0A2
:1033200001900D928150E1F7EB96FFADEB97F9AB71
:10333000E6966CAD7DAD8EAD9FADE6970E94B32F46
:103340007FAF6EAFEC962FADEC9721962FAF219704
:103350004DB75EB7465F5F4F0FB6F8945EBF0FBEC6
:103360004DBF0DB71EB70F5F1F4FC855DF4F6881A8
:1033700079818A819B81C85AD0400E94B32FD8019D
:103380006D937C938AEB92E089A89AA8ABA8BCA81D
:10339000CDA8DEA8EFA8F8AC09AD1AAD2BAD3CADB9
:1033A0004DAD5EAD6FAD21967FAD21970E94740A41
:1033B000C855DF4F688179818A819B81C85AD04086
:1033C000E6962CAD3DAD4EAD5FADE6970E94872EE3
:1033D000C855DF4F688379838A839B83C85AD0405E
:1033E000E296BFADE297BF5FE296BFAFE2970F9064
:1033F0000F90E296EFADE297C255DF4FF881CE5ABB
:10340000D040EF1708F4EFCDCD56DF4F0FB6F8944C
:10341000DEBF0FBECDBFCF91DF911F910F91FF9007
:10342000EF90DF90CF90BF90AF909F908F907F9064
:103430006F905F904F903F902F9008952F923F9202
:103440004F925F926F927F928F929F92AF92BF92B4
:10345000CF92DF92EF92FF920F931F93DF93CF9360
:10346000CDB7DEB7C453D1400FB6F894DEBF0FBE60
:10347000CDBF3C017A018B01809112069091130619
:10348000A0911406B09115069A01AB01281B390BC7
:103490004A0B5B0B8091160690911706AA2797FDA1
:1034A000A095BA2F281739074A075B0710F40C9428
:1034B000CF25E0921206F0921306009314061093A3
:1034C000150622E930E0620E731ED3018C91EEE600
:1034D000FFEF6E0E7F1E882309F44BC02CE530E011
:1034E000620E731ED3018C91E4EAFFEF6E0E7F1E15
:1034F000EAE1F6E0682F70E09B012E0F3F1FD30139
:10350000AD59BF4F02C08C918193E217F307D9F7F1
:1035100010921906109218068091210690E00E94E0
:10352000EA33809321062EE530E0620E731ED3014C
:103530006C9170E0882777FD8095982F0E94E62F88
:1035400020E030E040E850E40E9468310E94B32F50
:103550007093170660931606E4E3F0E06E0E7F1E8C
:10356000D3011D923D0181E08C93EDE6FFEF6E0EDD
:103570007F1E209118063091190644E550E0640E34
:10358000751ED3018D919C91ECEAFFEF6E0E7F1EAC
:103590002817390710F00C94CF2543E950E0640E4A
:1035A000751ED3018C91EDE6FFEF6E0E7F1E882312
:1035B00011F40C94CF254FE550E0640E751ED30135
:1035C0006D917C91C9010E94EA33FC012EEF3FEF1F
:1035D000620E731ED3016C918091210690E070E021
:1035E0000E94EA3324E030E0620E731ED3012D9175
:1035F0003C914FE95FEF640E751EDC01A29FC00194
:10360000A39F900DB29F900D1124E817F90709F0C0
:1036100094C6F301EE57FF4FCB5DDE4FF983E8838D
:10362000C552D140C35EDE4F79826882CD51D14010
:10363000222433249301205B3F4FC55DDE4F398345
:103640002883CB52D140A301425A5F4FC35DDE4F66
:1036500059834883CD52D140C3018D599F4FC15DDD
:10366000DE4F99838883CF52D140D301A759BF4FF2
:10367000CF5CDE4FB983A883C153D140F301EB592E
:10368000FF4FCD5CDE4FF983E883C353D14088E41C
:10369000482E512C460C571C80912106F301E80F4F
:1036A000F11DEA5AFF4F808190E0022C02C09595EF
:1036B00087950A94E2F780FF0DC6C55DDE4FA881AD
:1036C000B981CB52D1406D917D918D919C9120E03B
:1036D00030E040E050E00E94132F882309F0C5C27B
:1036E000F101EE0FFF1FE20DF31DEE0FFF1FEE0FB6
:1036F000FF1FE60DF71DE080F18002811381248118
:1037000035814681578160857185828593850E94C8
:10371000A82ACB5EDE4F2883C551D140CA5EDE4F5A
:103720003883C651D140C95EDE4F4883C751D1406E
:10373000C85EDE4F5883C851D140C75EDE4F6883F4
:10374000C951D140C65EDE4F7883CA51D140C55EB3
:10375000DE4F8883CB51D140C45EDE4F9883CC517D
:10376000D140DE011196FE01EB5EFE4F88E0019034
:103770000D928150E1F760911806709119067095CD
:1037800061957F4F80E090E00E94E42FEAE6F0E050
:103790006E0E7F1ED3012D913D914D915D913D01A6
:1037A0000E941A2F0E94872F20E030E040E85FE35C
:1037B0000E94872E9B01AC01F3016081718182819F
:1037C0009381A2E9BFEF6A0E7B1E0E941A2F7B0134
:1037D0008C01F201208131814281538164817581A4
:1037E000868197810E94202ACB5EDE4F2883C551B7
:1037F000D140CA5EDE4F3883C651D140C95EDE4F2C
:103800004883C751D140C85EDE4F5883C851D1406C
:10381000C75EDE4F6883C951D140C65EDE4F7883F4
:10382000CA51D140C55EDE4F8883CB51D140C45EC2
:10383000DE4F9883CC51D140DE011996FE01EB5E3C
:10384000FE4F88E001900D928150E1F729813A8185
:103850004B815C816D817E818F819885A984BA843A
:10386000CB84DC84ED84FE840F8518890E940229B4
:10387000CB5EDE4F2883C551D140CA5EDE4F388310
:10388000C651D140C95EDE4F4883C751D140C85EA2
:10389000DE4F5883C851D140C75EDE4F6883C9519F
:1038A000D140C65EDE4F7883CA51D140C55EDE4F3F
:1038B0008883CB51D140C45EDE4F9883CC51D14038
:1038C000DE01A75ABF4FFE01EB5EFE4F88E001907C
:1038D0000D928150E1F7609118067091190680E011
:1038E00090E00E94E42FF301E659FF4F20813181DF
:1038F000428153810E94F43018160CF0D1C3F101BB
:10390000EE0FFF1FE20DF31DEE0FFF1FEE0FFF1F67
:10391000EE5EFA4FE080F1800281138124813581CF
:103920004681578160857185828593850E94A82A8A
:10393000DE01AB5EBE4F2C93FE01EA5EFE4F30838C
:10394000FE01E95EFE4F4083FE01E85EFE4F5083BC
:10395000FE01E75EFE4F6083FE01E65EFE4F708370
:10396000FE01E55EFE4F8083FE01E45EFE4F908324
:103970009E012F5E3F4FFD0188E00190D9010D921D
:103980009D018150D1F7F9E58F2E912C8C0E9D1E53
:10399000F401208131814281538164817581868166
:1039A0009781A988BA88CB88DC88ED88FE880F8942
:1039B000188D0E94C529DE01AB5EBE4F2C93FE011F
:1039C000EA5EFE4F3083FE01E95EFE4F4083FE015A
:1039D000E85EFE4F5083FE01E75EFE4F6083FE010E
:1039E000E65EFE4F7083FE01E55EFE4F8083FE01C2
:1039F000E45EFE4F90839401FD0188E00190D901BF
:103A00000D929D018150D1F780912106F301E80FBD
:103A1000F11DEA5AFF4F2080E9E5EE2EF12CEC0E65
:103A2000FD1ECE0187579F4FF70100811181228132
:103A3000338144815581668177810E946F2A2EE50A
:103A400030E0620E731ED3018C9190E0E5E0F0E06F
:103A50006E0E7F1ED3012D913C91829F2001839F8A
:103A6000500C929F500C1124E6E0F0E06E0E7F1E89
:103A7000D3013C90E7E9FFEF6E0E7F1ED7012C913A
:103A800011963C91119712964C91129713965C9156
:103A9000139714966C91149715967C91159716961A
:103AA0008C91169717969C910F2EF0E0EF2EF0E078
:103AB000FF2EF0E00F2FFFE31F2FF02D0E94202A92
:103AC000DE01AB5EBE4F2C93FE01EA5EFE4F3083FB
:103AD000FE01E95EFE4F4083FE01E85EFE4F50832B
:103AE000FE01E75EFE4F6083FE01E65EFE4F7083DF
:103AF000FE01E55EFE4F8083FE01E45EFE4F908393
:103B00009E01275E3F4FFD0188E00190D9010D9293
:103B10009D018150D1F775E9A72EB12CAC0EBD1EC9
:103B2000C501098D1A8D2B8D3C8D4D8D5E8D6F8D50
:103B300078A10E946F2AE5E6F0E06E0E7F1ED301A9
:103B40002D913D914D915C91EBE9FFEF6E0E7F1E43
:103B5000FE01EF55FF4F80E090E0A0E0B0E08083F1
:103B60009183A283B38324833583468357838087DD
:103B70009187A287B3872DB73EB72C5030400FB640
:103B8000F8943EBF0FBE2DBFADB7BEB711968CE007
:103B900001900D928150E1F7CE0183559F4FD501E1
:103BA000CC901196DC9011971296EC901297139688
:103BB000FC90139714960C91149715961C911597D9
:103BC00016962C91169717963C91179718964C912C
:103BD000189719965C9119971A966C911A971B96DB
:103BE0007C910E949A28EDB7FEB737970FB6F894EC
:103BF000FEBF0FBEEDBF319669E8862E912C8C0E6C
:103C00009D1E20E030E040E050E0ADB7BEB7119619
:103C10002D933D934D935C93149755824482368245
:103C20001896FE01E355FF4F8CE001900D928150F4
:103C3000E1F7C301622DF401A080B180C280D3807E
:103C4000E480F58006811781208531854285538582
:103C500088240E9450162DB73EB72D5E3F4F0FB6F9
:103C6000F8943EBF0FBE2DBF4BC3822D0E94EE2B9A
:103C7000CB5EDE4F2883C551D140CA5EDE4F38830C
:103C8000C651D140C95EDE4F4883C751D140C85E9E
:103C9000DE4F5883C851D140C75EDE4F6883C9519B
:103CA000D140C65EDE4F7883CA51D140C55EDE4F3B
:103CB0008883CB51D140C45EDE4F9883CC51D14034
:103CC000DE01AF5ABF4FFE01EB5EFE4F88E0019070
:103CD0000D928150E1F7F101EE0FFF1FE20DF31D90
:103CE000EE0FFF1FEE0FFF1FE60DF71DE080F180C6
:103CF00002811381248135814681578160857185D8
:103D0000828593850E94A82ACB5EDE4F2883C55109
:103D1000D140CA5EDE4F3883C651D140C95EDE4F06
:103D20004883C751D140C85EDE4F5883C851D14047
:103D3000C75EDE4F6883C951D140C65EDE4F7883CF
:103D4000CA51D140C55EDE4F8883CB51D140C45E9D
:103D5000DE4F9883CC51D140DE019196FE01EB5E9F
:103D6000FE4F88E001900D928150E1F729A13AA120
:103D70004BA15CA16DA17EA18FA198A56296AFAC6D
:103D800062976396BFAC63976496CFAC6497659671
:103D9000DFAC65976696EFAC66976796FFAC679762
:103DA00068960FAD689769961FAD69970E940229C2
:103DB000CB5EDE4F2883C551D140CA5EDE4F3883CB
:103DC000C651D140C95EDE4F4883C751D140C85E5D
:103DD000DE4F5883C851D140C75EDE4F6883C9515A
:103DE000D140C65EDE4F7883CA51D140C55EDE4FFA
:103DF0008883CB51D140C45EDE4F9883CC51D140F3
:103E0000DE019996FE01EB5EFE4F88E001900D9277
:103E10008150E1F729A53AA54BA55CA56DA57EA526
:103E20008FA598A9D201AC901196BC9011971296CB
:103E3000CC9012971396DC9013971496EC901497ED
:103E40001596FC90159716960C91169717961C913F
:103E50000E94C529CB5EDE4F2883C551D140CA5E82
:103E6000DE4F3883C651D140C95EDE4F4883C7510B
:103E7000D140C85EDE4F5883C851D140C75EDE4F87
:103E80006883C951D140C65EDE4F7883CA51D140A4
:103E9000C55EDE4F8883CB51D140C45EDE4F988330
:103EA000CC51D140DE01D196FE01EB5EFE4F88E0A1
:103EB00001900D928150E1F729A93AA94BA95CA97B
:103EC0006DA97EA98FA998ADCB5DDE4F08811981C0
:103ED000C552D1400E94E32ACB5EDE4F2883C551F4
:103EE000D140CA5EDE4F3883C651D140C95EDE4F35
:103EF0004883C751D140C85EDE4F5883C851D14076
:103F0000C75EDE4F6883C951D140C65EDE4F7883FD
:103F1000CA51D140C55EDE4F8883CB51D140C45ECB
:103F2000DE4F9883CC51D140DE01D996FE01EB5E85
:103F3000FE4F88E001900D928150E1F729AD3AAD36
:103F40004BAD5CAD6DAD7EAD8FAD21969FAD219734
:103F5000F201A080B180C280D380E480F580068128
:103F600017810E940229CB5EDE4F2883C551D140C4
:103F7000CA5EDE4F3883C651D140C95EDE4F4883EA
:103F8000C751D140C85EDE4F5883C851D140C75E8B
:103F9000DE4F6883C951D140C65EDE4F7883CA5177
:103FA000D140C55EDE4F8883CB51D140C45EDE4F29
:103FB0009883CC51D140DE01AF5BBF4FFE01EB5E79
:103FC000FE4F88E001900D928150E1F722962FADCF
:103FD000229723963FAD239724964FAD2497FE0159
:103FE000EC5BFF4F5081FE01EB5BFF4F6081FE01F8
:103FF000EA5BFF4F7081FE01E95BFF4F8081FE01AC
:10400000E85BFF4F90816296AFAC62976396BFAC5E
:1040100063976496CFAC64976596DFAC65976696B8
:10402000EFAC66976796FFAC679768960FAD689799
:1040300069961FAD69970E94C529CB5EDE4F288324
:10404000C551D140CA5EDE4F3883C651D140C95EEA
:10405000DE4F4883C751D140C85EDE4F5883C851F8
:10406000D140C75EDE4F6883C951D140C65EDE4F86
:104070007883CA51D140C55EDE4F8883CB51D14091
:10408000C45EDE4F9883CC51D140DE01A75ABF4FAA
:10409000FE01EB5EFE4F88E001900D928150E1F74A
:1040A000C35EDE4FA881B981CD51D14014962D91C8
:1040B0003D914D915C911797A196ECACFDAC0EAD86
:1040C0001FADA1976D968CAD9DADAEADBFAD6D979B
:1040D000C754DF4F88839983AA83BB83C95BD040D1
:1040E000C354DF4F288339834A835B83CD5BD04041
:1040F000CF53DF4FE882F9820A831B83C15CD04033
:10410000C35DDE4FE881F981CD52D140808190E0DE
:10411000C15DDE4FA881B981CF52D1402D913C9134
:10412000829F5001839FB00C929FB00C1124CF5CF2
:10413000DE4FE881F981C153D1409080CD5CDE4FE4
:10414000A881B981C353D1402D913D914D915C918E
:1041500080E090E0A0E0B0E0CB53DF4F888399830C
:10416000AA83BB83C55CD040C753DF4F2883398304
:104170004A835B83C95CD040C353DF4F88839983F4
:10418000AA83BB83CD5CD040EDB7FEB73C970FB69A
:10419000F894FEBF0FBEEDBFF101EE0FFF1FE20D61
:1041A000F31DEE0FFF1FEE0FFF1FE60DF71D2DB7DE
:1041B0003EB72F5F3F4FAE014B535F4F8CE0DA01AC
:1041C0000D90AD01D9010D929D018150C1F7CE0135
:1041D0008F529F4FC080D180E280F380048115818F
:1041E0002681378140855185628573850E949A2892
:1041F000EDB7FEB737970FB6F894FEBF0FBEEDBF11
:10420000319661E070E0022C02C0660F771F0A94BD
:10421000E2F720E030E040E050E0ADB7BEB71196E5
:104220002D933D934D935C931497B582A48296820F
:104230001896FE01EF52FF4F8CE001900D928150D5
:10424000E1F7C301C754DF4FA880C95BD040C65413
:10425000DF4FB880CA5BD040C554DF4FC880CB5B0E
:10426000D040C454DF4FD880CC5BD040C354DF4F24
:10427000E880CD5BD040C254DF4FF880CE5BD040A9
:10428000C154DF4F0881CF5BD040C054DF4F18814D
:10429000C05CD040CF53DF4F2881C15CD040CE53AB
:1042A000DF4F3881C25CD040CD53DF4F4881C35CC3
:1042B000D040CC53DF4F5881C45CD04088248394D5
:1042C0000E945016EDB7FEB773960FB6F894FEBF76
:1042D0000FBEEDBF0894211C311CC35EDE4F288148
:1042E0003981CD51D140245F3F4FC35EDE4F3983CA
:1042F0002883CD51D14036E02316310409F0CCC9D2
:104300008091210690E0FC01E65EF94F43E650E023
:10431000640E751ED3012C912083E9EFFFEF6E0E22
:104320007F1ED3016C91E4EAFFEF6E0E7F1E0196B3
:1043300070E00E94FE33809321062CE530E0620E8F
:10434000731ED3018C91E4EAFFEF6E0E7F1EEAE14B
:10435000F6E0D301AA5ABF4FDD24282F30E02E0FFC
:104360003F1F0AC08081882319F08150808302C0DA
:104370008C91D80E31961196E217F30799F7D092E7
:104380002006F301E05BFF4F6081718182819381A0
:1043900020E030E040E050E00E94132F882309F035
:1043A0008EC0F301E85BFF4F208131814281538150
:1043B00064817581868197810F2EF0E0EF2EF0E009
:1043C000FF2EF0E80F2FFFEB1F2FF02D0E94202A69
:1043D000DE01AB5EBE4F2C93FE01EA5EFE4F3083E2
:1043E000FE01E95EFE4F4083FE01E85EFE4F508312
:1043F000FE01E75EFE4F6083FE01E65EFE4F7083C6
:10440000FE01E55EFE4F8083FE01E45EFE4F908379
:104410009E01275B3F4FFD0188E00190D9010D927D
:104420009D018150D1F79DEDE92EF12CEC0EFD1E82
:10443000FE01E75BFF4FC7010081118122813381BB
:1044400044815581668177810E946F2AEEE5F0E014
:104450006E0E7F1ED3012C91FE01EB50FF4F80E1C9
:10446000DF011D928A95E9F73196D7018CE00D9016
:1044700001928150E1F7FE01EB50FF4FD08225877A
:10448000168600D0ADB7BEB712961C921E92119739
:104490008AEB92E080809180A280B380C480D58036
:1044A000E680F78000851185228533854485558512
:1044B000668577850E94740A0F900F9067C3F30199
:1044C000EE58FF4FCD5DDE4FF983E883C352D140F4
:1044D00026E135E0C15EDE4F39832883CF51D140DC
:1044E000CF5DDE4F19821882C152D14081E5282E5E
:1044F000312C2C0E3D1E08E4402E512C460C571C2E
:10450000A301425A5F4FC95DDE4F59834883C752AA
:10451000D14015E0612E11E0712E6C0E7D1EC3019D
:104520000196C75DDE4F99838883C952D14080913F
:10453000200690E0CF5DDE4F0880C152D14002C01E
:10454000959587950A94E2F780FF00C3CF5DDE4F13
:104550008881C152D1400E94EE2BCB5EDE4F288372
:10456000C551D140CA5EDE4F3883C651D140C95EC5
:10457000DE4F4883C751D140C85EDE4F5883C851D3
:10458000D140C75EDE4F6883C951D140C65EDE4F61
:104590007883CA51D140C55EDE4F8883CB51D1406C
:1045A000C45EDE4F9883CC51D140D101FE01EB5E59
:1045B000FE4F88E001900D928150E1F7CF5DDE4F14
:1045C000E881F981C152D140EE0FFF1FCF5DDE4F70
:1045D000A881B981C152D140EA0FFB1FEE0FFF1F26
:1045E000EE0FFF1FEE5EFA4FE080F1800281138133
:1045F00024813581468157816085718582859385C7
:104600000E94A82ACB5EDE4F2883C551D140CA5EE6
:10461000DE4F3883C651D140C95EDE4F4883C75153
:10462000D140C85EDE4F5883C851D140C75EDE4FCF
:104630006883C951D140C65EDE4F7883CA51D140EC
:10464000C55EDE4F8883CB51D140C45EDE4F988378
:10465000CC51D140DE01AF59BF4FFE01EB5EFE4FA2
:1046600088E001900D928150E1F7A2962FADA297BC
:10467000A3963FADA397A4964FADA497A5965FAD23
:10468000A597A6966FADA697A7967FADA797A89674
:104690008FADA897A9969FADA997F101A080B18091
:1046A000C280D380E480F580068117810E940229B0
:1046B000CB5EDE4F2883C551D140CA5EDE4F3883C2
:1046C000C651D140C95EDE4F4883C751D140C85E54
:1046D000DE4F5883C851D140C75EDE4F6883C95151
:1046E000D140C65EDE4F7883CA51D140C55EDE4FF1
:1046F0008883CB51D140C45EDE4F9883CC51D140EA
:10470000DE01A759BF4FFE01EB5EFE4F88E001902E
:104710000D928150E1F7AA962FADAA97AB963FADC7
:10472000AB97AC964FADAC97AD965FADAD97AE96EF
:104730006FADAE97AF967FADAF97E0968FADE09738
:10474000E1969FADE197D201AC901196BC90119784
:104750001296CC9012971396DC9013971496EC90C7
:1047600014971596FC90159716960C911697179618
:104770001C910E94C529CB5EDE4F2883C551D140D4
:10478000CA5EDE4F3883C651D140C95EDE4F4883D2
:10479000C751D140C85EDE4F5883C851D140C75E73
:1047A000DE4F6883C951D140C65EDE4F7883CA515F
:1047B000D140C55EDE4F8883CB51D140C45EDE4F11
:1047C0009883CC51D140DE01AF58BF4FFE01EB5E64
:1047D000FE4F88E001900D928150E1F7E2962FADF7
:1047E000E297E3963FADE397E4964FADE497E59605
:1047F0005FADE597E6966FADE697E7967FADE797F5
:10480000E8968FADE897E9969FADE997CD5DDE4FCD
:1048100008811981C352D1400E94E32ACB5EDE4F4A
:104820002883C551D140CA5EDE4F3883C651D1407E
:10483000C95EDE4F4883C751D140C85EDE4F588302
:10484000C851D140C75EDE4F6883C951D140C65EB2
:10485000DE4F7883CA51D140C55EDE4F8883CB518D
:10486000D140C45EDE4F9883CC51D140DE01A758C1
:10487000BF4FFE01EB5EFE4F88E001900D9281502C
:10488000E1F7EA962FADEA97EB963FADEB97EC9602
:104890004FADEC97ED965FADED97EE966FADEE9761
:1048A000EF967FADEF97C158DF4F8881CF57D0404B
:1048B000C058DF4F9881C058D040F201A080B1802D
:1048C000C280D380E480F580068117810E9402298E
:1048D000CB5EDE4F2883C551D140CA5EDE4F3883A0
:1048E000C651D140C95EDE4F4883C751D140C85E32
:1048F000DE4F5883C851D140C75EDE4F6883C9512F
:10490000D140C65EDE4F7883CA51D140C55EDE4FCE
:104910008883CB51D140C45EDE4F9883CC51D140C7
:10492000DE01AF57BF4FFE01EB5EFE4F88E0019006
:104930000D928150E1F7CF57DF4F2881C158D04009
:10494000CE57DF4F3881C258D040CD57DF4F488116
:10495000C358D040CC57DF4F5881C458D040CB57B4
:10496000DF4F6881C558D040CA57DF4F7881C6589D
:10497000D040C957DF4F8881C758D040C857DF4F54
:104980009881C858D040D101AC901196BC90119735
:104990001296CC9012971396DC9013971496EC9085
:1049A00014971596FC90159716960C9116971796D6
:1049B0001C910E94C529CB5EDE4F2883C551D14092
:1049C000CA5EDE4F3883C651D140C95EDE4F488390
:1049D000C751D140C85EDE4F5883C851D140C75E31
:1049E000DE4F6883C951D140C65EDE4F7883CA511D
:1049F000D140C55EDE4F8883CB51D140C45EDE4FCF
:104A00009883CC51D140DE01A75ABF4FFE01EB5E27
:104A1000FE4F88E001900D928150E1F76D968CADCC
:104A20009DADAEADBFAD6D97C15EDE4FE881F98142
:104A3000CF51D1402081318142815381A196ECAC8C
:104A4000FDAC0EAD1FADA197C95DDE4FE881F981C8
:104A5000C752D1406081F30170E111927A95E9F774
:104A6000C751DF4F88839983AA83BB83C95ED04037
:104A7000C351DF4F288339834A835B83CD5ED040A7
:104A8000CF50DF4FE882F9820A831B83C15FD04099
:104A9000C75DDE4FA881B981C952D140FE01E751FF
:104AA000FF4F8CE001900D928150E1F781E090E0A2
:104AB000CF5DDE4F0880C152D14002C0880F991FE0
:104AC0000A94E2F7D3018C931D966C931D971E9662
:104AD0001C921E9781E01F968C931F9700D0EDB714
:104AE000FEB7128211828AEB92E08C9011969C9014
:104AF00011971296AC9012971396BC901397149638
:104B0000CC9014971596DC9015971696EC90169706
:104B10001796FC90179718960C91189719961C9158
:104B200019971A962C911A971B963C911B971C96D5
:104B30004C911C971D965C911D971E966C911E972B
:104B40001F967C910E94740A0F900F90CF5DDE4FEC
:104B500028813981C152D1402F5F3F4FCF5DDE4F59
:104B600039832883C152D140C15EDE4F48815981CB
:104B7000CF51D140445F5F4FC15EDE4F59834883C0
:104B8000CF51D1402630310509F0D1CC80911806A3
:104B90009091190601969093190680931806CC5CA3
:104BA000DE4F0FB6F894DEBF0FBECDBFCF91DF91C1
:104BB0001F910F91FF90EF90DF90CF90BF90AF903B
:104BC0009F908F907F906F905F904F903F902F902D
:104BD00008950F931F93CF93DF938C01EB0109C0CE
:104BE0002196D801ED91FC910190F081E02DC80152
:104BF000099568816623A1F7DF91CF911F910F91ED
:104C00000895EF92FF920F931F93CF93DF938C0140
:104C10007B01EA010CC0D7016D917D01D801ED91B6
:104C2000FC910190F081E02DC80109952197209712
:104C300091F7DF91CF911F910F91FF90EF90089521
:104C4000DC01ED91FC910280F381E02D099508953E
:104C50002F923F924F925F926F927F928F929F928C
:104C6000AF92BF92CF92DF92EF92FF920F931F937A
:104C7000DF93CF93CDB7DEB7A0970FB6F894DEBF22
:104C80000FBECDBF1C016A017B01411551056105B5
:104C9000710549F440E350E060E070E020E030E06E
:104CA0000E94C22656C0882499245401422E5524BD
:104CB0006624772401E010E00C0F1D1F080D191D5C
:104CC000C701B601A30192010E941134F80160836B
:104CD0000894811C911CA11CB11CC701B601A30141
:104CE00092010E941134C901DA016C017D01C114E5
:104CF000D104E104F104F1F681E0E82EF12CEC0E90
:104D0000FD1EE80CF91C3E010894611C711CD501C4
:104D1000C4010197A109B1096C01C818D90816C0CE
:104D2000F601EE0DFF1D40814A3010F4405D01C0D8
:104D3000495C552747FD5095652F752FC10120E02F
:104D400030E00E94C2260894E108F1086E147F0446
:104D500039F7A0960FB6F894DEBF0FBECDBFCF9146
:104D6000DF911F910F91FF90EF90DF90CF90BF9058
:104D7000AF909F908F907F906F905F904F903F90FB
:104D80002F900895EF92FF920F931F93CF93DF938D
:104D9000EC017A018B012115310541F4E881F9819B
:104DA0000190F081E02D642F09951BC02A30310558
:104DB000B1F477FF10C04DE250E060E070E020E019
:104DC00030E00E94C22610950095F094E094E11C1A
:104DD000F11C011D111DCE01B801A7012AE00E949E
:104DE0002826DF91CF911F910F91FF90EF900895AA
:104DF000EF92FF920F931F937B019A010027F7FC1C
:104E00000095102FB801A7010E94C2261F910F9193
:104E1000FF90EF9008950F931F938C014DE050E0A9
:104E200060E070E020E030E00E94C226C8014AE065
:104E300050E060E070E020E030E00E94C2261F9168
:104E40000F910895CF92DF92EF92FF920F931F93ED
:104E50008C016B019A01EE24D7FCE094FE2CB70183
:104E6000A6010E94C226C8010E940B271F910F9124
:104E7000FF90EF90DF90CF900895EF92FF920F9305
:104E80001F93CF93DF93EC01042F79019A85960F3E
:104E90008B858F5F849F102D1124190F898518171A
:104EA00011F4442351F4E881F981A081B1812D915D
:104EB0003C91CF01612FF9010995E881F981A08129
:104EC000B18114962D913C911597CF01B701402FD8
:104ED00050E0F90109951987DF91CF911F910F914A
:104EE000FF90EF900895CF93DF93EC01E881F98173
:104EF000A081B18118962D913C911997CF01F901AC
:104F00000995382F2A85821788F0821B9B85892373
:104F10008D83832F90E0821B91090C8402C09595AC
:104F200087950A94E2F78C831E820BC09E818C8148
:104F3000981738F4EF81F885E90FF11D30839F5FF2
:104F40009E83DF91CF910895CF92DF92EF92FF92EF
:104F50000F931F93CF93DF93EC01C62EF42EE22E16
:104F6000D32E18C00150104011F480E02AC0E8810F
:104F7000F981A081B18116962D913C911797CF01AF
:104F8000F9010995892B71F3CE010E9473278E8157
:104F90008F1518F408EB1BE0EACF6F8178858E2D12
:104FA0009D2D4F2D50E00E94AF331E828D818C15B8
:104FB00011F020E005C020E08C818F1509F421E07C
:104FC000822FDF91CF911F910F91FF90EF90DF9093
:104FD000CF900895AF92BF92CF92DF92EF92FF925F
:104FE0000F935C01CB01F50171836083BA01A901C4
:104FF0000E94B00D202F30E0FF24A701420F531F65
:105000008FEF90E002C0880F991F4A95E2F7F501F3
:10501000828781E090E0AC01002E02C0440F551F52
:105020000A94E2F79A0121502387048702C0880F6F
:10503000991FEA94E2F70E943C32F501878390873A
:105040001186D382C2820F91FF90EF90DF90CF90B4
:10505000BF90AF9008952F923F924F925F926F92C0
:105060007F928F929F92AF92BF92CF92DF92EF92F8
:10507000FF920F931F93DF93CF9300D000D0CDB753
:10508000DEB71B012C0129833A834B835C8360E0EC
:1050900070E080E89FE3A60195010E94862E3B0107
:1050A0004C01A40193010E946831A20191010E9468
:1050B00068311B012C01C601B501A60195010E94B2
:1050C000872EA40193010E94683129813A814B8186
:1050D0005C810E9468319B01AC01C201B1010E9458
:1050E000872E3B014C01C601B501A60195010E9426
:1050F0006831A80197010E9468319B01AC01C4018D
:10510000B3010E94872E0F900F900F900F90CF91B8
:10511000DF911F910F91FF90EF90DF90CF90BF90A4
:10512000AF909F908F907F906F905F904F903F9047
:105130002F9008958F929F92AF92BF92CF92DF925D
:10514000EF92FF920F931F93DF93CF93CDB7DEB70C
:105150002C970FB6F894DEBF0FBECDBF4C01C982AD
:10516000DA82EB82FC820D831E832F833887498786
:105170005A876B877C876D817E818F8198852F8D83
:1051800038A149A15AA10E94872E7B018C01698513
:105190007A858B859C852BA13CA14DA15EA10E94A7
:1051A000872E5B016C0169817A818B819C812B8DBB
:1051B0003C8D4D8D5E8D0E94872EF401608371833E
:1051C00082839383C701D80184839583A683B783A1
:1051D000C501D60180879187A287B387C4012C9629
:1051E0000FB6F894DEBF0FBECDBFCF91DF911F91F8
:1051F0000F91FF90EF90DF90CF90BF90AF909F9076
:105200008F900895AF92BF92CF92DF92EF92FF926C
:105210000F931F93DF93CF93CDB7DEB768970FB689
:10522000F894DEBF0FBECDBF29873A874B875C87D6
:105230006D877E878F87988BA98ABA8ACB8ADC8A0A
:10524000ED8AFE8A0F8B188F6D857E858F859889F4
:105250002D893E894F89588D0E94872E7B018C01B4
:1052600069857A858B859C8529893A894B895C89F2
:105270000E94872E69837A838B839C83C701D80120
:105280008D839E83AF83B88729813A814B815C816E
:105290006D817E818F81988568960FB6F894DEBF08
:1052A0000FBECDBFCF91DF911F910F91FF90EF9077
:1052B000DF90CF90BF90AF9008958F929F92AF9262
:1052C000BF92CF92DF92EF92FF920F931F93DF93E3
:1052D000CF93CDB7DEB72C970FB6F894DEBF0FBED5
:1052E000CDBF4C01C982DA82EB82FC820D831E8322
:1052F0002F83388749875A876B877C876D817E81AA
:105300008F8198852F8D38A149A15AA10E94862EA0
:105310007B018C0169857A858B859C852BA13CA1BD
:105320004DA15EA10E94862E5B016C0169817A818C
:105330008B819C812B8D3C8D4D8D5E8D0E94862EA8
:10534000F4016083718382839383C701D8018483CE
:105350009583A683B783C501D60180879187A287ED
:10536000B387C4012C960FB6F894DEBF0FBECDBF35
:10537000CF91DF911F910F91FF90EF90DF90CF9031
:10538000BF90AF909F908F900895AF92BF92CF92B1
:10539000DF92EF92FF920F931F93DF93CF93CDB7DE
:1053A000DEB768970FB6F894DEBF0FBECDBF298772
:1053B0003A874B875C876D877E878F87988BA98A12
:1053C000BA8ACB8ADC8AED8AFE8A0F8B188F6D85AC
:1053D0007E858F8598892D893E894F89588D0E94B9
:1053E000862E7B018C0169857A858B859C85298930
:1053F0003A894B895C890E94862E69837A838B83E4
:105400009C83C701D8018D839E83AF83B887298190
:105410003A814B815C816D817E818F819885689610
:105420000FB6F894DEBF0FBECDBFCF91DF911F91B5
:105430000F91FF90EF90DF90CF90BF90AF900895C5
:10544000AF92BF92CF92DF92EF92FF920F931F9392
:10545000DF93CF93CDB7DEB760970FB6F894DEBF7A
:105460000FBECDBF29873A874B875C876D877E87C4
:105470008F87988BC801B7012D853E854F85588948
:105480000E9468315B016C01C801B70129853A852A
:105490004B855C850E94683169837A838B839C830A
:1054A000C501D6018D839E83AF83B88729813A8158
:1054B0004B815C816D817E818F81988560960FB66E
:1054C000F894DEBF0FBECDBFCF91DF911F910F913A
:1054D000FF90EF90DF90CF90BF90AF9008950F9323
:1054E0001F93DF93CF93CDB7DEB728970FB6F8940D
:1054F000DEBF0FBECDBFFC0109831A832B833C8323
:105500004D835E836F8378872D813E814F815885DF
:1055100089819A81AB81BC8180839183A283B3838B
:1055200080E090E0A0E0B0E084839583A683B78319
:105530002087318742875387CF0128960FB6F8948A
:10554000DEBF0FBECDBFCF91DF911F910F910895A8
:10555000EF92FF920F931F93DF93CF93CDB7DEB7F8
:1055600064970FB6F894DEBF0FBECDBFE986FA860A
:105570000B871C87698B7A8B8B8B9C8B29893A894B
:105580004B895C8989859A85AB85BC8589839A839B
:10559000AB83BC832D833E834F83588729813A8117
:1055A0004B815C816D817E818F81988564960FB679
:1055B000F894DEBF0FBECDBFCF91DF911F910F9149
:1055C000FF90EF9008954F925F926F927F928F922B
:1055D0009F92AF92BF92CF92DF92EF92FF920F9382
:1055E0001F93DF93CF93CDB7DEB760970FB6F894D4
:1055F000DEBF0FBECDBF29873A874B875C876D879B
:105600007E878F87988B89849A84AB84BC844D84F1
:105610005E846F847888C501B401F80124813581E6
:10562000468157810E9468316B017C01C301B20140
:10563000085F1F4FF801248135814681578108504A
:1056400010400E9468319B01AC01C701B6010E9465
:10565000872E6B017C01C501B401F80120813181E5
:10566000428153810E9468314B015C01C301B20148
:10567000F80120853185428553850E9468319B0160
:10568000AC01C501B4010E94872E69837A838B83A4
:105690009C83C601D7018D839E83AF83B887298100
:1056A0003A814B815C816D817E818F819885609686
:1056B0000FB6F894DEBF0FBECDBFCF91DF911F9123
:1056C0000F91FF90EF90DF90CF90BF90AF909F90A1
:1056D0008F907F906F905F904F9008956F927F9220
:1056E0008F929F92AF92BF92CF92DF92EF92FF92F2
:1056F0000F931F93DF93CF93CDB7DEB72C970FB6E1
:10570000F894DEBF0FBECDBF5C01C982DA82EB82A6
:10571000FC820D831E832F83388749875A876B87C6
:105720007C87ED80FE800F81188569847A848B8464
:105730009C84FC01608171818281938129813A81FD
:105740004B815C810E94872EF50160837183828387
:1057500093836481758186819781A80197010E9456
:10576000872EF501648375838683978360857185B1
:1057700082859385A40193010E94872EF50160879D
:105780007187828793872C960FB6F894DEBF0FBE81
:10579000CDBFCF91DF911F910F91FF90EF90DF90E0
:1057A000CF90BF90AF909F908F907F906F90089513
:1057B00020E030E0682F70E0422FCB01022E02C0C3
:1057C000959587950A94E2F780FD06C04F5F2F5F9D
:1057D0003F4F2630310581F7842F08951F93DF93C3
:1057E000CF93CDB7DEB728970FB6F894DEBF0FBEC4
:1057F000CDBF182F80E0133008F081E00E94B6037F
:10580000992787FD9095A92FB92FBC01CD010E9442
:10581000E62F2AE939E949E151E40E9468316983B8
:105820007A838B839C83812F63E00E94DE3321E0A7
:1058300030E0291B3109442737FD4095542FCA0118
:10584000B9010E94E62F20E030E04CE051E40E94D4
:1058500068316D837E838F83988729813A814B815C
:105860005C816D817E818F81988528960FB6F89432
:10587000DEBF0FBECDBFCF91DF911F910895789409
:1058800084B5826084BD84B5816084BD85B5826045
:1058900085BD85B5816085BDEEE6F0E080818160E3
:1058A0008083E1E8F0E010828081826080838081E3
:1058B00081608083E0E8F0E0808181608083E1EBBB
:1058C000F0E0808184608083E0EBF0E080818160A3
:1058D0008083E1E9F0E08081826080838081816063
:1058E0008083E0E9F0E0808181608083E1EAF0E09C
:1058F000808182608083808181608083E0EAF0E043
:10590000808181608083E1E2F1E080818260808338
:10591000808181608083E0E2F1E08081816080832A
:10592000EAE7F0E080818460808380818260808308
:105930008081816080838081806880831092C10033
:105940000895382F863308F0365320917B00832F3B
:1059500086958695869590E08170907043E0880FDB
:10596000991F4A95E1F7277F282B20937B003770FA
:1059700080914C028295880F880F807C832B8093C6
:105980007C0080917A00806480937A0080917A0014
:1059900086FDFCCF2091780040917900942F80E023
:1059A00030E0282B392BC90108951F93CF93DF9343
:1059B000182FEB0161E00E94B02D209709F4C5C0BB
:1059C000CF3FD10509F4C4C0E12FF0E0E759FB4F08
:1059D0008491893009F466C08A30B0F48430F1F1E2
:1059E000853040F4823059F1833070F5813009F010
:1059F000A9C020C0873009F443C0883008F048C0EF
:105A0000863009F09FC034C08D3009F473C08E30E9
:105A100038F48B3009F45AC08C3008F061C04CC0A7
:105A20008F3009F47BC08F3008F46EC0803109F0EC
:105A300089C07EC084B5806884BDC7BD8DC084B573
:105A4000806284BDC8BD88C08091800080688093DA
:105A50008000D0938900C09388007EC08091800030
:105A6000806280938000D0938B00C0938A0074C0C2
:105A70008091B00080688093B000C093B3006CC088
:105A80008091B00080628093B000C093B40064C085
:105A900080919000806880939000D0939900C0938B
:105AA00098005AC080919000806280939000D093BB
:105AB0009B00C0939A0050C08091900088608093B2
:105AC0009000D0939D00C0939C0046C08091A000A0
:105AD00080688093A000D093A900C093A8003CC028
