:100000000C94A2020C94684F0C94994F0C94CA4F14
:100010000C94FB4F0C942C500C945D500C948E500F
:100020000C94BF500C94CC020C94CC020C94CC02D7
:100030000C94CC020C94B3400C94CC020C94700D34
:100040000C94CC020C94CC020C94CC020C94CC02F8
:100050000C94CC020C94CC020C94CC020C94A10D08
:100060000C94CC020C94460E0C94CC020C94CC0252
:100070000C94CC020C94CC020C94CC020C94CC02C8
:100080000C94CC020C94CC020C94CC020C94CC02B8
:100090000C94F4020C94CC020C94CC020C94CC0280
:1000A0000C94CC020C94CC020C94CC020C94CC0298
:1000B0000C94CC020C94CC020C94CC020C94CC0288
:1000C0000C94CC020C94CC020C94CC020C947B0EBD
:1000D0000C94CC020C94CC020C94B00E0C94CC0278
:1000E0000C94CC020B04090407040704070407045A
:1000F0000B0409040B04090409040704070407049A
:100100000B04090407040704070407040B0409048B
:100110000B04090407040704070407040704070481
:100120000B0409040B0409040B0409040B0409045F
:100130000B0409040B040904070407040704090459
:10014000070407040B041B041B041B041F041D04E9
:100150001F041D041D041B041B041B041F041D0499
:100160001B041B041B041B041D041D041D041D048F
:100170001B041B041B041B041B041B041F041D0481
:100180001F041D041F041D041D041D041D041D0463
:100190001D041D041D041D041B041D041D041B045B
:1001A0001F048D078B0795079507950791078B0708
:1001B00095078F078F07930795078F078B078F0783
:1001C00089078B078F078B078B078B078B078B079D
:1001D0008B078B078B078F078F0793078B07930777
:1001E0008B07930795079507950795078B078B074F
:1001F00095078B078D078B078B078B07950795074F
:1002000095078B0795079507950795079507950718
:100210009307950795078B07930795079307930710
:10022000930795078B078B078B078B078B0789072E
:100230008B078B078D078F078B078D0795078B071C
:100240008B078B078B0789078B0789078B07950718
:10025000950795078B078B078B0793078B079307EA
:10026000A907AB07AB07AD07AD07AD07AB07AD07F8
:10027000A907A907AD07AD07A907AB07A907AB07F2
:10028000AB07A907AB07AB07AB07AB07AB07AB07E0
:10029000AB07AB07A907A907AD07AB07AD07AB07CE
:1002A000AD07AD07AD07AD07AD07AB07AB07AD07B2
:1002B000AB07A907AB07AB07AB07AD07AD07AD07AA
:1002C000AB07AD07AD07AD07AD07AD07AD07AD0790
:1002D000AD07AD07AB07AD07AD07AD07AD07AD0780
:1002E000AD07AB07AB07AB07AB07AB07AB07AB077C
:1002F000AB07A907A907AB07A907AD07AB07AB0772
:10030000AB07AB07AB07AB07AB07AB07AD07AD0759
:10031000AD07AB07AB07AB07AD07AB07084AD73B49
:100320003BCE016E84BCBFFDC12F3D6C74319ABDC4
:1003300056833DDA3D00C77F11BED9E4BB4C3E91E8
:100340006BAAAABE000000803F07634236B79BD865
:10035000A71A39685618AEBAAB558C1D3CB7CC57A6
:1003600063BD6DEDFD753EF6177231BF0000008074
:100370003F072C7AA5BA6CC590DA3B9365FC8BBC21
:1003800053F810FD3C5692834DBD879D3AB63DCB48
:10039000C9BF5BBE73DA0FC93F05A84CCDB2D44EBE
:1003A000B93836A9020C50B9918688083CA6AAAA89
:1003B0002ABE000000803F08000000BE92244912BF
:1003C0003EABAAAA2ABECDCCCC4C3E00000080BEDB
:1003D000ABAAAAAA3E00000000BF000000803F00B8
:1003E00000000000084178D3BB4387D1133D190EAC
:1003F0003CC3BD4282AD2B3E68EC8276BED98FE114
:10040000A93E4C80EFFFBE01C4FF7F3F000000000B
:100410000000002100240027002A002D00300033B6
:100420000001010000040107010A0100002200256B
:100430000028002B002E00310034000201000005CE
:100440000108010B01000020002300260029002CD8
:10045000002F003200000100000301060109010520
:10046000050505070508080808020202020A0A082D
:100470000804040404010101010101010103030353
:100480000303030303040707070C0C0C0C0C0C0CF0
:100490000C0202020206060606060606060B0B0BF7
:1004A0000B0B0B0B0B010210202008081020401032
:1004B0002040800201020108040201010204081028
:1004C0002040808040201008040201800402018046
:1004D000402010080402010804020101020408106F
:1004E00020408001020408102040800000090A0218
:1004F000080B0C0D070603040100000000000000BB
:1005000000000000000000000000000000000000EB
:1005100000000000000000100F0E000000000000AE
:1005200000000000000000000000000000000000CB
:1005300000026807BD07940C920FBF11673FB654C5
:10054000D070AF5411241FBECFEFD1E2DEBFCDBFBC
:1005500014E0A0E0B2E0E2E6F1EF00E00BBF02C081
:1005600007900D92A23AB107D9F71AE0A2EAB4E0D7
:1005700001C01D92A730B107E1F715E0C2E4D5E054
:1005800004C02297FE010E94A078C233D107C9F7A8
:100590000E9430100C94A6770C940000E9ECF0E077
:1005A00080818F77808380818F7E80838081886047
:1005B00080830895E9ECF0E08081877F80838081EB
:1005C000806180838081806880831092C204089556
:1005D000E9ECF0E080818F77808380818F7E80835B
:1005E0008081877F808308951F920F920FB60F92AC
:1005F0000BB60F9211248F939F93EF93FF938091EB
:10060000C2049091CE00E2EAF4E0E80FF11D90837D
:100610008F5F8093C204FF91EF919F918F910F9014
:100620000BBE0F900FBE0F901F9018959B01AC0151
:1006300083E0220F331F441F551F8A95D1F760E0D6
:1006400074E284EF90E00E94617821503040E8EC41
:10065000F0E08081826080833093CD002093CC00D5
:100660001092C2040E94E8020895FC016083118286
:1006700082E082830895FC018EEF808311821282D2
:100680000895DF92EF92FF920F931F93082FD62EBB
:10069000142FF22EE32E0E94CE028091C80085FF17
:1006A000FCCF8FEF8093CE008091C80085FFFCCFF8
:1006B0008FEF8093CE008091C80085FFFCCF009320
:1006C000CE004D2D4E5F8091C80085FFFCCF40933A
:1006D000CE008091C80085FFFCCF1093CE00410F63
:1006E000400F8F2D9E2D9C01F90190E00AC02081C2
:1006F0008091C80085FFFCCF2093CE00420F9F5F02
:1007000031969D15A0F38091C80085FFFCCF4095E0
:100710004093CE000E94DA021F910F91FF90EF905C
:10072000DF900895FF920F931F9300E010E007C041
:100730002F5F3F4F84E02E34380741F415C020E08E
:1007400030E0E02FF0E0AF01410F511D8091C20475
:1007500090E04817590761F33CC0EE55FB4F80818C
:100760008F3FC9F10F5FEBCF0E94E80290E09F5FDF
:10077000F92EF00E212F291B4F2D50E0FA01EE55D6
:10078000FB4F80818F3F99F3923008F090E0DA01BF
:100790001196FD01EE55FB4F70817E5F27139E5F22
:1007A0009A0160E007C0F901EE55FB4F8081680FA8
:1007B0002F5F3F4F822F841B8717A8F36F3F09F0ED
:1007C0009C5FAE55BB4F9C938F2D1F910F91FF9057
:1007D0000895112311F21F5F1D3008F4B0CFC4CF6C
:1007E00020E0181619060CF421E0822F0895880FD6
:1007F00081500895E82FF0E0E133F10550F4EE5810
:10080000FF4FEE0FFF1F0590F491E02D099481E05A
:10081000089580E0089582E0089590E0FC01339708
:10082000EE32F10550F4ED55FF4FEE0FFF1F05902E
:10083000F491E02D099481E0089580E0089582E02C
:100840000895CF93DF93EC018A81861750F10E94BF
:100850009203282F30E0F901EE55FB4F9081F9010A
:10086000ED55FB4F6081F901EC55FB4FA08188816C
:10087000981719F440E050E002C040E054E0E62F41
:10088000F0E0F695FE2FEE27F795E7958A2F90E09A
:10089000E82BF92BE42BF52BC9018B559B4F382FF7
:1008A00004C00E94E802EFEFFFEF832FBF01DF914A
:1008B000CF9108950F931F93DF93CF9300D0CDB7BF
:1008C000DEB78C0169834A83FC01808162E042E0EB
:1008D0009E012F5F3F4F0E944103C80161E00E94CB
:1008E00021040F900F90CF91DF911F910F910895E8
:1008F0000F931F938C01FC01808160E041E020E0B8
:1009000030E00E944103C80160E00E942104CB0155
:100910001F910F910895DC01FA01643251F06532A4
:1009200018F46E31C9F505C0663281F06832A1F560
:100930000DC011968C91882379F18FEF93E020817F
:100940003181821B930B9183808308954081518173
:1009500020E030E060E070E084E04030580714F0C0
:1009600061E070E011968C9190E06817790711F0C2
:1009700021E030E0220F331F822F8150992787FD1D
:10098000909553709C01249FC001259F900D349F2A
:10099000900D1124918380830895EF92FF920F931D
:1009A0001F93DF93CF9300D000D0CDB7DEB77C018B
:1009B000062F862F0E94FA03182F8EEF9FEF9A833F
:1009C00089831123D9F0C701602F412F0E945A0457
:1009D000FC017A8369832081113031F0918180E0BC
:1009E00030E0282B392B01C030E03C832B83C7013A
:1009F000602FAE014D5F5F4F0E948B0469817A8149
:100A00008B819C810F900F900F900F90CF91DF9171
:100A10001F910F91FF90EF9008952F923F924F9268
:100A20005F926F927F928F929F92AF92BF92CF927E
:100A3000DF92EF92FF920F931F93DF93CF93CDB787
:100A4000DEB7862E242E39014DB65EB6362E33948F
:100A5000439D902C112422E0920EEDB7FEB7E919C8
:100A6000F1090FB6F894FEBF0FBEEDBFADB6BEB62E
:100A70000894A11CB11C8183F5016183680112E017
:100A8000EE24FF241DC0D501A10FB11DF301EE0D11
:100A9000FF1D80818C931F5F9501210F311D115027
:100AA000F60160817181C901482D50E00E94A9774B
:100AB000130D0894E11CF11C22E030E0C20ED31E9D
:100AC000E21408F38EEF692D43E895010E9441037B
:100AD0000E94E8020FB6F8945EBE0FBE4DBECF91E5
:100AE000DF911F910F91FF90EF90DF90CF90BF901B
:100AF000AF909F908F907F906F905F904F903F90BE
:100B00002F9008956F927F928F929F92AF92BF9293
:100B1000CF92DF92EF92FF920F931F93DF93CF93C9
:100B2000CDB7DEB7082F5B018DB69EB690E0BC0155
:100B3000660F771F660F771FADB7BEB7A61BB70B43
:100B40000FB6F894BEBF0FBEADBFEDB6FEB60894AB
:100B5000E11CF11C880F991FEDB7FEB7E81BF90BDC
:100B60000FB6F894FEBF0FBEEDBFCDB6DEB608944B
:100B7000C11CD11CBA01A90110E032C0A12FB0E004
:100B80009D01220F331F220F331F2E0D3F1DFB012E
:100B90008081F9018083FB0181919191BF01892FAF
:100BA000990F990BF90181833D01660C771CF301C4
:100BB0003196EE0FFF1FEE0DFF1DDA018C91808341
:100BC000FA0181919191AF01892F990F990BD90168
:100BD00013968C936C0C7D1CF301318320831F5F73
:100BE000101760F28EE164E0402F950186010E94AB
:100BF0000D050FB6F8949EBE0FBE8DBECF91DF914E
:100C00001F910F91FF90EF90DF90CF90BF90AF902A
:100C10009F908F907F906F9008959F92AF92BF9218
:100C2000CF92DF92EF92FF920F931F93DF93CF93B8
:100C3000CDB7DEB76C01962E142FADB6BEB6842F9D
:100C400090E001964DB75EB7481B590B0FB6F8946C
:100C50005EBF0FBE4DBFEDB6FEB60894E11CF11CA1
:100C6000EDB7FEB76183A7014F5F5F4FCA01B901BE
:100C7000412F50E00E94A977612F6F5F002321F080
:100C8000F601808144E003C0F601808143E09701D2
:100C90000E944103C60162E00E942104072F162F23
:100CA000F6E1F91520F088E893E10E94660D812FA6
:100CB000902F0FB6F894BEBE0FBEADBECF91DF91A0
:100CC0001F910F91FF90EF90DF90CF90BF90AF906A
:100CD0009F900895BF92CF92DF92EF92FF920F9371
:100CE0001F93DF93CF9300D0CDB7DEB77C01062FE3
:100CF0005A834983B22ECDB6DEB6862F0E940D04EC
:100D0000182F882319F42EEF3FEF27C0C701602F5B
:100D1000AE014F5F5F4F0E948B048DB79EB7811B62
:100D200091090FB6F8949EBF0FBE8DBFEDB7FEB709
:100D3000319689819A81ADB7BEB711968C931130E7
:100D400021F0892F990F990B8183C701602F412FC3
:100D50009F010B2D0E940D069C01C9010FB6F8944E
:100D6000DEBE0FBECDBE0F900F90CF91DF911F91D1
:100D70000F91FF90EF90DF90CF90BF900895FC010E
:100D8000462F628360E150E020E00E946A060895E9
:100D9000DA01660F660F660F680F6D3028F4693050
:100DA00070F46830F1F507C06031E1F06F3159F14E
:100DB0006F30B9F511C08C918093D0040895E62F5F
:100DC000F0E0EE0FFF1FEF50FC4F0190F081E02D9F
:100DD0008C918456808308958CEA99E06C910E94EE
:100DE000A96A089511962C9111978C9190E096958F
:100DF000982F882797958795820F911D9093D604F9
:100E00008093D50408958C918093D00411968C9191
:100E1000119784568093D10412968C9184568093B6
:100E2000D204089540E020E030E00E94AC3F0895F5
:100E3000662311F08DE201C08EE24C51534FBA018E
:100E40000E9424510895AF92BF92CF92DF92EF9209
:100E5000FF920F931F93DF93CF93CDB7DEB72D97FC
:100E60000FB6F894DEBF0FBECDBF182FF92E0E942B
:100E7000AB3F5E010894A11CB11CC5016AE976E094
:100E800020E032EC41E050E003E0F2E0EF2EE8EC4D
:100E9000CE2EE6E0DE2E0E942840212F3F2DC901F4
:100EA000DC01F5018DE001900D928150E1F72D9666
:100EB0000FB6F894DEBF0FBECDBFCF91DF911F916B
:100EC0000F91FF90EF90DF90CF90BF90AF9008957B
:100ED00083EC94E00E9423070895FC0173836283EE
:100EE000568345831286118689E080870895772787
:100EF00067FD7095872F972FFB01B097EF35F105B0
:100F0000A0F4EF52FF4FEE0FFF1F0590F491E02D7C
:100F1000099484E0089585E0089582E0089583E0CF
:100F2000089587E0089588E0089586E0089577277A
:100F300067FD7095872F972FFB01B097EE35F10570
:100F400060F4E05DFE4FEE0FFF1F0590F491E02D81
:100F5000099482E0089581E0089580E00895FC01FD
:100F60008085883011F020E006C020E081859285E0
:100F7000892B09F421E0822F08951092D804109251
:100F8000D7048AE08093DF040895EF92FF920F93D5
:100F90001F93CF93DF93162FE42E022FF32E85E3BA
:100FA00060E00E949852110F110F1E0D812F805882
:100FB0000E94160D202F3F2DC901EC0110E004C046
:100FC00089910E94160D1F5F1E15D0F385E361E025
:100FD0000E94985280E0DF91CF911F910F91FF9076
:100FE000EF900895DF93CF9300D0CDB7DEB769833C
:100FF000465F4A8368E142E09E012F5F3F4F0E94B7
:10100000C5070F900F90CF91DF910895CF93DF9395
:10101000262F332727FD3095FC01C081D181FE01A9
:1010200001900020E9F73197EC1BFD0B2E173F07CD
:1010300030F467FD04C0C20FD31F688101C060E2B5
:101040000E94F207DF91CF9108950F93DF93CF9322
:1010500000D00F92CDB7DEB7665F6983465F4A83E3
:10106000000F020F0B8366E143E09E012F5F3F4FAD
:101070000E94C5070F900F900F90CF91DF910F91B5
:101080000895DF93CF9300D0CDB7DEB769834A834D
:1010900061E142E09E012F5F3F4F0E94C5070F9024
:1010A0000F90CF91DF91089560E140E020E030E0C3
:1010B0000E94C5070895DF92EF92FF920F931F934E
:1010C000CF93DF93EC017A018B018091E204909140
:1010D000E304A091E404B091E5049A01AB01281B5C
:1010E000390B4A0B5B0B8A819B81AA2797FDA09540
:1010F000BA2F281739074A075B0708F4CCC0E092DB
:10110000E204F092E3040093E4041093E50489857B
:101110009A851816190624F401979A878987BBC007
:101120008F81882319F01092E6041F828885883009
:1011300021F0893009F0AFC0A2C0D090E6048C81C4
:10114000D81AD092E6040D811E81E880F980F7015B
:10115000E00FF11F3197CE0160810E9477072D2D9E
:10116000332727FD309590E02817390739F40150CF
:1011700010401E830D831092E60413C0D7FE11C0E9
:10118000C80101969E838D83E80EF91E0894E1083C
:10119000F108CE01F70160810E94770781508093AA
:1011A000E604CE016C8140E020E001E00E942508C9
:1011B0008C818F3FC1F1813009F050C00D811E81BB
:1011C000E881F981E00FF11FCE0160810E9497074D
:1011D0009091E604482F491BCE01602F0E9406081B
:1011E000D090E60408811981FD808F2D9E81080F23
:1011F000191FCE01F80160810E947707E82E8D2D1E
:10120000992787FD90958E0D911D07973CF5CE018E
:10121000F80161810E949707F394482F4E194D19E8
:10122000CE016F2D19C0ED80FE80E881F981EE0DB1
:10123000FF1D31970081CE01602F0E949707182F64
:10124000CE01602F0E947707EA94180F8091E60480
:10125000181BCE016E2D412F0E9406088D819E81A4
:10126000A881B981FD0101900020E9F73197EA1BBF
:10127000FB0B8E179F0768F497FF0DC00AC0CE01C5
:101280000E9454088D819E8101979E838D83892BB6
:1012900011F48AE08887DF91CF911F910F91FF9021
:1012A000EF90DF900895DF93CF930F92CDB7DEB725
:1012B000660F660F660F640F698368E041E09E0168
:1012C0002F5F3F4F0E94C5070F90CF91DF91089588
:1012D000DF93CF9300D00F92CDB7DEB769834A83F7
:1012E0002B8363E043E09E012F5F3F4F0E94C507C1
:1012F0000F900F900F90CF91DF9108959F92AF9232
:10130000BF92CF92DF92EF92FF920F931F93CF93F2
:10131000DF93EC01162F972E6A015901888199817C
:10132000009711F00E940776E12FF92DDF010D9053
:101330000020E9F7CD018E1B9F0B0E945A75888310
:101340009983612F792D0E94BD77DB82CA82BA868C
:10135000A9860C83FE82ED8288E0888781E08F83F6
:10136000DF91CF911F910F91FF90EF90DF90CF9081
:10137000BF90AF909F9008950F931F93DF93CF93EB
:10138000CDB7DEB764970FB6F894DEBF0FBECDBF02
:101390008C01DC0114962D913C91159784E1489FB6
:1013A000A0011124DE011196F901E40FF51F01904F
:1013B0000D928150E1F784E1689FB0011124FA0198
:1013C000E20FF31FD901A60FB71F0D9001928150B4
:1013D000E1F7D8011496ED91FC911597E60FF71FF0
:1013E000DE01119684E10D9001928150E1F764963F
:1013F0000FB6F894DEBF0FBECDBFCF91DF911F9126
:101400000F910895FC01262F868190E06085820F60
:10141000911D70E00E944E780895CF92DF92EF9276
:10142000FF920F931F93D82EC92E8B01DB011696C6
:10143000EC90CB0161E00E94020AF801868387816B
:1014400081508783FF2484E190E09C01E29EC001EB
:10145000E39E900DF29E900D11240480F581E02D05
:10146000E80FF91F2D2D3C2DC901DC01349680E1D8
:1014700001900D928150E1F78D2D9C2D1F910F91C0
:10148000FF90EF90DF90CF9008956F927F928F92B0
:101490009F92AF92BF92CF92DF92EF92FF920F9303
:1014A0001F93DF93CF93CDB7DEB760970FB6F89455
:1014B000DEBF0FBECDBF3C0189829A82AB82BC8267
:1014C000CD82DE82EF82F88609871A872B873C87D8
:1014D0004D875E876F87788BDC0117966C91179725
:1014E00018968C91681710F080E077C0809170009A
:1014F0008E7F80937000C3010E94020AF82E24E1BF
:10150000829F90011124F301408151816281738196
:101510000480F581E02D89A19AA1AA2797FDA095C5
:10152000BA2F840F951FA61FB71FE20FF31F8193D9
:101530009193A193B193DE01119680E10D900192F8
:101540008150E1F7D30117960C910023C9F184E192
:10155000C82ED12C0150C301602F0E94020A182FFF
:10156000F301A481B5818F2D90E08C9DF0018D9DBC
:10157000F00D9C9DF00D1124EA0FFB1F812F90E0D0
:101580009C012C9DC0012D9D900D3C9D900D112422
:10159000A80FB91F20813181428153818D919D9186
:1015A0000D90BC91A02D281739074A075B0740F41E
:1015B000C3016F2D412F0E94BC09F12E002351F66B
:1015C000D30117968C9117978F5F17968C93809104
:1015D000700081608093700081E060960FB6F8948F
:1015E000DEBF0FBECDBFCF91DF911F910F91FF9056
:1015F000EF90DF90CF90BF90AF909F908F907F90B3
:101600006F9008957F928F929F92AF92BF92CF92E8
:10161000DF92EF92FF920F931F93CF93DF937C01A2
:101620004A015B01DC011796CC9001E010E002C09A
:10163000000F111F2A95E2F7CFEFDFEFDD2494E1D1
:10164000792E21C0C7016D2D0E94020A282F879D87
:10165000C0011124D7011496ED91FC911597E80F64
:10166000F91F80819181A281B38188169906AA060B
:10167000BB0658F0848190E080239123892B11F0E0
:10168000C22FD0E0D394DC14E8F2CE01DF91CF91E9
:101690001F910F91FF90EF90DF90CF90BF90AF9090
:1016A0009F908F907F9008955F926F927F928F921C
:1016B0009F92AF92BF92CF92DF92EF92FF920F93E1
:1016C0001F93CF93DF93982E892EEB01542E89011F
:1016D000809170008E7F80937000292D392FC90171
:1016E000DC01EEE0F4E08CE001900D928150E1F736
:1016F00088819981AA81BB81A801662757FD6095E1
:10170000762F480F591F6A1F7B1FE4E16E2E712C44
:10171000CE01252D0E94020B2FEF8F3F920759F12A
:10172000869D5001879DB00C969DB00C1124EC81D4
:10173000FD81EA0DFB1D892D982DC580D680E7809F
:10174000F084018512852385348545855685678516
:1017500070890E94DA46EC81FD81EA0DFB1D408113
:101760005181628173818389882311F541505040F2
:1017700060407040CDCF852D90E0FC01EE0FFF1F43
:10178000E80FF91FEE0FFF1FEE0FFF1FEC5BF84F86
:10179000892D982DC080D180E280F380048115814D
:1017A0002681378140855185628573850E94DA469E
:1017B00080917000816080937000892D982DDF9159
:1017C000CF911F910F91FF90EF90DF90CF90BF903E
:1017D000AF909F908F907F906F905F9008952F9221
:1017E0003F924F925F926F927F928F929F92AF92B1
:1017F000BF92CF92DF92EF92FF920F931F93DF93EE
:10180000CF93CDB7DEB760970FB6F894DEBF0FBEAB
:10181000CDBF3C019924F4E12F2E312C2E010894E8
:10182000411C511C17C0C201B3010E940D0AAE84B5
:10183000BF848981CA80DB80EC80FD800E811F819E
:10184000288539854A855B856C857D8588880E94D9
:10185000FC179394D30117968C91882329F42FEFCA
:101860003FEF4FEF5FEF14C0F301868190E09C01E2
:10187000229DC001239D900D329D900D1124048066
:10188000F581E02DE80FF91F2081318142815381DC
:10189000F30180819181A281B38182179307A4070C
:1018A000B50708F6992019F00E94F812982EF30156
:1018B00080819181A281B3810196A11DB11D808398
:1018C0009183A283B383892D60960FB6F894DEBF0F
:1018D0000FBECDBFCF91DF911F910F91FF90EF9081
:1018E000DF90CF90BF90AF909F908F907F906F9040
:1018F0005F904F903F902F9008950F931F938C010E
:10190000FC01608784E1689FC00111240E945A7520
:10191000F8018483958316821782108211821282C5
:1019200013821F910F91089587EE94E060E80E9462
:101930007D0C089584B5826084BD84B5816084BDCA
:1019400085B5826085BD85B5816085BDE1E8F0E043
:101950001082808182608083808181608083E0E862
:10196000F0E0808181608083E0EBF0E080818C7F1B
:101970008083A1EBB0E08C91877F8C93E6EBF0E065
:1019800080818F7D808320E730E0F90180818D7F29
:1019900080838C9187608C93E1E9F0E080818260A4
:1019A0008083808181608083E0E9F0E080818160D4
:1019B0008083E1EAF0E080818260808380818160C1
:1019C0008083E0EAF0E0808181608083E0E2F1E002
:1019D00080818260808380818E7F8083E1E2F1E07C
:1019E00080818A61808380818A7F808380E49CE912
:1019F0009093270180932601EEE6F0E080818160DC
:101A00008083F90180818160808378940895EAE77A
:101A1000F0E0808184608083808182608083808127
:101A20008160808380818068808308958EBD0DB43D
:101A300007FEFDCF8EE090E00197F1F78EB5089597
:101A4000882339F08091FA0480936E008091F90424
:101A500010C080916E008093FA0480917000809392
:101A6000F90480916E008E7F80936E0080917000EB
:101A70008E7F809370000895EF92FF920F931F93D3
:101A80007B018C018FB7F8944091F4045091F504D8
:101A90006091F6047091F7048FBF2FB7F89480918E
:101AA000F4049091F504A091F604B091F7042FBFCF
:101AB000841B950BA60BB70B8E159F05A007B107CE
:101AC00060F31F910F91FF90EF900895019739F007
:101AD000880F991F880F991F02970197F1F70895B2
:101AE0001F920F920FB60F920BB60F9211242F93E5
:101AF0003F934F935F936F937F938F939F93AF9396
:101B0000BF93EF93FF9388EC8093B20087EE94E04D
:101B10000E94EF0B882311F40E949712FF91EF911E
:101B2000BF91AF919F918F917F916F915F914F91F5
:101B30003F912F910F900BBE0F900FBE0F901F90F3
:101B400018951F920F920FB60F920BB60F92112499
:101B5000DF92EF92FF920F931F932F933F934F9338
:101B60005F936F937F938F939F93AF93BF93EF9305
:101B7000FF93E090F404F090F5040091F6041091C6
:101B8000F7048091F8040894E11CF11C011D111D5B
:101B900043E0D42ED80E9CE79D1540F436E8D32EB2
:101BA000D80E0894E11CF11C011D111D80910B043D
:101BB00080FF06C083EC97E0B801A7010E941D25B5
:101BC00080910B0481FF06C087ED94E0B801A70166
:101BD0000E945B0880910B0482FF04C083EC94E0B8
:101BE0000E940C40D092F804E092F404F092F504C4
:101BF0000093F6041093F7048091F0049091F1049F
:101C0000A091F204B091F3040196A11DB11D80933F
:101C1000F0049093F104A093F204B093F304FF91C5
:101C2000EF91BF91AF919F918F917F916F915F9154
:101C30004F913F912F911F910F91FF90EF90DF9067
:101C40000F900BBE0F900FBE0F901F90189584E35E
:101C500061E00E94FF5183E361E00E94FF5185E350
:101C600061E00E94FF5184E360E00E94985283E3A8
:101C700060E00E94985285E361E00E9498528CB522
:101C800080618CBD8CB580648CBD08951F920F92CD
:101C90000FB60F920BB60F9211242F933F934F93D1
:101CA0008F939F93EF93FF934091C600E0917B0544
:101CB000F0917C0531969F012F773070319780919C
:101CC0007D0590917E052817390739F0E550FB4FC7
:101CD000408330937C0520937B05FF91EF919F918A
:101CE0008F914F913F912F910F900BBE0F900FBE90
:101CF0000F901F9018951F920F920FB60F920BB670
:101D00000F9211242F933F934F938F939F93EF93B1
:101D1000FF934091D600E091FF05F09100063196C7
:101D20009F012F77307031978091010690910206C4
:101D30002817390739F0E158FA4F408330930006ED
:101D40002093FF05FF91EF919F918F914F913F91CC
:101D50002F910F900BBE0F900FBE0F901F901895F4
:101D60001F920F920FB60F920BB60F9211242F9362
:101D70003F934F938F939F93EF93FF93409136013F
:101D8000E0918306F091840631969F012F773070A1
:101D9000319780918506909186062817390739F08A
:101DA000ED5FF94F40833093840620938306FF91C3
:101DB000EF919F918F914F913F912F910F900BBE7B
:101DC0000F900FBE0F901F901895CF93DF93EC01EB
:101DD0009A01AB01E885F985203081EE380780E073
:101DE000480780E0580709F445C081E090E00A8880
:101DF00002C0880F991F0A94E2F7808360E079E0BF
:101E00008DE390E00E946178215030404040504086
:101E10005695479537952795EC81FD813083EE8166
:101E2000FF812083EA85FB85208141E050E0CA01E3
:101E30000E8402C0880F991F0A94E2F7282B208392
:101E4000EA85FB852081CA010F8402C0880F991F93
:101E50000A94E2F7282B2083EA85FB858081088895
:101E600002C0440F551F0A94E2F7842B8083DF9150
:101E7000CF910895108220E130E0CECFDC011296A0
:101E8000ED91FC911397E058FF4F219131918081A2
:101E90009181281B390B2F773070C9010895DC011F
:101EA0001296ED91FC911397DF01AE57BF4F2D9124
:101EB0003C911197E058FF4F80819181E058F040AC
:101EC0008217930719F42FEF3FEF0BC0E20FF31FB8
:101ED00080812F5F3F4F2F7730702D933C93282FB9
:101EE00030E0C9010895DC011296ED91FC91139741
:101EF000EE57FF4F80819181929382930895FC0168
:101F0000A085B18521898C9190E0022E02C0959523
:101F100087950A94E2F780FFF6CF0484F585E02DDB
:101F2000608308952EE134E030938806209387067D
:101F30008BEF94E090938A068093890685EC90E07D
:101F400090938C0680938B0684EC90E090938E06A1
:101F500080938D0680EC90E09093900680938F069E
:101F600081EC90E0909392068093910686EC90E04D
:101F70009093940680939306E4E0E093950673E0D3
:101F80007093960667E06093970655E05093980625
:101F900041E04093990630939B0620939A068FE781
:101FA00095E090939D0680939C0685ED90E090933C
:101FB0009F0680939E0684ED90E09093A106809307
:101FC000A00680ED90E09093A3068093A20681ED99
:101FD00090E09093A5068093A40686ED90E0909300
:101FE000A7068093A606E093A8067093A9066093BF
:101FF000AA065093AB064093AC063093AE062093EE
:10200000AD0683E096E09093B0068093AF0685E33B
:1020100091E09093B2068093B10684E391E09093AF
:10202000B4068093B30680E391E09093B606809364
:10203000B50681E391E09093B8068093B70686E3F6
:1020400091E09093BA068093B906E093BB06709333
:10205000BC066093BD065093BE064093BF0608952C
:102060002F923F924F925F926F927F928F929F92A8
:10207000AF92BF92CF92DF92EF92FF920F931F9396
:10208000DF93CF93CDB7DEB72C970FB6F894DEBFB2
:102090000FBECDBF0E949A0C0E94270E87ED94E0E0
:1020A00062E04CE12FE10E9468090E94AC150E9499
:1020B000070D80E00E94F0500E94FE4183EC94E006
:1020C00060E040E050E00E94180783EC94E061E09B
:1020D00040E951E00E94180787ED94E06CE370E05E
:1020E0004AE050E00E946D076CEB72E080E090E007
:1020F0000E943C0D87ED94E060E072E04CE450E01B
:1021000020E030E001E0EE24EA94FE2C0E947E09FB
:1021100083EC97E00E94591D85EF99E00E94686F5B
:10212000182F06C068EC70E080E090E00E943C0D43
:1021300087ED94E00E94AF078823A1F7112329F0CF
:1021400087ED94E068E272E004C087ED94E067E315
:1021500072E045E550E020E030E001E0EE24EA9452
:10216000FE2C0E947E0987E00E94F050AC01440FD3
:10217000551F480F591F4050564083EC94E060E0D3
:102180000E94180786E00E94F0504CE255E0481B80
:10219000590B83EC94E061E00E94180783EC94E013
:1021A00060E00E9412076091D00470E06F5F7F4F83
:1021B000882777FD8095982F0E9443720E941374A0
:1021C00020E030E040E250EC0E94867420E030E0F5
:1021D00040E551E40E94E4700E9410727B018C0182
:1021E000D62E87ED94E00E94AF07882339F487ED5F
:1021F00094E06091C2064E2D0E9441081D144CF0DF
:102200008091C0069091C10601969093C10680937B
:10221000C00684E08D1524F483EC97E00E945F19DA
:1022200065E070E080E090E00E943C0D8091C00687
:102230009091C1068B3F91050CF495CF60E070E062
:1022400080E890E40E941E415B016C0160E070E058
:1022500080E890E40E941E4169877A878B879C877B
:1022600060E070E080E89FE320E030E040E850E488
:102270000E9454411B012C0160E070E080E89FE364
:1022800020E030E040E850E40E9454416D837E83BA
:102290008F83988760E070E080E89FE320E030E083
:1022A00040E850E40E9454417B018C0160E070E002
:1022B00080E89FE320E030E040E850E40E94544191
:1022C00069837A838B839C8387ED94E00E94AF07B8
:1022D000882309F041C060E070E080E490E40E944F
:1022E0001E410E9415723B014C01C601B5010E94BE
:1022F00015725B016C01A29490EFA922C201B10199
:102300000E941572660F660FA60EC801B7010E94E3
:102310001572A60E69857A858B859C850E9415723B
:102320007B018C01E29480EFE8226D817E818F81B8
:1023300098850E941572660F660FE60E69817A8194
:102340008B819C810E941572E60E87ED94E0662DCC
:102350004A2D2E2D0E94680960E070E080E090E434
:1023600020E030E040EC50E40E9454410E9415729D
:102370006093C2061092C1061092C006F4CECF93AD
:10238000DF93C3ECD6E0CE010E943B03CE0103965F
:102390000E943B03CE0106960E943B03299686E0ED
:1023A000C93FD80781F789EF96E00E943B03DF9190
:1023B000CF9108950F931F93182F092FCB01BA01C6
:1023C0000E940453BC01812F902F0E948053812FC3
:1023D000902F1F910F9108950F931F93CF93DF9329
:1023E000082F162F83E0689FE001112489E0089FE1
:1023F000C0011124C80FD91FCD53D94FCE0161E0C0
:102400000E94BF06CE016EE04FEF53E020E00E9435
:102410006A06CE016BE04BE450E020E00E946A06C1
:10242000CE016CE045E550E020E00E946A06CE0156
:102430006DE04DE750E020E00E946A06CE0165E0C5
:1024400042E350E020E00E946A06CE016AE141E0EA
:1024500050E020E00E946A06CE016BE141E050E0CE
:1024600020E00E946A061123A9F0113099F403308C
:1024700060F4CE016CE140E450E020E00E946A0686
:10248000CE016DE140E850E010C0CE016CE140E8C3
:1024900050E004C0CE016CE140E450E020E00E9436
:1024A0006A06CE016DE140E450E020E00E946A0639
:1024B000CE0160E340E250E020E00E946A06033073
:1024C00070F4113029F4CE0166E047EC50E014C0FE
:1024D0001230A9F4CE0166E043E451E00DC01130A2
:1024E00029F4CE0168E04BE353E006C0123039F422
:1024F000CE0168E04AEB52E020E00E946A068FE7D6
:1025000097E20E94660D8FE797E20E94660D8FE7C3
:1025100097E20E94660D8FE797E20E94660DCE015A
:102520000E947804DF91CF911F910F910895CF926F
:10253000DF92EF92FF920F931F93E0909E0780E04F
:102540000E94200D789490E080919E07893008F0D9
:1025500091E0892F0E94F703C82E8E2D63E00E9420
:102560002E78082F10E08E2D0E942E78E92EFF2461
:10257000C701880F991F8E0D9F1D980173E0220FD0
:10258000331F7A95E1F7200F311F820F931F8D5370
:10259000994F68E20E94CD04AC01F801EE0FFF1FD5
:1025A000E00FF11FEE0DFF1DE457F84FDD24C7FCCF
:1025B000D094C49EC001C59E900DD49E900D112450
:1025C00068E070E00E944E786083F89481E00E9499
:1025D000200D80919E078F5F62E10E942E7890937C
:1025E0009E071F910F91FF90EF90DF90CF9008957D
:1025F0002F923F924F925F926F927F928F929F9213
:10260000AF92BF92CF92DF92EF92FF920F931F9300
:10261000DF93CF93CDB7DEB7C056D0400FB6F89456
:10262000DEBF0FBECDBF25EA37E06F963FAF2EAFBE
:102630006F973324AA24BB24B1C0D6010D911C91FD
:10264000F40180819181081B190B09F487C0232DA7
:1026500030E0A1963FAF2EAFA197E1E0F0E0EC0FA4
:10266000FD1FE20FF31FD2018C91808380E0B2E066
:10267000BA1508F481E00E94F703282EF4010190B6
:10268000F081E02D6D96FFAFEEAF6D97980117FFCB
:1026900003C0309521953F4FB901882777FD80957C
:1026A000982F0E94437229E53CE44BED52E40E94CE
:1026B00086747B018C01D3016D917C91882777FD15
:1026C0008095982F0E9443729B01AC01C801B7010D
:1026D0000E9477717B018C0120E030E040E85FE3ED
:1026E0000E94707188231CF461E070E011C0C80181
:1026F000B70120E030EC4FE754E40E946C731816E9
:102700001CF46FEF73E004C0C801B7010E9410729F
:10271000A196EEADFFADA197EE0FFF1F21E030E0D7
:102720002C0F3D1FE20FF31F822D992787FD9095F7
:10273000AC016D96AEADBFAD6D974A9FC0014B9F8A
:10274000900D5A9F900D11248A5F9D4F938B828B21
:1027500077AB66AB3394F601B183A08322E030E01F
:10276000C20ED31E820E931E0894411C511C620E91
:10277000731E6F964EAD5FAD6F97C416D50609F008
:102780005CCF0894A11CB11CC60106966F969FAF42
:102790008EAF6F9796E0A916B10409F1C501880FB5
:1027A000991F8A0D9B1D9C01220F331F1FE9C12E0B
:1027B00017E0D12EC20ED31EBCEF8B2EB6E09B2E9F
:1027C000820E931EA4E24A2EA4E05A2E480E591EF1
:1027D000F0E26F2EF7E07F2E620E731E2ECF3320B5
:1027E00061F0832DBE016F5F7F4FAE014D5E5F4F85
:1027F0009E01295C3F4F0E948205832DC05ADF4F06
:102800000FB6F894DEBF0FBECDBFCF91DF911F9101
:102810000F91FF90EF90DF90CF90BF90AF909F907F
:102820008F907F906F905F904F903F902F90089582
:102830002F923F924F925F926F927F928F929F92D0
:10284000AF92BF92CF92DF92EF92FF920F931F93BE
:10285000DF93CF93CDB7DEB762970FB6F894DEBFA4
:102860000FBECDBF9E878D877B018E010F5F1F4FEF
:102870004DE0C42ED12CCC0EDD1EF701619171917B
:102880007F01882777FD8095982F0E9443722BED5A
:102890003FE049E450E40E94867420E030E849E1DA
:1028A00054E40E947771F80161937193819391933D
:1028B0008F01EC15FD0509F769857A858B859C8567
:1028C0002BED3FE049EC5FE30E94E3700E947471DE
:1028D00027E431EE4FE353EC0E94867428E431E2A2
:1028E0004CE453E40E94E4707B018C010E94F37479
:1028F0003B014C01C801B7012DEC3CE44BE852E42C
:102900000E94E3707B018C01C401B30123E333E334
:1029100043E851E40E9486749B01AC01C801B701F1
:102920000E9477710E94D5709B01AC016D817E8100
:102930008F8198850E94E3707B018C01C8010E9401
:1029400074719B01AC01C401B3010E94867420E044
:1029500030E040EA50E40E94E4706F87788B898B06
:102960009A8BA980BA80CB80DC80C601B5010E9419
:1029700074711B012C01B701C8010E94E9747B012D
:102980008C01C601B5010E94E9745B016C016F8581
:10299000788989899A89A20191010E948674ED85BE
:1029A000FE856083718382839383C401B301A80190
:1029B00097010E948674ED85FE8564837583868306
:1029C00097836F85788989899A89A60195010E94E4
:1029D0008674ED85FE856087718782879387CF0136
:1029E00062960FB6F894DEBF0FBECDBFCF91DF91D8
:1029F0001F910F91FF90EF90DF90CF90BF90AF901D
:102A00009F908F907F906F905F904F903F902F900E
:102A100008954F925F926F927F928F929F92AF92A2
:102A2000BF92CF92DF92EF92FF920F931F93DF93AB
:102A3000CF93CDB7DEB762970FB6F894DEBF0FBE67
:102A4000CDBF2C01662E80E00E94200D6E010894FF
:102A5000C11CD11C00E010E089E0689E40011124F7
:102A6000C801880F991F800F911F880D991D8D53E4
:102A7000994F64E20E94CD046AEFE62E6DEFF62EC8
:102A8000E80EF91EAA2422E0261510F4AA24A39425
:102A90008A2D0E94F703992787FD9095FC01EE9DF2
:102AA000C001EF9D900DFE9D900D1124F6018193C4
:102AB00091936F010F5F1F4F0330110589F681E07D
:102AC0000E94200DCE010796BE016F5F7F4F0E94CE
:102AD0001814EF80F88409851A858A2D0E94F7035F
:102AE000AB84BC84CD84DE846F84788889889A889E
:102AF000992787FD9095A92FB92FBC01CD010E9480
:102B000043729B01AC01C801B7010E948674F201B7
:102B10006083718382839383A482B582C682D782C5
:102B20006086718682869386C20162960FB6F8949B
:102B3000DEBF0FBECDBFCF91DF911F910F91FF90F0
:102B4000EF90DF90CF90BF90AF909F908F907F904D
:102B50006F905F904F9008952F923F924F925F92A7
:102B60006F927F928F929F92AF92BF92CF92DF929D
:102B7000EF92FF920F931F93DF93CF93CDB7DEB702
:102B8000E9970FB6F894DEBF0FBECDBF60E472E4E4
:102B90008FE090E00E941603CC24DD2456E0852EC1
:102BA0004C2C80E00E94200D7601EE0CFF1CEC0CFA
:102BB000FD1C84E294E0E80EF91EC60133E0880FA4
:102BC000991F3A95E1F78C0D9D1D8C010D53194FFE
:102BD000222433243C01A22CCE010196F70160810E
:102BE0000E943503D801FE01319683E001900D92D9
:102BF0008150E1F7842D6A2D0E94EC11892B09F494
:102C00007EC080916E00816080936E0087ED94E0BD
:102C100062E041E328E30E94680920E1422E512C42
:102C20004C0E5D1EC20169E472E00E949B539AE063
:102C3000692E712C6C0E7D1EC301B6014AE050E076
:102C40000E94C35386E1882E912C8C0E9D1EC401D8
:102C5000B201A3010E94DA110CE1A02EB12CAC0E3E
:102C6000BD1EC50165E572E00E949B5312E2C12EB4
:102C7000D12CCC0EDD1EC601B401A5010E94DA11D3
:102C80008E01085D1F4FC801B1014AE050E00E946B
:102C9000C353B4E0EB2EF12CEC0EFD1EC701B601C0
:102CA000A8010E94DA11C8010E94D152C6010E94F7
:102CB000D152C5010E94D152C4010E94D152C30118
:102CC0000E94D152C2010E94D152DE2C1F2D8D2DA7
:102CD000912F0E94CD52BC0187ED94E046E450E074
:102CE00020E030E001E0EE24EA94FE2C0E947E0910
:102CF00064EF7AE180E090E00E943C0DE8CFC101F2
:102D0000880F991F820D931D860D971D8D53994F26
:102D100068E141E050E020E00E946A06F3E0AF0E77
:102D200087ED94E06A2D482D0E9453090894211CD8
:102D3000311C0894E11CF11C0D5F1F4F83E0281625
:102D4000310409F048CF81E00E94200D8601000F78
:102D5000111F0C0D1D1D000F111F000F111F0C5B0B
:102D6000184FCE018E96642D0E940915D801FE01E0
:102D7000BE968CE001900D928150E1F70894C11C41
:102D8000D11C8A9409F00CCFE9960FB6F894DEBFF7
:102D90000FBECDBFCF91DF911F910F91FF90EF90AC
:102DA000DF90CF90BF90AF909F908F907F906F906B
:102DB0005F904F903F902F9008952F923F924F92A7
:102DC0005F926F927F928F929F92AF92BF92CF92BB
:102DD000DF92EF92FF920F931F93DF93CF93CDB7C4
:102DE000DEB76E970FB6F894DEBF0FBECDBFEF8291
:102DF000F88609871A872B873C874D875E876F8700
:102E0000788B898B9A8BEF80F88409851A85AF843B
:102E1000B888C988DA888B859C85AD85BE858B8B03
:102E20009C8BAD8BBE8BC801B70120E030E040E049
:102E300050E00E946C7387FF04C017FB109517F9D0
:102E40001095C601B501A80197010E94797320E091
:102E500030E040EA50E40E94E3703B014C01C601BF
:102E6000B501A80197010E9477710E9448716F8B8C
:102E7000788F898F9A8FC401B301A40193010E94B6
:102E800086741B012C016B897C898D899E899B012D
:102E9000AC010E9486746B8F7C8F8D8F9E8FC201D8
:102EA000B1012B8D3C8D4D8D5E8D0E94E4707B01B8
:102EB0008C010E94F3745B016C01C801B7012DEC19
:102EC0003CE44BE852E40E94E3707B018C01C601B4
:102ED000B50123E333E343E851E40E9486749B0188
:102EE000AC01C801B7010E9477710E94D5705B01E7
:102EF0006C016B897C898D899E89A40193010E9454
:102F000077710E9448717B018C0168E471E28CE466
:102F100093E4A20191010E94E3702B8D3C8D4D8DB5
:102F20005E8D0E94E37027E431EE4FE353E40E948C
:102F300077710E94D57020E030E849E154E40E94A6
:102F400086742BED3FE049E450EC0E94777120E05D
:102F500030E849E953E40E94E4700E9410727E83D5
:102F60006D83C601B501A80197010E94E47020E0BD
:102F700030E849E154E40E9486742BED3FE049E4D7
:102F800050E40E9477710E9410727C836B836F897A
:102F9000788D898D9A8D20E030E849E154E40E94D3
:102FA00086742BED3FE049E450E40E9477710E9463
:102FB00010727A83698329813A814B815C816D81AA
:102FC0007E8180E090E06E960FB6F894DEBF0FBE73
:102FD000CDBFCF91DF911F910F91FF90EF90DF90C8
:102FE000CF90BF90AF909F908F907F906F905F90A9
:102FF0004F903F902F9008952F923F924F925F9263
:103000006F927F928F929F92AF92BF92CF92DF92F8
:10301000EF92FF920F931F93DF93CF93CDB7DEB75D
:103020006E970FB6F894DEBF0FBECDBF898FCF82EB
:10303000D886E986FA860B871C872D873E874F87BF
:10304000588B698B7A8BBB8EAA8E8C8E8820E1F090
:10305000760109851A852B853C854D855E856F85B2
:10306000788989899A890E94DD162B8B3C8B4D8B40
:103070005E8B6F8B788FDE011196FE01739686E072
:1030800001900D928150E1F7ACEF4A2EA6E05A2E46
:10309000F0E26F2EF7E07F2EE4E42E2EE7E03E2EE6
:1030A00088249924398D232F30E03E8F2D8F8D8DEC
:1030B0009E8D082C02C0959587950A94E2F780FFB3
:1030C00060C08C8D882349F0D101FE0137968CE0D9
:1030D00001900D928150E1F73AC05401AA0CBB1C3B
:1030E000A80CB91CAA0CBB1CAA0CBB1CE4E4F7E09E
:1030F000AE0EBF1EC501CF80D884E984FA840B854B
:103100001C852D853E854F85588969897A890E945D
:10311000DA46F501E080F180028113812481358156
:103120004681578160857185828593850E94DD1671
:103130002B8B3C8B4D8B5E8B6F8B788FDE011196CA
:10314000FE01739686E001900D928150E1F78B812C
:103150009C814D815E8129813A81F20131832083F6
:103160002A8D3B8DF30131832083F2019383828387
:10317000F30133832283F20155834483F3013583C2
:1031800024830894811C911C26E030E0420E531EDB
:10319000620E731E8CE090E0280E391E96E08916B0
:1031A000910409F084CF6E960FB6F894DEBF0FBE7F
:1031B000CDBFCF91DF911F910F91FF90EF90DF90E6
:1031C000CF90BF90AF909F908F907F906F905F90C7
:1031D0004F903F902F9008950F931F93182F092F12
:1031E000FB0150E08DE090E09C01429FC001439FB5
:1031F000900D529F900D1124E80FF91F212F302FB1
:10320000C901DC01E159FF4F8DE001900D92815021
:10321000E1F7812F902F1F910F91089570E0EDE05D
:10322000F0E0DF016A9FF0016B9FF00D7A9FF00DD7
:103230001124E80FF91FE159FF4F208331834283A6
:103240005383089570E0EDE0F0E0DF016A9FF00144
:103250006B9FF00D7A9FF00D1124E80FF91FED58C8
:10326000FF4F2083318342835383089570E0EDE064
:10327000F0E0DF016A9FF0016B9FF00D7A9FF00D87
:103280001124E80FF91FE958FF4F2083318342834F
:103290005383089570E02DE030E0629FF001639F5A
:1032A000F00D729FF00D1124E80FF91FE558FF4F44
:1032B000408308959C012C5F3F4FC9010895FC0194
:1032C000E853FE4F108208956C31710514F462E0EA
:1032D0000AC06435710514F065E005C0CB016EE0ED
:1032E00070E00E944E78862F0895AF92BF92CF92E1
:1032F000DF92EF92FF920F931F935801690150E004
:10330000CB01489FB001499F700D589F700D11244B
:10331000882777FD8095982F0E9443727B018C014E
:10332000C601B50120E030E040E251E40E9477712F
:103330009B01AC01C801B7010E94867420E030E017
:1033400040E651E40E9477717B018C0120E030E07F
:1033500040E050E40E947071882314F482E011C0B0
:10336000C801B70120E030E040E251E40E946C73F4
:10337000181614F48AE005C0C801B7010E9415723E
:10338000862F1F910F91FF90EF90DF90CF90BF900D
:10339000AF9008950F931F93CF93DF93EC01FC013F
:1033A000EE59FF4F10811F3F49F11F5F1083C45337
:1033B000DE4F612F70E0882777FD8095982F0E945F
:1033C000437220E030E040E850E40E9486740E949E
:1033D000107279836883C556D14068817981C75658
:1033E000D040CE01412F00E010E020E231E40E9405
:1033F0007519C259DF4F8883CE56D040CE59DF4F62
:103400008881DF91CF911F910F9108950F931F93A2
:10341000CF93DF93EC01FC01EE59FF4F1081123086
:1034200048F111501083C453DE4F612F70E088279C
:1034300077FD8095982F0E94437220E030E040E8AD
:1034400050E40E9486740E94107279836883C55686
:10345000D14068817981C756D040CE01412F00E02C
:1034600010E020E231E40E947519C259DF4F8883D1
:10347000CE56D040CE59DF4F8881DF91CF911F913A
:103480000F910895CF92DF92EF92FF920F931F93C7
:10349000CF93DF93EC0184E5C82ED12CCC0EDD1E3A
:1034A000F601E080F18002811381C801B70120E0BC
:1034B00030E040E050E00E9470718823E9F0B801EC
:1034C000A7017058CE0184519F4F0E94F64DC851FC
:1034D000DF4FF6016081718182819381288139817A
:1034E0004A815B810E948674AB01BC016496CE0167
:1034F000CC5FD0400E94F64D20E0AE01405A5F4FB5
:10350000DE01A959BF4F0AC0FE01E20FF11DE25FC3
:10351000FE4F80819C91890F80832F5FFA0180810B
:10352000281790F3C759DF4F1882C956D040FE01C3
:10353000E653FE4FCD59DF4F6881798180819181BB
:103540000E943A7891838083DF91CF911F910F91F0
:10355000FF90EF90DF90CF900895DC011496E4E4A3
:10356000F7E088E401900D928150E1F70895DC01C5
:103570001496FB0188E401900D928150E1F70895C3
:103580002F923F924F925F926F927F928F929F9273
:10359000AF92BF92CF92DF92EF92FF920F931F9361
:1035A000DF93CF93CDB7DEB76A970FB6F894DEBF3F
:1035B0000FBECDBF2C0120E630E0420E531ED201DB
:1035C0008C9190E0E3E0F0E04E0E5F1ED2012D9171
:1035D0003C91EEEFFFEF4E0E5F1ED2016C91FC01AD
:1035E000E29FC001E39F900DF29F900D112470E0C7
:1035F0000E944E78882777FD8095982F0E9443720D
:103600007B018C0123E830E0420E531ED2016D9302
:103610007D938D939C931397ECE1FFEF4E0E5F1E0D
:1036200078EEA72EB12CA40CB51C27E630E0420E94
:10363000531ED2016D917C91E9E9FFEF4E0E5F1EA2
:10364000882777FD8095982F0E9443729B01AC01DB
:10365000C801B7010E94E37020E030E040E05FE382
:103660000E948674D5016D937D938D939C931397DF
:1036700064E5C62ED12CC40CD51CF601E080F18087
:1036800002811381C801B70120E030E040E050E042
:103690000E947071882309F1B801A7017058C20116
:1036A00084519F4F0E94F64D2CEF30E0420E531E86
:1036B000D6016D917D918D919C91F5012081318193
:1036C000428153810E948674AB01BC01C20124E097
:1036D0003FEF420E531E0E94F64D90E09201205A99
:1036E0003F4FD201A959BF4F08C0F201E90FF11DA8
:1036F000E25FFE4F8C9180839F5FF9016081961796
:10370000A0F3F201E45FFE4F808190E070E00E9440
:103710003A78808329E630E0420E531ED2018C9124
:10372000E7E9FFEF4E0E5F1E9201245A3E4F8823B9
:1037300009F498C0D901E4E4F7E088E401900D921F
:103740008150E1F7B2016C5F7F4FC9010E948D4744
:103750002224332492012C513F4F3A8F298F4DB7A9
:103760005EB74C5050400FB6F8945EBF0FBE4DBFD1
:10377000C101880F991F820D931DFC013196EE0F38
:10378000FF1FEE0FFF1FE40DF51DAC01440F551F89
:10379000440F551F440D551D2DB73EB72F5F3F4FAA
:1037A000445A5E4F8CE0DA010D90AD01D9010D92C3
:1037B0009D018150C1F7CE010196C080D180E28089
:1037C000F38004811581268137814085518562858A
:1037D00073850E9447433101660C771C620C731C91
:1037E000660C771C660C771C640C751CE4E1F1E038
:1037F0006E0E7F1E2DB73EB7245F3F4F0FB6F89475
:103800003EBF0FBE2DBF60E070E080E09FE3A98D5A
:10381000BA8D2D913D914D915C910E9477714B0134
:103820005C01CE010D96C980DA80EB80FC800D81B1
:103830001E812F81388549855A856B857C850E943C
:103840000A44D301FE013D968CE001900D92815017
:10385000E1F70894211C311CB6E02B16310409F065
:103860007ECF08C0D901F201349688E401900D9210
:103870008150E1F7F201E45FFE4F21E630E0420EB5
:10388000531ED2016C91808190E070E00E943A78E2
:10389000E4E0F0E04E0E5F1ED2012D913C91FC0160
:1038A000E29FC001E39F900DF29F900D112425E649
:1038B00031E0420E531ED2018D939C936A960FB64F
:1038C000F894DEBF0FBECDBFCF91DF911F910F9156
:1038D000FF90EF90DF90CF90BF90AF909F908F9030
:1038E0007F906F905F904F903F902F900895CF936F
:1038F000DF93EC01C753DE4F8881C95CD140882338
:1039000019F0813059F404C0CE010E94C01A06C0DB
:10391000C653DE4F19821882CA5CD140CE59DF4FA0
:10392000688170E0882777FD8095982F0E94437208
:1039300020E030E040E850E40E9486740E9410725B
:10394000C659DE4F79836883249781E08883DF91AD
:10395000CF9108956F927F928F929F92AF92BF9274
:10396000CF92DF92EF92FF920F931F93DF93CF934B
:10397000CDB7DEB728970FB6F894DEBF0FBECDBF28
:103980003C0109831A832B833C834D835E836F83C1
:103990007887198DDC01A45BBF4FFE01319688E06A
:1039A00001900D928150E1F724E530E0620E731E24
:1039B000F301C192D192E192F1923F01B182A082D2
:1039C00028EA3FEF620E731E9301265A3F4FC9014A
:1039D000B401412F50E00E94A97780E690E0680E84
:1039E000791EF30111938A8D81938B8D81938C8D38
:1039F0009D8D819391938E8D9F8D819391933F01A6
:103A000088A199A19183808323E030E0620E731E28
:103A10008AA19BA1ACA1BDA1F30181939193A19334
:103A2000B1933F018EA180832BEF3FEF620E731E97
:103A30008FA1F30180832FE531E0620E731EF30145
:103A4000808128E33EEF620E731E882361F089ECCB
:103A500091E0680E791EF301808127E33EEF620E4C
:103A6000731E882371F089EC91E0680E791EF301D2
:103A7000108227E33EEF620E731EC3010E94771C83
:103A800003C0C3010E94421A28960FB6F894DEBF05
:103A90000FBECDBFCF91DF911F910F91FF90EF909F
:103AA000DF90CF90BF90AF909F908F907F906F905E
:103AB00008958F929F92AF92BF92CF92DF92EF9232
:103AC000FF920F931F93DF93CF93CDB7DEB72E975F
:103AD0000FB6F894DEBF0FBECDBF9C01DE01179676
:103AE000ECE3F4E088E001900D928150E1F7DE0113
:103AF0001196E6E3F4E086E001900D928150E1F743
:103B00008DB79EB70F970FB6F8949EBF0FBE8DBFAF
:103B1000EDB7FEB7319686E0ADB7BEB711968C9380
:103B200081E0818382838FE090E094838383968316
:103B300085838CE390E09087878380E090E0A0E22B
:103B4000B1E481879287A387B48787E0858716864B
:103B5000C9010F81188529853A854B855C856D855E
:103B60007E850F2EF0E0CF2EF0E0DF2EF0E0EF2E7E
:103B7000F0E0FF2EF02DEAE5AE2EB12C4E010894B8
:103B8000811C911C0E94AA1C8DB79EB70F960FB680
:103B9000F8949EBF0FBE8DBF2E960FB6F894DEBF71
:103BA0000FBECDBFCF91DF911F910F91FF90EF908E
:103BB000DF90CF90BF90AF909F908F9008950F931C
:103BC0001F938C010E94B71AC8010E94591D1F91B2
:103BD0000F910895AF92BF92CF92DF92EF92FF9232
:103BE0000F931F938C015901CB01BA0126EA3BE9DF
:103BF00044EC5DE30E9486749B01AC0160E070E0E0
:103C000080E89FE30E9477710E9415726B017C012E
:103C10000E591F4FF801608302561040C8016C2DE9
:103C200070E00E94641902591F4FF8018083065109
:103C30001040C5016C2D70E00E944E78F801718330
:103C400060830F581E4F81E0F8018083095C1140AA
:103C5000C8010E94771C1F910F91FF90EF90DF9099
:103C6000CF90BF90AF9008952F923F924F925F9266
:103C70006F927F928F929F92AF92BF92CF92DF927C
:103C8000EF92FF920F931F93DF93CF93CDB7DEB7E1
:103C9000A0970FB6F894DEBF0FBECDBF5E8F4D8FDD
:103CA00019012B0166247724CE010D9698A38F8FDE
:103CB000DE011196F2018CE001900D928150E1F746
:103CC000EF8DF8A180E111928A95E9F7DE011E9649
:103CD000FE0131968CE001900D928150E1F781E078
:103CE00090E0062C02C0880F991F0A94E2F78D8796
:103CF0003B8E2A8E91E09C8F00D08D8D9E8DEDB7EE
:103D0000FEB79283818387EE94E08D849E84AF8496
:103D1000B888C988DA88EB88FC880D891E892F89C4
:103D2000388D498D5A8D6B8D7C8D0E94450A089483
:103D3000611C711CECE0F0E04E0E5F1E0F900F90C6
:103D4000F6E06F16710409F0B3CFA0960FB6F894A1
:103D5000DEBF0FBECDBFCF91DF911F910F91FF90BE
:103D6000EF90DF90CF90BF90AF909F908F907F901B
:103D70006F905F904F903F902F9008952F923F92B9
:103D80004F925F926F927F928F929F92AF92BF926B
:103D9000CF92DF92EF92FF920F931F93DF93CF9317
:103DA000CDB7DEB7C359D0400FB6F894DEBF0FBE13
:103DB000CDBFEB966FAFEB97BE016F5B7F4FDB0123
:103DC000AC92FE01EE5BFF4FB082FE01ED5BFF4F58
:103DD000C082FE01EC5BFF4FD082CE018B5B9F4F18
:103DE000FC01E082FE01EA5BFF4FF082FE01E95B2D
:103DF000FF4F0083FE01E85BFF4F1083DE01A75BEE
:103E0000BF4F2C93FE01E65BFF4F3083FE01E55B65
:103E1000FF4F4083FE01E45BFF4F5083EC968FAE73
:103E2000EC97FB012081318142815381A5962CAF13
:103E30003DAF4EAF5FAFA597FC012081318142813C
:103E40005381A1962CAF3DAF4EAF5FAFA1972D919F
:103E50003D914D915C916D962CAF3DAF4EAF5FAFF4
:103E60006D97C155DF4F88819981AA81BB81CF5A57
:103E7000D04069968CAF9DAFAEAFBFAF6997CD54C0
:103E8000DF4F288139814A815B81C35BD0406596D1
:103E90002CAF3DAF4EAF5FAF6597C954DF4F888100
:103EA0009981AA81BB81C75BD04061968CAF9DAFE1
:103EB000AEAFBFAF6197C255DF4F9881CE5AD040A9
:103EC000692F70E0882777FD8095982F0E944372B4
:103ED0009B01AC0160E070E080E89FE30E94777195
:103EE000EA966CAF7DAF8EAF9FAFEA97C455DF4FB8
:103EF00068817981CC5AD040882777FD8095982FAA
:103F00000E944372EA962CAD3DAD4EAD5FADEA978F
:103F10000E948674E6966CAF7DAF8EAF9FAFE6973A
:103F20008820B9F420E030E040E050E0E1962CAF8A
:103F30003DAF4EAF5FAFE197AD962CAF3DAF4EAF0B
:103F40005FAFAD97A9962CAF3DAF4EAF5FAFA997CE
:103F500038C0EB968FADEB970E949049F82EC8556C
:103F6000DF4F688179818A819B81C85AD0400E9445
:103F700010728B019C01CE01499667EE74E04F2DC3
:103F800098010E94540B89A19AA1ABA1BCA1E19612
:103F90008CAF9DAFAEAFBFAFE1972D8D3E8D4F8DF6
:103FA00058A1AD962CAF3DAF4EAF5FAFAD97898DA9
:103FB0009A8DAB8DBC8DA9968CAF9DAFAEAFBFAFC8
:103FC000A9970F2EF0E04F2EF0E05F2EF0E06F2E5D
:103FD000F0E07F2EF02DE2961FAEE297C157DF4F43
:103FE0001882CF58D040C057DF4F1882C059D040F8
:103FF000CF56DF4F1882C159D0403324C457DF4F0A
:104000001882CC58D040C357DF4F1882CD58D040CB
:10401000C257DF4F1882CE58D0402224C857DF4FF6
:104020001882C858D040C757DF4F1882C958D040AF
:10403000C657DF4F1882CA58D040C557DF4F188285
:10404000CB58D040CC57DF4F1882C458D040CB5704
:10405000DF4F1882C558D040CA57DF4F1882C65864
:10406000D040C957DF4F1882C758D040C058DF4FE3
:104070001882C058D040CF57DF4F1882C158D04067
:10408000CE57DF4F1882C258D040CD57DF4F18822D
:10409000C358D040ED961FAEED97EE961FAEEE974B
:1040A000EF961FAEEF97C158DF4F1882CF57D04021
:1040B000DE01D196CE56DF4FB983A883C259D040D6
:1040C00006C2C301B201EA962CAD3DAD4EAD5FAD67
:1040D000EA970E94E4702B013C01EC96BFADEC978F
:1040E000BB2309F068C0C857DF4FE881C858D040EB
:1040F000CC57DF4FE883C458D040C757DF4FF88113
:10410000C958D040CB57DF4FF883C558D040C65769
:10411000DF4F2881CA58D040CA57DF4F2883C6587E
:10412000D040C557DF4F3881CB58D040C957DF4FFB
:104130003883C758D040C457DF4F4881CC58D0404F
:10414000C058DF4F4883C058D040C357DF4F588115
:10415000CD58D040CF57DF4F5883C158D040C257B9
:10416000DF4F8881CE58D040CE57DF4F8883C2586A
:10417000D040CD57DF4F2882C358D040C157DF4FC2
:104180009881CF58D040ED969FAFED97C057DF4F45
:10419000A881C059D040EE96AFAFEE97CF56DF4F13
:1041A000B881C159D040EF96BFAFEF97C158DF4FEC
:1041B0003882CF57D040A9966CAD7DAD8EAD9FAD06
:1041C000A99769962CAD3DAD4EAD5FAD6997A596AB
:1041D000ECACFDAC0EAD1FADA597630152010E9482
:1041E0001542C857DF4F6883C858D040C757DF4FC4
:1041F0007883C958D040C657DF4F8883CA58D0400B
:10420000C557DF4F9883CB58D040AD966CAD7DAD90
:104210008EAD9FADAD9765962CAD3DAD4EAD5FAD0E
:104220006597A196ECACFDAC0EAD1FADA1970E94B9
:104230001542C457DF4F6883CC58D040C357DF4F77
:104240007883CD58D040C257DF4F8883CE58D040B6
:10425000292EE1966CAD7DAD8EAD9FADE197619657
:104260002CAD3DAD4EAD5FAD61976D96ECACFDAC48
:104270000EAD1FAD6D970E941542C157DF4F688389
:10428000CF58D040C057DF4F7883C059D040CF5669
:10429000DF4F8883C159D040392E482F592FCB0189
:1042A000DA0189879A87AB87BC87C457DF4F28819B
:1042B000CC58D040C357DF4F3881CD58D040C2577B
:1042C000DF4F4881CE58D040522DC901DA018D838D
:1042D0009E83AF83B887C857DF4F2881C858D04026
:1042E000C757DF4F3881C958D040C657DF4F488184
:1042F000CA58D040C557DF4F5881CB58D040C9016C
:10430000DA0189839A83AB83BC83CC57DF4F288142
:10431000C458D040CB57DF4F3881C558D040CA571A
:10432000DF4F4881C658D040C957DF4F5881C75822
:10433000D040C901DA018D879E87AF87B88BC058FE
:10434000DF4F2881C058D040CF57DF4F3881C15848
:10435000D040CE57DF4F4881C258D040CD57DF4FB5
:104360005881C358D040C901DA01898B9A8BAB8B35
:10437000BC8BED962FADED97EE963FADEE97EF9699
:104380004FADEF97C158DF4F5881CF57D040C9018B
:10439000DA018D8B9E8BAF8BB88FEDB7FEB73C9754
:1043A0000FB6F894FEBF0FBEEDBFADB7BEB7119606
:1043B000FE013D968CE001900D928150E1F7CE0117
:1043C0008596C980DA80EB80FC800D811E812F816B
:1043D000388549855A856B857C850E944743CE5632
:1043E000DF4FA881B981C259D040E0E11D92EA9522
:1043F000E9F7DE01D296FE01B5968CE001900D92B0
:104400008150E1F7EB96FFADEB97F9ABE6966CAD1B
:104410007DAD8EAD9FADE6970E9410727FAF6EAFFF
:10442000EC962FADEC9721962FAF21974DB75EB745
:10443000465F5F4F0FB6F8945EBF0FBE4DBF0DB71E
:104440001EB70F5F1F4FC855DF4F688179818A8182
:104450009B81C85AD0400E941072D8016D937C9302
:1044600087EE94E089A89AA8ABA8BCA8CDA8DEA83E
:10447000EFA8F8AC09AD1AAD2BAD3CAD4DAD5EADBE
:104480006FAD21967FAD21970E94450AC855DF4F39
:10449000688179818A819B81C85AD040E6962CAD8B
:1044A0003DAD4EAD5FADE6970E94E470C855DF4F5D
:1044B000688379838A839B83C85AD040E296BFADD4
:1044C000E297BF5FE296BFAFE2970F900F90E29640
:1044D000EFADE297C255DF4FF881CE5AD040EF17CB
:1044E00008F4EFCDCD56DF4F0FB6F894DEBF0FBE08
:1044F000CDBFCF91DF911F910F91FF90EF90DF9093
:10450000CF90BF90AF909F908F907F906F905F9073
:104510004F903F902F9008952F923F924F925F922D
:104520006F927F928F929F92AF92BF92CF92DF92C3
:10453000EF92FF920F931F93DF93CF93CDB7DEB728
:10454000C95AD0400FB6F894DEBF0FBECDBFCA55D2
:10455000DF4F99838883C65AD040962E872EFE015E
:10456000E75BFF4FA082B182C282D382E482F582F0
:10457000068317832087318742875387C653DF4FCF
:10458000488059806A807B80CA5CD040CA52DF4F25
:1045900008811981C65DD040C852DF4F8881C85D4F
:1045A000D040882371F4CA55DF4F88819981C65A5B
:1045B000D040B8010E946419C852DF4F8883C85D9B
:1045C000D040DE011196892D982D9C01F90188E4D7
:1045D00001900D928150E1F7C852DF4F9881C85D7C
:1045E000D040692F70E0882777FD8095982F0E9432
:1045F00043729B01AC0160E070E080E89FE30E94A1
:104600007771CE55DF4F688379838A839B83C25A43
:10461000D040B801882777FD8095982F0E9443727B
:10462000CE55DF4F288139814A815B81C25AD04003
:104630000E9486740E941072C056DF4F798368838F
:10464000C05AD0408E01075B1F4FD8016D917D91FC
:104650008D919C9120E030E040E050E00E9470712C
:10466000882311F5F801648175818681978120E0A6
:1046700030E040E050E00E9470718823A9F4D80136
:1046800018966D917D918D919C911B9720E030E063
:1046900040E050E00E947071882331F4C156DF4F32
:1046A0001882CF59D04024C0FE01E75BFF4FCE55A2
:1046B000DF4F88809980AA80BB80C25AD040B7FA69
:1046C000B094B7F8B094CF01C080D180E280F3807D
:1046D00004811581268137814085518562857385E6
:1046E0000E940A44B1E0C156DF4FB883CF59D04091
:1046F000C301B20120E030E040E050E00E94707160
:10470000882331F5C253DF4F688179818A819B818B
:10471000CE5CD04020E030E040E050E00E9470717C
:104720008823B1F4CE52DF4F688179818A819B81E1
:10473000C25DD04020E030E040E050E00E94707167
:10474000882331F4C256DF4F1882CE59D04054C06E
:1047500084E290E00E945A75C855DF4F8883C85A9A
:10476000D040C755DF4F9883C95AD040CE55DF4F50
:10477000E880F9800A811B81C25AD04017FB10954E
:1047800017F91095C301B201A80197010E94867420
:104790002B013C01C253DF4F688179818A819B8163
:1047A000CE5CD040A80197010E9486744B015C0149
:1047B000CE52DF4F688179818A819B81C25DD04072
:1047C000A80197010E9486746B017C01C855DF4FD8
:1047D0008881C85AD040C755DF4F9881C95AD04008
:1047E000B301A201950184010E942C4EE1E0C25662
:1047F000DF4FE883CE59D0400F2EF0E02F2EF0E0AF
:104800003F2EF0E04F2EF0E05F2EF02DC356DF4F2D
:104810001882CD59D040F9E46F2E712C6C0E7D1E9C
:10482000D2C0C156DF4FF881CF59D040FF23A1F14C
:10483000CE018B5A9F4FBE016F5F7F4FD301AC906B
:104840001196BC9011971296CC9012971396DC900B
:1048500013971496EC9014971596FC90159716964E
:104860000C91169717961C91179718962C911897DC
:1048700019963C9119971A964C911A971B965C9130
:104880000E94A649DE011196FE01EB5AFF4F88E413
:1048900001900D928150E1F7C256DF4FB881CE5999
:1048A000D040BB2309F458C0CE018B5A9F4FBE01A4
:1048B0006F5F7F4FC254DF4FA880CE5BD040C154A2
:1048C000DF4FB880CF5BD040C054DF4FC880C05CA2
:1048D000D040CF53DF4FD880C15CD040CE53DF4FA4
:1048E000E880C25CD040CD53DF4FF880C35CD0403D
:1048F000CC53DF4F0881C45CD040CB53DF4F1881CD
:10490000C55CD040CA53DF4F2881C65CD040C95334
:10491000DF4F3881C75CD040C853DF4F4881C85C47
:10492000D040C753DF4F5881C95CD040C855DF4FD6
:104930008880C85AD040C755DF4F9880C95AD040A8
:104940000E944B4BDE011196FE01EB5AFF4F88E4AB
:1049500001900D928150E1F7C201B10120E030E0F9
:1049600040E05FE30E94E4700E9410729B01AC0182
:10497000CA55DF4F88819981C65AD040BE016F5F0A
:104980007F4FA901C056DF4F28813981C05AD040DE
:104990000E94341EC201B101CE55DF4F28813981FA
:1049A0004A815B81C25AD0400E94E4701B012C01F5
:1049B000C356DF4FE881CD59D040EF5FC356DF4F7C
:1049C000E883CD59D040C356DF4FF881CD59D04050
:1049D000C852DF4F8881C85DD040F81708F421CF56
:1049E000C256DF4F9881CE59D040992361F0C85507
:1049F000DF4F8881C85AD040C755DF4F9881C95AC8
:104A0000D0400E940776C755DF4F0FB6F894DEBF3F
:104A10000FBECDBFCF91DF911F910F91FF90EF900F
:104A2000DF90CF90BF90AF909F908F907F906F90CE
:104A30005F904F903F902F9008952F923F924F920A
:104A40005F926F927F928F929F92AF92BF92CF921E
:104A5000DF92EF92FF920F931F93DF93CF93CDB727
:104A6000DEB7C457D1400FB6F894DEBF0FBECDBF3E
:104A70003C017A018B018091910990919209A0915A
:104A80009309B09194099A01AB01281B390B4A0B89
:104A90005B0B6CEC71E0660E771ED3018D919C91DF
:104AA000E4E3FEEF6E0E7F1EAA2797FDA095BA2FB6
:104AB000281739074A075B0710F40C94D834E092A2
:104AC0009109F09292090093930910939409A3011C
:104AD00048535E4FDA018C91882311F40C94D8343A
:104AE000D301A653BE4F6D917C911197E8E5F0E09C
:104AF0006E0E7F1EF3018081918128EA3FEF620EE6
:104B0000731E6817790710F00C94D63449EC51E005
:104B1000640E751EF301808127E33EEF620E731E63
:104B2000882331F0813011F00C94CD340C947E3315
:104B300049E650E0640E751ED3018C91E7E9FFEF62
:104B40006E0E7F1E882309F448C080E090E00E942A
:104B500041727B018C0124EE30E0620E731ED301A2
:104B60002D913D914D915C91ECE1FFEF6E0E7F1E1A
:104B7000CA01B9010E94E4709B01AC01C801B701F0
:104B80000E94707188234CF5AA24BB24C501880FAC
:104B9000991F8A0D9B1D880F991F880F991FF3017C
:104BA000E80FF91FEC5EFE4F845A9E4F860D971D4D
:104BB000C080D180E280F380048115812681378115
:104BC00040855185628573850E94DA460894A11C50
:104BD000B11CF6E0AF16B104C9F6FAECEF2EF1E025
:104BE000FF2EE60CF71C23E630E0620E731ED301A5
:104BF0006D917C91EDE9FFEF6E0E7F1ED7018D91D7
:104C00009C910E943A78FC018301045F1E4F21E6CB
:104C100030E0620E731ED3016C91D8018C9190E04C
:104C200070E00E943A7824E030E0620E731ED301F7
:104C30002D913C914BE95FEF640E751EBC01629FA4
:104C4000C001639F900D729F900D1124E817F90722
:104C500011F00C94192FC30184509F4FC55ADE4F99
:104C600099838883CB55D140D301A05ABE4FC15BF5
:104C7000DE4FB983A883CF54D14022243324CD59A9
:104C8000DE4F19830883C356D140CB59DE4FF982DA
:104C9000E882C556D140F301EC51FF4FC959DE4FB0
:104CA000F983E883C756D14093012C5A3F4FC75927
:104CB000DE4F39832883C956D140A3014E595F4F37
:104CC000C559DE4F59834883CB56D140B30169594A
:104CD0007F4FC359DE4F79836883CD56D140C301DE
:104CE00082599F4FC159DE4F99838883CF56D14057
:104CF000D301A659BF4FCF58DE4FB983A883C15700
:104D0000D140ECE44E2E512C460C571C922CCD5920
:104D1000DE4FE881F981C356D1408081F301E80F6D
:104D2000F11DE65AFF4F808190E0022C02C095955C
:104D300087950A94E2F780FD02C00C94E02ECB59CF
:104D4000DE4FA881B981C556D1406D917C9180E03C
:104D500090E00E9441725B016C01C959DE4FE8810D
:104D6000F981C756D140E080F18002811381C801EA
:104D7000B701A80197010E94E4709B01AC01C60134
:104D8000B5010E94707118166CF420E030E040E824
:104D90005FE3CB5ADE4F288339834A835B83C55553
:104DA000D14022C0C601B50120E030E040E05FE321
:104DB0000E948674A80197010E9477710E940342A5
:104DC0002DEC3CEC4CEC5FE30E9486742AE939E957
:104DD00049E15FE30E94E370CB5ADE4F6883798339
:104DE0008A839B83C555D140C759DE4FA881B981BD
:104DF000C956D1406D917D918D919C9120E030E01C
:104E000040E050E00E947071882309F0E6C2F10191
:104E1000EE0FFF1FE20DF31DEE0FFF1FEE0FFF1F42
:104E2000E60DF71DE45AFE4FE080F1800281138108
:104E3000248135814681578160857185828593857E
:104E40000E940045CB5BDE4F2883C554D140CA5B2E
:104E5000DE4F3883C654D140C95BDE4F4883C75408
:104E6000D140C85BDE4F5883C854D140C75BDE4F8A
:104E70006883C954D140C65BDE4F7883CA54D140A1
:104E8000C55BDE4F8883CB54D140C45BDE4F988333
:104E9000CC54D140DE011196FE01EB5BFE4F88E061
:104EA00001900D928150E1F7E8EEF0E06E0E7F1E6A
:104EB000D3016D917D918D919C91E8E1FFEF6E0E94
:104EC0007F1E9058CB5ADE4F288139814A815B8101
:104ED000C555D1400E9486747B018C01D2012C9172
:104EE00011963C91119712964C91129713965C91E2
:104EF000139714966C91149715967C9115971696A6
:104F00008C91169717969C910E947844CB5BDE4F4C
:104F10002883C554D140CA5BDE4F3883C654D14084
:104F2000C95BDE4F4883C754D140C85BDE4F58830E
:104F3000C854D140C75BDE4F6883C954D140C65BBB
:104F4000DE4F7883CA54D140C55BDE4F8883CB5493
:104F5000D140C45BDE4F9883CC54D140DE0119961A
:104F6000FE01EB5BFE4F88E001900D928150E1F76E
:104F700029813A814B815C816D817E818F81988509
:104F8000A984BA84CB84DC84ED84FE840F851889DF
:104F90000E94EC42CB5BDE4F2883C554D140CA5BF4
:104FA000DE4F3883C654D140C95BDE4F4883C754B7
:104FB000D140C85BDE4F5883C854D140C75BDE4F39
:104FC0006883C954D140C65BDE4F7883CA54D14050
:104FD000C55BDE4F8883CB54D140C45BDE4F9883E2
:104FE000CC54D140DE01AF58BF4FFE01EB5BFE4F0A
:104FF00088E001900D928150E1F7CB59DE4FE881B6
:10500000F981C556D1406081718180E090E00E94B5
:1050100041727B018C01C959DE4FA881B981C75605
:10502000D1402D913D914D915C91CA01B9010E94F1
:10503000E4709B01AC01C801B7010E946C731816A3
:105040000CF0A4C5F101EE0FFF1FE20DF31DEE0FF2
:10505000FF1FEE0FFF1FEC5BF84FE080F180028135
:1050600013812481358146815781608571858285D0
:1050700093850E940045DE01AB5BBE4F2C93FE0181
:10508000EA5BFE4F3083FE01E95BFE4F4083FE0189
:10509000E85BFE4F5083FE01E75BFE4F6083FE013D
:1050A000E65BFE4F7083FE01E55BFE4F8083FE01F1
:1050B000E45BFE4F90839E012F5E3F4FFD0188E031
:1050C0000190D9010D929D018150D1F731E7832ED6
:1050D000912C8C0E9D1EF4012081318142815381DF
:1050E0006481758186819781A988BA88CB88DC889C
:1050F000ED88FE880F89188D0E94AF43DE01AB5BFF
:10510000BE4F2C93FE01EA5BFE4F3083FE01E95B4C
:10511000FE4F4083FE01E85BFE4F5083FE01E75BDC
:10512000FE4F6083FE01E65BFE4F7083FE01E55B90
:10513000FE4F8083FE01E45BFE4F90839401FD01EE
:1051400088E00190D9010D929D018150D1F7ECE0EA
:10515000F1E06E0E7F1ED3018C91E4EFFEEF6E0E38
:105160007F1EF301E80FF11DE65AFF4F208021E773
:10517000E22EF12CEC0EFD1ECE018F559F4FD70174
:105180000C9111961C91119712962C9112971396CF
:105190003C91139714964C91149715965C91159722
:1051A00016966C91169717967C910E94C744E2E67A
:1051B000F0E06E0E7F1ED3018C9190E0E5E0F0E010
:1051C0006E0E7F1ED3012D913C91829F2001839F03
:1051D000500C929F500C1124E7E0F0E06E0E7F1E01
:1051E000D3013C90E2E9FFEF6E0E7F1ED7012C91B8
:1051F00011963C91119712964C91129713965C91CF
:10520000139714966C91149715967C911597169692
:105210008C91169717969C910F2EF0E0EF2EF0E0F0
:10522000FF2EF0E00F2FFFE31F2FF02D0E94784498
:10523000DE01AB5BBE4F2C93FE01EA5BFE4F308379
:10524000FE01E95BFE4F4083FE01E85BFE4F5083A9
:10525000FE01E75BFE4F6083FE01E65BFE4F70835D
:10526000FE01E55BFE4F8083FE01E45BFE4F908311
:105270009E01275E3F4FFD0188E00190D9010D920C
:105280009D018150D1F79DEAA92EB12CAC0EBD1E17
:10529000C501098D1A8D2B8D3C8D4D8D5E8D6F8DC9
:1052A00078A10E94C744EAE6F0E06E0E7F1ED301AB
:1052B0002D913D914D915C91E6E9FFEF6E0E7F1EC1
:1052C000FE01E754FF4F80E090E0A0E0B0E0808373
:1052D0009183A283B3832483358346835783808756
:1052E0009187A287B3872DB73EB72C5030400FB6B9
:1052F000F8943EBF0FBE2DBFADB7BEB711968CE080
:1053000001900D928150E1F7CE018B539F4FD50153
:10531000CC901196DC9011971296EC901297139600
:10532000FC90139714960C91149715961C91159751
:1053300016962C91169717963C91179718964C91A4
:10534000189719965C9119971A966C911A971B9653
:105350007C910E948442EDB7FEB737970FB6F89460
:10536000FEBF0FBEEDBF319681EA882E912C8C0EC8
:105370009D1E20E030E040E050E0ADB7BEB7119692
:105380002D933D934D935C931497558244823682BE
:105390001896FE01EB53FF4F8CE001900D92815067
:1053A000E1F7C301622DF401A080B180C280D380F7
:1053B000E480F580068117812085318542855385FB
:1053C00088240E94BE1E2DB73EB72D5E3F4F0FB6FC
:1053D000F8943EBF0FBE2DBF0AC5892D0E94FA4A20
:1053E000CB5BDE4F2883C554D140CA5BDE4F388388
:1053F000C654D140C95BDE4F4883C754D140C85B17
:10540000DE4F5883C854D140C75BDE4F6883C95410
:10541000D140C65BDE4F7883CA54D140C55BDE4FB6
:105420008883CB54D140C45BDE4F9883CC54D140A9
:10543000DE01A759BF4FFE01EB5BFE4F88E00190F4
:105440000D928150E1F7F101EE0FFF1FE20DF31D08
:10545000EE0FFF1FEE0FFF1FE60DF71DE45AFE4F84
:10546000E080F1800281138124813581468157815A
:1054700060857185828593850E940045CB5BDE4FF8
:105480002883C554D140CA5BDE4F3883C654D1400F
:10549000C95BDE4F4883C754D140C85BDE4F588399
:1054A000C854D140C75BDE4F6883C954D140C65B46
:1054B000DE4F7883CA54D140C55BDE4F8883CB541E
:1054C000D140C45BDE4F9883CC54D140DE0191962D
:1054D000FE01EB5BFE4F88E001900D928150E1F7F9
:1054E00029A13AA14BA15CA16DA17EA18FA198A594
:1054F000AA96AFACAA97AB96BFACAB97AC96CFAC25
:10550000AC97AD96DFACAD97AE96EFACAE97AF96DD
:10551000FFACAF97E0960FADE097E1961FADE19736
:105520000E94EC42CB5BDE4F2883C554D140CA5B5E
:10553000DE4F3883C654D140C95BDE4F4883C75421
:10554000D140C85BDE4F5883C854D140C75BDE4FA3
:105550006883C954D140C65BDE4F7883CA54D140BA
:10556000C55BDE4F8883CB54D140C45BDE4F98834C
:10557000CC54D140DE019996FE01EB5BFE4F88E0F2
:1055800001900D928150E1F729A53AA54BA55CA5A4
:105590006DA57EA58FA598A9D201AC901196BC905F
:1055A00011971296CC9012971396DC90139714963D
:1055B000EC9014971596FC90159716960C911697EB
:1055C00017961C910E94AF43CB5BDE4F2883C554D6
:1055D000D140CA5BDE4F3883C654D140C95BDE4F31
:1055E0004883C754D140C85BDE4F5883C854D1406C
:1055F000C75BDE4F6883C954D140C65BDE4F7883FA
:10560000CA54D140C55BDE4F8883CB54D140C45BC4
:10561000DE4F9883CC54D140DE01D196FE01EB5B86
:10562000FE4F88E001900D928150E1F729A93AA937
:105630004BA95CA96DA97EA98FA998ADC55ADE4F6B
:1056400008811981CB55D1400E944F46CB5BDE4F7C
:105650002883C554D140CA5BDE4F3883C654D1403D
:10566000C95BDE4F4883C754D140C85BDE4F5883C7
:10567000C854D140C75BDE4F6883C954D140C65B74
:10568000DE4F7883CA54D140C55BDE4F8883CB544C
:10569000D140C45BDE4F9883CC54D140DE01D99613
:1056A000FE01EB5BFE4F88E001900D928150E1F727
:1056B00029AD3AAD4BAD5CAD6DAD7EAD8FAD2196F4
:1056C0009FAD2197F201A080B180C280D380E48099
:1056D000F580068117810E94EC42CB5BDE4F288368
:1056E000C554D140CA5BDE4F3883C654D140C95B34
:1056F000DE4F4883C754D140C85BDE4F5883C8543F
:10570000D140C75BDE4F6883C954D140C65BDE4FD2
:105710007883CA54D140C55BDE4F8883CB54D140D7
:10572000C45BDE4F9883CC54D140DE01AF5BBF4FEA
:10573000FE01EB5BFE4F88E001900D928150E1F796
:10574000FE01EF5BFF4F2081FE01EE5BFF4F3081DA
:10575000FE01ED5BFF4F4081FE01EC5BFF4F50818E
:10576000FE01EB5BFF4F6081FE01EA5BFF4F708142
:10577000FE01E95BFF4F8081FE01E85BFF4F9081F6
:10578000AA96AFACAA97AB96BFACAB97AC96CFAC92
:10579000AC97AD96DFACAD97AE96EFACAE97AF964B
:1057A000FFACAF97E0960FADE097E1961FADE197A4
:1057B0000E94AF43CB5BDE4F2883C554D140CA5B08
:1057C000DE4F3883C654D140C95BDE4F4883C7548F
:1057D000D140C85BDE4F5883C854D140C75BDE4F11
:1057E0006883C954D140C65BDE4F7883CA54D14028
:1057F000C55BDE4F8883CB54D140C45BDE4F9883BA
:10580000CC54D140DE01AF58BF4FFE01EB5BFE4FE1
:1058100088E001900D928150E1F7CB59DE4FA881CD
:10582000B981C556D1406D917C9180E090E00E9495
:1058300041727B018C01C959DE4FE881F981C7565D
:10584000D1402081318142815381CA01B9010E9436
:10585000E4709B01AC01C801B7010E947071181679
:105860000CF494C1F101EE0FFF1FE20DF31DEE0FDA
:10587000FF1FEE0FFF1FE60DF71DE45AFE4FE080FD
:10588000F1800281138124813581468157816085B1
:105890007185828593850E940045CB5BDE4F28830E
:1058A000C554D140CA5BDE4F3883C654D140C95B72
:1058B000DE4F4883C754D140C85BDE4F5883C8547D
:1058C000D140C75BDE4F6883C954D140C65BDE4F11
:1058D0007883CA54D140C55BDE4F8883CB54D14016
:1058E000C45BDE4F9883CC54D140DE01A75BBF4F31
:1058F000FE01EB5BFE4F88E001900D928150E1F7D5
:10590000FE01E75BFF4FE2962FADE297E3963FADD6
:10591000E397E4964FADE497E5965FADE597E6969D
:105920006FADE697E7967FADE797E8968FADE8977E
:10593000E9969FADE997A080B180C280D380E480D2
:10594000F580068117810E94AF43CB5BDE4F288331
:10595000C554D140CA5BDE4F3883C654D140C95BC1
:10596000DE4F4883C754D140C85BDE4F5883C854CC
:10597000D140C75BDE4F6883C954D140C65BDE4F60
:105980007883CA54D140C55BDE4F8883CB54D14065
:10599000C45BDE4F9883CC54D140DE01AF5ABF4F79
:1059A000FE01EB5BFE4F88E001900D928150E1F724
:1059B000FE01EF5AFF4F2081318142815381648182
:1059C000758186819781CB5ADE4FE880F9800A8104
:1059D0001B81C555D1400E947844CB5BDE4F2883A4
:1059E000C554D140CA5BDE4F3883C654D140C95B31
:1059F000DE4F4883C754D140C85BDE4F5883C8543C
:105A0000D140C75BDE4F6883C954D140C65BDE4FCF
:105A10007883CA54D140C55BDE4F8883CB54D140D4
:105A2000C45BDE4F9883CC54D140DE01A75ABF4FF0
:105A3000FE01EB5BFE4F88E001900D928150E1F793
:105A4000F101EE0FFF1FE20DF31DEE0FFF1FEE0F32
:105A5000FF1FE60DF71DE45AFE4FE080F180028142
:105A600013812481358146815781608571858285C6
:105A700093850E940045CB5BDE4F2883C554D140FF
:105A8000CA5BDE4F3883C654D140C95BDE4F4883C2
:105A9000C754D140C85BDE4F5883C854D140C75B60
:105AA000DE4F6883C954D140C65BDE4F7883CA5449
:105AB000D140C55BDE4F8883CB54D140C45BDE4F01
:105AC0009883CC54D140DE01AF59BF4FFE01EB5B50
:105AD000FE4F88E001900D928150E1F7FE01E75AF8
