:100000000C94A4020C94EA750C941B760C944C7618
:100010000C947D760C94AE760C94DF760C9410776D
:100020000C9441770C94CE020C94CE020C94CE0228
:100030000C94CE020C94CE020C94CE020C943B4154
:100040000C94CE020C94CE020C94CE020C94CE02F0
:100050000C94CE020C94CE020C94CE020C947141FE
:100060000C94CE020C9420730C94CE020C94CE020D
:100070000C94CE020C94CE020C94CE020C94CE02C0
:100080000C94CE020C94CE020C94CE020C94CE02B0
:100090000C94763C0C94CE020C94CE020C94CE02BE
:1000A0000C94CE020C94CE020C94CE020C94CE0290
:1000B0000C94CE020C94CE020C94CE020C94CE0280
:1000C0000C94CE020C94CE020C94CE020C946E745E
:1000D0000C94CE020C94CE020C94CE020C94CE0260
:1000E0000C94CE028D3D8B3D893D893D893D893DF6
:1000F0008D3D8B3D8D3D8B3D8B3D893D893D893DC2
:100100008D3D8B3D893D893D893D893D8D3D8B3DB3
:100110008D3D8B3D893D893D893D893D893D893DA9
:100120008D3D8B3D8D3D8B3D8D3D8B3D8D3D8B3D87
:100130008D3D8B3D8D3D8B3D893D893D893D8B3D81
:10014000893D893D8D3D9D3D9D3D9D3DA13D9F3D11
:10015000A13D9F3D9F3D9D3D9D3D9D3DA13D9F3DC1
:100160009D3D9D3D9D3D9D3D9F3D9F3D9F3D9F3DB7
:100170009D3D9D3D9D3D9D3D9D3D9D3DA13D9F3DA9
:10018000A13D9F3DA13D9F3D9F3D9F3D9F3D9F3D8B
:100190009F3D9F3D9F3D9F3D9D3D9F3D9F3D9D3D83
:1001A000A13DC943C743D143D143D143CD43C74305
:1001B000D143CB43CB43CF43D143CB43C743CB43C3
:1001C000C543C743CB43C743C743C743C743C743DD
:1001D000C743C743C743CB43CB43CF43C743CF43B7
:1001E000C743CF43D143D143D143D143C743C7438F
:1001F000D143C743C943C743C743C743D143D1438F
:10020000D143C743D143D143D143D143D143D14358
:10021000CF43D143D143C743CF43D143CF43CF4350
:10022000CF43D143C743C743C743C743C743C5436E
:10023000C743C743C943CB43C743C943D143C7435C
:10024000C743C743C743C543C743C543C743D14358
:10025000D143D143C743C743C743CF43C743CF432A
:10026000E543E743E743E943E943E943E743E94338
:10027000E543E543E943E943E543E743E543E74332
:10028000E743E543E743E743E743E743E743E74320
:10029000E743E743E543E543E943E743E943E7430E
:1002A000E943E943E943E943E943E743E743E943F2
:1002B000E743E543E743E743E743E943E943E943EA
:1002C000E743E943E943E943E943E943E943E943D0
:1002D000E943E943E743E943E943E943E943E943C0
:1002E000E943E743E743E743E743E743E743E743BC
:1002F000E743E543E543E743E543E943E743E743B2
:10030000E743E743E743E743E743E743E943E94399
:10031000E943E743E743E743E943E743084AD73B79
:100320003BCE016E84BCBFFDC12F3D6C74319ABDC4
:1003300056833DDA3D00C77F11BED9E4BB4C3E91E8
:100340006BAAAABE000000803F07634236B79BD865
:10035000A71A39685618AEBAAB558C1D3CB7CC57A6
:1003600063BD6DEDFD753EF6177231BF0000008074
:100370003F072C7AA5BA6CC590DA3B9365FC8BBC21
:1003800053F810FD3C5692834DBD879D3AB63DCB48
:10039000C9BF5BBE73DA0FC93F05A84CCDB2D44EBE
:1003A000B93836A9020C50B9918688083CA6AAAA89
:1003B0002ABE000000803F08000000BE92244912BF
:1003C0003EABAAAA2ABECDCCCC4C3E00000080BEDB
:1003D000ABAAAAAA3E00000000BF000000803F00B8
:1003E00000000000084178D3BB4387D1133D190EAC
:1003F0003CC3BD4282AD2B3E68EC8276BED98FE114
:10040000A93E4C80EFFFBE01C4FF7F3F000000000B
:100410000000002100240027002A002D00300033B6
:100420000001010000040107010A0100002200256B
:100430000028002B002E00310034000201000005CE
:100440000108010B01000020002300260029002CD8
:10045000002F003200000100000301060109010520
:10046000050505070508080808020202020A0A082D
:100470000804040404010101010101010103030353
:100480000303030303040707070C0C0C0C0C0C0CF0
:100490000C0202020206060606060606060B0B0BF7
:1004A0000B0B0B0B0B010210202008081020401032
:1004B0002040800201020108040201010204081028
:1004C0002040808040201008040201800402018046
:1004D000402010080402010804020101020408106F
:1004E00020408001020408102040800000090A0218
:1004F000080B0C0D070603040100000000000000BB
:1005000000000000000000000000000000000000EB
:1005100000000000000000100F0E000000000000AE
:1005200000000000000000000000000000000000CB
:100530000000FF0FF8104D1652167642F94381461F
:10054000786102744E787A4611241FBECFEFD1E253
:10055000DEBFCDBF16E0A0E0B2E0E2E2F2E101E0F2
:100560000BBF02C007900D92AA32B107D9F715E16F
:10057000AAE2B6E001C01D92A236B107E1F715E08C
:10058000C6E4D5E004C02297FE010E940089C23370
:10059000D107C9F70E949A740C9406880C94000045
:1005A0000895EF92FF920F931F93CF93DF93EC0187
:1005B000042F79019A85960F8B858F5F849F102D6C
:1005C0001124190F8985181711F4442351F4E88177
:1005D000F981A081B1812D913C91CF01612FF90169
:1005E0000995E881F981A081B18114962D913C9102
:1005F0001597CF01B701402F50E0F90109951987F0
:10060000DF91CF911F910F91FF90EF900895DC0142
:100610001A962C911A976217D8F0862F821B1B9678
:100620009C911B97892315968C931597862F90E0A4
:10063000821B91091C960C901C9702C0959587957A
:100640000A94E2F714968C93149716961C920895C8
:1006500016969C91169714968C911497981750F4AF
:100660001796ED91FC911897E90FF11D60839F5F3C
:1006700016969C930895CF93DF93EC010E94070395
:100680006E818C81681739F44F815885EA81FB812E
:100690008D8109951E82DF91CF910895DF93CF93CD
:1006A00000D0CDB7DEB79A01220F232F221F330BC4
:1006B000319529834F774A8342E09E012F5F3F4F58
:1006C0000E94D1020F900F90CF91DF910895AF92C9
:1006D000BF92CF92DF92EF92FF920F935C01CB011A
:1006E000F50171836083BA01A9010E945573202F1F
:1006F00030E0FF24A701420F531F8FEF90E002C0AC
:10070000880F991F4A95E2F7F501828781E090E012
:10071000AC01002E02C0440F551F0A94E2F79A0163
:1007200021502387048702C0880F991FEA94E2F7BB
:100730000E94BA85F501878390871186D382C28291
:100740000F91FF90EF90DF90CF90BF90AF90089502
:10075000482F50E0CA018B559B4FFC012491415A10
:100760005B4FFA0184918823C1F0E82FF0E0EE0F8F
:10077000FF1FEF5EFB4FA591B491662341F49FB735
:10078000F8948C91209582238C939FBF08959FB7F6
:10079000F8948C91822B8C939FBF0895893009F433
:1007A00048C08A30A0F4843049F1853040F482306A
:1007B00071F18330F8F4813009F062C025C08730D0
:1007C00071F1883090F5863009F05AC024C08D3020
:1007D00009F441C08E3028F48B30A9F18C30B8F583
:1007E0002CC08F3009F441C08F30D8F1803109F02E
:1007F00047C041C0809180008F7703C08091800006
:100800008F7D80938000089584B58F7702C084B572
:100810008F7D84BD08958091B0008F7703C0809153
:10082000B0008F7D8093B0000895809190008F7705
:1008300007C0809190008F7D03C080919000877FDA
:100840008093900008958091A0008F7707C08091D9
:10085000A0008F7D03C08091A000877F8093A000BF
:100860000895809120018F7703C0809120018F7DB2
:1008700080932001089580912001877F809320013B
:100880000895FF920F931F93F62E482F50E0CA0150
:1008900085519B4FFC012491CA018B559B4FFC0154
:1008A0001491415A5B4FFA0104910023D9F022239D
:1008B00019F0822F0E94CE03E02FF0E0EE0FFF1F11
:1008C000E55DFB4FA591B491FF2031F49FB7F894FB
:1008D0008C911095812304C09FB7F8948C91812B43
:1008E0008C939FBF1F910F91FF9008950F931F93BB
:1008F000482F50E0CA0185519B4FFC012491CA0149
:100900008B559B4FFC010491415A5B4FFA011491A6
:10091000112319F420E030E015C0222319F0822FB2
:100920000E94CE03812F90E0880F991F8B5B9B4F15
:10093000FC01A591B4918C9120E030E0802311F06E
:1009400021E030E0C9011F910F9108950F931F938B
:10095000182F092FFB0150E08DE090E09C01429F91
:10096000C001439F900D529F900D1124E80FF91F75
:10097000212F302FC901DC0134968DE001900D92BA
:100980008150E1F7812F902F1F910F91089570E012
:10099000EDE0F0E0DF016A9FF0016B9FF00D7A9FC0
:1009A000F00D1124E80FF91F248335834683578304
:1009B000089570E0EDE0F0E0DF016A9FF0016B9FC9
:1009C000F00D7A9FF00D1124E80FF91F2087318771
:1009D00042875387089570E0EDE0F0E0DF016A9F01
:1009E000F0016B9FF00D7A9FF00D1124E80FF91FB5
:1009F0002487358746875787089570E02DE030E0DB
:100A0000629FF001639FF00D729FF00D1124E80FBB
:100A1000F91F408B0895EF92FF920F931F93CF938E
:100A2000DF93DC01A758BF4F20E030E04DE0E42E1B
:100A3000F12C1DE040E050E060E070E02E9DF00100
:100A40002F9DF00D3E9DF00D1124E80FF91F3496F7
:100A5000EF01012F19920A95E9F74D935D936D937C
:100A60007D932F5F3F4F2930310541F7DF91CF91C3
:100A70001F910F91FF90EF9008959C0128563E4FD3
:100A8000C90108952F923F924F925F926F927F9289
:100A90008F929F92AF92BF92CF92DF92EF92FF928E
:100AA0000F931F93DF93CF93CDB7DEB7C359D040D9
:100AB0000FB6F894DEBF0FBECDBFEB966FAFEB97CE
:100AC000BE016F5B7F4FDB01AC92FE01EE5BFF4F1F
:100AD000B082FE01ED5BFF4FC082FE01EC5BFF4F79
:100AE000D082CE018B5B9F4FFC01E082FE01EA5B6E
:100AF000FF4FF082FE01E95BFF4F0083FE01E85BE0
:100B0000FF4F1083DE01A75BBF4F2C93FE01E65B16
:100B1000FF4F3083FE01E55BFF4F4083FE01E45B46
:100B2000FF4F5083EC968FAEEC97FB012081318113
:100B300042815381A5962CAF3DAF4EAF5FAFA597D5
:100B4000FC012081318142815381A1962CAF3DAFC0
:100B50004EAF5FAFA1972D913D914D915C916D96F8
:100B60002CAF3DAF4EAF5FAF6D97C155DF4F888162
:100B70009981AA81BB81CF5AD04069968CAF9DAF35
:100B8000AEAFBFAF6997CD54DF4F288139814A811D
:100B90005B81C35BD04065962CAF3DAF4EAF5FAF7E
:100BA0006597C954DF4F88819981AA81BB81C75B52
:100BB000D04061968CAF9DAFAEAFBFAF6197C255CD
:100BC000DF4F9881CE5AD040692F70E0882777FD9B
:100BD0008095982F0E9457829B01AC0160E070E0E5
:100BE00080E89FE30E948B81EA966CAF7DAF8EAF69
:100BF0009FAFEA97C455DF4F68817981CC5AD040C6
:100C0000882777FD8095982F0E945782EA962CAD11
:100C10003DAD4EAD5FADEA970E949A84E6966CAF0B
:100C20007DAF8EAF9FAFE6978820B9F420E030E02B
:100C300040E050E0E1962CAF3DAF4EAF5FAFE197A3
:100C4000AD962CAF3DAF4EAF5FAFAD97A9962CAF31
:100C50003DAF4EAF5FAFA99738C0EB968FADEB9726
:100C60000E942568F82EC855DF4F688179818A81F6
:100C70009B81C85AD0400E9424828B019C01CE01E6
:100C8000499666E67AE04F2D98010E94856189A118
:100C90009AA1ABA1BCA1E1968CAF9DAFAEAFBFAFA7
:100CA000E1972D8D3E8D4F8D58A1AD962CAF3DAF68
:100CB0004EAF5FAFAD97898D9A8DAB8DBC8DA996E8
:100CC0008CAF9DAFAEAFBFAFA997E2961FAEE297D4
:100CD0000F2EF0E04F2EF0E05F2EF0E06F2EF0E0F0
:100CE0007F2EF02DC157DF4F1882CF58D040C0570C
:100CF000DF4F1882C059D040CF56DF4F1882C159FC
:100D0000D0403324C457DF4F1882CC58D040C3574B
:100D1000DF4F1882CD58D040C257DF4F1882CE58CF
:100D2000D0402224C857DF4F1882C858D040C75738
:100D3000DF4F1882C958D040C657DF4F1882CA58B3
:100D4000D040C557DF4F1882CB58D040CC57DF4F2B
:100D50001882C458D040CB57DF4F1882C558D040B6
:100D6000CA57DF4F1882C658D040C957DF4F188284
:100D7000C758D040C058DF4F1882C058D040CF5716
:100D8000DF4F1882C158D040CE57DF4F1882C2586B
:100D9000D040CD57DF4F1882C358D040ED961FAEDC
:100DA000ED97EE961FAEEE97EF961FAEEF97C158F8
:100DB000DF4F1882CF57D040DE01D196CE56DF4F9D
:100DC000B983A883C259D04006C2C301B201EA96D2
:100DD0002CAD3DAD4EAD5FADEA970E94BE802B01BC
:100DE0003C01EC96BFADEC97BB2309F068C0C85737
:100DF000DF4FE881C858D040CC57DF4FE883C45854
:100E0000D040C757DF4FF881C958D040CB57DF4F8C
:100E1000F883C558D040C657DF4F2881CA58D04004
:100E2000CA57DF4F2883C658D040C557DF4F388197
:100E3000CB58D040C957DF4F3883C758D040C4572C
:100E4000DF4F4881CC58D040C058DF4F4883C0584E
:100E5000D040C357DF4F5881CD58D040CF57DF4FD8
:100E60005883C158D040C257DF4F8881CE58D040F8
:100E7000CE57DF4F8883C258D040CD57DF4F2882EE
:100E8000C358D040C157DF4F9881CF58D040ED961E
:100E90009FAFED97C057DF4FA881C059D040EE9665
:100EA000AFAFEE97CF56DF4FB881C159D040EF9624
:100EB000BFAFEF97C158DF4F3882CF57D040A996C8
:100EC0006CAD7DAD8EAD9FADA99769962CAD3DAD56
:100ED0004EAD5FAD6997A596ECACFDAC0EAD1FAD08
:100EE000A597630152010E94AD62C857DF4F688326
:100EF000C858D040C757DF4F7883C958D040C6572D
:100F0000DF4F8883CA58D040C557DF4F9883CB58EE
:100F1000D040AD966CAD7DAD8EAD9FADAD97659675
:100F20002CAD3DAD4EAD5FAD6597A196ECACFDAC83
:100F30000EAD1FADA1970E94AD62C457DF4F68830D
:100F4000CC58D040C357DF4F7883CD58D040C257DC
:100F5000DF4F8883CE58D040292EE1966CAD7DAD11
:100F60008EAD9FADE19761962CAD3DAD4EAD5FADC1
:100F700061976D96ECACFDAC0EAD1FAD6D970E9408
:100F8000AD62C157DF4F6883CF58D040C057DF4FA5
:100F90007883C059D040CF56DF4F8883C159D040A5
:100FA000392E482F592FCB01DA0189879A87AB87D1
:100FB000BC87C457DF4F2881CC58D040C357DF4F80
:100FC0003881CD58D040C257DF4F4881CE58D040ED
:100FD000522DC901DA018D839E83AF83B887C8572C
:100FE000DF4F2881C858D040C757DF4F3881C958D4
:100FF000D040C657DF4F4881CA58D040C557DF4F51
:101000005881CB58D040C901DA0189839A83AB83D8
:10101000BC83CC57DF4F2881C458D040CB57DF4F1B
:101020003881C558D040CA57DF4F4881C658D04094
:10103000C957DF4F5881C758D040C901DA018D87A1
:101040009E87AF87B88BC058DF4F2881C058D040EB
:10105000CF57DF4F3881C158D040CE57DF4F48813E
:10106000C258D040CD57DF4F5881C358D040C90136
:10107000DA01898B9A8BAB8BBC8BED962FADED97FC
:10108000EE963FADEE97EF964FADEF97C158DF4F1D
:101090005881CF57D040C901DA018D8B9E8BAF8B21
:1010A000B88FEDB7FEB73C970FB6F894FEBF0FBEF2
:1010B000EDBFADB7BEB71196FE013D968CE0019035
:1010C0000D928150E1F7CE018596C980DA80EB80E0
:1010D000FC800D811E812F81388549855A856B855D
:1010E0007C850E94DF63CE56DF4FA881B981C2594B
:1010F000D040E0E11D92EA95E9F7DE01D296FE01CB
:10110000B5968CE001900D928150E1F7EB96FFAD22
:10111000EB97F9ABE6966CAD7DAD8EAD9FADE697E6
:101120000E9424827FAF6EAFEC962FADEC97219694
:101130002FAF21974DB75EB7465F5F4F0FB6F8945C
:101140005EBF0FBE4DBF0DB71EB70F5F1F4FC85517
:10115000DF4F688179818A819B81C85AD0400E9483
:101160002482D8016D937C9386E69AE089A89AA898
:10117000ABA8BCA8CDA8DEA8EFA8F8AC09AD1AAD05
:101180002BAD3CAD4DAD5EAD6FAD21967FAD2197E2
:101190000E942760C855DF4F688179818A819B81D1
:1011A000C85AD040E6962CAD3DAD4EAD5FADE6974A
:1011B0000E94BE80C855DF4F688379838A839B83F2
:1011C000C85AD040E296BFADE297BF5FE296BFAF8C
:1011D000E2970F900F90E296EFADE297C255DF4F86
:1011E000F881CE5AD040EF1708F4EFCDCD56DF4F3F
:1011F0000FB6F894DEBF0FBECDBFCF91DF911F9128
:101200000F91FF90EF90DF90CF90BF90AF909F90A5
:101210008F907F906F905F904F903F902F900895A8
:101220002F923F924F925F926F927F928F929F92F6
:10123000AF92BF92CF92DF92EF92FF920F931F93E4
:10124000DF93CF93CDB7DEB7A0970FB6F894DEBF8C
:101250000FBECDBF5E8F4D8F19012B016624772401
:10126000CE010D9698A38F8FDE011196F2018CE0CE
:1012700001900D928150E1F7EF8DF8A180E111927C
:101280008A95E9F7DE011E96FE0131968CE0019009
:101290000D928150E1F781E090E0062C02C0880FAA
:1012A000991F0A94E2F78D873B8E2A8E91E09C8FDE
:1012B00000D08D8D9E8DEDB7FEB79283818386E63B
:1012C0009AE08D849E84AF84B888C988DA88EB88D8
:1012D000FC880D891E892F89388D498D5A8D6B8D1B
:1012E0007C8D0E9427600894611C711CECE0F0E08A
:1012F0004E0E5F1E0F900F90F6E06F16710409F00E
:10130000B3CFA0960FB6F894DEBF0FBECDBFCF917E
:10131000DF911F910F91FF90EF90DF90CF90BF90E2
:10132000AF909F908F907F906F905F904F903F9085
:101330002F900895DC01A856BE4FECEBF8E088E44E
:1013400001900D928150E1F70895DC01A856BE4F3F
:10135000FB0188E401900D928150E1F70895DF933D
:10136000CF9300D000D000D0CDB7DEB7FC019C01F8
:1013700027553F4F48E554E088E0DA010D90AD0174
:10138000D9010D929D018150C1F7EF54FF4F80E0CC
:1013900090E0A0E0B0E080839183A283B383EF5C10
:1013A000FE4F8AE590E091838083E25EF1409E01EA
:1013B0002F5F3F4F42E554E086E0DA010D90AD012A
:1013C000D9010D929D018150C1F79F012B543F4FD0
:1013D000AE014F5F5F4F86E0DA010D90AD01D9019C
:1013E0000D929D018150C1F7E554FF4F86E0819336
:1013F00081E08083EC5DFE4F8083E352F1408FE01B
:1014000090E081939193819391938CE390E0918309
:101410008083339680E090E0A0E2B1E48083918302
:10142000A283B383E35EFE4F87E08083E15EF140F9
:10143000CF0160E00E94D53226960FB6F894DEBF49
:101440000FBECDBFCF91DF9108950F931F938C01F5
:101450000E94A509C8010E94AF091F910F9108952C
:101460002F923F924F925F926F927F928F929F92B4
:10147000AF92BF92CF92DF92EF92FF920F931F93A2
:10148000DF93CF93CDB7DEB72E970FB6F894DEBFBC
:101490000FBECDBF4A835B836C837D831801290116
:1014A000AE82BF82C886D9868824992419826E2D7F
:1014B00070E07C876B876B847C84082C02C07594F9
:1014C00067940A94E2F771E0672277241E861D86EE
:1014D0008A866114710479F40F2EF0E0EF2EF0E0AB
:1014E000FF2EF0E00F2FF0E01F2FF02DA801970145
:1014F000570168014DC06E817F81888599850E9462
:10150000ED119B01AC016A817B818C819D810E94E0
:101510009A845B016C018A85813039F4C601B5017A
:10152000A60195010E94BE800BC09A85923051F4AD
:10153000C601B50120E030E040E751E40E948B8114
:101540005B016C01C201B10120E030E040E450E4F5
:101550000E948B817B018C01C201B10120E030E04F
:1015600040E450E40E949A849B01AC01C801B70199
:101570000E943E117B018C016BED7FE089E490ECD1
:101580002BED3FE049E450E40E943E119B01AC0189
:101590008981ED858E0F90E06DE070E0869FF0010F
:1015A000879FF00D969FF00D1124E65DF94FA48200
:1015B000B582C682D782E086F186028713872487A8
:1015C000358746875787108A8D859E8501969E8729
:1015D0008D87039709F07DCF0894811C911C998118
:1015E0009D5F9983993009F066CF2E960FB6F894D7
:1015F000DEBF0FBECDBFCF91DF911F910F91FF9046
:10160000EF90DF90CF90BF90AF909F908F907F90A2
:101610006F905F904F903F902F900895CF92DF9200
:10162000EF92FF920F931F938C016901CB01BA01D6
:1016300026EA3BE944EC5DE30E949A849B01AC01FD
:1016400060E070E080E89FE30E948B810E94298225
:101650009B01AC0150EEE52E51E0F52EE00EF11E9F
:10166000F7012083C801622F70E00E943E1E0F51D7
:101670001E4FF80181938F01F7016081C60170E070
:101680000E94AE88F801718360830D5F1F4F81E077
:10169000F8018083055E1140C8010E94A3321F91AA
:1016A0000F91FF90EF90DF90CF9008954F925F924F
:1016B0006F927F928F929F92AF92BF92CF92DF9262
:1016C000EF92FF920F931F93DF93CF93CDB7DEB7C7
:1016D00068970FB6F894DEBF0FBECDBF6A017B01DD
:1016E00048015901F7FAF094F7F8F094C901B801EC
:1016F0000E9488812B013C01C501B4010E944985EB
:101700004B015C01C701B601A30192010E949A84BA
:1017100069837A838B839C83CD82DE82EF82F88615
:10172000C701B601A50194010E949A8469877A874E
:101730008B879C87DE011D96E0E6F4E08CE001904B
:101740000D928150E1F78DB79EB743970FB6F8948D
:101750009EBF0FBE8DBFEDB7FEB7319620E030E0E3
:1017600040E050E0ADB7BEB711962D933D934D9339
:101770005C9314978FE090E09583848385E0868363
:101780001896FE0131968CE001900D928150E1F7A0
:101790008AE296E06FE3AD84BE84CF84D888E9887E
:1017A000FA880B891C892D893E894F89588D882498
:1017B0000E9442058DB79EB743960FB6F8949EBF20
:1017C0000FBE8DBF68960FB6F894DEBF0FBECDBFBB
:1017D000CF91DF911F910F91FF90EF90DF90CF900D
:1017E000BF90AF909F908F907F906F905F904F9041
:1017F00008952F923F924F925F926F927F928F92B5
:101800009F92AF92BF92CF92DF92EF92FF920F938F
:101810001F93DF93CF93CDB7DEB7C95AD0400FB631
:10182000F894DEBF0FBECDBFCA55DF4F99838883C2
:10183000C65AD040962E872EFE01E75BFF4FA0824E
:10184000B182C282D382E482F58206831783208725
:10185000318742875387C653DF4F488059806A805B
:101860007B80CA5CD040CA52DF4F08811981C65DB7
:10187000D040C852DF4F8881C85DD040882371F4C2
:10188000CA55DF4F88819981C65AD040B8010E945D
:101890003E1EC852DF4F8883C85DD040DE011196DE
:1018A000892D982D9C01F90188E401900D928150B9
:1018B000E1F7C852DF4F9881C85DD040692F70E0D2
:1018C000882777FD8095982F0E9457829B01AC0155
:1018D00060E070E080E89FE30E948B81CE55DF4F8F
:1018E000688379838A839B83C25AD040B801882752
:1018F00077FD8095982F0E945782CE55DF4F288123
:1019000039814A815B81C25AD0400E949A840E94E8
:101910002482C056DF4F79836883C05AD0408E013D
:10192000075B1F4FD8016D917D918D919C9120E0B7
:1019300030E040E050E00E948481882311F5F801F6
:10194000648175818681978120E030E040E050E03D
:101950000E9484818823A9F4D80118966D917D9105
:101960008D919C911B9720E030E040E050E00E9478
:101970008481882331F4C156DF4F1882CF59D0407B
:1019800024C0FE01E75BFF4FCE55DF4F8880998072
:10199000AA80BB80C25AD040B7FAB094B7F8B094CE
:1019A000CF01C080D180E280F3800481158126813F
:1019B000378140855185628573850E94A264B1E0BC
:1019C000C156DF4FB883CF59D040C301B20120E0E8
:1019D00030E040E050E00E948481882331F5C2531A
:1019E000DF4F688179818A819B81CE5CD04020E085
:1019F00030E040E050E00E9484818823B1F4CE5270
:101A0000DF4F688179818A819B81C25DD04020E06F
:101A100030E040E050E00E948481882331F4C256D7
:101A2000DF4F1882CE59D04054C084E290E00E942B
:101A3000BA85C855DF4F8883C85AD040C755DF4F95
:101A40009883C95AD040CE55DF4FE880F9800A818B
:101A50001B81C25AD04017FB109517F91095C3018E
:101A6000B201A80197010E949A842B013C01C25344
:101A7000DF4F688179818A819B81CE5CD040A8014B
:101A800097010E949A844B015C01CE52DF4F68811E
:101A900079818A819B81C25DD040A80197010E9413
:101AA0009A846B017C01C855DF4F8881C85AD040A9
:101AB000C755DF4F9881C95AD040B301A2019501A3
:101AC00084010E94E471E1E0C256DF4FE883CE5901
:101AD000D0400F2EF0E02F2EF0E03F2EF0E04F2E02
:101AE000F0E05F2EF02DC356DF4F1882CD59D04065
:101AF00069E4662E712C6C0E7D1ED2C0C156DF4F7C
:101B0000F881CF59D040FF23A1F1CE018B5A9F4FCE
:101B1000BE016F5F7F4FD301AC901196BC901197BF
:101B20001296CC9012971396DC9013971496EC9023
:101B300014971596FC90159716960C911697179674
:101B40001C91179718962C91189719963C911997F4
:101B50001A964C911A971B965C910E943B68DE0185
:101B60001196FE01EB5AFF4F88E401900D928150CF
:101B7000E1F7C256DF4FB881CE59D040BB2309F4FC
:101B800058C0CE018B5A9F4FBE016F5F7F4FC2542A
:101B9000DF4FA880CE5BD040C154DF4FB880CF5B11
:101BA000D040C054DF4FC880C05CD040CF53DF4F1F
:101BB000D880C15CD040CE53DF4FE880C25CD040BB
:101BC000CD53DF4FF880C35CD040CC53DF4F08814A
:101BD000C45CD040CB53DF4F1881C55CD040CA53A2
:101BE000DF4F2881C65CD040C953DF4F3881C75CC6
:101BF000D040C853DF4F4881C85CD040C753DF4F47
:101C00005881C95CD040C855DF4F8880C85AD04041
:101C1000C755DF4F9880C95AD0400E94E069DE0165
:101C20001196FE01EB5AFF4F88E401900D9281500E
:101C3000E1F7C201B10120E030E040E05FE30E9443
:101C4000BE800E9424829B01AC01CA55DF4F88816F
:101C50009981C65AD040BE016F5F7F4FA901C0561F
:101C6000DF4F28813981C05AD0400E941009C2013B
:101C7000B101CE55DF4F288139814A815B81C25A3B
:101C8000D0400E94BE801B012C01C356DF4FE8816B
:101C9000CD59D040EF5FC356DF4FE883CD59D040D8
:101CA000C356DF4FF881CD59D040C852DF4F8881ED
:101CB000C85DD040F81708F421CFC256DF4F988195
:101CC000CE59D040992361F0C855DF4F8881C85A5A
:101CD000D040C755DF4F9881C95AD0400E946786CF
:101CE000C755DF4F0FB6F894DEBF0FBECDBFCF9103
:101CF000DF911F910F91FF90EF90DF90CF90BF90F9
:101D0000AF909F908F907F906F905F904F903F909B
:101D10002F9008952F923F924F925F926F927F92F1
:101D20008F92AF92BF92CF92DF92EF92FF920F937A
:101D30001F93DF93CF93CDB7DEB72C970FB6F894F0
:101D4000DEBF0FBECDBF1C0128013901CE010196B7
:101D50002CE634E0ECE0D9010D909D01DC010D9200
:101D6000CD01E150C1F78DB79EB74B970FB6F894F0
:101D70009EBF0FBE8DBFEDB7FEB731969F01C1016B
:101D800083569F4F1CE0DC010D90CD01D9010D92CF
:101D90009D011150C1F74487558766877787408A30
:101DA000518A628A738AC48AD58AE68AF78AB18E92
:101DB000A08E828EC1016CEB78E0A980BA80CB80C6
:101DC000DC80ED80FE800F81188529853A854B8562
:101DD0005C850E94F90B8DB79EB74B960FB6F894B1
:101DE0009EBF0FBE8DBF2C960FB6F894DEBF0FBE00
:101DF000CDBFCF91DF911F910F91FF90EF90DF90BA
:101E0000CF90BF90AF908F907F906F905F904F90EA
:101E10003F902F9008956F927F928F92AF92BF92D2
:101E2000CF92DF92EF92FF920F931F93DF93CF93A6
:101E3000CDB7DEB768970FB6F894DEBF0FBECDBF43
:101E40003C01CD86DE86EF86F88A098B1A8B2B8BB8
:101E50003C8B4D8B5E8B6F8B788FDE011196E8E7A4
:101E6000F4E08CE001900D928150E1F78DB79EB7C0
:101E70004B970FB6F8949EBF0FBE8DBFEDB7FEB760
:101E800031969F01AE014F5F5F4F8CE0DA010D90FC
:101E9000AD01D9010D929D018150C1F780E090E024
:101EA000A0E0B0E084879587A687B787808B918B69
:101EB000A28BB38B848B958BA68BB78BB18EA08EA8
:101EC000828EC3016CEB78E0AD84BE84CF84D88869
:101ED000E988FA880B891C892D893E894F89588D9C
:101EE0000E94F90B8DB79EB74B960FB6F8949EBF24
:101EF0000FBE8DBF68960FB6F894DEBF0FBECDBF84
:101F0000CF91DF911F910F91FF90EF90DF90CF90D5
:101F1000BF90AF908F907F906F9008954F925F9297
:101F20006F927F928F929F92AF92BF92CF92DF92E9
:101F3000EF92FF920F931F93DF93CF93CDB7DEB74E
:101F4000C854D0400FB6F894DEBF0FBECDBF2C01F1
:101F50003E010894611C711CC30143E353E36BEF22
:101F600070E400E010E020EF31E40F2EF0E0CF2E1F
:101F7000F0E0DF2EFCE0EF2EF2E4FF2EF02D0F2E2E
:101F8000FDEC8F2EFCEC9F2EFEE0AF2EF2E4BF2E78
:101F9000F02D0E944D70C201B3010E94A509C2013B
:101FA0000E940B05D201A356BF4FE4E8F4E08CE099
:101FB00001900D928150E1F7F2011182108213829B
:101FC000128284EE91E0480E591EF2011082C85B25
:101FD000DF4F0FB6F894DEBF0FBECDBFCF91DF91BC
:101FE0001F910F91FF90EF90DF90CF90BF90AF9037
:101FF0009F908F907F906F905F904F9008958AE2AE
:1020000096E00E948E0F0895DA01660F660F660F44
:10201000680F6D3030F46930A0F4683009F05BC0AF
:1020200009C06031A1F16F3109F447C06F3009F088
:1020300052C027C08C918093250880912C08816024
:1020400039C0262F30E0F901EE0FFF1FE45DFB4F92
:102050000190F081E02D8C918456808340912C0872
:102060002850304081E090E0A0E0B0E004C0880F4C
:10207000991FAA1FBB1F2A95D2F7482B40932C0803
:10208000089589E29AE06C910E94FC5B0895119694
:102090008C9111972C9130E03695322F222737956D
:1020A0002795280F311D30932B0820932A08809103
:1020B0002C08806280932C0808958C9180932508C9
:1020C00011968C91119784568093260812968C91C4
:1020D000845680932708089567E040E020E030E0D0
:1020E0000E94D102089540E020E030E00E94D10239
:1020F0000895DF93CF930F92CDB7DEB7653040F4EC
:10210000498341E09E012F5F3F4F0E94D10205C0ED
:10211000653019F460E00E944E030F90CF91DF917B
:102120000895DC01222351F4E62FF0E0EE0FFF1FAB
:10213000EA0FFB1F85859685480F591FE62FF0E0B3
:10214000EE0FFF1FEA0FFB1F56874587662311F02E
:102150008DE201C08EE24C51534FBA010E94753B93
:102160000895AF92BF92CF92DF92EF92FF920F93BA
:102170001F93DF93CF93CDB7DEB72D970FB6F894AB
:10218000DEBF0FBECDBF182FF92E0E94D0025E0118
:102190000894A11CB11CC50167E075E120E032EC98
:1021A00041E050E003E0F2E0EF2EE4E0CE2EE0E18B
:1021B000DE2E0E946703212F3F2DC901DC01F501AE
:1021C0008DE001900D928150E1F710922C082D9630
:1021D0000FB6F894DEBF0FBECDBFCF91DF911F9138
:1021E0000F91FF90EF90DF90CF90BF90AF90089548
:1021F00084E198E00E94B110089597FF02C02FEF8C
:1022000005C020E0181619060CF421E0822F08956D
:10221000EF92FF920F931F937B018C0120E030E03F
:1022200040E050E00E948481882329F4E0E070E0DF
:1022300080E060E018C00E941A87AA2797FDA09549
:10224000BA2FBC01CD010E9457829B01AC01C8018D
:10225000B7010E949A8420E03EEF4FEF56E40E94BF
:102260008B81E62F692F2E2F372F482F562FB9013C
:10227000CA011F910F91FF90EF900895AF92BF9206
:10228000CF92DF92EF92FF920F931F937B018C010D
:1022900059016A010E94808387FF10C0C601B50101
:1022A000A80197010E94BD800E9408119B01AC010A
:1022B000C801B7010E94BE807B018C01B701C80133
:1022C0001F910F91FF90EF90DF90CF90BF90AF9054
:1022D00008952F923F924F925F926F927F928F92CA
:1022E0009F92AF92BF92CF92DF92EF92FF920F93A5
:1022F0001F93DF93CF93CDB7DEB728970FB6F8942F
:10230000DEBF0FBECDBF1C014D835E836F83788718
:102310004801590160E070E080E89FEB20E030E088
:1023200040E85FE30E943E112B013C01D1018D91F9
:102330009D910D90BC91A02D89839A83AB83BC8322
:10234000C501B401A70196010E949A84A3019201DC
:102350000E949A844B015C016D817E818F819885FA
:1023600029813A814B815C810E94BD809B01AC0137
:10237000C701B6010E949A849B01AC01C501B4015A
:102380000E94BE809B01AC0169817A818B819C8116
:102390000E94BE80F10160837183828393832896BB
:1023A0000FB6F894DEBF0FBECDBFCF91DF911F9166
:1023B0000F91FF90EF90DF90CF90BF90AF909F90E4
:1023C0008F907F906F905F904F903F902F900895E7
:1023D000009711F00E941F870895EF92FF920F93CC
:1023E0001F937B018C0160E070E080E89FE30E9416
:1023F0000811A80197010E94FD841F910F91FF9081
:10240000EF9008950F931F93182F092FCB01BA0156
:102410000E94AE42BC01812F902F0E942A43812F3F
:10242000902F1F910F9108952F923F924F925F929C
:102430006F927F928F929F92AF92BF92CF92DF92D4
:10244000EF92FF920F931F93DF93CF93CDB7DEB739
:10245000EC970FB6F894DEBF0FBECDBF382E292EF5
:102460004A015B01CB01BA010E9424823B01C501F4
:10247000B40120E030E040E251E40E949A847B0104
:102480008C01B301660F771F9301E3E0220F331F26
:10249000EA95E1F7620F731F882777FD8095982FE3
:1024A0000E9457829B01AC01C801B7010E94BD8008
:1024B0000E942482562E472E7E010894E11CF11CB6
:1024C000C70160E072E00E944543C501B40120E00D
:1024D00030E040E050E00E9484818823CCF4C501C4
:1024E000B40120E030E040E85FEB0E9480831816E2
:1024F0007CF48E01095F1F4FC80161E072E00E9409
:102500004543C701B8010E94FA42C8010E947B42BC
:1025100063E1C62ED12CCC0EDD1EC601BE016F5F5D
:102520007F4F0E942A438E01035F1F4FC801B301F2
:102530004AE050E00E946D4359E1E52EF12CEC0E8B
:10254000FD1EC701B601A8010E9402128E01015EA4
:102550001F4FC80163E072E00E944543CE0185969B
:10256000B701A8010E940212252D342DC901BC011A
:1025700097FF03C0709561957F4FCE018B964AE01F
:1025800050E00E946D43CE01C196BE016B5D7F4F4E
:10259000AE01455D5F4F0E940212C501B40120E00B
:1025A00030E048EC52E40E949A847B018C0184E67E
:1025B00090E0689EB001699E700D789E700D1124A8
:1025C000882777FD8095982F0E9457829B01AC0148
:1025D000C801B7010E94BD807B018C01252D342DDF
:1025E000B90143E0660F771F4A95E1F7220F331FC9
:1025F000620F731F882777FD8095982F0E9457825E
:102600009B01AC01C801B7010E94BD800E942482D9
:1026100077FF03C0709561957F4FCE01C7964AE062
:1026200050E00E946D4381E3E82EF12CEC0EFD1E7C
:102630008E01095C1F4F832D922DB701A8010E94C6
:102640000212C8010E947B42C7010E947B42CE0158
:102650008B960E947B42CE0185960E947B42CE01E2
:102660004F960E947B42CE0149960E947B42CE014A
:102670000D960E947B42CE0143960E947B42CE0182
:1026800001960E947B42832D922DEC960FB6F89412
:10269000DEBF0FBECDBFCF91DF911F910F91FF9095
:1026A000EF90DF90CF90BF90AF909F908F907F90F2
:1026B0006F905F904F903F902F90089590580E9498
:1026C000F88120E030E040E85FE30E94BE809B019B
:1026D000AC0160E070E080E89FE30E948B81089588
:1026E0000F931F93CF93DF938C01EB0109C02196C9
:1026F000D801ED91FC910190F081E02DC801099580
:1027000068816623A1F7DF91CF911F910F91089502
:10271000EF92FF920F931F93CF93DF938C017B0176
:10272000EA010CC0D7016D917D01D801ED91FC91BA
:102730000190F081E02DC80109952197209791F72C
:10274000DF91CF911F910F91FF90EF900895DC01E1
:10275000ED91FC910280F381E02D09950895089593
:102760002F923F924F925F926F927F928F929F92A1
:10277000AF92BF92CF92DF92EF92FF920F931F938F
:10278000DF93CF93CDB7DEB72C970FB6F894DEBFAB
:102790000FBECDBF4FA02DB63EB6842C9924C401E8
:1027A000880F991F880D991D880F991F2DB73EB767
:1027B000281B390B0FB6F8943EBF0FBE2DBF6DB668
:1027C0007EB60894611C711C8301EE24FF24640111
:1027D0000894C11CD11C04C065E072E00E9445430E
:1027E000C8010894E11CF11C0A5F1F4FEC14FD04A2
:1027F00099F7CE0188966C0110E07E010894E11CE7
:10280000F11C06E013C0F601619171916F01C701DF
:102810000E944543109FC0011124860D971DB701EA
:102820000E94FA42C7010E947B421F5F141558F3B1
:1028300084EF94E10E94E37384EF94E16BA17CA1A7
:102840000E94A7136DA17EA1882777FD8095982F00
:102850000E94074184EF94E10E94AE73B82E882352
:1028600009F458C0ADB65EB6E82EFF24C701019644
:102870002DB73EB7281B390B0FB6F8943EBF0FBEDD
:102880002DBFCDB6DEB60894C11CD11C00E010E00F
:1028900084EF94E10E94BF73F601E00FF11F808383
:1028A0000F5F1F4F0B15A0F3EC0CFD1CF7011082FE
:1028B0008E01095F1F4FC801B6010E944543FF24E6
:1028C00026E0E22E1AC0FE9CB0011124660D771D91
:1028D000C8010E94A9422F2D2F5F97FD0DC0F22E37
:1028E000C8010E947B428A2D952D9C010FB6F89459
:1028F0003EBF0FBE2DBF0FC0F22EF41420F3C8014F
:102900000E947B428A2D952D9C010FB6F8943EBF04
:102910000FBE2DBFFF248401000F111F080D191DCC
:10292000000F111F060D171D0615170531F0065073
:102930001040C8010E947B42F7CF8F2D0FB6F8944C
:102940003EBE0FBE2DBE2C960FB6F894DEBF0FBE56
:10295000CDBFCF91DF911F910F91FF90EF90DF904E
:10296000CF90BF90AF909F908F907F906F905F902F
:102970004F903F902F9008952F923F924F925F92E9
:102980006F927F928F929F92AF92BF92CF92DF927F
:10299000EF92FF920F931F93CF93DF93EC0103E02D
:1029A000B6E08B2EB2E09B2EACE2EA2EA1E0FA2E2E
:1029B000BB24B394FBE0CF2EF2E0DF2EE2E0AE2E9C
:1029C00078ED272E7EE0372E65E3462E62E0562E08
:1029D0005DE3652E52E0752E1D85113009F487C028
:1029E000113038F0123009F4B8C01330A9F781E083
:1029F000FEC02DB73EB7295030400FB6F8943EBF09
:102A00000FBE2DBFEDB7FEB73196ADB7BEB712966C
:102A1000DC93CE93119793828282F582E482B68210
:102A2000D086C7820E94B0132DB73EB7275F3F4FB5
:102A30000FB6F8943EBF0FBE2DBF882309F053C0D8
:102A40008DB79EB709970FB6F8949EBF0FBE8DBF86
:102A5000EDB7FEB73196ADB7BEB71296DC93CE9305
:102A600011972EE032E033832283F582E482B6822E
:102A7000D086C7820E94B013ADB7BEB719960FB605
:102A8000F894BEBF0FBEADBF882379F12DB73EB716
:102A9000295030400FB6F8943EBF0FBE2DBFEDB7A2
:102AA000FEB73196ADB7BEB71296DC93CE931197B1
:102AB00022E132E03383228384EF91E095838483A3
:102AC000B682AAE1B2E0B087A7830E94B0132DB707
:102AD0003EB7275F3F4F0FB6F8943EBF0FBE2DBFE6
:102AE000882309F47CC0AD8677CF01507CC00150AB
:102AF0008DB79EB70B970FB6F8949EBF0FBE8DBFD4
:102B0000EDB7FEB73196ADB7BEB71296DC93CE9354
:102B100011972DE132E03383228335822482A6820D
:102B200050864782728661860E94B013ADB7BEB7E9
:102B30001B960FB6F894BEBF0FBEADBF813011F427
:102B4000AD8651C0882309F04EC06CE271E080E090
:102B500090E00E9407411D8646C02DB73EB7275022
:102B600030400FB6F8943EBF0FBE2DBFEDB7FEB795
:102B70003196ADB7BEB71296DC93CE931197938280
:102B80008282F582E48216820E94B01300D000D0C7
:102B9000EDB7FEB73196ADB7BEB71296DC93CE93C4
:102BA000119727E432E033832283F582E48216838F
:102BB000D086C7828DE492E0928781870E94B0130D
:102BC000ADB7BEB71B960FB6F894BEBF0FBEADBF74
:102BD000813019F4B3E0BD87FFCE823011F4BD8699
:102BE000FBCE1D86F9CE002309F0F6CE80E0DF9102
:102BF000CF911F910F91FF90EF90DF90CF90BF90FA
:102C0000AF909F908F907F906F905F904F903F908C
:102C10002F9008958F929F92AF92BF92CF92DF92A2
:102C2000EF920F93DF93CF93CDB7DEB72D970FB60B
:102C3000F894DEBF0FBECDBF4C010E94D0025E01F2
:102C40000894A11CB11CC50164EF74E120E032ECD2
:102C500041E050E003E0F2E0EF2EEFEACE2EE3E1B8
:102C6000DE2E0E946703D401F5018DE001900D92E4
:102C70008150E1F7F40115862D960FB6F894DEBF6A
:102C80000FBECDBFCF91DF910F91EF90DF90CF902E
:102C9000BF90AF909F908F9008958DE298E00E9432
:102CA0000A160895CF93DF93CBE3D8E0CE010E94BC
:102CB000BD3CCE0103960E94BD3CCE0106960E940B
:102CC000BD3C299688E0C137D80781F781E798E0B5
:102CD0000E94BD3CDF91CF9108958F929F92AF9259
:102CE000BF92CF92DF92EF92FF920F931F93DF93E9
:102CF000CF93CDB7DEB762970FB6F894DEBF0FBEA5
:102D0000CDBF84E00E9476048C0185E00E947604A9
:102D1000000F111F182F100F67E0862E912C8C0EBC
:102D20009D1EC40168E572E00E9445435E0108945F
:102D3000A11CB11CC501612F70E04AE050E00E9467
:102D40006D435DE0C52ED12CCC0EDD1EC601B40155
:102D5000A5010E940212C6010E947742BC0189E1CE
:102D60009AE046E450E020E030E001E0EE24EA940E
:102D7000FE2C0E94A745C6010E947B42C5010E940D
:102D80007B42C4010E947B42105810931C0962963A
:102D90000FB6F894DEBF0FBECDBFCF91DF911F916C
:102DA0000F91FF90EF90DF90CF90BF90AF909F90EA
:102DB0008F900895EF92FF920F931F939B01AC01A8
:102DC00080911E0990911F09A0912009B0912109BD
:102DD00079018A01E81AF90A0A0B1B0BD801C7010D
:102DE0000A97A105B10520F120931E0930931F0910
:102DF00040932009509321090E94D740E0911D097A
:102E0000EE2319F0E13051F405C090931709809337
:102E1000160904C09093190980931809EF5FE170B7
:102E2000E0931D09F0E0EA5BFB4F80810E94BE4009
:102E30001F910F91FF90EF900895CF92DF92EF9244
:102E4000FF920F931F930091220980E00E94EB40B4
:102E5000789490E080912209893008F091E0892FE0
:102E60000E94793DE82E802F63E00E948E88C82E54
:102E7000DD24802F0E948E88092F10E0C801880F62
:102E8000991F800F911F9601B3E0220F331FBA954F
:102E9000E1F72C0D3D1D820F931F855C974F68E273
:102EA0000E944F3EAC01E0912209F0E0EE0FFF1FBF
:102EB000EE0FFF1FFF24E7FCF094E49EC001E59EA7
:102EC000900DF49E900D112468E070E00E94AE8891
:102ED000CF018F52964F0E9448428091220990E084
:102EE000880F991F880F991F9601220F331F2C0DF1
:102EF0003D1D020F131F0C5F164F8F52964FB801E6
:102F000044E00E945C42F89481E00E94EB40809192
:102F100022098F5F62E10E948E889093220980913E
:102F20001A0990911B09019690931B0980931A0925
:102F30001F910F91FF90EF90DF90CF9008950F9326
:102F40001F93CF93DF93082F162F83E0689FE00134
:102F5000112489E0089FC0011124C80FD91FC55C46
:102F6000D74FCE0161E00E944140CE016EE04FEFAD
:102F700053E020E00E94EC3FCE016BE04BE450E0D8
:102F800020E00E94EC3FCE016CE049E550E020E0FB
:102F90000E94EC3FCE016DE041E950E020E00E944C
:102FA000EC3FCE0165E042E350E020E00E94EC3FC0
:102FB000CE016AE141E050E020E00E94EC3FCE010A
:102FC0006BE141E050E020E00E94EC3F1123A9F0CA
:102FD000113099F4033060F4CE016CE140E450E02C
:102FE00020E00E94EC3FCE016DE140E850E010C0CF
:102FF000CE016CE140E850E004C0CE016CE140E459
:1030000050E020E00E94EC3FCE016DE140E450E052
:1030100020E00E94EC3FCE0160E340E250E020E07F
:103020000E94EC3F033070F4113029F4CE0166E0C9
:1030300047EC50E014C01230A9F4CE0166E043E43E
:1030400051E00DC0113029F4CE0168E04BE353E0AC
:1030500006C0123039F4CE0168E04AEB52E020E0BD
:103060000E94EC3F8FE797E20E9431418FE797E2A1
:103070000E9431418FE797E20E9431418FE797E24A
:103080000E943141CE010E94FA3DDF91CF911F9104
:103090000F9108952F923F924F925F926F927F927D
:1030A0008F929F92AF92BF92CF92DF92EF92FF9258
:1030B0000F931F93DF93CF93CDB7DEB7C056D040A9
:1030C0000FB6F894DEBF0FBECDBF29E239E06F9690
:1030D0003FAF2EAF6F973324AA24BB24B1C0D601D3
:1030E0000D911C91F40180819181081B190B09F449
:1030F00087C0232D30E0A1963FAF2EAFA197E1E02E
:10310000F0E0EC0FFD1FE20FF31FD2018C918083E2
:1031100080E0B2E0BA1508F481E00E94793D282EE3
:10312000F4010190F081E02D6D96FFAFEEAF6D9749
:10313000980117FF03C0309521953F4FB9018827AB
:1031400077FD8095982F0E94578229E53CE44BED4E
:1031500052E40E949A847B018C01D3016D917C9191
:10316000882777FD8095982F0E9457829B01AC019C
:10317000C801B7010E948B817B018C0120E030E007
:1031800040E85FE30E94848188231CF461E070E0E2
:1031900011C0C801B70120E030EC4FE754E40E94B1
:1031A000808318161CF46FEF73E004C0C801B701E8
:1031B0000E942482A196EEADFFADA197EE0FFF1FF6
:1031C00021E030E02C0F3D1FE20FF31F822D9927E5
:1031D00087FD9095AC016D96AEADBFAD6D974A9FE2
:1031E000C0014B9F900D5A9F900D11248A5F9D4FF7
:1031F000938B828B77AB66AB3394F601B183A0835C
:1032000022E030E0C20ED31E820E931E0894411CB1
:10321000511C620E731E6F964EAD5FAD6F97C41654
:10322000D50609F05CCF0894A11CB11CC601069616
:103230006F969FAF8EAF6F9796E0A916B10409F114
:10324000C501880F991F8A0D9B1D9C01220F331FFA
:1032500073E2C72E79E0D72EC20ED31E64E7862E06
:1032600068E0962E820E931E50E9452E54E0552EAE
:10327000480E591E48E9642E48E0742E620E731EF3
:103280002ECF332061F0832DBE016F5F7F4FAE01E3
:103290004D5E5F4F9E01295C3F4F0E94043F832D8E
:1032A000C05ADF4F0FB6F894DEBF0FBECDBFCF912F
:1032B000DF911F910F91FF90EF90DF90CF90BF9023
:1032C000AF909F908F907F906F905F904F903F90C6
:1032D0002F9008952F923F924F925F926F927F921C
:1032E0008F929F92AF92BF92CF92DF92EF92FF9216
:1032F0000F931F93DF93CF93CDB7DEB762970FB6CF
:10330000F894DEBF0FBECDBF9E878D877B018E01F7
:103310000F5F1F4FBDE0CB2ED12CCC0EDD1EF70171
:10332000619171917F01882777FD8095982F0E9488
:1033300057822BED3FE049E450E40E949A8420E05C
:1033400030E849E154E40E948B81F8016193719364
:10335000819391938F01EC15FD0509F769857A85B5
:103360008B859C852BED3FE049EC5FE30E94BD809F
:103370000E94888127E431EE4FE353EC0E949A8447
:1033800028E431E24CE453E40E94BE807B018C01CE
:103390000E9453853B014C01C801B7012DEC3CE470
:1033A0004BE852E40E94BD807B018C01C401B30153
:1033B00023E333E343E851E40E949A849B01AC0188
:1033C000C801B7010E948B810E94AF809B01AC01B4
:1033D0006D817E818F8198850E94BD807B018C01EB
:1033E000C8010E9488819B01AC01C401B3010E9405
:1033F0009A8420E030E040EA50E40E94BE806F876B
:10340000788B898B9A8BA980BA80CB80DC80C601AF
:10341000B5010E9488811B012C01B701C8010E94DF
:1034200049857B018C01C601B5010E9449855B017C
:103430006C016F85788989899A89A20191010E941E
:103440009A84ED85FE856083718382839383C401B2
:10345000B301A80197010E949A84ED85FE856483DB
:103460007583868397836F85788989899A89A60170
:1034700095010E949A84ED85FE8560877187828719
:103480009387CF0162960FB6F894DEBF0FBECDBF13
:10349000CF91DF911F910F91FF90EF90DF90CF9030
:1034A000BF90AF909F908F907F906F905F904F9064
:1034B0003F902F9008954F925F926F927F928F92DC
:1034C0009F92AF92BF92CF92DF92EF92FF920F93B3
:1034D0001F93DF93CF93CDB7DEB762970FB6F89403
:1034E000DEBF0FBECDBF2C01662E80E00E94EB40F8
:1034F0006E010894C11CD11C00E010E089E0689EB8
:1035000040011124C801880F991F800F911F880D59
:10351000991D855C974F64E20E944F3EAC018AEF93
:10352000E82E8DEFF82EE40EF51EAA2422E02615D3
:1035300010F4AA24A3948A2D0E94793D992787FD2F
:103540009095FC01EE9DC001EF9D900DFE9D900DAC
:103550001124F601819391936F010F5F1F4F033088
:10356000110581F681E00E94EB40CE010796BE0175
:103570006F5F7F4F0E946A19EF80F88409851A8572
:103580008A2D0E94793DAB84BC84CD84DE846F8417
:10359000788889889A88992787FD9095A92FB92FCF
:1035A000BC01CD010E9457829B01AC01C801B7014B
:1035B0000E949A84F2016083718382839383A48240
:1035C000B582C682D7826086718682869386C20162
:1035D00062960FB6F894DEBF0FBECDBFCF91DF91DC
:1035E0001F910F91FF90EF90DF90CF90BF90AF9021
:1035F0009F908F907F906F905F904F9008952F9243
:103600003F924F925F926F927F928F929F92AF9272
:10361000BF92CF92DF92EF92FF920F931F93DF93AF
:10362000CF93CDB7DEB7E9970FB6F894DEBF0FBEE4
:10363000CDBF60E472E48FE090E00E94983CCC241F
:10364000DD2486E0882E4C2C80E00E94EB40760141
:10365000EE0CFF1CEC0CFD1C80E994E0E80EF91E5A
:10366000C60113E0880F991F1A95E1F78C0D9D1D77
:103670008C01055C174F222433243C01A22CCE017F
:103680000196F70160810E94B73CD801FE01319696
:1036900083E001900D928150E1F7842D6A2D0E9404
:1036A0009F17892B09F47EC080916E008160809302
:1036B0006E0089E19AE062E041E328E30E949145CF
:1036C000B0E14B2E512C4C0E5D1EC2016AE572E03A
:1036D0000E944543AAE06A2E712C6C0E7D1EC30128
:1036E000B6014AE050E00E946D43F6E18F2E912C26
:1036F0008C0E9D1EC401B201A3010E940212ECE1D6
:10370000AE2EB12CAC0EBD1EC50166E672E00E9465
:10371000454372E2C72ED12CCC0EDD1EC601B4018A
:10372000A5010E9402128E01085D1F4FC801B10160
:103730004AE050E00E946D4364E0E62EF12CEC0E6E
:10374000FD1EC701B601A8010E940212C8010E9415
:103750007B42C6010E947B42C5010E947B42C4019C
:103760000E947B42C3010E947B42C2010E947B42B5
:10377000DE2C1F2D8D2D912F0E947742BC0189E1F7
:103780009AE046E450E020E030E001E0EE24EA94E4
:10379000FE2C0E94A74564EF7AE180E090E00E9451
:1037A0000741E8CFC101880F991F820D931D860D37
:1037B000971D855C974F68E141E050E020E00E9452
:1037C000EC3FF3E0AF0E89E19AE06A2D482D0E94AC
:1037D0007C450894211C311C0894E11CF11C0D5FF0
:1037E0001F4F83E02816310409F048CF81E00E9482
:1037F000EB408601000F111F0C0D1D1D000F111F46
:10380000000F111F0454174FCE018E96642D0E9495
:103810005B1AD801FE01BE968CE001900D9281509A
:10382000E1F70894C11CD11C8A9409F00CCF0E94C6
:103830001642E9960FB6F894DEBF0FBECDBFCF910A
:10384000DF911F910F91FF90EF90DF90CF90BF908D
:10385000AF909F908F907F906F905F904F903F9030
:103860002F9008952F923F924F925F926F927F9286
:103870008F929F92AF92BF92CF92DF92EF92FF9280
:103880000F931F93DF93CF93CDB7DEB76E970FB62D
:10389000F894DEBF0FBECDBFEF82F88609871A8786
:1038A0002B873C874D875E876F87788B898B9A8BB8
:1038B000EF80F88409851A85AF84B888C988DA88CA
:1038C0008B859C85AD85BE858B8B9C8BAD8BBE8B94
:1038D000C801B70120E030E040E050E00E94808362
:1038E00087FF04C017FB109517F91095C601B501A5
:1038F000A80197010E948D8320E030E040EA50E467
:103900000E94BD803B014C01C601B501A801970191
:103910000E948B810E945C816F8B788F898F9A8F38
:10392000C401B301A40193010E949A841B012C01DC
:103930006B897C898D899E899B01AC010E949A8448
:103940006B8F7C8F8D8F9E8FC201B1012B8D3C8D33
:103950004D8D5E8D0E94BE807B018C010E9453853F
:103960005B016C01C801B7012DEC3CE44BE852E46B
:103970000E94BD807B018C01C601B50123E333E3C6
:1039800043E851E40E949A849B01AC01C801B7014D
:103990000E948B810E94AF805B016C016B897C89E6
:1039A0008D899E89A40193010E948B810E945C8174
:1039B0007B018C0168E471E28CE493E4A201910143
:1039C0000E94BD802B8D3C8D4D8D5E8D0E94BD80F3
:1039D00027E431EE4FE353E40E948B810E94AF80D5
:1039E00020E030E849E154E40E949A842BED3FE066
:1039F00049E450EC0E948B8120E030E849E953E42F
:103A00000E94BE800E9424827E836D83C601B50120
:103A1000A80197010E94BE8020E030E849E154E40B
:103A20000E949A842BED3FE049E450E40E948B8190
:103A30000E9424827C836B836F89788D898D9A8D17
:103A400020E030E849E154E40E949A842BED3FE005
:103A500049E450E40E948B810E9424827A83698326
:103A600029813A814B815C816D817E8180E090E08B
:103A70006E960FB6F894DEBF0FBECDBFCF91DF912B
:103A80001F910F91FF90EF90DF90CF90BF90AF907C
:103A90009F908F907F906F905F904F903F902F906E
:103AA00008952F923F924F925F926F927F928F92E2
:103AB0009F92AF92BF92CF92DF92EF92FF920F93BD
:103AC0001F93DF93CF93CDB7DEB760970FB6F8940F
:103AD000DEBF0FBECDBF4C01FC0187858823E9F016
:103AE000E180F280038114812581368147815085F0
:103AF00061857285838594850E94321C2F83388767
:103B000049875A876B877C87DE011196FE013796BD
:103B100086E001900D928150E1F744E7242E48E0C1
:103B2000342E38E9432E38E0532E8CEB98E09E87F4
:103B30008D8766247724F4013196F88BEF87F401A2
:103B4000808190E0062C02C0959587950A94E2F753
:103B500080FF63C08785882351F0AD85BE85EF85E2
:103B6000F8898CE001900D928150E1F73BC0530140
:103B7000AA0CBB1CA60CB71CAA0CBB1CAA0CBB1C19
:103B80008CEB98E0A80EB91EC501F401C180D2806B
:103B9000E380F48005811681278130854185528537
:103BA000638574850E947267F501E080F18002816F
:103BB0001381248135814681578160857185828595
:103BC00093850E94321C2F83388749875A876B87D9
:103BD0007C87DE011196FE01379686E001900D92FA
:103BE0008150E1F7F401258536854B815C816D813B
:103BF0007E8189819A81F10191838083F2013183F1
:103C00002083F10153834283F20133832283F10144
:103C100075836483F201358324830894611C711CCD
:103C200086E090E0280E391E480E591EED85FE856F
:103C30003C96FE87ED87F6E06F16710409F07FCFA2
:103C400060960FB6F894DEBF0FBECDBFCF91DF9167
:103C50001F910F91FF90EF90DF90CF90BF90AF90AA
:103C60009F908F907F906F905F904F903F902F909C
:103C70000895FC01EC51FE4F108208956C317105DE
:103C800014F462E00AC06435710514F065E005C003
:103C9000CB016EE070E00E94AE88862F0895AF924F
:103CA000BF92CF92DF92EF92FF920F931F93580132
:103CB000690150E0CB01489FB001499F700D589FAA
:103CC000700D1124882777FD8095982F0E945782C8
:103CD0007B018C01C601B50120E030E040E251E4F7
:103CE0000E948B819B01AC01C801B7010E949A849C
:103CF00020E030E040E651E40E948B817B018C01A2
:103D000020E030E040E050E40E948481882314F4F5
:103D100082E011C0C801B70120E030E040E251E488
:103D20000E948083181614F48AE005C0C801B70108
:103D30000E942982862F1F910F91FF90EF90DF90B4
:103D4000CF90BF90AF9008950F931F93CF93DF93C1
:103D5000EC01FC01E052FE4F10811F3F49F11F5F53
:103D60001083C851DE4F612F70E0882777FD809562
:103D7000982F0E94578220E030E040E850E40E94F3
:103D80009A840E94248279836883C752D1406881D3
:103D90007981C15CD040CE01412F00E010E020E2EB
:103DA00031E40E944F1ECF51DE4F8883C15ED14067
:103DB000C052DE4F8881DF91CF911F910F910895FE
:103DC0000F931F93CF93DF93EC01FC01E052FE4F62
:103DD0001081123048F111501083C851DE4F612F0D
:103DE00070E0882777FD8095982F0E94578220E009
:103DF00030E040E850E40E949A840E942482798353
:103E00006883C752D14068817981C15CD040CE01BE
:103E1000412F00E010E020E231E40E944F1ECF511C
:103E2000DE4F8883C15ED140C052DE4F8881DF9172
:103E3000CF911F910F9108959F92AF92BF92CF9211
:103E4000DF92EF92FF920F931F93DF93CF93CDB743
:103E5000DEB728970FB6F894DEBF0FBECDBF5C016A
:103E60006B019E2CE982FA82B02F0B83A12F1C8359
:103E7000F22F2D83E32F3E83642F4F83752F5887B6
:103E8000092D1F2D2B2F3A2F4F2F5E2F0E945F657C
:103E900088E891E0C80ED91EF501608171818281A8
:103EA0009381F60120813181428153810E949A845D
:103EB0007B018C0188E090E0C80ED91EF501608579
:103EC000718582859385F6012081318142815381FC
:103ED0000E949A849B01AC01C801B7010E94BE8078
:103EE0009058F60152914291329122910E948B8119
:103EF000F5016483758386839783C50128960FB681
:103F0000F894DEBF0FBECDBFCF91DF911F910F910F
:103F1000FF90EF90DF90CF90BF90AF909F9008956B
:103F20007F928F929F92AF92BF92CF92DF92EF9249
:103F3000FF920F931F93DF93CF93CDB7DEB7A49774
:103F40000FB6F894DEBF0FBECDBF4C015B01ED8A0A
:103F5000FE8A0F8B188F622F298F732F3A8F842F31
:103F60004B8F952F5C8F7C2C2E2D3F2D402F512F6A
:103F70000C2D0E94F96B2D8F3E8F4F8F58A369A394
:103F80007AA38BA39CA3DE011196FE017D9688E0A7
:103F900001900D928150E1F7CE01099609811A81B5
:103FA0002B813C814D815E816F8178850E945F65A8
:103FB00028E831E0A20EB31E69857A858B859C8541
:103FC000F50120813181428153810E949A847B01D5
:103FD0008C0128E030E0A20EB31E69897A898B89B2
:103FE0009C89F50121913191419151915F010E948C
:103FF0009A849B01AC01C801B7010E94BE80F50103
:1040000020813181428153810E94BE80905828EFE7
:104010003FEFA20EB31EF501208131814281538111
:104020000E948B816D877E878F87988BC401C9849E
:10403000DA84EB84FC840D851E852F8538894989B7
:104040005A896B897C89A72C0E942A6BC401A4968B
:104050000FB6F894DEBF0FBECDBFCF91DF911F9199
:104060000F91FF90EF90DF90CF90BF90AF909F9017
:104070008F907F9008952F923F924F925F926F9210
:104080007F928F929F92AF92BF92CF92DF92EF92E8
:10409000FF920F931F93DF93CF93CDB7DEB7CC572B
:1040A000D1400FB6F894DEBF0FBECDBF3C017A0100
:1040B0008B018091470990914809A0914909B091DD
:1040C0004A099A01AB01281B390B4A0B5B0B68EEBE
:1040D00071E0660E771ED3018D919C91E8E1FEEFB1
:1040E0006E0E7F1EAA2797FDA095BA2F28173907B5
:1040F0004A075B0710F40C940830E0924709F092ED
:1041000048090093490910934A09A3014C515E4F95
:10411000DA018C91882311F40C940830D301AA5150
:10412000BE4F6D917C911197E2EEF1E06E0E7F1E15
:10413000F301808191812EE13EEF620E731E6817BC
:10414000790710F00C94063045EE51E0640E751EB0
:10415000F30180812BE13EEF620E731E882331F064
:10416000813011F00C94FD2F0C947E2E43EC50E026
:10417000640E751ED3018C91EDE3FFEF6E0E7F1E72
:10418000882309F453C080E090E00E9455827B01AF
:104190008C0128EC30E0620E731ED3012D913D910D
:1041A0004D915C91E8E3FFEF6E0E7F1ECA01B901ED
:1041B0000E94BE809B01AC01C801B7010E948481AE
:1041C0008823A4F5AA24BB24C501880F991F8A0D52
:1041D0009B1D880F991F880F991FF301E80FF91F86
:1041E000E051FF4F885C9E4F860D971DC080D180A7
:1041F000E280F380048115812681378140855185D5
:10420000628573850E9472670894A11CB11CF6E058
:10421000AF16B104C9F6B30168577E4FA3014C56DF
:104220005E4FC301885C9E4F0E94EB6C96EEE92EB8
:1042300091E0F92EE60CF71C2DEB30E0620E731EB8
:10424000D3016D917C91E3E4FFEF6E0E7F1ED701E9
:104250008D919C910E949A88FC01830100581E4F09
:104260002CEB30E0620E731ED3016C91D8018C915F
:1042700090E070E00E949A8823E030E0620E731EA6
:10428000D3012D913C9141E45FEF640E751EBC019A
:10429000629FC001639F900D729F900D1124E817DB
:1042A000F90711F00C941C2AC30180529F4FCD597D
:1042B000DE4F99838883C356D14022243324C559C5
:1042C000DE4F19830883CB56D140C359DE4FF982A4
:1042D000E882CD56D140D301A853BF4FC159DE4F1C
:1042E000B983A883CF56D140F301EF54FF4FCF5885
:1042F000DE4FF983E883C157D140930120523E4FEE
:10430000CD58DE4F39832883C357D140A3014F5383
:104310005F4FCB58DE4F59834883C557D140B30117
:104320006F517E4FC958DE4F79836883C757D1409C
:10433000C3018C539F4FC758DE4F99838883C95759
:10434000D14089EA482E512C460C571C922CC55955
:10435000DE4FA881B981CB56D1408C91F301E80F93
:10436000F11DEB54FF4F808190E0022C02C0959527
:1043700087950A94E2F780FD02C00C94F129C35995
:10438000DE4FE881F981CD56D1406081718180E0B6
:1043900090E00E9455825B016C01C159DE4FA881FB
:1043A000B981CF56D140ED90FD900D911C91C8017F
:1043B000B701A80197010E94BE809B01AC01C60114
:1043C000B5010E94848118166CF420E030E040E8CA
:1043D0005FE3C35ADE4F288339834A835B83CD551D
:1043E000D14022C0C601B50120E030E040E05FE3EB
:1043F0000E949A84A80197010E948B810E945E13FB
:104400002DEC3CEC4CEC5FE30E949A842AE939E9FC
:1044100049E15FE30E94BD80C35ADE4F6883798320
:104420008A839B83CD55D140CF58DE4FA881B98177
:10443000C157D1406D917D918D919C9120E030E0EC
:1044400040E050E00E948481882309F0E7C2F10136
:10445000EE0FFF1FE20DF31DEE0FFF1FEE0FFF1F0C
:10446000E60DF71DE85CFE4FE080F18002811381CC
:104470002481358146815781608571858285938548
:104480000E949865CF5ADE4F2883C155D140CE5A3D
:10449000DE4F3883C255D140CD5ADE4F4883C355D5
:1044A000D140CC5ADE4F5883C455D140CB5ADE4F51
:1044B0006883C555D140CA5ADE4F7883C655D1406E
:1044C000C95ADE4F8883C755D140C85ADE4F9883FA
:1044D000C855D140DE011196FE01EF5AFE4F88E02B
:1044E00001900D928150E1F7ECECF0E06E0E7F1E32
:1044F000D3016D917D918D919C91E4E3FFEF6E0E60
:104500007F1E9058C35ADE4F288139814A815B81D2
:10451000CD55D1400E949A847B018C01D2012C910F
:1045200011963C91119712964C91129713965C91AB
:10453000139714966C91149715967C91159716966F
:104540008C91169717969C910E941065CF5ADE4F5A
:104550002883C155D140CE5ADE4F3883C255D14051
:10456000CD5ADE4F4883C355D140CC5ADE4F5883D5
:10457000C455D140CB5ADE4F6883C555D140CA5A85
:10458000DE4F7883C655D140C95ADE4F8883C75560
:10459000D140C85ADE4F9883C855D140DE011996E4
:1045A000FE01EF5AFE4F88E001900D928150E1F735
:1045B00029813A814B815C816D817E818F819885D3
:1045C000A984BA84CB84DC84ED84FE840F851889A9
:1045D0000E948463CF5ADE4F2883C155D140CE5A02
:1045E000DE4F3883C255D140CD5ADE4F4883C35584
:1045F000D140CC5ADE4F5883C455D140CB5ADE4F00
:104600006883C555D140CA5ADE4F7883C655D1401C
:10461000C95ADE4F8883C755D140C85ADE4F9883A8
:10462000C855D140DE01AF58BF4FFE01EF5AFE4FD3
:1046300088E001900D928150E1F7C359DE4FE88187
:10464000F981CD56D1406081718180E090E00E9477
:1046500055827B018C01C159DE4FA881B981CF56AB
:10466000D1402D913D914D915C91CA01B9010E94BB
:10467000BE809B01AC01C801B7010E94808318165F
:104680000CF0A5C5F101EE0FFF1FE20DF31DEE0FBB
:10469000FF1FEE0FFF1FE454F74FE080F18002810F
:1046A000138124813581468157816085718582859A
:1046B00093850E949865DE01AF5ABE4F2C93FE0190
:1046C000EE5AFE4F3083FE01ED5AFE4F4083FE014D
:1046D000EC5AFE4F5083FE01EB5AFE4F6083FE0101
:1046E000EA5AFE4F7083FE01E95AFE4F8083FE01B5
:1046F000E85AFE4F90839E012F5E3F4FFD0188E0F8
:104700000190D9010D929D018150D1F771E7872E5B
:10471000912C8C0E9D1EF4012081318142815381A8
:104720006481758186819781A988BA88CB88DC8865
:10473000ED88FE880F89188D0E944764DE01AF5A0C
:10474000BE4F2C93FE01EE5AFE4F3083FE01ED5A10
:10475000FE4F4083FE01EC5AFE4F5083FE01EB5AA0
:10476000FE4F6083FE01EA5AFE4F7083FE01E95A54
:10477000FE4F8083FE01E85AFE4F90839401FD01B5
:1047800088E00190D9010D929D018150D1F7E0E8B8
:10479000F1E06E0E7F1ED3018C91E0E8FEEF6E0E0D
:1047A0007F1EF301E80FF11DEB54FF4F208061E7FE
:1047B000C62ED12CCC0EDD1ECE018F559F4FB301DE
:1047C000D601EC901196FC90119712960C911297CD
:1047D00013961C91139714962C91149715963C914F
:1047E000159716964C91169717965C910E941C1F70
:1047F000E0EEF1E06E0E7F1ED3018C9190E0E1EED1
:10480000FEEF6E0E7F1ED3012D913C91829F200101
:10481000839F500C929F500C1124E0E2F1E06E0E49
:104820007F1ED3013C90EFE1FEEF6E0E7F1ED6019E
:104830002C9111963C91119712964C9112971396C8
:104840005C91139714966C91149715967C9115971B
:1048500016968C91169717969C910F2EF0E0EF2EDE
:10486000F0E0FF2EF0E00F2FFFE31F2FF02D0E944E
:104870001065DE01AF5ABE4F2C93FE01EE5AFE4F7B
:104880003083FE01ED5AFE4F4083FE01EC5AFE4F8D
:104890005083FE01EB5AFE4F6083FE01EA5AFE4F41
:1048A0007083FE01E95AFE4F8083FE01E85AFE4FF5
:1048B00090839E01275E3F4FFD0188E00190D90162
:1048C0000D929D018150D1F75DEAA52EB12CAC0E61
:1048D000BD1EC501098D1A8D2B8D3C8D4D8D5E8DB4
:1048E0006F8D78A10E945F65E4ECF0E06E0E7F1E94
:1048F000D3012D913D914D915C91ECE3FFEF6E0E54
:104900007F1EFE01E754FF4F80E090E0A0E0B0E0A2
:1049100080839183A283B383248335834683578323
:1049200080879187A287B3872DB73EB72C50304040
:104930000FB6F8943EBF0FBE2DBFADB7BEB71196F0
:104940008CE001900D928150E1F7CE018B539F4F87
:10495000D501CC901196DC9011971296EC9012979D
:104960001396FC90139714960C91149715961C911E
:10497000159716962C91169717963C91179718969F
:104980004C91189719965C9119971A966C911A97F1
:104990001B967C910E941C63EDB7FEB737970FB64C
:1049A000F894FEBF0FBEEDBF319641EA842E912CE4
:1049B0008C0E9D1E20E030E040E050E0ADB7BEB769
:1049C00011962D933D934D935C9314975582448299
:1049D00036821896FE01EB53FF4F8CE001900D924A
:1049E0008150E1F7C301622DF401A080B180C28043
:1049F000D380E480F580068117812085318542854A
:104A0000538588240E9442052DB73EB72D5E3F4F47
:104A10000FB6F8943EBF0FBE2DBFECC4892D0E9487
:104A20008F69CF5ADE4F2883C155D140CE5ADE4F11
:104A30003883C255D140CD5ADE4F4883C355D1404B
:104A4000CC5ADE4F5883C455D140CB5ADE4F6883D1
:104A5000C555D140CA5ADE4F7883C655D140C95A90
:104A6000DE4F8883C755D140C85ADE4F9883C8555A
:104A7000D140DE01A759BF4FFE01EF5AFE4F88E03B
:104A800001900D928150E1F7F101EE0FFF1FE20D51
:104A9000F31DEE0FFF1FEE0FFF1FE60DF71DE85C85
:104AA000FE4FE080F18002811381248135814681AF
:104AB000578160857185828593850E949865CF5A5C
:104AC000DE4F2883C155D140CE5ADE4F3883C255C0
:104AD000D140CD5ADE4F4883C355D140CC5ADE4F2A
:104AE0005883C455D140CB5ADE4F6883C555D14059
:104AF000CA5ADE4F7883C655D140C95ADE4F8883E3
:104B0000C755D140C85ADE4F9883C855D140DE0101
:104B10009196FE01EF5AFE4F88E001900D92815070
:104B2000E1F729A13AA14BA15CA16DA17EA18FA1C2
:104B300098A5AA96AFACAA97AB96BFACAB97AC962C
:104B4000CFACAC97AD96DFACAD97AE96EFACAE9771
:104B5000AF96FFACAF97E0960FADE097E1961FAD33
:104B6000E1970E948463CF5ADE4F2883C155D1401C
:104B7000CE5ADE4F3883C255D140CD5ADE4F4883DE
:104B8000C355D140CC5ADE4F5883C455D140CB5A7F
:104B9000DE4F6883C555D140CA5ADE4F7883C6556B
:104BA000D140C95ADE4F8883C755D140C85ADE4F1D
:104BB0009883C855D140DE019996FE01EF5AFE4F09
:104BC00088E001900D928150E1F729A53AA54BA507
:104BD0005CA56DA57EA58FA598A9D201AC90119674
:104BE000BC9011971296CC9012971396DC90139765
:104BF0001496EC9014971596FC90159716960C91B8
:104C0000169717961C910E944764CF5ADE4F28834F
:104C1000C155D140CE5ADE4F3883C255D140CD5A0E
:104C2000DE4F4883C355D140CC5ADE4F5883C4551C
:104C3000D140CB5ADE4F6883C555D140CA5ADE4FAA
:104C40007883C655D140C95ADE4F8883C755D140B5
:104C5000C85ADE4F9883C855D140DE01D196FE0177
:104C6000EF5AFE4F88E001900D928150E1F729A99B
:104C70003AA94BA95CA96DA97EA98FA998ADCD5978
:104C8000DE4F08811981C356D1400E94E766CF5A92
:104C9000DE4F2883C155D140CE5ADE4F3883C255EE
:104CA000D140CD5ADE4F4883C355D140CC5ADE4F58
:104CB0005883C455D140CB5ADE4F6883C555D14087
:104CC000CA5ADE4F7883C655D140C95ADE4F888311
:104CD000C755D140C85ADE4F9883C855D140DE0130
:104CE000D996FE01EF5AFE4F88E001900D92815057
:104CF000E1F729AD3AAD4BAD5CAD6DAD7EAD8FAD9D
:104D000021969FAD2197F201A080B180C280D3800F
:104D1000E480F580068117810E948463CF5ADE4FBC
:104D20002883C155D140CE5ADE4F3883C255D14079
:104D3000CD5ADE4F4883C355D140CC5ADE4F5883FD
:104D4000C455D140CB5ADE4F6883C555D140CA5AAD
:104D5000DE4F7883C655D140C95ADE4F8883C75588
:104D6000D140C85ADE4F9883C855D140DE01AF5BB1
:104D7000BF4FFE01EF5AFE4F88E001900D92815027
:104D8000E1F7FE01EF5BFF4F2081FE01EE5BFF4F7D
:104D90003081FE01ED5BFF4F4081FE01EC5BFF4F78
:104DA0005081FE01EB5BFF4F6081FE01EA5BFF4F2C
:104DB0007081FE01E95BFF4F8081FE01E85BFF4FE0
:104DC0009081AA96AFACAA97AB96BFACAB97AC96C6
:104DD000CFACAC97AD96DFACAD97AE96EFACAE97DF
:104DE000AF96FFACAF97E0960FADE097E1961FADA1
:104DF000E1970E944764CF5ADE4F2883C155D140C6
:104E0000CE5ADE4F3883C255D140CD5ADE4F48834B
:104E1000C355D140CC5ADE4F5883C455D140CB5AEC
:104E2000DE4F6883C555D140CA5ADE4F7883C655D8
:104E3000D140C95ADE4F8883C755D140C85ADE4F8A
:104E40009883C855D140DE01AF58BF4FFE01EF5ADD
:104E5000FE4F88E001900D928150E1F7C359DE4F7B
:104E6000A881B981CD56D1406D917C9180E090E0D0
:104E70000E9455827B018C01C159DE4FE881F98186
:104E8000CF56D1402081318142815381CA01B9017D
:104E90000E94BE809B01AC01C801B7010E948481C1
:104EA00018160CF494C1F101EE0FFF1FE20DF31D73
:104EB000EE0FFF1FEE0FFF1FE60DF71DE85CFE4F24
:104EC000E080F18002811381248135814681578100
:104ED00060857185828593850E949865CF5ADE4FE3
:104EE0002883C155D140CE5ADE4F3883C255D140B8
:104EF000CD5ADE4F4883C355D140CC5ADE4F58833C
:104F0000C455D140CB5ADE4F6883C555D140CA5AEB
:104F1000DE4F7883C655D140C95ADE4F8883C755C6
:104F2000D140C85ADE4F9883C855D140DE01A75BF7
:104F3000BF4FFE01EF5AFE4F88E001900D92815065
:104F4000E1F7FE01E75BFF4FE2962FADE297E396B4
:104F50003FADE397E4964FADE497E5965FADE597F7
:104F6000E6966FADE697E7967FADE797E8968FAD4B
:104F7000E897E9969FADE997A080B180C280D38081
:104F8000E480F580068117810E944764CF5ADE4F86
:104F90002883C155D140CE5ADE4F3883C255D14007
:104FA000CD5ADE4F4883C355D140CC5ADE4F58838B
:104FB000C455D140CB5ADE4F6883C555D140CA5A3B
:104FC000DE4F7883C655D140C95ADE4F8883C75516
:104FD000D140C85ADE4F9883C855D140DE01AF5A40
:104FE000BF4FFE01EF5AFE4F88E001900D928150B5
:104FF000E1F7FE01EF5AFF4F208131814281538159
:105000006481758186819781C35ADE4FE880F9807B
:105010000A811B81CD55D1400E941065CF5ADE4FC9
:105020002883C155D140CE5ADE4F3883C255D14076
:10503000CD5ADE4F4883C355D140CC5ADE4F5883FA
:10504000C455D140CB5ADE4F6883C555D140CA5AAA
:10505000DE4F7883C655D140C95ADE4F8883C75585
:10506000D140C85ADE4F9883C855D140DE01A75AB7
:10507000BF4FFE01EF5AFE4F88E001900D92815024
:10508000E1F7F101EE0FFF1FE20DF31DEE0FFF1F21
:10509000EE0FFF1FE60DF71DE85CFE4FE080F1808C
:1050A0000281138124813581468157816085718514
:1050B000828593850E949865CF5ADE4F2883C1551B
:1050C000D140CE5ADE4F3883C255D140CD5ADE4F43
:1050D0004883C355D140CC5ADE4F5883C455D14084
:1050E000CB5ADE4F6883C555D140CA5ADE4F78830C
:1050F000C655D140C95ADE4F8883C755D140C85ADA
:10510000DE4F9883C855D140DE01AF59BF4FFE0135
:10511000EF5AFE4F88E001900D928150E1F7FE01B9
:10512000E75AFF4FDE01AF59BF4F208131814281E5
:1051300053816481758186819781AC901196BC9072
:1051400011971296CC9012971396DC9013971496A1
:10515000EC9014971596FC90159716960C9116974F
:1051600017961C910E948463CF5ADE4F2883C15545
:10517000D140CE5ADE4F3883C255D140CD5ADE4F92
:105180004883C355D140CC5ADE4F5883C455D140D3
:10519000CB5ADE4F6883C555D140CA5ADE4F78835B
:1051A000C655D140C95ADE4F8883C755D140C85A29
:1051B000DE4F9883C855D140DE01AF58BF4FFE0186
:1051C000EF5AFE4F88E001900D928150E1F7CE0139
:1051D0008F529F4FB301E296EFACE297E396FFAC9C
:1051E000E397E4960FADE497E5961FADE597E69655
:1051F0002FADE697E7963FADE797E8964FADE89776
:10520000E9965FADE997C92C0E94901FCD58DE4FFB
:10521000A881B981C357D1408C9190E0CB58DE4F23
:10522000E881F981C557D14020813181829F5001A9
:10523000839FB00C929FB00C1124C958DE4FA881F7
:10524000B981C757D1409C90C758DE4FE881F9819A
:10525000C957D140208131814281538180E090E063
:10526000A0E0B0E0C352DF4F88839983AA83BB8359
:10527000CD5DD040CF51DF4F288339834A835B8394
:10528000C15ED040CB51DF4F88839983AA83BB8313
:10529000C55ED0402DB73EB72C5030400FB6F894C5
:1052A0003EBF0FBE2DBFF101EE0FFF1FE20DF31D3C
:1052B000EE0FFF1FEE0FFF1FE60DF71DE85CFE4F20
:1052C0002F5F3F4FAE0143525F4F8CE0DA010D90EC
:1052D000AD01D9010D929D018150C1F7CE018751D9
:1052E0009F4FC080D180E280F380048115812681A8
:1052F000378140855185628573850E941C63EDB7B7
:10530000FEB737970FB6F894FEBF0FBEEDBF3196CC
:1053100061E070E0022C02C0660F771F0A94E2F78A
:1053200020E030E040E050E0ADB7BEB711962D93DD
:105330003D934D935C931497B582A4829682189600
:10534000FE01E751FF4F8CE001900D928150E1F793
:10535000C301CF52DF4FA880C15DD040CE52DF4F96
:10536000B880C25DD040CD52DF4FC880C35DD04011
:10537000CC52DF4FD880C45DD040CB52DF4FE880A5
:10538000C55DD040CA52DF4FF880C65DD040C952DB
:10539000DF4F0881C75DD040C852DF4F1881C85D1C
:1053A000D040C752DF4F2881C95DD040C652DF4F81
:1053B0003881CA5DD040C552DF4F4881CB5DD040B7
:1053C000C452DF4F5881CC5DD040882483940E9422
:1053D0004205EDB7FEB773960FB6F894FEBF0FBE49
:1053E000EDBF0894211C311CF6E02F16310411F09A
:1053F0000C94A621830100581E4FD8018C9190E097
:10540000F301E80FF91FEE57FE4F21EC30E0620E7A
:10541000731ED3012C912083EAEFFFEF6E0E7F1EE7
:10542000D3016C91E5E4FFEF6E0E7F1E019670E0F4
:105430000E94AE88D8018C93F301EF57FE4F108283
:1054400020E0B30165547F4FAF0113C0D301A20F19
:10545000B11DFD01EE57FE4F8081882311F0815070
:1054600006C0AB54BF4F8C91FA019081890F8083A5
:105470002F5FDB018C91281748F3F301EF54FF4FA6
:10548000608171818281938120E030E040E050E0D2
:105490000E948481882309F07DC0E1E8F1E06E0E6E
:1054A0007F1ED301BC90EFE7FEEF6E0E7F1E75EFFF
:1054B000C72ED12CCC0EDD1EF301E755FF4FC601E0
:1054C000B301E080F180028113812481358146811E
:1054D00057810E941C1F20EE31E0620E731ED30123
:1054E0009C91E0E2FEEF6E0E7F1EFE01EF5CFE4F30
:1054F00080E1DF011D928A95E9F73196D6018CE0B3
:105500000D9001928150E1F7FE01EF5CFE4FB082F9
:105510009587168600D0ADB7BEB712961C921E9224
:10552000119786E69AE080809180A280B380C48043
:10553000D580E680F78000851185228533854485F6
:105540005585668577850E942760E1E8F1E06E0E5B
:105550007F1E0F900F90D3018C91EFE7FEEF6E0E40
:105560007F1E882309F449C5D30112968D919C9121
:105570001397009709F441C5F301E755FF4F0081E8
:1055800011812281338144815581668177810E9416
:10559000DC6733C5F301E053FF4FCF59DE4FF9838A
:1055A000E883C156D140C55ADE4F19821882CB55C7
:1055B000D14093012F573E4FCB59DE4F398328837B
:1055C000C556D14069EA462E512C460C571CA30102
:1055D00040525E4FC959DE4F59834883C756D14068
:1055E00051E4252E51E0352E2C0E3D1EB1016F5F8A
:1055F0007F4FC759DE4F79836883C956D140C55A5A
:10560000DE4F9880CB55D140CB59DE4FA881B98170
:10561000C556D1408C9190E0092C02C09595879594
:105620000A94E2F780FF30C3892D0E948F69CF5A18
:10563000DE4F2883C155D140CE5ADE4F3883C25544
:10564000D140CD5ADE4F4883C355D140CC5ADE4FAE
:105650005883C455D140CB5ADE4F6883C555D140DD
:10566000CA5ADE4F7883C655D140C95ADE4F888367
:10567000C755D140C85ADE4F9883C855D140DE0186
:10568000A759BF4FFE01EF5AFE4F88E001900D92DF
:105690008150E1F7C55ADE4FE881F981CB55D14001
:1056A000EE0FFF1FC55ADE4F28813981CB55D140FF
:1056B000E20FF31FEE0FFF1FEE0FFF1FE454F74F33
:1056C000E080F180028113812481358146815781F8
:1056D00060857185828593850E949865CF5ADE4FDB
:1056E0002883C155D140CE5ADE4F3883C255D140B0
:1056F000CD5ADE4F4883C355D140CC5ADE4F588334
:10570000C455D140CB5ADE4F6883C555D140CA5AE3
:10571000DE4F7883C655D140C95ADE4F8883C755BE
:10572000D140C85ADE4F9883C855D140DE01A758F2
:10573000BF4FFE01EF5AFE4F88E001900D9281505D
:10574000E1F7EA962FADEA97EB963FADEB97EC9633
:105750004FADEC97ED965FADED97EE966FADEE9792
:10576000EF967FADEF97C158DF4F8881CF57D0407C
:10577000C058DF4F9881C058D040AA96AFACAA97C6
:10578000AB96BFACAB97AC96CFACAC97AD96DFAC5D
:10579000AD97AE96EFACAE97AF96FFACAF97E096F5
:1057A0000FADE097E1961FADE1970E948463CF5A59
:1057B000DE4F2883C155D140CE5ADE4F3883C255C3
:1057C000D140CD5ADE4F4883C355D140CC5ADE4F2D
:1057D0005883C455D140CB5ADE4F6883C555D1405C
:1057E000CA5ADE4F7883C655D140C95ADE4F8883E6
:1057F000C755D140C85ADE4F9883C855D140DE0105
:10580000AF57BF4FFE01EF5AFE4F88E001900D9257
:105810008150E1F7CF57DF4F2881C158D040CE5794
:10582000DF4F3881C258D040CD57DF4F4881C35831
:10583000D040CC57DF4F5881C458D040CB57DF4FB2
:105840006881C558D040CA57DF4F7881C658D040CC
:10585000C957DF4F8881C758D040C857DF4F98815C
:10586000C858D040D201AC901196BC9011971296B6
:10587000CC9012971396DC9013971496EC90149793
:105880001596FC90159716960C91169717961C91E5
:105890000E944764CF5ADE4F2883C155D140CE5A6B
:1058A000DE4F3883C255D140CD5ADE4F4883C355B1
:1058B000D140CC5ADE4F5883C455D140CB5ADE4F2D
:1058C0006883C555D140CA5ADE4F7883C655D1404A
:1058D000C95ADE4F8883C755D140C85ADE4F9883D6
:1058E000C855D140DE01A757BF4FFE01EF5AFE4F0A
:1058F00088E001900D928150E1F7C757DF4F288172
:10590000C958D040C657DF4F3881CA58D040C55714
:10591000DF4F4881CB58D040C457DF4F5881CC5817
:10592000D040C357DF4F6881CD58D040C257DF4FBA
:105930007881CE58D040C157DF4F8881CF58D040B2
:10594000C057DF4F9881C059D040CF59DE4F0881F2
:105950001981C156D1400E94E766CF5ADE4F288395
:10596000C155D140CE5ADE4F3883C255D140CD5AB1
:10597000DE4F4883C355D140CC5ADE4F5883C455BF
:10598000D140CB5ADE4F6883C555D140CA5ADE4F4D
:105990007883C655D140C95ADE4F8883C755D14058
:1059A000C85ADE4F9883C855D140DE01AF56BF4F6D
:1059B000FE01EF5AFE4F88E001900D928150E1F711
:1059C000CF56DF4F2881C159D040CE56DF4F3881A6
:1059D000C259D040CD56DF4F4881C359D040CC5634
:1059E000DF4F5881C459D040CB56DF4F6881C5592D
:1059F000D040CA56DF4F7881C659D040C956DF4FD4
:105A00008881C759D040C856DF4F9881C859D040C7
:105A1000F201A080B180C280D380E480F58006814D
:105A200017810E948463CF5ADE4F2883C155D1402D
:105A3000CE5ADE4F3883C255D140CD5ADE4F48830F
:105A4000C355D140CC5ADE4F5883C455D140CB5AB0
:105A5000DE4F6883C555D140CA5ADE4F7883C6559C
:105A6000D140C95ADE4F8883C755D140C85ADE4F4E
:105A70009883C855D140DE01A756BF4FFE01EF5AAB
:105A8000FE4F88E001900D928150E1F7C756DF4F3D
:105A90002881C959D040C656DF4F3881CA59D040F5
:105AA000C556DF4F4881CB59D040C456DF4F58818F
:105AB000CC59D040C356DF4F6881CD59D040C25633
:105AC000DF4F7881CE59D040C156DF4F8881CF5902
:105AD000D040C056DF4F9881C05AD040AA96AFAC94
